:020000040800F2
:10000000580B002045010008B90900080D08000838
:10001000B509000863070008490E00080000000049
:10002000000000000000000000000000ED090008D2
:100030009107000800000000E5090008F109000828
:100040005F0100085F0100085F0100085F01000810
:100050005F0100085F010008930700089707000888
:10006000990700089B0700089D0700085F0100082A
:100070005F0100085F0100085F0100085F010008E0
:100080005F0100085F0100085F0100085F010008D0
:100090005F0100085F0100085F010008A107000878
:1000A0005F0100085F0100085F0100085F010008B0
:1000B000D90A0008DB0A0008DD0A00081108000858
:1000C0005F010008130800085F010008E709000845
:1000D000E9090008430E0008450E0008470E000815
:1000E000950700085F0100085F0100085F01000834
:1000F0005F0100085F010008390B00085F0100087C
:100100005F0100085F010008050B0008EB0900080B
:100110003F0E0008410E0008350B0008370B0008A1
:100120005F0100085F0100085F0100085F0100082F
:10013000DFF80CD000F0C6FA00480047613800082C
:10014000580B00200648804706480047FEE7FEE7B8
:10015000FEE7FEE7FEE7FEE7FEE7FEE7FEE7FEE777
:10016000310A0008310100082DE9F05F0546002042
:1001700092469B4688460646814640241BE0284618
:1001800041464746224600F002F953465A46C01AF5
:10019000914110D311461846224600F0E9F82D1A75
:1001A00067EB01084F4622460120002100F0E0F8ED
:1001B00017EB00094E41201EA4F10104DFDC484684
:1001C00031462A464346BDE8F09FD2B201E000F82E
:1001D000012B491EFBD270470022F6E710B51346EB
:1001E0000A4604461946FFF7F0FF204610BD30B519
:1001F00004460020034600E05B1C934203D2E05C0F
:10020000CD5C401BF8D030BD2DE9FE4F81EA0304E0
:1002100004F0004421F0004100944FF0000B23F063
:10022000004350EA01045ED052EA03045BD0C3F3FA
:100230000A54C1F30A552C44A4F2F3340194A0FBF0
:100240000254C1F3130141F48011C3F3130343F4C7
:10025000801301FB024400FB034E840A970A44EA20
:10026000815447EA8357A4FB076802958D0A05FB72
:1002700007854FEA932C04FB0C542705029D4FEA97
:10028000065847EA1637B5EB08056EEB070C870EE4
:10029000920E47EA811742EA8312A7FB0201B6EBEE
:1002A0000B0164EB00042B0D43EA0C335E1844EBA6
:1002B0001C50DA465146E7FB0201C5F313044FEA2E
:1002C0000B3343EA14534FEA0432019C43EA06031A
:1002D000A4F10C040294009CCDE900B400F076F87F
:1002E00003B0BDE8F08F00200146F9E700F00042BE
:1002F00030F000400AD0C10D01F56071C0F3160066
:1003000042EA0151C20840071143704700200146EC
:100310007047000030B5041E71F1000404DB4FF09B
:100320000044404264EB0101141E73F1000405DB3C
:100330001C464FF00043524263EB0403994208BF4E
:10034000904230BD30B50B460146002020220124EA
:1003500009E021FA02F59D4205D303FA02F5491B93
:1003600004FA02F52844151EA2F10102F1DC30BDA9
:10037000202A04DB203A00FA02F100207047914065
:10038000C2F1200320FA03F3194390407047202A5A
:1003900004DB203A21FA02F00021704721FA02F32F
:1003A000D040C2F12002914008431946704710B571
:1003B000141E73F1000408DA401C41F10001921888
:1003C0005B411A4301D120F0010010BD2DE9F04D31
:1003D00092469B4611B1B1FA81F202E0B0FA80F286
:1003E00020329046FFF7C4FF04460F4640EA0A0059
:1003F00041EA0B0153465A46084313D0114653EACB
:10040000010019D0C8F140025046FFF7C0FF054671
:100410000E46504659464246FFF7AAFF084305D00C
:10042000012004E020463946BDE8F08D0020054358
:1004300046EAE0762C4337430A986305E40AA0EBCA
:1004400008000022FD0A44EA47540A3002D5002081
:100450000146E9E7010510196941DDE90845001980
:100460006941BDE8F04DA2E72DE9FE4F804681EAE3
:100470000300C00F0C46009021F0004123F000451E
:10048000B8EB0200A94105D24046214690461C46E1
:100490000B46024623F00040104347D0270DC7F318
:1004A0000A00C3F30A510290401A019040286BDA07
:1004B000C3F3130040F4801B0098924620B1002340
:1004C000D2EB030A63EB0B0B01985946C0F14002D3
:1004D0005046FFF74DFF06460D4650465946019AD5
:1004E00000F002F910EB08006141002487EA115284
:1004F00084EAE7731A4340D0009A62B3019A012A52
:100500004FEA075215DC001B61EB02014FF000427D
:1005100002EA0752CDE90042001C41F58011324643
:100520002B46FFF753FF03B0BDE8F08F404621464E
:10053000F9E7001B61EB0201001C41F58013001874
:100540005B412018A2F5001747EB030140EAD57084
:10055000B6196D4111E06D084FEA360645EAC075DF
:100560004FEA0752001B61EB0201001C41F58011AC
:1005700049084FEA30000019514132462B4603B07A
:10058000BDE8F04FFFF713BF0098012240000023A1
:10059000D0EB020263EBE073009821464FEAE0746F
:1005A000B8EB000061EB0401E9E783F000435BE78F
:1005B00081F0004158E72DE9F04D81EA030404F091
:1005C000004B21F0004514464FF0000A23F0004193
:1005D00050EA050220D054EA01021DD0C5F30A57A3
:1005E0000246C5F31303C1F31300C1F30A5640F4E6
:1005F000801543F48013A7EB0608101BD64608F2BB
:10060000FD3873EB050002D308F1010801E09218F0
:100610005B41B8F1000F03DA00200146BDE8F08D20
:1006200000204FF48011064684460EE0171B73EB42
:10063000050705D3121B63EB050306434CEA010CC7
:1006400049084FEA300092185B4150EA0107EDD1AA
:1006500052EA030012D082EA040083EA050108434B
:1006600005D0101BAB4106D20122002306E0002278
:100670004FF0004302E06FF0010253101AEB060046
:100680004CEB085110EB0A0041EB0B01BDE8F04DBB
:10069000FFF78DBEC1F30A52C1F3130140F2FF33DD
:1006A00041F480119A4202DA00200146704740F27C
:1006B00033439A42A2F2334202DC5242FFF767BE52
:1006C000FFF756BE064C074D06E0E06840F0010318
:1006D00094E8070098471034AC42F6D3FFF72CFD9E
:1006E0005C6700087C670008202A06DBCB17203AED
:1006F00041FA02F043EAE07306E041FA02F3D04027
:10070000C2F12002914008431946704770B58C1819
:1007100010F8015B15F0070301D110F8013B2A1115
:1007200006D110F8012B03E010F8016B01F8016B02
:100730005B1EF9D12B0705D40023521E0DD401F8FE
:10074000013BFAE710F8013BCB1A921C03E013F8C7
:10075000015B01F8015B521EF9D5A142D8D30020FC
:1007600070BD00BFFEE738B500F03CF804466946AE
:10077000312000F025FA012001F098FF9DF80000DB
:1007800000F00100A04201D1012038BD0020FCE7AB
:100790007047704770477047704770477047000058
:1007A00010B5202002F02CF990B1202002F022F99F
:1007B0000848007860B90848007848B907480068D8
:1007C00007490860012004490870202002F002F95E
:1007D00010BD0000540000204C000020EC0100205F
:1007E0005000002038B56946302000F0E9F99DF846
:1007F000000000F0100000909DF80000001108B902
:10080000012000E000200446204638BD00BFFEE77E
:100810007047704738B50024002000904FF47A7577
:1008200040220421544802F0EDFD80220521524867
:1008300002F0E8FD012240214F4802F011FD0122A3
:1008400080214D4802F00CFD022001F021FF694695
:1008500040F20F1000F0EAF94EF6CC2100988842E1
:1008600003D046A0009900F0F1FA87224A490120FE
:1008700000F0BAFA32201E282AD008DC022851D013
:10088000052844D00A2837D0142856D129E0322828
:1008900015D042280AD064284FD165215E2000F08F
:1008A000BFFA8721612000F0BBFA4FE01D215E20D6
:1008B00000F0B6FA2721612000F0B2FA46E051219B
:1008C0005E2000F0ADFA6E21612000F0A9FA3DE053
:1008D000D6215E2000F0A4FA6E21612000F0A0FA7B
:1008E00034E04FF4D7715E2000F09AFA4FF4F471BF
:1008F000612000F095FA29E040F2E1215E2000F04D
:100900008FFA4FF46271612000F08AFA1EE040F223
:10091000E1315E2000F084FA40F29641612000F05F
:100920007FFA13E040F291515E2000F079FA40F234
:10093000C151612000F074FA08E065215E2000F0EA
:100940006FFA8721612000F06BFA00BF00BF06E05C
:10095000FFF709FF04466D1E012001F099FE0CB956
:10096000002DF5D11CB90DA000F070FA03E00121B3
:10097000862000F031FA38BD000C0140544F463457
:10098000303043204944204572726F723A203078EB
:10099000253034580D0A00001B020020544F463405
:1009A00030304320496E6974204572726F72210D98
:1009B0000A00000000BFFEE77047000010B50028E5
:1009C00007DA0A07140E054A00F00F031B1FD45460
:1009D00003E00A07130E024A135410BD18ED00E09D
:1009E00000E400E0704770477047704770470000B0
:1009F00010B507480068401C0549086008460068B3
:100A000020B90020086003A000F020FA10BD00000B
:100A1000EC010020675F6D696C6C6973B7A2C9FA5D
:100A2000D2E7B3F6A3ACD0E8B5F7D5FB0A000000D7
:100A300008B52648006840F470002449086024483E
:100A4000006840F001002249086000BF20480068AB
:100A500000F002000028F9D000BF1D48406840F0B7
:100A600080001B4948600020009002E00098401C74
:100A7000009000985028F9D31548406840F0900045
:100A8000134948600020009002E00098401C00904C
:100A900000985028F9D300BF0D48406820F00300AB
:100AA0000B494860084600680A4908400849086040
:100AB0004FF41F0088600846006820F4802008601A
:100AC00000204860C86203F037FE08BD88ED00E0F2
:100AD00000100240FFFFF6FE7047704710B501217D
:100AE000064804F0D2F8012806D10121034804F099
:100AF000C9F801200249087010BD0000000800403C
:100B0000E400002010B50121074804F0BEF80128D8
:100B100009D10121044804F0B5F8044800780128FF
:100B200001D10349087010BD000C0040B500002041
:100B300064000020704770477047000070B506469B
:100B40000024002240211D4802F08AFB012001F010
:100B5000ADFD01228021194802F082FB00251DE035
:100B6000012001F0A3FD00224021144802F078FB8F
:100B7000012001F09BFD01224021104802F070FB92
:100B8000012001F093FD6006040E80210B4802F065
:100B9000C7FB08B1601CC4B2681CC5B2082DDFDBFE
:100BA00000224021054802F05BFB012001F07EFDA0
:100BB000304600F04DF8204670BD0000000C0140AA
:100BC00070B504460D4601222946204600F001F882
:100BD00070BD2DE9F04105460E461746002400F091
:100BE00061F8522000F0CAF8C5F3072000F0C6F8FB
:100BF000E8B200F0C3F800F055F8532000F0BEF85A
:100C000000BF0DE0781EA04204D00120FFF796FF40
:100C1000305503E00020FFF791FF3055601CC4B24F
:100C2000BC42EFD300F05CF8BDE8F08138B5054672
:100C30000C4600200090022269462846FFF7C9FFB3
:100C40009DF801009DF8001000EB0120206038BDE8
:100C500010B5044600224021114802F001FB01209A
:100C600001F024FD2CB1002280210D4802F0F8FA99
:100C700004E0012280210A4802F0F2FA0122402118
:100C8000074802F0EDFA012001F010FD002240219A
:100C9000034802F0E5FA012001F008FD10BD000054
:100CA000000C014010B5012240210C4802F0D8FA96
:100CB00001228021094802F0D3FA012001F0F6FC5C
:100CC00000228021054802F0CBFA012001F0EEFC61
:100CD00000224021014802F0C3FA10BD000C01407F
:100CE00010B5002240210E4802F0BAFA00228021FD
:100CF0000B4802F0B5FA012001F0D8FC0122402196
:100D0000074802F0ADFA012001F0D0FC0122802159
:100D1000034802F0A5FA012001F0C8FC10BD000054
:100D2000000C014010B500224021134802F098FA4F
:100D3000012001F0BBFC012240210F4802F090FA93
:100D4000012001F0B3FC80210B4802F0E9FA48B120
:100D500000224021084802F083FA012001F0A6FC9D
:100D6000002010BD00224021034802F079FA012042
:100D700001F09CFC0120F4E7000C014070B5044632
:100D800008251FE004F0800028B1012280211148CD
:100D900002F066FA04E0002280210E4802F060FAB8
:100DA0006006040E012001F081FC01224021094867
:100DB00002F056FA012001F079FC0022402105489A
:100DC00002F04EFA281EA5F10101CDB2DAD1FFF7EB
:100DD000A9FF70BD000C014013B50446012201A912
:100DE000204600F001F81CBD70B504460D461646BD
:100DF000FFF758FF5220FFF7C1FFC4F30720FFF7AA
:100E0000BDFFE0B2FFF7BAFF03E015F8010BFFF7F3
:100E1000B5FF301EA6F10106F7D1FFF761FF70BDE7
:100E200038B505460C46200A8DF80000E0B28DF872
:100E30000100022269462846FFF7D6FF38BD7047F9
:100E4000704770477047704700BFFEE70FB4054B0F
:100E500010B503A9044A029800F0EEF810BC5DF842
:100E600014FB0000DD310008A40200200FB4084B81
:100E700010B504A902AA039800F0DEF8044602A9FE
:100E8000002000F070FC204610BC5DF814FB000050
:100E90006717000802E008C8121F08C1002AFAD12B
:100EA00070477047002001E001C1121F002AFBD1EA
:100EB000704700002DE9FF5F82B00021DDE90430BA
:100EC000020DDDF840B0034318D044F61050A2F2F2
:100ED000FF3242431514119801281FD0A5EB0B00D7
:100EE000401C5FEA000A4FF000064E4FDFF83891D1
:100EF000B046504615D5CAF1000413E011980124FC
:100F00004AA3012801D16FEA0B010298119AC0E9A6
:100F10000031C0E9024206B0BDE8F09FCBF100000D
:100F2000DFE704460021404A491842EB0450CDE96E
:100F3000001012E0E00707D032463B4640464946E3
:100F4000FFF762F98046894632463B46104619460D
:100F5000FFF75AF906460F466410002CEAD1DDE986
:100F60000401DDE90023BAF1000F06DAFFF74CF9BE
:100F700042464B46FFF748F905E0FFF71CFB4246A7
:100F80004B46FFF718FB04460E460022284BFFF79E
:100F9000C1F903D84FF0FF30014607E00022254B8E
:100FA00020463146FFF760FAFFF774FB102409E092
:100FB000002C0ADB0A220023FFF7D6F8039B30320D
:100FC0001A55641E50EA0102F2D1641C039AC4F15E
:100FD00011031444119A012A03D0012208430DD1B0
:100FE0000AE0084304D000204FF0110B119072E783
:100FF000A3EB0B056D1E0DE05B4504DD4FF0000219
:1010000005F1010504E003DA4FF00002A5F1010546
:10101000002AECD002981199C0E90231C0E90045DC
:1010200079E70000000014400000F03F30000000AD
:101030000000F0430000E03F2DE9FF4F95B09B46D4
:101040008946064600250FE2252877D10024274649
:10105000F84A0121059400E0044316F8013F203BC3
:1010600001FA03F01042F7D130782A2811D06FF03E
:101070002F033078A0F13002092A16D8059A44F0DF
:10108000020402EB820203EB42021044761C05903C
:10109000EFE759F8042B0592002A03DA504244F492
:1010A0000054059044F00204761C30782E2816D1A6
:1010B00016F8010F44F004042A280DD06FF02F0217
:1010C0003078A0F13003092B09D807EB870302EB36
:1010D0004303C718761CF3E759F8047B761C307875
:1010E0006C280FD006DC4C2817D068280DD06A2851
:1010F00014D104E0742810D07A280FD10DE044F404
:1011000000140AE044F4801401E044F440147278BE
:10111000824202D104F58014761C761C3078662851
:101120000BD013DC582877D009DC002875D045286F
:10113000F6D04628F4D047281AD19DE118E063285C
:1011400035D0642879D0652812D195E1702873D004
:1011500008DC6728F1D069286FD06E280DD06F2881
:1011600006D1B5E073282CD0752875D0782874D0B6
:101170005A46179990476D1C75E1C4F30250022836
:1011800009D003280DD0D9F8001004280DD00D6027
:1011900009F1040967E1D9F80010EA17C1E9005222
:1011A000F6E7D9F800100D80F2E70D70F0E719F8B6
:1011B000041B8DF8001000208DF80100EA46012084
:1011C00003E059F804AB4FF0FF3061074FF0000126
:1011D00002D40DE008F101018846B9420FDA8045DA
:1011E000F8DB1AF808100029F4D108E008F1010131
:1011F00088468142FADB1AF808100029F6D10598D2
:101200005B46A0EB080721463846179A00F094FA8F
:10121000284400EB080507E04DE029E10DE01AF84D
:10122000010B5A4617999047B8F10108F7D25B466F
:1012300021463846179A13E142E00A220092C4F38D
:1012400002524FF0000A022A08D059F804CB032AB0
:101250004FEAEC710AD00DE029E02AE009F107011C
:1012600021F00702F2E802C1914609E00FFA8CFC76
:101270004FEAEC71042A03D14FFA8CFC4FEAEC716F
:10128000002907DA0A460021DCF1000C61EB0201BB
:101290002D2202E0220504D52B228DF80420012204
:1012A00003E0E20701D02022F7E7904659E00A2147
:1012B00002E010220DE010214FF0000A00910BE037
:1012C00010224FF0000A44F004040827009203E0C3
:1012D00008224FF0000A0092C4F30252022A05D0FD
:1012E00059F804CB0021032A08D009E009F10701CD
:1012F00021F00702F2E802C1914605E01FFA8CFCDA
:10130000042A01D10CF0FF0C4FF00008220728D569
:10131000702806D0009B83F0100353EA0A0305D01F
:101320000EE040228DF80420012208E05CEA010270
:1013300006D030228DF804208DF805000222904658
:10134000009B83F0080353EA0A030AD15CEA010216
:1013500001D1620705D530228DF804204FF0010835
:101360007F1E582804D034A003900EA802900DE0F0
:1013700036A0F9E753466046009AFEF7F5FE84462C
:101380000398825C0298401E029002705CEA0100A1
:10139000F0D1029806A9081A00F1200A600702D5C8
:1013A00024F4803400E00127574502DDA7EB0A0052
:1013B00000E0002000EB0A01009005984144401A2B
:1013C0000590E00306D45B462146179A059800F085
:1013D000B3F90544002706E001A85A46C05D1799F5
:1013E00090476D1C7F1C4745F6DBE0030CD55B4640
:1013F0002146179A059800F09FF9054404E0302033
:101400005A46179990476D1C0099481E0090002974
:10141000F5DC08E0029802995A460078491C0291CE
:10142000179990476D1CBAF10001AAF1010AF1DC8D
:1014300065E1000009280100303132333435363798
:101440003839616263646566000000003031323310
:1014500034353637383941424344454600000000B0
:1014600000F058F90544761C307800287FF4ECAD84
:1014700019B02846BDE8F08F620700D4062709F1AD
:10148000070222F0070CFCE80223E14603F00048C3
:101490005FEA080C02D00FF2702C0DE05FEA045CEA
:1014A00002D50FF2682C07E05FEAC47C02D00FF28D
:1014B000602C01E0AFF2700C4FF0FF3823F00043D6
:1014C000CDF850C065280CD006DC452809D0462848
:1014D0001DD047283DD13DE0662818D067287ED131
:1014E00038E00021112F01DB112000E0781CCDE94C
:1014F000000106A90EA8FFF7DDFCDDE90F010E9A39
:1015000003910021009207F1010A04914DE04FF090
:1015100000400097CDE9011006A90EA8FFF7CAFC0C
:10152000DDE90F0203920E9B11990022DDF80CA059
:101530000093049211B9791C00EB010AB7EB0A0081
:1015400004D4C0F1FF3007F1010A0490AAEB0700B0
:10155000019044E0012F00DA01270021112F01DD65
:10156000112000E03846CDE9000106A90EA8FFF7DA
:10157000A1FCDDE90F010E9A039100210491009274
:10158000BA4621070CD40399514500DA8A46BAF1CC
:10159000010F05DD009AAAF10101515C302908D044
:1015A000B84202DA10F1040F06DA0121CDE9011088
:1015B00015E0AAF10101E9E7002805DC04990144DE
:1015C0000491AAEB000102E0411C514500DD8A466E
:1015D0000499401A401C01904FF0004002902007EF
:1015E00004D40198504501DBCDF8048000208DF82B
:1015F0004F0002980DF14F07B0F1004F25D02B207E
:101600000E9002984FF0020800280CDA4042029037
:101610002D200E9007E00A210298FEF793FE30314C
:10162000029007F8011DB8F10001A8F10108F2DCF1
:1016300002980028EFD1791E0E980870307800F0DB
:10164000200040F0450007F8020D12A8C01B00F171
:1016500007081498007800B1012000EB0A010198F6
:1016600001EBE07105984144401A401E0590E003EB
:1016700006D45B462146179A059800F05DF80544AC
:101680001498007818B15A46179990476D1CE003DA
:1016900024D55B462146179A059800F04DF805447D
:1016A0001CE00498002807DBDDE90301884203DD24
:1016B0000098405C179901E0179930205A469047EE
:1016C000049805F10105401C04900198401E01900A
:1016D00004D12E205A46179990476D1CBAF100018B
:1016E000AAF1010ADDDC05E017F8010B5A4617994B
:1016F00090476D1CB8F10001A8F10108F4DC5B46CD
:101700002146179A0598ABE62D0000002B0000003B
:10171000200000002DE9F041044600251E46174632
:10172000880404D405E039462020B0476D1C641EAF
:10173000F9D52846BDE8F0812DE9F04104460025A1
:101740001E469046C80301D5302700E020278804B4
:1017500004D505E041463846B0476D1C641EF9D5F6
:101760002846BDE8F0810A68531C0B601070704772
:10177000816841F00801816000BF816801F00801C3
:101780000029FAD1816841F00401816000BF8168BD
:1017900001F004010029FAD1704770B504460D46E6
:1017A0002946204600F0CEF870BD70B505460C46BF
:1017B000052322460021284600F0D6F901212846BB
:1017C00000F02CFA0221284600F082F800BF022126
:1017D000284600F081F80028F9D0284600F01AFACF
:1017E00070BD21B1826842F40062826003E08268C9
:1017F00022F400628260704710B50446134820440A
:1018000030B1B0F5806F0CD0B0F5C05F1BD111E0E6
:1018100040F2093002F0E0FE40F2093002F0CCFE66
:1018200012E040F20A3002F0D7FE40F20A3002F035
:10183000C3FE09E040F20F3002F0CEFE40F20F305E
:1018400002F0BAFE00E000BF00BF10BD00DCFEBF2A
:10185000816801F0010119B9816841F001018160DD
:10186000704772B101F001031BB1836843F4801328
:10187000836001F0020393B1836843F40043836003
:101880000DE001F001031BB1836823F48013836032
:1018900001F002031BB1836823F4004383607047A7
:1018A000012902D0022910D107E0836823F46023C4
:1018B000836083681343836008E0836823F4E04314
:1018C000836083681343836000E000BF00BF7047FC
:1018D00002688A43026070470246002013680B408A
:1018E00003B10120704770B504460D4629462046D5
:1018F000FFF75BFF0646304670BD000010B50A21B9
:101900000E48FFF7F0FF0E4908800B210B48FFF748
:10191000EAFF0B4948800C210848FFF7E4FF08491B
:1019200088800D210548FFF7DEFF0549C8800F219B
:101930000248FFF7D8FF0249088110BD002401408A
:10194000FC06002070B505460C464FF4C06002F05E
:1019500023FE02F0F5FE6CB1012C0BD0022C09D055
:10196000032C07D0042C05D0052C03D0062C01D065
:10197000072C04D140F2026002F00EFE18E0082CA1
:1019800001D0092C04D140F2036002F005FE0FE003
:101990000A2C09D00B2C07D00C2C05D00D2C03D011
:1019A0000E2C01D00F2C03D140F2046002F0F4FDA4
:1019B00034B9012303220021654801F0BDFC85E014
:1019C000012C06D1022303220021614801F0B4FC5E
:1019D0007CE0022C06D10423032200215C4801F0A4
:1019E000ABFC73E0032C06D10823032200215848E6
:1019F00001F0A2FC6AE0042C06D11023032200218E
:101A0000534801F099FC61E0052C06D12023032204
:101A100000214F4801F090FC58E0062C06D14023ED
:101A2000032200214A4801F087FC4FE0072C06D131
:101A3000802303220021464801F07EFC46E0082C6A
:101A400006D1012303220021424801F075FC3DE04C
:101A5000092C06D10223032200213E4801F06CFC30
:101A600034E00A2C06D10123032200213A4801F078
:101A700063FC2BE00B2C06D1022303220021364805
:101A800001F05AFC22E00C2C06D104230322002191
:101A9000314801F051FC19E00D2C06D10823032236
:101AA00000212D4801F048FC10E00E2C06D1102337
:101AB00003220021284801F03FFC07E00F2C05D14C
:101AC000202303220021244801F036FC23488542CC
:101AD00004D140F2096002F05FFD0EE0204885422B
:101AE00004D140F20A6002F057FD06E01D4885422D
:101AF00003D140F20F6002F04FFD022002F06AFCB9
:101B00002846FFF779FE00220221284600F095F8CA
:101B100000224FF48071284600F08FF800212846FB
:101B2000FFF75FFE4FF4602201212846FFF7B8FE61
:101B3000012211462846FFF794FE2846FFF788FE4B
:101B4000012000F0A5FD2846FFF712FE70BD000041
:101B500000080140000C0140001001400024014039
:101B600000280140003C0140F0B51D4606290CD27A
:101B7000436B01EB81071F26BE40B34301EB810697
:101B800002FA06F63343436322E00C290ED2036BBC
:101B90008E1F06EB86071F26BE40B3438E1F06EB43
:101BA000860602FA06F63343036311E010290FD2CA
:101BB000C36AA1F10C0606EB86071F26BE40B3439D
:101BC000A1F10C0606EB860602FA06F63343C36261
:101BD0000A2A0CD2046902EB42070726BE40B4432E
:101BE00002EB420605FA06F63443046111E0122ABC
:101BF0000FD2C468A2F10A0606EB46070726BE40CC
:101C0000B443A2F10A0606EB460605FA06F634438B
:101C1000C460F0BD0146C86C80B2704701F001029B
:101C20001AB1826842F48002826001F002021AB1A5
:101C3000826842F4001282607047AAB101F4807396
:101C40001BB1436843F48073436001F480631BB1AC
:101C5000436843F48063436001F00203CBB18368BF
:101C600043F00203836014E001F480731BB1436806
:101C700023F48073436001F480631BB1436823F451
:101C80008063436001F002031BB1836823F0020309
:101C90008360704710B51A48007800B110BD19482C
:101CA000007801282AD100201649087003F0D0FFDF
:101CB00015490860084600683C2808D208460068B4
:101CC00028B112480078401C1049087002E000203A
:101CD0000E4908700E48007880B90C480078032837
:101CE0000CDB00200B4908600B49087001200449F7
:101CF000087000F013F800200449087000BFCDE719
:101D000027000020640000207800002080000020D0
:101D100084000020EC0100202800002010B50120E4
:101D2000044908700448006804490860012000F074
:101D300095F910BDDD000020EC01002060000020BE
:101D40000020014908707047DD00002010B50948E7
:101D5000007868B10848006808490968401A642892
:101D600006D3012000F07AF90348006803490860AF
:101D700010BD0000DD000020EC010020600000200C
:101D800001200549087000200449087004480068D3
:101D90000449086070470000DE000020DF000020DA
:101DA000EC010020E000002010B51848007800B9D0
:101DB00010BD1748006817490968401A42F21071AF
:101DC000884205D900201149087013490870EFE7CF
:101DD0000F4800680F490968401AB0F5FA6F13D927
:101DE0000D48007830B10A4800680C490968401A6B
:101DF000642809D3022000F031F90548006807493A
:101E0000086001200449087000BFD1E7DE0000200F
:101E1000EC0100207C000020DF000020E00000201A
:101E200010B50446012C09D1020204210A4801F030
:101E3000E9FA01221102084801F012FA022C09D134
:101E400022020421044801F0DDFA01225102024875
:101E500001F006FA10BD0000000C01401648808811
:101E60004FF48052B2EB400F02DC501E124A9080B9
:101E700011480088104A528810440F4A9288022361
:101E800003FB02000C4A128910440B4AD2888118C5
:101E900009B90020704708480088074A5288104452
:101EA000054A1289801A044AD288801A6422504353
:101EB00090FBF1F0EEE70000FC06002030B5024692
:101EC000002013460F24002103E053F8215028443A
:101ED000491CA142F9D330BD10B502F031FC2448B1
:101EE00002F096FF0A212348FFF757FC0B212148F7
:101EF000FFF753FC0C211F48FFF74FFC0D211D4835
:101F0000FFF74BFC0F211B48FFF747FC02F05CFF7B
:101F1000012001F069FC022001F066FC032001F0C1
:101F200063FC042001F060FC052001F05DFC06204C
:101F300001F05AFC02F06CFB002001F063FE01206E
:101F400001F060FE03F0A4FF03F0D0FEFEF762FC98
:101F500001F070FF01F060FF01F000FC042000F0D0
:101F600039F80120FFF75CFF0220FFF759FF10BD91
:101F700000380140002401400146082915D2DFE85D
:101F800001F00406080A0C120E10094870470948AF
:101F9000FCE70948FAE70948F8E70948F6E709487D
:101FA000F4E70948F2E70948F0E70948EEE70000DE
:101FB0000C01002012010020150100200601002064
:101FC00003010020090100200F0100200001002072
:101FD0001801002070B504460F48007838B90F4842
:101FE000007820B10E480078A04200D170BD0020DA
:101FF000094908702046FFF7BFFF05462046FFF756
:10200000BBFF0646294600F00DF805480470012084
:102010000249087000BFE9E71B01002028010020E9
:102020002901002070B505460C46284603F04CFFF8
:10203000204603F049FF70BD1CB54FF4E13005495F
:102040000823054ACDE900100421104602F0F0FEF5
:102050001CBD0000004400400008014010B50446CB
:102060002146024802F0BEFF10BD000000440040BF
:1020700010B50B48007888B90A48007802280DD1BD
:102080000948807850B90020084908700120FFF7FE
:10209000A1FF0120064908700349887010BD0000A7
:1020A000270000202A0000209400002028000020A3
:1020B0002500002008480078012809D10748007849
:1020C00030B90748006818B901200549086002E0E6
:1020D0000020034908607047B50000202700002059
:1020E000A400002010B51748007848BB16480078B7
:1020F000032825D11548C07810BB0020144908607A
:10210000144908700120144908701049C870134917
:1021100008600F480068124908600021084601F075
:102120004BFD0021012001F047FD00200D494883AF
:102130000D4908600D4802F03FFD0020FFF74AFFFF
:1021400010BD0000270000202A000020940000207D
:10215000EC0100202800002026000020A80000201C
:102160007C000020A806002020000020000800407D
:1021700010B51548006830BB144880881449098898
:1021800088420CDD1348007848B90420FFF722FF8D
:10219000114800681149086001200E4908700D4877
:1021A000007880B10C4800680C490968401A0C4955
:1021B0000988884207D901200349086000200649A0
:1021C00008600449087010BDAC000020FC06002027
:1021D000CE000020FC000020EC010020F8000020D0
:1021E000D000002010B5F4480078002879D1F348D9
:1021F0000078012803D0F248007801281DD1F14869
:10220000007828B1B3EE0E0AEF4880ED000A04E032
:102210009FEDEE0AEC4880ED000A0520FFF7DAFE9C
:10222000FFF76CFBFFF71AFEE9490860E64A002158
:10223000E748006801F0A0FFF2E0E64800780128D6
:1022400025D10420FFF7C6FEE3480088E349088053
:102250000020488040F2DC5088800020C88008813F
:10226000DF480068DF490988884205D90220D9493A
:1022700008700020DA490860FFF7F0FDD4490860D3
:10228000D14A0021D248006801F076FFC8E0D14869
:102290000078022826D10120FFF79CFE0020CF49BC
:1022A0000880488040F2DC5088800020C880CE48FA
:1022B00000880881CA480068CC490988884205D34B
:1022C0000320C44908700020C5490860FFF7C6FD17
:1022D000BF490860BC4A0021BD48006801F04CFFBE
:1022E0009EE06CE0BB480078032808D10020FFF78F
:1022F00071FE0020B4494883BD49086090E0B548AC
:102300000078042829D10320FFF764FEB94800684B
:10231000B74908600020B1490880488040F2DC508D
:1023200088800020C880B44800880881AC480068D4
:10233000B2490988884205D90520A64908700020BD
:10234000A7490860FFF78AFDA14908609E4A00215D
:102350009F48006801F010FF62E09E480078052861
:102360005ED10020FFF736FEA54800889B49088013
:102370000020488040F2DC5088800020C88008811E
:10238000974800689F49098888420DD900209149E3
:1023900008700120894908700020914908609A4915
:1023A0000860012099490870FFF758FD88490860C6
:1023B000854A00218648006801F0DEFE30E07E4854
:1023C000007802280FD19248007860B9FFF796FA9A
:1023D000FFF744FD7E4908607B4A00217C48006885
:1023E00001F0CAFE1CE074480078012818D1884822
:1023F0000078A8B90320FFF7EDFD00207749088099
:1024000048808880C88040F6C4100881FFF726FD08
:102410006F4908606C4A00216D48006801F0ACFE0D
:102420007C48007804282BD17248008881B20120B2
:1024300001F0C2FB6F48008881B2002001F0BCFBB4
:102440000320FFF7C7FD66480068642817D969486C
:1024500000686749086000205B49C86008614883DC
:1024600001205649087002206A4908705C480068DB
:1024700069490860FFF784FC0120524908709AE01E
:102480004D480078032863D16148007800285FD167
:10249000FFF734FA5148808840F6E301884202DDB4
:1024A00001205E4908705D480078C8B10320FFF73D
:1024B00091FD002049490880488040F2DC50888026
:1024C0000020C88040F24C400881FFF7C7FC40491B
:1024D00008603D4A00213E48006801F04DFE0EE0D4
:1024E000FFF7BCFC3A490860B3EE040A364880EDB9
:1024F000000A02465F213648006801F03DFE32487E
:10250000408B3B490968081A00B2454908802E48AB
:10251000408B37490968084400B242490880404866
:10252000B0F90000002802DA00203D4908803D484B
:10253000B0F90000002802DA00203A490880394842
:10254000B0F900103648B0F9000001F0A7FB32E006
:1025500035480078012806D11A48007818B9334860
:102560000068234908601848408B21490968081A07
:1025700000B22B4908801448408B1D490968084463
:1025800000B2284908802648B0F90000002802DA85
:102590000020234908802348B0F90000002802DA0F
:1025A0000020204908801F48B0F900101C48B0F9ED
:1025B000000001F073FB10BD240000202800002063
:1025C0002500002085000020A806002000000C4205
:1025D0001C00002027000020C4000020FC06002072
:1025E000EC010020BA000020C6000020BC00002042
:1025F00020000020D8000020C8000020C0000020DB
:10260000CA000020C2000020A40000208400002096
:10261000DC000020260000207C000020B700002005
:10262000740000207600002086000020D4000020E6
:1026300012480078F0B101281DD11148006810B986
:1026400001200F4908600E480068012811D10D488B
:102650000068B0F5965F0CD900200A490860074968
:1026600008700749086001200749087000200749E1
:10267000086000E000BF00BF704700002500002098
:1026800090000020EC01002028000020A000002085
:1026900000B97047044A116800BF034A1268521A11
:1026A0008242FAD300BFF4E7EC01002030B50146C6
:1026B00001B930BD4FF0E0239A69104B1B6801FB54
:1026C00003F40F4B1B684B430E4DB3FBF5F31C4457
:1026D00020460FE04FF0E025AB69934202D8D51AAF
:1026E000401B05E04FF0E0256D69ED1A1544401BD5
:1026F0001A4600BF0028EDDC00BFDAE7F801002031
:10270000FC01002040420F002DE9F04707460C462F
:1027100091464FF4C06001F03FFF002211460620B1
:1027200001F0F6FA00221146072001F0F1FA00222A
:102730001146082001F0ECFA00221146092001F0B0
:10274000E7FA002211460A2001F0E2FA00221146BF
:10275000172001F0DDFA00221146282001F0D8FAF6
:102760006748874206D14FF0000840F2026001F04E
:1027700013FF3AE06348874206D14FF0010840F268
:10278000036001F009FF30E05F48874206D14FF057
:10279000020840F2046001F0FFFE26E05B48874239
:1027A00006D14FF0030840F2056001F0F5FE1CE091
:1027B0005748874206D14FF0040840F2066001F006
:1027C000EBFE12E05348874206D14FF0050840F275
:1027D000076001F0E1FE08E04F48874205D14FF065
:1027E00006084FF4C16001F0D7FE012C02D100258C
:1027F000012658E0022C02D10125022653E0042CC8
:1028000002D1022504264EE0082C02D10325082619
:1028100049E0102C02D10425102644E0202C02D1DE
:10282000052520263FE0402C02D1062540263AE02F
:10283000802C02D10725802635E0B4F5807F02D1B7
:1028400008256E012FE0B4F5007F03D109254FF470
:10285000007628E0B4F5806F03D10A254FF4806636
:1028600021E0B4F5006F03D10B254FF400661AE0A8
:10287000B4F5805F03D10C254FF4805613E0B4F516
:10288000005F03D10D254FF400560CE0B4F5804FE6
:1028900003D10E254FF4804605E0B4F5004F02D178
:1028A0000F254FF400462946404600F0EDFC234634
:1028B00003220421384600F03FFDB9F1000F05D195
:1028C00002220021304600F029F810E0B9F1010F92
:1028D00005D100221146304600F020F807E0B9F19A
:1028E000020F04D101220021304600F017F83046D3
:1028F00000F080F8304600F075F8BDE8F087000081
:1029000000080140000C014000100140001401408B
:1029100000180140001C01400020014010B52C4B64
:102920001B6883432A4C2360231D1B688343241D9B
:102930002360231D1B688343241D2360231D1B6804
:102940008343241D236011B101290ED105E0204BE2
:102950001B6803431E4C236008E01D4B1B1D1B68B6
:1029600003431B4C241D236000E000BF00BF22B1C5
:10297000012A0FD0022A27D119E0154B08331B6812
:102980000343134C08342360231D1B688343241D19
:1029900023601AE00E4B08331B6883430C4C083449
:1029A0002360231D1B680343241D23600DE0084B97
:1029B00008331B680343064C08342360231D1B683F
:1029C0000343241D236000E000BF00BF10BD0000D2
:1029D00000040140024909688143014A11607047BF
:1029E00000040140024909680143014A116070472F
:1029F00000040140014908607047000014040140D0
:102A000001460748006800EA0102054814380068DA
:102A100000EA010312B10BB1012070470020FCE76E
:102A2000140401402DE9F0470646884691461F46AA
:102A30004FF0006000EBC62000EB0805042000FB0F
:102A4000075A00BF4FF4407000F0B0FA0028F9D1E7
:102A5000AAEB0500B0F5006F02D30020BDE8F087B7
:102A6000002404E0286849F824002D1D641CBC42A1
:102A7000F8D30120F2E72DE9F04706468846914653
:102A80001F4600F02DFB40F2073000F07FFA4FF0B8
:102A9000006000EBC62000EB0805042000FB075A8D
:102AA000AAEB0500B0F5006F02D30020BDE8F08767
:102AB00000BF284600F0A2FA0028FAD1002409E05D
:102AC00059F82410284600F02DFB0120FFF7E0FD07
:102AD0002D1D641CBC42F3D300F07AFA0120E5E717
:102AE00010B540213648FDF777FB36490988890241
:102AF0000122C2EBD1201023314A0021FFF792FFBF
:102B00002F4800683049884254D12D48FFF7D6F944
:102B10002B49C96B88424DD1294800F0DDF80028C7
:102B200048D0274890ED010A284880ED000A244843
:102B300090ED020A254880ED020A21488089244947
:102B400008801F48C089234908801D48008A2249FF
:102B500008801B48408A214908801948808A2049FA
:102B600008801748C08A1F4908801548008B1E49F5
:102B700008801348408B1D4908801148808B1C49F0
:102B800008800F48C08B1B4908800D48008C1A49EB
:102B900008800B48408C194908800948806A184908
:102BA00008600748C06A1749086008460068164967
:102BB000086003E000F02AF800F0F4F810BD00000F
:102BC00008070020E0F7FF1F05325642A806002044
:102BD000BA000020BC000020BE000020C000002081
:102BE000C2000020C4000020C6000020C800002051
:102BF000CA000020CC000020CE000020D000002021
:102C0000D4000020D8000020200000209FED200AE2
:102C1000204880ED000A9FED200A80ED020A4FF463
:102C2000A5701E4908804FF4AF701D490880C00090
:102C30001C4908804FF4F0701B4908804FF49670CF
:102C40001A49088040F6AC50194908804FF4FA60E0
:102C50001849088040F6B8301749088040101749D5
:102C600008804FF47A701649088040F6B83015494C
:102C70000880C8201449088041F27C50134908603C
:102C80001349086008460068124908607047000050
:102C900000000C42A806002000000000BA0000203E
:102CA000BC000020BE000020C0000020C2000020A8
:102CB000C4000020C6000020C8000020CA00002078
:102CC000CC000020CE000020D0000020D400002046
:102CD000D800002020000020014691ED010AB5EE49
:102CE000C00AF1EE10FA18DB91ED010ADFED2C0AB3
:102CF000B4EEE00AF1EE10FA0FD891ED020AB5EE4B
:102D0000C00AF1EE10FA08DB91ED020ADFED240AA9
:102D1000B4EEE00AF1EE10FA01D90020704788897C
:102D200042F2107290420ED8C88990420BD8088A9D
:102D3000904208D8488A904205D8888A904202D8A2
:102D4000C88B904201D90020E8E7C88AB0F5805FBF
:102D50000BD2088BB0F5805F07D2488BB0F5805F4F
:102D600003D2888BB0F5805F01D30020D6E7088CB2
:102D7000B0F5805F01D30020D0E7488C42F210729A
:102D8000904201D90020C9E742F21072886A90424D
:102D900002D8C86A904201D90020BFE70120BDE7F0
:102DA0000000964300B591B040213C48FDF714FA6D
:102DB0003B483A4908603B4890ED000A084680EDE0
:102DC000010A384890ED020A084680ED020A3648AA
:102DD0000088888135480088C88135480088088285
:102DE0003448008848823448008888823348008804
:102DF000C8823348008808833248008848833248B4
:102E00000088888331480088C88331480088088456
:102E10003048008848843048006888622F4800683D
:102E2000C8620020888400211C48C18400201B49FE
:102E300008630021194841638163FFF74DFF10B912
:102E4000002011B000BD1548FFF738F81349C863DA
:102E50002349098889020122C2EBD12010230F4A9D
:102E60000021FFF708FE08B90020EAE71C4909889D
:102E700089020122C2EBD120102301AA0021FFF711
:102E8000D1FD08B90020DCE7402201A90348FDF785
:102E9000AEF908B10020D4E70120D2E708070020EE
:102EA00005325642A8060020BA000020BC000020CF
:102EB000BE000020C0000020C2000020C40000208E
:102EC000C6000020C8000020CA000020CC0000205E
:102ED000CE000020D0000020D4000020D800002028
:102EE000E0F7FF1F00B50346012200BF00F00CF819
:102EF00002465B1E012A01D1002BF7D1012A00D125
:102F00000422104600BD000000200A49C96801F0F3
:102F1000010109B101200CE00649C96801F0100166
:102F200009B1032005E00349C96801F0040101B1BA
:102F3000022070470020024000B50346012200BF76
:102F400000F00CF802465B1E012A01D1002BF7D1DC
:102F5000012A00D10422104600BD000000200A49C9
:102F6000C96C01F0010109B101200CE00649C96CEE
:102F700001F0100109B1032005E00349C96C01F01B
:102F8000040101B10220704700200240064A02EB12
:102F90009011096800F01F0301229A401143024B6F
:102FA00003EB901211607047002002400146074A6F
:102FB00002EB9110006801F01F0301229A401040BB
:102FC00008B1012070470020FCE70000002002400B
:102FD0000848006940F080000649086106480088FA
:102FE000B0F5007F04D90846006D40F08000086508
:102FF0007047000000200240E0F7FF1F30B5054693
:1030000033480088B0F5007F44D9324885421CD24D
:103010003148FFF767FF0446002C56D12F4800695E
:1030200040F002002D49086108464561006940F002
:10303000400008612848FFF755FF0446274800690B
:1030400020F00200254908613FE02348FFF774FFA4
:103050000446002C39D12148006D40F002001F4980
:10306000086508464565C06900F0020008B10846D9
:1030700045611A48006D40F040001849086516483F
:10308000FFF75AFF04461548006D20F0020013496F
:1030900008651AE01048FFF725FF0446ACB90F4851
:1030A000006940F002000D49086108464561006969
:1030B00040F0400008610848FFF714FF0446074845
:1030C000006920F0020005490861204630BD00007B
:1030D000E0F7FF1FFFFF07080000FF0F002002407E
:1030E0000C48006900F0800020B10B480949486095
:1030F0000A4848600A480088B0F5007F09D90548A9
:10310000006D00F0800020B1034802494864034884
:10311000486470470020024023016745AB89EFCD2A
:10312000E0F7FF1F70B504460D46002627480088CB
:10313000B0F5007F31D92648844217D22548FFF7E1
:10314000D1FE0646002E3ED12348006940F0010022
:103150002149086125601F48FFF7C4FE06461E4846
:10316000006920F001001C4908612CE01948FFF7B4
:10317000E3FE06463EBB1848006D40F001001649CC
:10318000086525601348FFF7D7FE06461248006D14
:1031900020F001001049086515E00E48FFF7A2FE77
:1031A000064686B90C48006940F001000A490861EA
:1031B00025600848FFF796FE06460748006920F09C
:1031C000010005490861304670BD0000E0F7FF1FAF
:1031D000FFFF07080000FF0F0020024070B5044603
:1031E0000D46E1B2054802F0E3FD00BF07210348A8
:1031F00002F02FFE0028F9D0204670BD00380140B3
:103200002DE9F05F00BF134806684FF0E020D0F8CA
:103210001890104800688642F5D14FF0E0204069D0
:10322000A0EB090A0C48AAFB00B001460B4800239A
:1032300002685846FCF798FF04460D464FF47A7032
:10324000A6FB00321F1942EB050838464146BDE88F
:10325000F09F0000EC01002040420F00F40100202C
:1032600070B505460E46144624B13146284600F096
:1032700008F803E03146284600F001F870BD4161CE
:10328000704701617047000010B500228B071C0FCA
:103290000F2303FA04F204290EDA204B9B689343B0
:1032A0001E4CA36023469B688C07240F00FA04F48D
:1032B00023431A4CA3602FE008290EDA174BDB6872
:1032C0009343164CE3602346DB688C07240F00FA17
:1032D00004F42343114CE3601EE00C290EDA0F4B7B
:1032E0001B6993430D4C236123461B698C07240FF4
:1032F00000FA04F42343094C23610DE0074B5B699A
:103300009343064C636123465B698C07240F00FAE4
:1033100004F42343014C636110BD00000000014030
:1033200070B504460D462946204600F063F808B102
:10333000012070BD0020FCE7F0B5044616460025CC
:10334000002201F00F0501F0100747B1042E05D14E
:1033500045F00305E76B1F43E76300E035430020BA
:103360001EE0012787401F40C7B122684FEA800C4A
:103370000F2707FA0CF7BA43870005FA07F73A4315
:10338000282904D1012787401F40676105E04829AB
:1033900003D1012787401F4027612260471CB8B234
:1033A0000828DED3082022E0012787401F40E7B12C
:1033B0006268A0F108074FEA870C0F2707FA0CF79D
:1033C000BA43A0F10807BF0005FA07F73A432829D6
:1033D00004D1012787401F40676105E0482903D1D8
:1033E000012787401F4027616260471CB8B2102840
:1033F000DAD3F0BD02469068084008B1012070475A
:103400000020FCE770B505460C4616463E4885424E
:1034100004D140F2026001F0BFF82EE03B48854243
:1034200004D140F2036001F0B7F826E03848854245
:1034300004D140F2046001F0AFF81EE03548854247
:1034400004D140F2056001F0A7F816E03248854249
:1034500004D140F2066001F09FF80EE02F4885424B
:1034600004D140F2076001F097F806E02C4885424D
:1034700003D14FF4C16001F08FF834B93346032211
:1034800000212846FFF758FF3DE0012C06D13346C6
:10349000032204212846FFF74FFF34E0022C06D117
:1034A0003346032228212846FFF746FF2BE0032C52
:1034B00006D13346032248212846FFF73DFF22E08C
:1034C000042C06D13346032210212846FFF734FF8F
:1034D00019E0052C06D13346032214212846FFF7B4
:1034E0002BFF10E0062C06D1334603221821284674
:1034F000FFF722FF07E0072C05D1334603221C21EA
:103500002846FFF719FF70BD00080140000C01407C
:10351000001001400014014000180140001C01404F
:10352000002001400F48007800B170470E48007835
:1035300030B900200D49086001200B4908700EE0E9
:103540000948007801280AD108480068B0F58C7F46
:1035500005D902200449087000200449086000BF12
:10356000E3E70000DC00002024000020EC01002044
:103570000A460021016821F480611143016070470F
:103580002DE9F05F04460E4692460EB900BFFEE7F5
:10359000022000F055FF07464648B7FBF0F8B8F1A7
:1035A0003C0F01D34FF03C08D4F804B02BF07F0B54
:1035B0004BEA080BC4F804B03F4886421ED83D4889
:1035C000B7FBF0F000F10109B9F13C0F02D33C2048
:1035D000206207E0B9F1020F02D80220206201E068
:1035E000C4F820907000B7FBF0F5042D00D204253C
:1035F000E069C5F30B010843E06158E02F488642BB
:103600002CD84FF4967008FB00F04FF47A71B0FBA1
:10361000F1F0401C2062BAF1000F08D106EB460021
:10362000B7FBF0F5E06920F48040E06109E006EBCB
:10363000C60000EB0610B7FBF0F5E06940F48040EF
:10364000E061C5F30B0008B945F00105E06940F4FD
:103650000040E061E0692843E06128E0C8EB081021
:10366000C0004FF47A71B0FBF1F0401C2062BAF157
:10367000000F08D106EB4600B7FBF0F5E06920F437
:103680008040E06109E006EBC60000EB0610B7FBE6
:10369000F0F5E06940F48040E061E06940F400400A
:1036A000E061E0692843E0610120C4F89000BDE8D2
:1036B000F09F000040420F00A0860100801A060023
:1036C000CAB202617047016841F0010101607047B0
:1036D00010B540F20152914202D1426982690AE07A
:1036E00000EB9112126801F01F040123A3409A43DA
:1036F00000EB91131A6010BD10B5024602EB911059
:10370000006801F01F040123A340184008B1012004
:1037100010BD0020FCE712F1020F02D121F00101DF
:1037200001E041F001010161704730B50C46002114
:10373000016821F0020121430160C3F3090342EA59
:103740000305856030BD016841F4807101607047F8
:10375000016841F4007101607047000010B56421F8
:10376000064801F0A5FA022220210548FEF7CCFF09
:10377000202203210248FFF745FE10BD000C004047
:103780000008014070B5002628E0164800EB06143A
:10379000D4E9010100F058F80546607BA84203D047
:1037A00065730020A07318E0A07B022803DAA07BD9
:1037B000401CA07311E0207BA84205D02573012D89
:1037C00002D10020E07308E0207B28B9E07B18B923
:1037D0000120E073607870BD00BF761C062ED4D344
:1037E000FF20F8E74801002070B50546002424E0DA
:1037F000144800EB04100078A8421DD1114901EBD8
:1038000004118A680F4901EB041148680321FFF78E
:10381000F9FD01200B4901EB04110873094901EB83
:10382000041148730020074901EB0411887305490E
:1038300001EB0411C87302E0641C062CD8D300BF4E
:1038400070BD00004801002070B504460D462946B1
:103850002046FFF765FD08B1012070BD0020FCE7A0
:1038600010B5FEF739FBFEF7E7FBFFF739F901F07A
:10387000F3FB0020FEF7AEFB4FF47A70FEF708FF73
:103880000320FEF7A7FBC820FEF702FF012099499D
:1038900008700A21984801F00BFA00220F211E201F
:1038A00000F036FA21E19548007820B100209349D4
:1038B0000870FEF797FC01F03FFCFEF747FAFEF7B1
:1038C00073FA8F480078D8B18E4800688E4909682D
:1038D000401A032814D300208949087000F08CFE98
:1038E00040B101208949087089480078401C884906
:1038F000087005E02020FFF77DF82020FFF772F820
:103900008248007858B100F077FE40B900207F4926
:1039100008702020FFF76EF82020FFF763F8FEF70D
:10392000C9FBFEF7A5FBFEF7DDFBFEF721FC79489E
:103930000068012828D17848007828BBFFF7F2FDFD
:103940007648007802281FD17548006830B90620F3
:10395000FEF740FB6B4800687149086069480068E1
:103960006F490968401A6F49098888420CD90320B9
:103970006A4908700520FEF72DFB624800686A4915
:10398000086000206649086068480078012825D151
:103990006748006818B95B4800686549086059487D
:1039A000006863490968401AB0F5C87F16D900203D
:1039B0005E490870574908600120574908704D4911
:1039C000087000205B49C86008614883534908704B
:1039D000012059490870002055490860574800687F
:1039E00008B1FEF757F95648007803281AD1554810
:1039F000006818B9434800685249086041480068A7
:103A000050490968401A5049098888420AD900205B
:103A10003C49086004204A490870FEF791F90020EB
:103A2000484908604648007848B94848007830B1AD
:103A300047480068012802D1FEF7FAFD3FE0404800
:103A4000007820BB2F48006842490968401AB0F549
:103A50002F7F1CD940480078012818D104203E4906
:103A6000087000203349C860086148830520FEF7CC
:103A7000B1FA0020394908602249086000220F216C
:103A80001E2000F045F91C4801F09BF817E02C4877
:103A90000078A0B930480078022810D11948006891
:103AA0002C490968401A42F21071884207D9002057
:103AB0002B4908702B49087001202B4908701448C5
:103AC0000078042811D1FA20FEF7E2FD0020094910
:103AD00008700021012000F06FF80021084600F076
:103AE00045F8054801F0DDF800E0DCE600BF002005
:103AF00010BD00002800002000080040E400002065
:103B00004C000020EC010020500000205400002058
:103B10002A000020AC000020DC000020240000204F
:103B2000EC000020CC000020E8000020B7000020BE
:103B3000F0000020A806002086000020A40000203D
:103B400027000020F4000020BE00002025000020F7
:103B5000A00000207C000020260000203000002073
:103B6000DE000020DF000020B500002070B5044614
:103B70000D4642F21070854200DD00E02846054601
:103B800054B92A4600210B4800F02EFB00220121E7
:103B9000084800F029FB0BE0012C09D12A4603213B
:103BA000044800F021FB00220221024800F01CFB27
:103BB00070BD00000034014070B504460D4642F26D
:103BC0001070854200DD00E02846054654B9002209
:103BD00011460B4800F008FB2A460121084800F076
:103BE00003FB0BE0012C09D100220321044800F063
:103BF000FBFA2A460221024800F0F6FA70BD0000E6
:103C00000034014038B5044604BB80220621204818
:103C1000FFF7F8FB402206211D48FFF7F3FB4FF0AA
:103C2000804000F05BFF00204FF47A730C220121EA
:103C30000090184800F02AFB00204FF47A730C2201
:103C400001460090134800F021FB20E0012C1ED11A
:103C5000620206210E48FFF7D5FB220206210C481E
:103C6000FFF7D0FB0C4800F039FF00204FF47A73C7
:103C70000C2203210090074800F008FB00204FF4BD
:103C80007A730C2202210090024800F0FFFA38BD3E
:103C900000100140003401400004004070B50546AA
:103CA0000E4642F21074002D07DDA54200DD25B25C
:103CB000A9B20020FFF780FF0FE0002D09DA604273
:103CC000854201DA604205B2A9B20020FFF74EFF3B
:103CD00003E000210846FFF76FFF002E07DDA64234
:103CE00000DD26B2B1B20120FFF766FF0FE0002E23
:103CF00009DA6042864201DA604206B2B1B20120BE
:103D0000FFF734FF03E000210120FFF755FF70BDEE
:103D10002DE9F04103460D46164600240027A04633
:103D20002A48006800F4E060B0F5E06F03D100BFFE
:103D30004FF0040830E02548006800F4E060B0F57A
:103D4000C06F03D101274FF0030825E01F4800682A
:103D500000F4E060B0F5A06F02D10227B8461BE086
:103D60001A48006800F4E060B0F5806F03D10327C3
:103D70004FF0010810E01548006800F4E060B0F56D
:103D8000407F03D104274FF0000805E04FF4A06006
:103D900000F020F80227B846C7F1040005FA00F445
:103DA000C8F104010F20C8403040044324010848F2
:103DB000C45403F01F01012088405911890001F10A
:103DC000E021C1F80001BDE8F08100000CED00E049
:103DD00000E400E002490143024A1160704700001C
:103DE0000000FA050CED00E070B500240CE00025A1
:103DF00006E00020074901EBC5010855681CC5B263
:103E0000802DF6DB601CC4B2082CF0DB00F0A2F8B9
:103E100070BD0000A802002010B500218D2000F028
:103E200091F90021142000F08DF90021AF2000F05D
:103E300089F910BD10B540F2036000F0ADFB40F20F
:103E4000167000F0A9FB4FF4406303221C213E488A
:103E5000FFF772FA00223D493D48FFF791FB7823B6
:103E6000002211463A48FFF760FC3948FFF72BFC67
:103E70004FF480613648FFF77BFB4FF44870FEF744
:103E800007FC0021AE2000F05DF90021084600F09B
:103E900059F90021102000F055F90021402000F0D0
:103EA00051F90021B02000F04DF90021812000F0EF
:103EB00049F90021FF2000F045F90021A12000F080
:103EC00041F90021A62000F03DF90021A82000F0D2
:103ED00039F900213F2000F035F90021C82000F019
:103EE00031F90021D32000F02DF90021084600F01F
:103EF00029F90021D52000F025F90021802000F0CB
:103F000021F90021D82000F01DF90021052000F042
:103F100019F90021D92000F015F90021F12000F055
:103F200011F90021DA2000F00DF90021122000F033
:103F300009F90021DB2000F005F90021302000F014
:103F400001F9FFF751FF10BD000C0140A0860100F0
:103F50000058004070B500241CE004F1B001C8B264
:103F6000002100F0EFF80021084600F0EBF80021F6
:103F7000102000F0E7F8002508E0084901EBC50132
:103F8000085D012100F0DEF8681CC5B2802DF4DB6D
:103F9000601CC4B2082CE0DB70BD0000A802002049
:103FA00070B504460D4605F1B001C8B2002100F01D
:103FB000C9F8102141EA1410002100F0C3F804F000
:103FC0000F00002100F0BEF870BD00002DE9F047A1
:103FD00007460E469046994600250024A8F1200089
:103FE000C5B27F2F02DD0027B01CC6B2B9F1100F99
:103FF00024D131463846FFF7D3FF002408E004EB14
:104000000511194A505C012100F09CF8601CC4B2F3
:10401000082CF4DB701CC1B23846FFF7C1FF002446
:1040200009E004EB051108310F4A505C012100F052
:1040300089F8601CC4B2082CF3DB12E03146384624
:10404000FFF7AEFF00240AE005EB4501074A02EB4B
:104050004101085D012100F075F8601CC4B2062C16
:10406000F2DBBDE8F08700006C610008445F0008E7
:104070002DE9F04104460F461546984600260FE00C
:10408000AA5D434639462046FFF7A0FF04F1080029
:10409000C4B2782C02DD0024B81CC7B2701CC6B2B2
:1040A000A85D0028ECD1BDE8F08100002DE9F041C9
:1040B00005460E46174600BF40F201612048FFF753
:1040C0001BFB0028F8D11E48FFF73DFB00BF4FF453
:1040D000A0611B48FFF710FB0028F8D06FF0010229
:1040E00029461748FFF717FB00BF40F2015114485B
:1040F000FFF702FB0028F8D040F201511048FFF70B
:10410000E7FA00240DE0315D0D48FFF7D9FA00BF52
:1041100040F207510A48FFF7EFFA0028F8D0601C78
:10412000C4B2BC42EFD30648FFF712FB00BF0448FD
:10413000006800F400700028F9D1BDE8F0810000AB
:104140000058004038B504460D4655B140208DF862
:1041500000008DF80140022269467820FFF7A6FF93
:1041600009E000208DF800008DF801400222694628
:104170007820FFF79BFF38BD30B50B1AD360D2ED26
:10418000000AD36800EE103AB8EEC00A20EE800AAA
:10419000BDEEC00A10EE103AD4681569641B00EE3B
:1041A000104AB8EEC00AD2ED020A20EE200ABDEE97
:1041B000C00A10EE104A23441BB25383D368136124
:1041C000B2F91A3042F21074A34201DD2346538340
:1041D000B2F91A30034CA34202DA4DF6F0035383CE
:1041E00030BD0000F0D8FFFF2DE9F04104460E4637
:1041F00017461748844202D1164805881CE0B4F1DE
:10420000804F02D11348458816E01348844202D1FA
:104210001048858810E01148844202D10D48C588B5
:104220000AE00F48844202D10A48058904E00D489B
:10423000844201D1074845893946284600F014F8E0
:104240008046B1B24246204600F007FCBDE8F0814E
:10425000002C0140480700200004004000080040F6
:10426000000C00400034014002460AB900207047AB
:1042700042F21070814201DB901EF8E701FB02F070
:1042800042F21073B0FBF3F0F1E700002DE9F043C8
:1042900087B005460F4616461C46DDF838804FF4B9
:1042A000C06000F079F94548854209D1012100F04C
:1042B0007FFD40F20B6000F06FF94148048033E06D
:1042C000B5F1804F06D14FF4E06000F065F93C484D
:1042D000448029E03B48854206D140F2017000F05D
:1042E0005BF9374884801FE03748854206D140F2A9
:1042F000027000F051F93248C48015E0334885421D
:1043000006D140F2037000F047F92D4804810BE01C
:104310002F48854208D1012100F04AFD40F20D608E
:1043200000F03AF926484481701E80B2ADF80C00C6
:104330000020ADF80E001020ADF81000601E0590B2
:104340000020ADF812008DF8180003A9284600F0EF
:1043500049FC0020ADF804000120ADF80000002069
:10436000ADF80600ADF80200ADF80800ADF80A009F
:104370006A463946284600F04DFA41462046FFF786
:1043800073FF81464A463946284600F066FB6022A4
:104390003946284600F034FB00223946284600F012
:1043A0006FFB0121284600F003FD284600F02CFA9F
:1043B000284600F006FC07B0BDE8F083002C014061
:1043C000480700200004004000080040000C0040A6
:1043D00000340140184B5968184B1940164BDA6AE3
:1043E00022F000520C2820D2DFE800F0060708096E
:1043F0001F0C1F0D1516171800BF00BF00BF41EAA4
:10440000803113E000BF20F004004FF0805343EAF6
:10441000803319430AE000BF00BF00BF20F00C004A
:1044200041EA803142F0005200E000BF00BF024B81
:104430005960DA627047000000100240FF3FFFEF52
:104440002DE9F04F8CB0074600200A904AA090E872
:10445000004CC068CDE905BECDF810A007900FF262
:104460001C1ADAE9000ACDE9020A0FF2101ADAE999
:10447000000ACDE9000A44484068C0F381000B906F
:104480000B9820B1012804D002283FD103E03F4A15
:104490003EE03E4A3CE03C48406800F4803CBCF5CD
:1044A000803F12D13848C06A00F08048B8F1000F50
:1044B00001D1364B00E0364B3348406800F40039F8
:1044C000B9F5003F02D15B0800E0324B2E4840684E
:1044D000C0F383412C48406800F0006008B141F00F
:1044E00010012948406800F0804008B141F02001E7
:1044F0000F2901D2891C06E00F2903D33E2901D8D8
:10450000491C00E03F2103FB01F201E01F4A00BF0C
:1045100000BF1D484068C0F3031504A8465D22FA99
:1045200006F419484068C0F3022502A8465D24FA43
:1045300006F0099014484068C0F3C2251DF80560D4
:1045400024FA06F0089037B1012F06D0022F06D0CA
:10455000032F0AD106E00A9208E00A9406E00998BF
:104560000A9003E008980A9000E000BF00BF0A9894
:104570000CB0BDE8F08F000000000000000000005B
:1045800001020304060708090010024000127A0025
:10459000006CDC0200093D00064A02EB901109683C
:1045A00000F01F0301229A401143024B03EB9012CB
:1045B0001160704700100240064A02EB9011096832
:1045C00000F01F0301229A409143024B03EB90122B
:1045D0001160704700100240064A02EB9011096812
:1045E00000F01F0301229A401143024B03EB90128B
:1045F000116070470010024010B520210348FEF7FB
:104600008FFE08B9012010BD0020FCE70008014022
:1046100010B5202203210248FEF7F4FE10BD000071
:1046200000080140002000213F4A126842F4803215
:104630003D4B1A6000BF401C3B4A126802F4003137
:1046400019B94FF6FF729042F5D1374A126802F459
:1046500000320AB900BFFEE7334AD26942F0805205
:10466000314BDA61314A126842F440422F4B1A60F2
:104670002D4A52682C4B5A601A4652685A601A46A4
:10468000526842F480625A601A46526822F44032FC
:104690005A601A46526842F440325A601A465268CA
:1046A000234B1A40204B5A601A465268214B1A433A
:1046B0001D4B5A601A46126842F080721A6000BFA1
:1046C000194A126802F00072002AF9D0174A1268DB
:1046D00042F48032154B1A6000BF144A526802F44B
:1046E0008032002AF9D0114A126842F400320F4B8E
:1046F0001A6000BF0D4A526802F40032002AF9D055
:10470000094A526822F00302074B5A601A4652685F
:1047100042F002025A6000BF034A526802F00802E7
:10472000002AF9D0704700000010024000700040DD
:10473000FFFFC3B70000340810B5FFF773FF10BDCB
:1047400070B52048006820490860084600681F4985
:10475000B0FBF1F01E4908601B4800681B49B0FB24
:10476000F1F201FB12001B490860174800684FF482
:104770007A71B0FBF1F4B4F1807F02D316A0FCF79C
:1047800065FB2546681EB0F1807F01D301200FE054
:10479000681E4FF0E02148610F214FF0FF30FCF719
:1047A0000DF900204FF0E02188610720086100200A
:1047B00010B112A0FCF74AFB0021481EFCF7FEF8DE
:1047C00070BD0000CC010020F401002040420F0029
:1047D000F8010020FC010020CAB1D6D3B9FDB8DF32
:1047E000A3ACCEDEB7A8C5E4D6C3316D73D6D0B6C0
:1047F000CFA3ACD0E8B5F7D5FB0A0000C5E4D6C31B
:10480000CAA7B0DC0A000000016841F08001016025
:104810007047000010B531B101293FD002297DD089
:1048200003297CD1BFE0036A23F00103036283699B
:1048300023F003038361036A148823430362036A3A
:1048400023F002030362036A9488234303626A4BE2
:10485000984202D0694B98421FD1036A23F00403A7
:104860000362036A548823430362036A23F0080344
:104870000362036AD48823430362436823F480738A
:1048800043604368148923434360436823F40073FF
:1048900043604368548923434360ABE0036A23F0D9
:1048A00010030362836923F440738361036A1488ED
:1048B00043EA04130362036A23F020030362036ADA
:1048C000948843EA041303624B4B984202D04B4B4B
:1048D000984226D1036A23F040030362036A548896
:1048E00043EA04130362036A23F080030362036A4A
:1048F000D48843EA04130362436823F4806343606B
:104900004368148943EA84034360436823F40063E3
:1049100043604368548943EA840301E002E068E0AD
:10492000436067E0036A23F480730362C36923F082
:104930000303C361036A148843EA04230362036A1E
:1049400023F400730362036A948843EA0423036236
:10495000294B984202D0294B984223D1036A23F471
:1049600080630362036A548843EA04230362036A90
:1049700023F400630362036AD48843EA04230362D6
:10498000436823F4805343604368148943EA041363
:104990004360436823F4005343604368548943EA07
:1049A0000413436026E0036A23F480530362C3695F
:1049B00023F44073C361036A148843EA0433036237
:1049C000036A23F400530362036A948843EA0433BE
:1049D0000362094B984202D0084B984208D14368C1
:1049E00023F4804343604368148943EA841343609B
:1049F00000E000BF00BF10BD002C014000340140AA
:104A000031B101290CD0022913D0032922D118E099
:104A1000836923F0700383618369134383611AE020
:104A2000836923F4E0438361836943EA022383615A
:104A300011E0C36923F07003C361C3691343C36109
:104A400009E0C36923F4E043C361C36943EA022375
:104A5000C36100E000BF00BF704731B1012906D03B
:104A6000022906D0032908D105E0426306E08263EB
:104A700004E0C26302E0026400E000BF00BF7047D0
:104A800031B101290CD0022913D0032922D118E019
:104A9000836923F0080383618369134383611AE008
:104AA000836923F400638361836943EA022383619A
:104AB00011E0C36923F00803C361C3691343C361F1
:104AC00009E0C36923F40063C361C36943EA0223B5
:104AD000C36100E000BF00BF7047000010B504468E
:104AE0003349601A8C4244D00CDCB4F1804F1CD0A6
:104AF0003048204410B3B0F5806F28D0B0F5006F77
:104B000052D12DE0B0F5806F3CD0B0F58E3F03D090
:104B1000B0F5923F48D13EE040F20B30FFF75CFD2C
:104B200040F20B30FFF748FD3FE04FF48060FFF7A5
:104B300053FD4FF48060FFF73FFD36E040F2014047
:104B4000FFF74AFD40F20140FFF736FD2DE040F24D
:104B50000240FFF741FD40F20240FFF72DFD24E047
:104B600040F20340FFF738FD40F20340FFF724FD19
:104B70001BE040F20440FFF72FFD40F20440FFF736
:104B80001BFD12E040F20540FFF726FD40F2054014
:104B9000FFF712FD09E040F20D30FFF71DFD40F276
:104BA0000D30FFF709FD00E000BF00BF10BD0000A1
:104BB0000010004000FCFFBF016821F0010101600E
:104BC0007047016841F0010101607047CA4302610A
:104BD000704702461069084008B101207047002064
:104BE000FCE700000A8882621D4A90420ED0B0F1B4
:104BF000804F0BD01B4A904208D01B4A904205D0F0
:104C00001A4A904202D01A4A90420BD1026822F00E
:104C10007002026002684B881A43026002688B8847
:104C20001A4302608A68C262124A90420AD0124A4B
:104C3000904207D0026822F4407202600268CB887A
:104C40001A430260064A904202D0094A904201D1BA
:104C50000A7B0263426942F0010242617047000030
:104C6000002C01400004004000080040000C0040FF
:104C7000003401400010004000140040C2680A43A4
:104C8000C2607047CA43026170470246D06800EABA
:104C900001031069084010B10BB1012070470020DA
:104CA000FCE710B504462046FFF786FF10BD000064
:104CB0007FB504460D46B4F1804F09D1002211465C
:104CC0001C20FFF725F84FF4E060FFF765FC3FE09C
:104CD0003248844209D1002211461D20FFF718F8FE
:104CE00040F20170FFF758FC32E02D48844209D1B0
:104CF00000220F211E20FFF70BF840F20270FFF791
:104D00004BFC25E02748844209D10022114632207D
:104D1000FEF7FEFF40F20370FFF73EFC18E022486A
:104D2000844209D1002211463620FEF7F1FF40F2FD
:104D30000470FFF731FC0BE01C48844208D10022CC
:104D400011463720FEF7E4FF40F20570FFF724FC20
:104D50002046FFF7C3FE7720ADF800000020ADF835
:104D60000200ADF8040005EB4500C0EBC5100121C1
:104D7000C1EBC00002900020ADF806006946204655
:104D8000FFF730FF01212046FFF77CFF012120467D
:104D9000FFF774FF2046FFF714FF7FBD00040040BB
:104DA00000080040000C00400010004000140040CB
:104DB000012904D1426C42F40042426403E0426C97
:104DC00022F40042426470479FED0C0A0C4880EDCB
:104DD000000A9FED0C0A80ED010A9FED0A0A80EDA2
:104DE000020A00200649C8600861486108834883B8
:104DF00005480068054908607047000000000C4243
:104E0000A806002000000000D8000020200000209C
:104E10001CB504464FF4E1304FF48063034A51154A
:104E2000CDE90040104600F003F81CBD0008014029
:104E30002DE9F04705460F4614469846DDE9086916
:104E40004FF4C060FFF7A8FB5A48864204D140F2F5
:104E50000E60FFF7A1FB1EE05748864204D140F2E6
:104E60001170FFF799FB16E05448864204D140F2D6
:104E70001270FFF791FB0EE05148864204D140F2D8
:104E80001370FFF789FB06E04E48864203D140F2DB
:104E90001470FFF781FB4C48854204D140F2026058
:104EA000FFF77AFB2EE04948854204D140F20360C7
:104EB000FFF772FB26E04648854204D140F20460C9
:104EC000FFF76AFB1EE04348854204D140F20560CB
:104ED000FFF762FB16E04048854204D140F20660CD
:104EE000FFF75AFB0EE03D48854204D140F20760CF
:104EF000FFF752FB06E03A48854203D14FF4C16008
:104F0000FFF74AFB3B46032218212846FEF714FA16
:104F10002D48844204D140F20260FFF73DFB2EE0B1
:104F20002A48844204D140F20360FFF735FB26E0B3
:104F30002748844204D140F20460FFF72DFB1EE0B5
:104F40002448844204D140F20560FFF725FB16E0B7
:104F50002148844204D140F20660FFF71DFB0EE0B9
:104F60001E48844204D140F20760FFF715FB06E0BB
:104F70001B48844203D14FF4C160FFF70DFB434649
:104F8000032204212046FEF7D7F9304600F014FF33
:104F90004946304600F0C4FE0421304600F068FF68
:104FA0000821304600F06CFF304600F04DFFBDE8B0
:104FB000F0870000003801400044004000480040F5
:104FC000004C00400050004000080140000C01402F
:104FD000001001400014014000180140001C014075
:104FE0000020014070B504460D462946204600F0D9
:104FF000DFFE00BF0721204600F02BFF0028F9D07C
:1050000070BDB0EE402A72EE202AB0EE620AB4EE15
:10501000C10AF1EE10FA01D2B0EE410AB4EEE10A93
:10502000F1EE10FA01DDB0EE610A704730B50446CA
:105030000D466119914200DA1146994200DD194688
:1050400088B230BD30B504466018904200DA104690
:10505000984200DD184630BD10B5002007490870A1
:1050600007490870074908700120074908700020A7
:105070008870C8704870FEF7B7FE10BDC3010020ED
:10508000C4010020C5010020C601002010B5FEF7B4
:1050900079FB10BD70B50446FDF784FE0546FEF7AA
:1050A000A3FE35B1102313A20221184600F036F8F2
:1050B00005E0102312A20221184600F02FF8FA2072
:1050C000FDF7E6FA012011490870114804700078D4
:1050D000032804D90E480078C01EC0B200E00020AA
:1050E0000C49087001200C49087000208870C870B5
:1050F000487070BD504152414D20534156454400C7
:1051000053415645204641494C454400C3010020C7
:10511000C4010020C5010020C60100202DE9F04196
:1051200004460D4616461F463B4632462946204653
:10513000FEF79EFFBDE8F081F0B52DED028B89B042
:10514000FFF7A4FF0546FE48007805280DD1FD486D
:105150000078401CC0B2FB4908700A2805DD012018
:10516000F949C8700020F7490870FF2D76D0F4483F
:10517000007806280DD2DFE800F0030D8AF9FAF670
:105180000120EF4908700020F04908700120EE4925
:10519000087091E20420012D1BD1EC490978002907
:1051A00003DDEA490978491E00E0411EE74A117013
:1051B00011460978E64A1278914207DAE3490978FC
:1051C000E34A11700121E04A517002E00121DE4AF8
:1051D0009170022D27D1411EDC4A1278914203DDE5
:1051E000DA490978491C00E00021D84A11701146BB
:1051F0000A78D7490978091D8A4208DBD34909781A
:10520000C91ED34A11700121CF4A517002E0012119
:10521000CD4A9170CD49097829B90021CC4A117045
:105220000121C94A5170042D05D10021C44A1170D1
:105230000121C54A1170052D01D0032D26D1C34986
:10524000097819B90221BE4A117017E0BF490978DF
:10525000012904D10321BA4A11700FE02DE2BB49A4
:105260000978022903D10421B54A117006E0B74933
:105270000978032902D10521B14A11700021B34AEE
:105280001170B34A11700121AF4A117014E2012D5F
:105290000DD1AE480078002803DDAC480078401EF0
:1052A00000E00120A94908700120A7498870022D5B
:1052B0000DD1A6480078012803DAA4480078401CE4
:1052C00000E00020A149087001209F498870032D4B
:1052D00001D1012004E0042D01D1681F00E000206D
:1052E0000446D4B399480078C0B901EE104AB8EE2C
:1052F000C11AF7EE001A21EE211AF0EE410A954884
:1053000090ED001AB0EE410ADFED931A9FED931A6B
:10531000FFF777FE8F4880ED000A1BE08B4800788E
:10532000012817D101EE104AB8EEC11AF7EE001AA3
:1053300021EE211AF0EE410A864890ED021AB0EEF5
:10534000410ADFED851A9FED851AFFF75AFE814865
:1053500080ED020A01207C49C870052D02D1002091
:10536000FFF798FEA8E196E101E0FFE700BF74486F
:105370000078032801D1092000E005200646012D10
:105380002BD172480078002803DD70480078401E59
:1053900000E0701E6D490870084600786C49097875
:1053A000884207DA6948007869490870012066492F
:1053B000487012E06548017865480078001D814218
:1053C00008DB62480078C01E6149087001205E4910
:1053D000487002E001205C498870022D27D1701EC0
:1053E0005A490978884203DD58480078401C00E09B
:1053F0000020564908700846017855480078001D7D
:10540000814208DB51480078C01E514908700120D4
:105410004D49487002E001204B4988704B480078A4
:1054200028B900204A490870012047494870032DD7
:1054300001D1012004E0042D01D1681F00E000200B
:105440000446002C79D03E480078032876D13F48A6
:10545000007860B904EB8400410042F2107300222E
:105460003F480088FFF7E2FD3D49088003E13748E7
:10547000007801280CD104EB8400410042F2107343
:10548000002238480088FFF7D1FD36490880F2E055
:105490002E48007802280CD104EB8400410042F22F
:1054A0001073002230480088FFF7C0FD2E490880A5
:1054B000E1E02648007803280CD104EB8400410089
:1054C00042F21073002229480088FFF7AFFD2749F8
:1054D0000880D0E01D48007804280CD104EB84003B
:1054E000410042F21073002221480088FFF79EFD20
:1054F0001F490880BFE01548007805280CD13220EC
:1055000004FB00F140F6FF7300221A480088FFF701
:105510008DFD18490880AEE00C48007806282DD192
:10552000322004FB00F140F6FF730022124800888D
:10553000FFF77CFD104908809DE09FE040E00000FF
:10554000C3010020CA010020C6010020C4010020C0
:10555000C5010020A80600200000964300000000BE
:10556000BA000020BC000020BE000020C0000020C7
:10557000C2000020C4000020C6000020FA480078C5
:1055800007280CD1322004FB00F140F6FF73002203
:10559000F6480088FFF74AFDF44908806BE0F248BE
:1055A0000078082867D1322004FB00F140F6FF7331
:1055B0000022EF480088FFF739FDED4908805AE0E6
:1055C000EC480078042856D1E748007860B904EB2D
:1055D0008400410042F210730022E7480088FFF780
:1055E00025FDE549088046E0DF48007801280CD118
:1055F000642004FB00F142F210730022DF480068CF
:10560000FFF720FDDD49086035E0D7480078022823
:1056100010D1642004FB00F142F210730022D8483C
:105620000068FFF70FFDD649086008460068D549B5
:10563000086020E0CC48007803280CD1322004FB1D
:1056400000F140F6FF730022CF480088FFF7EEFC20
:10565000CD4908800FE0C448007804280BD104EB42
:105660008400410042F210730022C8480088FFF70E
:10567000DDFCC64908800120C5494870052D09D1C7
:10568000BC490978032901D1012100E00221084623
:10569000FFF700FD10E0052D01D0042D0BD10120F6
:1056A000B44908700320B04908700020B949087057
:1056B0000120B749087000BF00BFB548007860B945
:1056C000B348807848B9B248C07830B9B04840781B
:1056D00018B909B0BDEC028BF0BDAD48007840B3FD
:1056E000FEF782FBA348007810B102281AD10CE023
:1056F0001023A9A200211846FFF710FD0823AAA233
:1057000006211820FFF70AFD0DE01023A9A20021B1
:105710000820FFF703FD1023A8A202210820FFF7AD
:10572000FDFC00E000BF00BF012099498870C870EF
:1057300048709748407800286FD08E48007801283C
:1057400007D08C480078032803D08A4800780428C2
:1057500063D188480078012801D1042006E08548FB
:105760000078032801D1092000E005200746002623
:10577000BAE0884800783044C4B27006010E1023A5
:1057800090A20020FFF7CAFCBC4200DBAAE07948E7
:10579000007801281AD124B98FA101A8FBF766FB74
:1057A00098E0012C04D18FA101A8FBF75FFB91E0E9
:1057B000022C04D18EA101A8FBF758FB8AE0032C30
:1057C00003D18FA101A8FBF751FB83E06948007862
:1057D000032850D134B98E4802888EA101A8FBF766
:1057E00045FB77E0012C06D18D4802888DA101A8E8
:1057F000FBF73CFB6EE0022C06D18D4802888DA1A0
:1058000001A8FBF733FB65E0032C07D18C48028825
:105810008CA101A8FBF72AFB5CE06CE0042C06D10C
:105820008B4802888BA101A8FBF720FB52E0052CD6
:1058300006D18B4802888BA101A8FBF717FB49E032
:10584000062C06D18A4802888AA101A8FBF70EFB24
:1058500040E0072C06D14548028889A101A8FBF742
:1058600005FB37E0082C35D14148028887A101A803
:10587000FBF7FCFA2EE03F48007804282AD134B91F
:105880003D48028884A101A8FBF7F0FA22E0012C30
:1058900006D13A4883A1026801A8FBF7E7FA19E0AC
:1058A000022C06D1364882A1026801A8FBF7DEFA75
:1058B00010E0032C06D13448028880A101A8FBF730
:1058C000D5FA07E0042C05D1304802887EA101A852
:1058D000FBF7CCFA7006010E102301AA0820FFF78F
:1058E0001DFC00BF701CC6B2042EFFF642AF0120A3
:1058F0002749887000BF2648C07810B9244800782E
:1059000078B31C48007802282CD1724890ED000A28
:1059100010EE101A0846FAF7E9FC41EC180B53ECAC
:10592000182B6DA101A8FBF7A1FA102301AA0021F1
:105930004020FFF7F3FB674890ED020A10EE101AC3
:105940000846FAF7D3FC41EC180B53EC182B62A174
:1059500001A8FBF78BFA102301AA02214020FFF7D0
:10596000DDFBF3E0BCE00000C4010020C800002023
:10597000CA000020C3010020CC000020D400002079
:10598000D800002020000020CE000020D000002001
:10599000C6010020C5010020534D4152542043410F
:1059A00052205632000000005B50555348204D45B0
:1059B0004E555D0054726B5F503A000054726B5F3D
:1059C000443A0000202020202020202020202020D9
:1059D0002020202000000000312E50494420536533
:1059E00074730000322E41766F6964204F62730039
:1059F000332E526F756E642F53706565640000001E
:105A0000342E416C6C2053656E736F72730000000E
:105A1000BA000020544176313A20252D357500001A
:105A2000BC000020544176323A20252D3575000007
:105A3000BE000020544176333A20252D35750000F4
:105A4000C0000020544176343A20252D35750000E1
:105A5000C2000020544176353A20252D35750000CE
:105A6000C4000020414176313A20252D35750000D3
:105A7000C6000020414176323A20252D35750000C0
:105A8000414176343A20252D357500004141763567
:105A90003A20252D3575000054526E643A20252D8C
:105AA00035750000557370643A20252D356C7500EE
:105AB000547370643A20252D356C7500524164632F
:105AC0003A20252D35750000524462633A20252D79
:105AD00035750000A8060020252D362E3266000000
