:020000040800F2
:10000000D00C002045010008690A000875080008A6
:100010001D0A0008630700080B0F0008000000001D
:10002000000000000000000000000000C50A0008F9
:100030009107000800000000BD0A0008C90A000876
:100040005F0100085F0100085F0100085F01000810
:100050005F0100085F01000893070008B50700086A
:10006000B7070008B9070008BB0700085F010008D0
:100070005F0100085F0100085F0100085F010008E0
:100080005F0100085F0100085F0100085F010008D0
:100090005F0100085F0100085F010008BD0700085C
:1000A0005F0100085F0100085F0100085F010008B0
:1000B000B10B0008B30B0008B50B00087908000865
:1000C0005F0100087B0800085F010008BF0A000804
:1000D000C10A0008EB0E0008ED0E0008090F000829
:1000E000950700085F0100085F0100085F01000834
:1000F0005F0100085F010008E10B00085F010008D4
:100100005F0100085F0100085F010008C30A0008E2
:10011000E70E0008E90E0008DD0B0008DF0B000801
:100120005F0100085F0100085F0100085F0100082F
:10013000DFF80CD000F0C6FA00480047A53E0008E2
:10014000D00C00200648804706480047FEE7FEE73F
:10015000FEE7FEE7FEE7FEE7FEE7FEE7FEE7FEE777
:10016000090B0008310100082DE9F05F0546002069
:1001700092469B4688460646814640241BE0284618
:1001800041464746224600F002F953465A46C01AF5
:10019000914110D311461846224600F0E9F82D1A75
:1001A00067EB01084F4622460120002100F0E0F8ED
:1001B00017EB00094E41201EA4F10104DFDC484684
:1001C00031462A464346BDE8F09FD2B201E000F82E
:1001D000012B491EFBD270470022F6E710B51346EB
:1001E0000A4604461946FFF7F0FF204610BD30B519
:1001F00004460020034600E05B1C934203D2E05C0F
:10020000CD5C401BF8D030BD2DE9FE4F81EA0304E0
:1002100004F0004421F0004100944FF0000B23F063
:10022000004350EA01045ED052EA03045BD0C3F3FA
:100230000A54C1F30A552C44A4F2F3340194A0FBF0
:100240000254C1F3130141F48011C3F3130343F4C7
:10025000801301FB024400FB034E840A970A44EA20
:10026000815447EA8357A4FB076802958D0A05FB72
:1002700007854FEA932C04FB0C542705029D4FEA97
:10028000065847EA1637B5EB08056EEB070C870EE4
:10029000920E47EA811742EA8312A7FB0201B6EBEE
:1002A0000B0164EB00042B0D43EA0C335E1844EBA6
:1002B0001C50DA465146E7FB0201C5F313044FEA2E
:1002C0000B3343EA14534FEA0432019C43EA06031A
:1002D000A4F10C040294009CCDE900B400F076F87F
:1002E00003B0BDE8F08F00200146F9E700F00042BE
:1002F00030F000400AD0C10D01F56071C0F3160066
:1003000042EA0151C20840071143704700200146EC
:100310007047000030B5041E71F1000404DB4FF09B
:100320000044404264EB0101141E73F1000405DB3C
:100330001C464FF00043524263EB0403994208BF4E
:10034000904230BD30B50B460146002020220124EA
:1003500009E021FA02F59D4205D303FA02F5491B93
:1003600004FA02F52844151EA2F10102F1DC30BDA9
:10037000202A04DB203A00FA02F100207047914065
:10038000C2F1200320FA03F3194390407047202A5A
:1003900004DB203A21FA02F00021704721FA02F32F
:1003A000D040C2F12002914008431946704710B571
:1003B000141E73F1000408DA401C41F10001921888
:1003C0005B411A4301D120F0010010BD2DE9F04D31
:1003D00092469B4611B1B1FA81F202E0B0FA80F286
:1003E00020329046FFF7C4FF04460F4640EA0A0059
:1003F00041EA0B0153465A46084313D0114653EACB
:10040000010019D0C8F140025046FFF7C0FF054671
:100410000E46504659464246FFF7AAFF084305D00C
:10042000012004E020463946BDE8F08D0020054358
:1004300046EAE0762C4337430A986305E40AA0EBCA
:1004400008000022FD0A44EA47540A3002D5002081
:100450000146E9E7010510196941DDE90845001980
:100460006941BDE8F04DA2E72DE9FE4F804681EAE3
:100470000300C00F0C46009021F0004123F000451E
:10048000B8EB0200A94105D24046214690461C46E1
:100490000B46024623F00040104347D0270DC7F318
:1004A0000A00C3F30A510290401A019040286BDA07
:1004B000C3F3130040F4801B0098924620B1002340
:1004C000D2EB030A63EB0B0B01985946C0F14002D3
:1004D0005046FFF74DFF06460D4650465946019AD5
:1004E00000F002F910EB08006141002487EA115284
:1004F00084EAE7731A4340D0009A62B3019A012A52
:100500004FEA075215DC001B61EB02014FF000427D
:1005100002EA0752CDE90042001C41F58011324643
:100520002B46FFF753FF03B0BDE8F08F404621464E
:10053000F9E7001B61EB0201001C41F58013001874
:100540005B412018A2F5001747EB030140EAD57084
:10055000B6196D4111E06D084FEA360645EAC075DF
:100560004FEA0752001B61EB0201001C41F58011AC
:1005700049084FEA30000019514132462B4603B07A
:10058000BDE8F04FFFF713BF0098012240000023A1
:10059000D0EB020263EBE073009821464FEAE0746F
:1005A000B8EB000061EB0401E9E783F000435BE78F
:1005B00081F0004158E72DE9F04D81EA030404F091
:1005C000004B21F0004514464FF0000A23F0004193
:1005D00050EA050220D054EA01021DD0C5F30A57A3
:1005E0000246C5F31303C1F31300C1F30A5640F4E6
:1005F000801543F48013A7EB0608101BD64608F2BB
:10060000FD3873EB050002D308F1010801E09218F0
:100610005B41B8F1000F03DA00200146BDE8F08D20
:1006200000204FF48011064684460EE0171B73EB42
:10063000050705D3121B63EB050306434CEA010CC7
:1006400049084FEA300092185B4150EA0107EDD1AA
:1006500052EA030012D082EA040083EA050108434B
:1006600005D0101BAB4106D20122002306E0002278
:100670004FF0004302E06FF0010253101AEB060046
:100680004CEB085110EB0A0041EB0B01BDE8F04DBB
:10069000FFF78DBEC1F30A52C1F3130140F2FF33DD
:1006A00041F480119A4202DA00200146704740F27C
:1006B00033439A42A2F2334202DC5242FFF767BE52
:1006C000FFF756BE064C074D06E0E06840F0010318
:1006D00094E8070098471034AC42F6D3FFF72CFD9E
:1006E000046C0008246C0008202A06DBCB17203A93
:1006F00041FA02F043EAE07306E041FA02F3D04027
:10070000C2F12002914008431946704770B58C1819
:1007100010F8015B15F0070301D110F8013B2A1115
:1007200006D110F8012B03E010F8016B01F8016B02
:100730005B1EF9D12B0705D40023521E0DD401F8FE
:10074000013BFAE710F8013BCB1A921C03E013F8C7
:10075000015B01F8015B521EF9D5A142D8D30020FC
:1007600070BD00BFFEE738B500F070F8044669467A
:10077000312000F079FA012002F078F99DF80000AC
:1007800000F00100A04201D1012038BD0020FCE7AB
:100790007047704710B54FF4805002F073FB30B1D2
:1007A0004FF4805002F068FB01200149087010BD31
:1007B00064000020704770477047704710B52020D4
:1007C00002F060FB90B1202002F056FB0848007850
:1007D00060B90848007848B90748006807490860C8
:1007E000012004490870202002F036FB10BD0000F3
:1007F000540000204C0000204C020020500000203B
:100800001CB5002001904FF4AF600090FFF7ABFFE4
:1008100008B900981CBD01A9892000F025FA9DF8AF
:10082000040000F01F0009280AD16946962000F054
:1008300051FA0098B0F5AF6F02D94FF4AF60009055
:100840000121862000F01CFB0098E3E738B56946DB
:10085000302000F009FA9DF8000000F01000009030
:100860009DF80000001108B9012000E000200446B6
:10087000204638BD00BFFEE77047704738B50024FA
:10088000002000904FF47A7540220421544803F070
:10089000D1F880220521524803F0CCF801224021F2
:1008A0004F4802F0F5FF012280214D4802F0F0FF91
:1008B000022002F0CDF8694640F20F1000F00AFA6B
:1008C0004EF6CC210098884203D046A0009900F053
:1008D0001FFB87224A49012000F0DAFA32201E2845
:1008E0002AD008DC022851D0052844D00A2837D065
:1008F000142856D129E0322815D042280AD064287D
:100900004FD165215E2000F0DFFA8721612000F0E1
:10091000DBFA4FE01D215E2000F0D6FA272161208E
:1009200000F0D2FA46E051215E2000F0CDFA6E21AF
:10093000612000F0C9FA3DE0D6215E2000F0C4FA43
:100940006E21612000F0C0FA34E04FF4D7715E20D0
:1009500000F0BAFA4FF4F471612000F0B5FA29E022
:1009600040F2E1215E2000F0AFFA4FF462716120A5
:1009700000F0AAFA1EE040F2E1315E2000F0A4FA95
:1009800040F29641612000F09FFA13E040F291514D
:100990005E2000F099FA40F2C151612000F094FA13
:1009A00008E065215E2000F08FFA8721612000F0C9
:1009B0008BFA00BF00BF06E0FFF7D5FE04466D1EB0
:1009C000012002F045F80CB9002DF5D11CB90DA09D
:1009D00000F09EFA03E00121862000F051FA38BDB4
:1009E000000C0140544F46343030432049442045E8
:1009F00072726F723A203078253034580D0A000038
:100A00007B020020544F463430304320496E6974D5
:100A1000204572726F72210D0A00000000BFFEE7D0
:100A200000B5DFED0B1A9FED0B1ADFED0B0A9FED02
:100A30000B0A0B4800F02EF8DFED051A9FED051AA2
:100A4000DFED050A9FED050A064800F023F800BD1A
:100A500000401C46CDCCCC3DCDCC4C3ECDCC4C3F0B
:100A600028080020400800207047000010B500282A
:100A700007DA0A07140E054A00F00F031B1FD454AF
:100A800003E00A07130E024A135410BD18ED00E0EC
:100A900000E400E080ED000AC0ED010A80ED021ADA
:100AA0009FED052A80ED032A9FED032A80ED042A9D
:100AB000C0ED051A70470000000000007047704745
:100AC000704770477047000010B507480068401C29
:100AD000054908600846006820B90020086003A0A6
:100AE00000F016FA10BD00004C020020675F6D692F
:100AF0006C6C6973B7A2C9FAD2E7B3F6A3ACD0E8BD
:100B0000B5F7D5FB0A00000008B52648006840F498
:100B10007000244908602448006840F00100224920
:100B2000086000BF2048006800F002000028F9D0EB
:100B300000BF1D48406840F080001B49486000200D
:100B4000009002E00098401C009000985028F9D3D3
:100B50001548406840F0900013494860002000901C
:100B600002E00098401C009000985028F9D300BF84
:100B70000D48406820F003000B49486008460068B3
:100B80000A490840084908604FF41F008860084679
:100B9000006820F48020086000204860C86204F0EB
:100BA00057F908BD88ED00E000100240FFFFF6FE97
:100BB0007047704710B50121064804F0C1FC0128B8
:100BC00006D10121034804F0B8FC01200249087055
:100BD00010BD000000080040BF00002070477047B3
:100BE0007047000070B506460024002240211D48D1
:100BF00002F04EFE012001F039FF01228021194848
:100C000002F046FE00251DE0012001F02FFF00222A
:100C10004021144802F03CFE012001F027FF012290
:100C20004021104802F034FE012001F01FFF600651
:100C3000040E80210B4802F08BFE08B1601CC4B288
:100C4000681CC5B2082DDFDB00224021054802F0F8
:100C50001FFE012001F00AFF304600F04DF820464B
:100C600070BD0000000C014070B504460D46012225
:100C70002946204600F001F870BD2DE9F0410546F7
:100C80000E461746002400F061F8522000F0CAF822
:100C9000C5F3072000F0C6F8E8B200F0C3F800F092
:100CA00055F8532000F0BEF800BF0DE0781EA042BA
:100CB00004D00120FFF796FF305503E00020FFF736
:100CC00091FF3055601CC4B2BC42EFD300F05CF819
:100CD000BDE8F08138B505460C46002000900222A0
:100CE00069462846FFF7C9FF9DF801009DF80010EE
:100CF00000EB0120206038BD10B5044600224021E1
:100D0000114802F0C5FD012001F0B0FE2CB1002217
:100D100080210D4802F0BCFD04E0012280210A4838
:100D200002F0B6FD01224021074802F0B1FD01208A
:100D300001F09CFE00224021034802F0A9FD0120A1
:100D400001F094FE10BD0000000C014010B501221E
:100D500040210C4802F09CFD01228021094802F04C
:100D600097FD012001F082FE00228021054802F05B
:100D70008FFD012001F07AFE00224021014802F09F
:100D800087FD10BD000C014010B5002240210E4827
:100D900002F07EFD002280210B4802F079FD012047
:100DA00001F064FE01224021074802F071FD01209C
:100DB00001F05CFE01228021034802F069FD012060
:100DC00001F054FE10BD0000000C014010B50022DF
:100DD0004021134802F05CFD012001F047FE012292
:100DE00040210F4802F054FD012001F03FFE802118
:100DF0000B4802F0ADFD48B100224021084802F046
:100E000047FD012001F032FE002010BD00224021EC
:100E1000034802F03DFD012001F028FE0120F4E727
:100E2000000C014070B5044608251FE004F0800066
:100E300028B101228021114802F02AFD04E000229D
:100E400080210E4802F024FD6006040E012001F00E
:100E50000DFE01224021094802F01AFD012001F097
:100E600005FE00224021054802F012FD281EA5F1D2
:100E70000101CDB2DAD1FFF7A9FF70BD000C01402E
:100E800013B50446012201A9204600F001F81CBD5B
:100E900070B504460D461646FFF758FF5220FFF77F
:100EA000C1FFC4F30720FFF7BDFFE0B2FFF7BAFFB1
:100EB00003E015F8010BFFF7B5FF301EA6F10106A0
:100EC000F7D1FFF761FF70BD38B505460C46200A23
:100ED0008DF80000E0B28DF8010002226946284634
:100EE000FFF7D6FF38BD70477047704708B56946B1
:100EF000044804F01CFD20B1BDF80010C8B200F099
:100F000053FF08BD00440040704700BFFEE70000EB
:100F10000FB4054B10B503A9044A029800F0EEF88F
:100F200010BC5DF814FB00006D38000804030020BD
:100F30000FB4084B10B504A902AA039800F0DEF81C
:100F4000044602A9002000F070FC204610BC5DF8A9
:100F500014FB00002B18000802E008C8121F08C18B
:100F6000002AFAD170477047002001E001C1121F2A
:100F7000002AFBD1704700002DE9FF5F82B00021FD
:100F8000DDE90430020DDDF840B0034318D044F62B
:100F90001050A2F2FF3242431514119801281FD0BD
:100FA000A5EB0B00401C5FEA000A4FF000064E4F15
:100FB000DFF83891B046504615D5CAF1000413E069
:100FC000119801244AA3012801D16FEA0B0102986C
:100FD000119AC0E90031C0E9024206B0BDE8F09FB5
:100FE000CBF10000DFE704460021404A491842EBFC
:100FF0000450CDE9001012E0E00707D032463B462E
:1010000040464946FFF700F98046894632463B464E
:1010100010461946FFF7F8F806460F466410002CF4
:10102000EAD1DDE90401DDE90023BAF1000F06DAB7
:10103000FFF7EAF842464B46FFF7E6F805E0FFF710
:10104000BAFA42464B46FFF7B6FA04460E4600226D
:10105000284BFFF75FF903D84FF0FF30014607E058
:101060000022254B20463146FFF7FEF9FFF712FB21
:10107000102409E0002C0ADB0A220023FFF774F891
:10108000039B30321A55641E50EA0102F2D1641CEF
:10109000039AC4F111031444119A012A03D00122C6
:1010A00008430DD10AE0084304D000204FF0110B93
:1010B000119072E7A3EB0B056D1E0DE05B4504DD9F
:1010C0004FF0000205F1010504E003DA4FF00002E1
:1010D000A5F10105002AECD002981199C0E902316E
:1010E000C0E9004579E70000000014400000F03F2F
:1010F000300000000000F0430000E03F2DE9FF4F0A
:1011000095B09B468946064600250FE2252877D1F3
:1011100000242746F84A0121059400E0044316F80C
:10112000013F203B01FA03F01042F7D130782A2822
:1011300011D06FF02F033078A0F13002092A16D8B1
:10114000059A44F0020402EB820203EB42021044CF
:10115000761C0590EFE759F8042B0592002A03DA74
:10116000504244F40054059044F00204761C307858
:101170002E2816D116F8010F44F004042A280DD0A9
:101180006FF02F023078A0F13003092B09D807EB5C
:10119000870302EB4303C718761CF3E759F8047B77
:1011A000761C30786C280FD006DC4C2817D06828C5
:1011B0000DD06A2814D104E0742810D07A280FD1F9
:1011C0000DE044F400140AE044F4801401E044F417
:1011D00040147278824202D104F58014761C761C89
:1011E000307866280BD013DC582877D009DC00282B
:1011F00075D04528F6D04628F4D047281AD19DE16D
:1012000018E0632835D0642879D0652812D195E19B
:10121000702873D008DC6728F1D069286FD06E2859
:101220000DD06F2806D1B5E073282CD0752875D065
:10123000782874D05A46179990476D1C75E1C4F30D
:101240000250022809D003280DD0D9F80010042834
:101250000DD00D6009F1040967E1D9F80010EA1713
:10126000C1E90052F6E7D9F800100D80F2E70D70E1
:10127000F0E719F8041B8DF8001000208DF801002C
:10128000EA46012003E059F804AB4FF0FF30610754
:101290004FF0000102D40DE008F101018846B94287
:1012A0000FDA8045F8DB1AF808100029F4D108E0BD
:1012B00008F1010188468142FADB1AF8081000297A
:1012C000F6D105985B46A0EB080721463846179AE9
:1012D00000F094FA284400EB080507E04DE029E10E
:1012E0000DE01AF8010B5A4617999047B8F101081A
:1012F000F7D25B4621463846179A13E142E00A22AC
:101300000092C4F302524FF0000A022A08D059F8A2
:1013100004CB032A4FEAEC710AD00DE029E02AE061
:1013200009F1070121F00702F2E802C1914609E044
:101330000FFA8CFC4FEAEC71042A03D14FFA8CFCB3
:101340004FEAEC71002907DA0A460021DCF1000CB3
:1013500061EB02012D2202E0220504D52B228DF83B
:101360000420012203E0E20701D02022F7E79046A3
:1013700059E00A2102E010220DE010214FF0000A8E
:1013800000910BE010224FF0000A44F004040827FB
:10139000009203E008224FF0000A0092C4F30252C8
:1013A000022A05D059F804CB0021032A08D009E00D
:1013B00009F1070121F00702F2E802C1914605E0B8
:1013C0001FFA8CFC042A01D10CF0FF0C4FF000082E
:1013D000220728D5702806D0009B83F0100353EA1B
:1013E0000A0305D00EE040228DF80420012208E017
:1013F0005CEA010206D030228DF804208DF8050049
:1014000002229046009B83F0080353EA0A030AD1A4
:101410005CEA010201D1620705D530228DF8042073
:101420004FF001087F1E582804D034A003900EA866
:1014300002900DE036A0F9E753466046009AFEF7A9
:1014400093FE84460398825C0298401E02900270CC
:101450005CEA0100F0D1029806A9081A00F1200AFE
:10146000600702D524F4803400E00127574502DDEF
:10147000A7EB0A0000E0002000EB0A0100900598AD
:101480004144401A0590E00306D45B462146179A72
:10149000059800F0B3F90544002706E001A85A4674
:1014A000C05D179990476D1C7F1C4745F6DBE00334
:1014B0000CD55B462146179A059800F09FF9054424
:1014C00004E030205A46179990476D1C0099481E39
:1014D00000900029F5DC08E0029802995A4600784D
:1014E000491C0291179990476D1CBAF10001AAF1AD
:1014F000010AF1DC65E100000928010030313233D6
:10150000343536373839616263646566000000003F
:101510003031323334353637383941424344454629
:101520000000000000F058F90544761C30780028CF
:101530007FF4ECAD19B02846BDE8F08F620700D407
:10154000062709F1070222F0070CFCE80223E14616
:1015500003F000485FEA080C02D00FF2702C0DE097
:101560005FEA045C02D50FF2682C07E05FEAC47CF6
:1015700002D00FF2602C01E0AFF2700C4FF0FF3898
:1015800023F00043CDF850C065280CD006DC452878
:1015900009D046281DD047283DD13DE0662818D007
:1015A00067287ED138E00021112F01DB112000E0F7
:1015B000781CCDE9000106A90EA8FFF7DDFCDDE9E6
:1015C0000F010E9A03910021009207F1010A049184
:1015D0004DE04FF000400097CDE9011006A90EA89C
:1015E000FFF7CAFCDDE90F0203920E9B119900225E
:1015F000DDF80CA00093049211B9791C00EB010AEC
:10160000B7EB0A0004D4C0F1FF3007F1010A0490DF
:10161000AAEB0700019044E0012F00DA0127002126
:10162000112F01DD112000E03846CDE9000106A9A7
:101630000EA8FFF7A1FCDDE90F010E9A039100212E
:1016400004910092BA4621070CD40399514500DA5F
:101650008A46BAF1010F05DD009AAAF10101515C39
:10166000302908D0B84202DA10F1040F06DA01215D
:10167000CDE9011015E0AAF10101E9E7002805DC38
:10168000049901440491AAEB000102E0411C514578
:1016900000DD8A460499401A401C01904FF000403A
:1016A0000290200704D40198504501DBCDF8048056
:1016B00000208DF84F0002980DF14F07B0F1004F58
:1016C00025D02B200E9002984FF0020800280CDA4B
:1016D000404202902D200E9007E00A210298FEF76A
:1016E00031FE3031029007F8011DB8F10001A8F178
:1016F0000108F2DC02980028EFD1791E0E980870DC
:10170000307800F0200040F0450007F8020D12A8E4
:10171000C01B00F107081498007800B1012000EB0D
:101720000A01019801EBE07105984144401A401EFE
:101730000590E00306D45B462146179A059800F011
:101740005DF805441498007818B15A4617999047E7
:101750006D1CE00324D55B462146179A059800F0DE
:101760004DF805441CE00498002807DBDDE903017F
:10177000884203DD0098405C179901E017993020FA
:101780005A469047049805F10105401C04900198C1
:10179000401E019004D12E205A46179990476D1C87
:1017A000BAF10001AAF1010ADDDC05E017F8010B2E
:1017B0005A46179990476D1CB8F10001A8F101082D
:1017C000F4DC5B462146179A0598ABE62D00000035
:1017D0002B000000200000002DE9F0410446002508
:1017E0001E461746880404D405E039462020B04739
:1017F0006D1C641EF9D52846BDE8F0812DE9F04145
:10180000044600251E469046C80301D5302700E057
:101810002027880404D505E041463846B0476D1CB2
:10182000641EF9D52846BDE8F0810A68531C0B6098
:1018300010707047816841F00801816000BF8168C5
:1018400001F008010029FAD1816841F004018160AA
:1018500000BF816801F004010029FAD1704770B51A
:1018600004460D462946204600F0CEF870BD70B5FE
:1018700005460C46052322460021284600F0D6F9ED
:101880000121284600F02CFA0221284600F082F8B7
:1018900000BF0221284600F081F80028F9D0284630
:1018A00000F01AFA70BD21B1826842F400628260D1
:1018B00003E0826822F400628260704710B504463B
:1018C0001348204430B1B0F5806F0CD0B0F5C05F44
:1018D0001BD111E040F2093003F0A2F940F20930C7
:1018E00003F08EF912E040F20A3003F099F940F269
:1018F0000A3003F085F909E040F20F3003F090F967
:1019000040F20F3003F07CF900E000BF00BF10BDD3
:1019100000DCFEBF816801F0010119B9816841F066
:1019200001018160704772B101F001031BB183684E
:1019300043F48013836001F0020393B1836843F49E
:10194000004383600DE001F001031BB1836823F4C1
:101950008013836001F002031BB1836823F400430A
:1019600083607047012902D0022910D107E0836803
:1019700023F46023836083681343836008E08368F3
:1019800023F4E043836083681343836000E000BF77
:1019900000BF704702688A43026070470246002019
:1019A00013680B4003B10120704770B504460D4623
:1019B00029462046FFF75BFF0646304670BD000013
:1019C00010B50A210E48FFF7F0FF0E4908800B21E1
:1019D0000B48FFF7EAFF0B4948800C210848FFF746
:1019E000E4FF084988800D210548FFF7DEFF05491F
:1019F000C8800F210248FFF7D8FF0249088110BDB7
:101A0000002401401C08002070B505460C464FF428
:101A1000C06003F0E5F803F01FFA6CB1012C0BD0A5
:101A2000022C09D0032C07D0042C05D0052C03D0A0
:101A3000062C01D0072C04D140F2026003F0D0F84C
:101A400018E0082C01D0092C04D140F2036003F007
:101A5000C7F80FE00A2C09D00B2C07D00C2C05D0AE
:101A60000D2C03D00E2C01D00F2C03D140F20460BA
:101A700003F0B6F834B9012303220021654801F0D0
:101A800073FF85E0012C06D1022303220021614867
:101A900001F06AFF7CE0022C06D10423032200211E
:101AA0005C4801F061FF73E0032C06D10823032298
:101AB0000021584801F058FF6AE0042C06D1102399
:101AC00003220021534801F04FFF61E0052C06D1AD
:101AD0002023032200214F4801F046FF58E0062C46
:101AE00006D14023032200214A4801F03DFF4FE088
:101AF000072C06D1802303220021464801F034FF41
:101B000046E0082C06D1012303220021424801F0BF
:101B10002BFF3DE0092C06D10223032200213E4881
:101B200001F022FF34E00A2C06D101230322002118
:101B30003A4801F019FF2BE00B2C06D102230322B7
:101B40000021364801F010FF22E00C2C06D10423BE
:101B500003220021314801F007FF19E00D2C06D1C6
:101B60000823032200212D4801F0FEFE10E00E2C78
:101B700006D1102303220021284801F0F5FE07E0DA
:101B80000F2C05D1202303220021244801F0ECFE74
:101B90002348854204D140F2096003F021F80EE0A9
:101BA0002048854204D140F20A6003F019F806E0AB
:101BB0001D48854203D140F20F6003F011F8022066
:101BC00002F02CFF2846FFF779FE0022022128466A
:101BD00000F095F800224FF48071284600F08FF84D
:101BE00000212846FFF75FFE4FF4602201212846BE
:101BF000FFF7B8FE012211462846FFF794FE28465B
:101C0000FFF788FE012000F023FF2846FFF712FEB1
:101C100070BD000000080140000C014000100140B0
:101C20000024014000280140003C0140F0B51D4661
:101C300006290CD2436B01EB81071F26BE40B3433C
:101C400001EB810602FA06F63343436322E00C29D6
:101C50000ED2036B8E1F06EB86071F26BE40B343D2
:101C60008E1F06EB860602FA06F63343036311E085
:101C700010290FD2C36AA1F10C0606EB86071F26B6
:101C8000BE40B343A1F10C0606EB860602FA06F647
:101C90003343C3620A2A0CD2046902EB42070726C7
:101CA000BE40B44302EB420605FA06F63443046133
:101CB00011E0122A0FD2C468A2F10A0606EB460709
:101CC0000726BE40B443A2F10A0606EB460605FA13
:101CD00006F63443C460F0BD0146C86C80B270475C
:101CE00001F001021AB1826842F48002826001F0C0
:101CF00002021AB1826842F4001282607047AAB1EF
:101D000001F480731BB1436843F48073436001F4B2
:101D100080631BB1436843F48063436001F00203B6
:101D2000CBB1836843F00203836014E001F4807355
:101D30001BB1436823F48073436001F480631BB1DB
:101D4000436823F48063436001F002031BB183689E
:101D500023F002038360704770B506460F48007891
:101D600010B94FF6FF7070BD0D480578402D00DBAF
:101D70003F25002404E00B48005D3055601CC4B2D0
:101D8000AC42F8DB00207055054908700349087023
:101D900040210448FEF720FA2846E4E7BC00002072
:101DA000BB0000208803002010B5044626480078B8
:101DB00000B110BD012C01D0022C0BD140212348D1
:101DC000FEF70AFA214804700120214908701E49D3
:101DD0000870EEE70D2C01D00A2C06D11C480078C3
:101DE00010B1012018490870E3E7194800783F282E
:101DF00006D300201649087040211448FEF7ECF97C
:101E000013490878411C124A117010490C540020E3
:101E1000127888540E48007804280FD20C480078B5
:101E200002280ED30846007830280AD108464078A8
:101E3000312803D008464078322802D101200249D7
:101E4000087000BFB5E70000BC0000208803002038
:101E5000BB00002010B51648007800B110BD154831
:101E6000007818B3002013490870FEF7C9FC124926
:101E7000086012480068C8B111480078B0B108463F
:101E80000068B0F5487F11D80846006870B10D4869
:101E9000007858B900200A4908700B4908700B49AE
:101EA000087003F03BFC01200149087000BFD5E732
:101EB000270000206400002078000020A4000020FB
:101EC000BD00002084000020B50000202800002074
:101ED0000246012903D11078012800D17047022958
:101EE00007D11078302804D15078312801D1012051
:101EF000F4E7042910D1107830280DD150787828D3
:101F000002D05078582807D19078302804D1D07862
:101F1000312801D10120E1E70020DFE70246012955
:101F200004D11078022801D101207047022907D17D
:101F30001078302804D15078322801D10120F4E7FC
:101F4000042910D1107830280DD15078782802D08B
:101F50005078582807D19078302804D1D07832288A
:101F600001D10120E1E70020DFE7000010B51B48A8
:101F7000FFF7F2FE1A490880084600884FF6FF7105
:101F8000884202D01648008800B910BD1448018864
:101F90001248FFF7C3FF78B112480068012806D144
:101FA00011480078032802D101201049087040210F
:101FB0000A48FEF711F9E8E7094801880748FFF7E2
:101FC00087FF20B101200A4908700A4908704021A2
:101FD0000248FEF701F900BFD7E7000048030020E0
:101FE000B6000020A800002029000020BE0000202C
:101FF000BD000020B500002010B50446012C09D119
:10200000020204210A4801F015FD012211020848CC
:1020100001F03EFC022C09D122020421044801F007
:1020200009FD01225102024801F032FC10BD0000FE
:10203000000C0140164880884FF48052B2EB400FEC
:1020400002DC501E124A908011480088104A5288C3
:1020500010440F4A9288022303FB02000C4A1289A3
:1020600010440B4AD288811809B9002070470848EB
:102070000088074A52881044054A1289801A044A87
:10208000D288801A6422504390FBF1F0EEE7000002
:102090001C08002030B502460020134619240021F8
:1020A00003E053F821502844491CA142F9D330BD24
:1020B00010B50020064908700649084600F0BEF831
:1020C00005200549087001200449087010BD000072
:1020D0001B01002000010020290100202801002010
:1020E00010B502F0B9FE284803F020FB0A2127486A
:1020F000FFF7B5FB0B212548FFF7B1FB0C21234867
:10210000FFF7ADFB0D212148FFF7A9FB0F211F4869
:10211000FFF7A5FB03F0DEFA012001F087FE0220A5
:1021200001F084FE032001F081FE042001F07EFE18
:10213000052001F07BFE062001F078FE02F0F4FDA0
:1021400000F010FF002002F065F8012002F062F8B4
:1021500000F0BAFCFEF764FC04F0EAF8FFF7A8FF11
:1021600003F0F4FFFEF78AFB02F06CF902F05CF971
:1021700003F0BCFE0120FFF73FFF0220FFF73CFF0A
:1021800001F0DEFD10BD00000038014000240140D8
:102190000146082915D2DFE801F00406080A0C12EE
:1021A0000E10094870470948FCE70948FAE7094852
:1021B000F8E70948F6E70948F4E70948F2E709486B
:1021C000F0E70948EEE700000C01002012010020B2
:1021D0001501002006010020030100200901002054
:1021E0000F010020000100201801002070B50446F6
:1021F0000F48007838B90F48007820B10E480078B1
:10220000A04200D170BD0020094908702046FFF7A8
:10221000BFFF05462046FFF7BBFF0646294600F0F4
:102220000DF80548047001200249087000BFE9E775
:102230001B010020280100202901002070B505465F
:102240000C46284604F090F8204604F08DF870BD46
:102250001CB54FF4E13008490823084ACDE90010C5
:102260000421104603F072FA2623012240F20531C0
:10227000014803F045FB1CBD00440040000801403C
:1022800010B51348007810BB12480078F8B912480E
:102290000078E0B911480078022818D110488078F9
:1022A000A8B90120FFF7A2FF00200E4908600E49DF
:1022B00008600E49087003F031FA00200C490870DC
:1022C00001200C490870044908700549887010BD48
:1022D0002700002029000020250000202A000020DF
:1022E00094000020AC000020C0000020240000204A
:1022F00028000020BA0000200E480078012815D1DF
:102300000D48007890B10D48007878B90C480078F5
:1023100060B90C48006848B90B48007830B90B48E0
:10232000007818B901200A49086002E00020084935
:1023300008607047B5000020BD0000202700002085
:1023400029000020AC0000202500002024000020EF
:10235000A400002010B52348007818BB224800785C
:1023600000BB22480068E8B921480078D0B921486C
:102370000078B8B920480078032813D11F48C078E6
:1023800080B91F48007868B901201E4908701E49AD
:102390000860FFF72BFF1D4800681D4908600120F9
:1023A0001749087016480078D8B1184800681849CD
:1023B0000968401A17490988884212D90020114932
:1023C000087003F0ABF9012007490870002012499A
:1023D0000870FFF70BFF01200849C870002008496A
:1023E000087010BD2700002029000020AC0000204C
:1023F00025000020240000202A0000209400002056
:10240000E800002028000020A80000204C02002046
:10241000E4000020EA010020BE00002010B527489B
:102420000068A0B12648006888B92648007870B9CD
:102430002548007858B92548007840B924480078E4
:1024400028B12448007810B92348007818B100203A
:102450002249087010BD2248808840F6B831884271
:1024600027DD1E48007848B90420FFF7BFFE1D484D
:1024700000681D4908600120184908701948006863
:1024800019490968401A142816D900200C49086017
:102490000F49087003F042F903200F4908701148F2
:1024A0000068124908600020044908600B49087060
:1024B00002E000200949087000BFCBE79C00002023
:1024C000AC000020BA0000202700002029000020D6
:1024D000280000202500002024000020F00000201B
:1024E0001C0800204C020020EC000020C00000204E
:1024F00010B502F0A5FBFD480078FD490978884237
:1025000009D0FC480068FC490860F8480078F849A0
:10251000087003F003F9F9480078F949097888420E
:1025200009D0F4480068F7490860F4480078F44995
:10253000087003F0F3F8F4480078F4490978884209
:1025400009D0EC480068F2490860EF480078EF498C
:10255000087003F0E3F8EF480078EF490978884203
:1025600009D0E4480068ED490860EA480078EA4983
:10257000087003F0D3F8E748007800287AD1E848DB
:10258000007801281FD1E748007840B9E648007874
:10259000012804D1E5480068E549086003E0E54802
:1025A0000068E34908600520FFF720FEFFF708FAFE
:1025B000FFF740FDE0490860E04A0021DE4800687E
:1025C00002F0E2F81CE2D0480078012828D1C74880
:1025D000007828BB0220FFF709FEFFF7F1F9FFF7AB
:1025E00029FDD5490860B3EE000AD5480168D248F4
:1025F000006802F001F9BF480068C5490968401A3F
:10260000B0F5707FDED90020BF4908700120C449B1
:1026100008700020CB4908600120C3490870EFE131
:10262000B2480078012826D10420FFF7DFFD002002
:10263000C5490880488040F2DC5088800020C8806E
:102640004FF47A700881AB480068AB490968401ABA
:10265000BE490988884202D90220A4490870FFF7C0
:10266000E9FCB5490860B54A0021B348006802F0AA
:102670008BF8C5E12CE19D480078022825D1012086
:10268000FFF7B4FD40F6E440AF49088000204880E1
:1026900040F2DC5088800020C8800881954800689E
:1026A00095490968401AAA490988884202D9032035
:1026B0008E490870FFF7BEFC9F4908609F4A0021C1
:1026C0009D48006802F060F89AE188480078032885
:1026D0002ED10020FFF78AFD00209B49088048800A
:1026E00040F2DC5088800020C8804FF42F600881C1
:1026F0008048006880490968401A964909888842DC
:102700000BD9002079490870012085490870002004
:1027100091490860012091490870FFF78BFC8649B8
:102720000860864A00218448006802F02DF867E1BD
:1027300072480078012827D10420FFF757FD7B4815
:1027400000687B490860864800887F49088000202F
:1027500048808880C880088166480068694909689F
:10276000401A80490988884202D9022063490870CA
:10277000FFF760FC704908609FED7B0A00216E48FE
:10278000006802F039F83BE15C480078022826D165
:102790000620FFF72BFD65480068654908600020AA
:1027A0006949088048808880C8807048008808810E
:1027B0005048006853490968401A6D4909888842A1
:1027C00002D903204D490870FFF734FC5A490860CC
:1027D0005A4A00215848006801F0D6FF10E14748E6
:1027E0000078032808D10020FFF700FD002053499E
:1027F00048834F49086003E140480078042826D107
:102800000320FFF7F3FC4B480068494908600020AB
:102810004D49088048808880C880564800880881D3
:102820003448006837490968401A53490988884282
:1028300002D9052031490870FFF7FCFB3E490860CA
:102840003E4A00213C48006801F09EFFD8E02B483A
:102850000078052836D10020FFF7C8FC47480088DB
:10286000394908800020488040F2DC5088800020F0
:10287000C88008811F48006822490968401A4049F9
:102880000988884213D900201C4908703D49087006
:102890000120244908702249087000203A49086044
:1028A00002203A4908701348006839490860FFF768
:1028B000C1FB21490860214A00211F48006801F03E
:1028C00063FF9DE000201A49086002F027FF97E0AF
:1028D0001048007802286AD12E48007828B90520CF
:1028E000FFF784FCFFF76CF856E060E0270000205B
:1028F000C80000204C020020C40000202900002055
:10290000D0000020CC00002025000020D8000020AE
:10291000D400002024000020E0000020DC00002083
:1029200028000020860000208500002004020020EE
:1029300020000020080200201C000020C807002002
:1029400088000020A00000201C080020FC010020BE
:10295000FE01002000020020A400002084000020CE
:10296000F4010020EC01002000002042F6010020CC
:10297000EE010020F8010020F0010020FA01002003
:10298000F2010020BE000020A80000202600002048
:102990007C000020BA000020FFF74CFB24490860AF
:1029A000244A00212248006801F0EEFE28E0224877
:1029B0000078012824D12148007808BB0320FFF7C4
:1029C00015FC00201E49088048808880C88040F699
:1029D000C4100881FFF72EFB15490860154A002135
:1029E0001348006801F0D0FE1648006816490968CF
:1029F000401A16490988884202D902200E490870F7
:102A00000D480078032810D10C48007868B94FF4BD
:102A1000FA51012001F0D8FB4FF4FA51002001F0E7
:102A2000D3FB0020FFF7E2FB01E001F035FB10BD16
:102A30001C000020C807002024000020BA0000204D
:102A40001C0800204C020020DC00002002020020B4
:102A500000B97047044A116800BF034A1268521A4D
:102A60008242FAD300BFF4E74C02002030B50146A1
:102A700001B930BD4FF0E0239A69104B1B6801FB90
:102A800003F40F4B1B684B430E4DB3FBF5F31C4493
:102A900020460FE04FF0E025AB69934202D8D51AEB
:102AA000401B05E04FF0E0256D69ED1A1544401B11
:102AB0001A4600BF0028EDDC00BFDAE7580200200C
:102AC0005C02002040420F0000B587B003A802F06E
:102AD000F5FD0020ADF80C00ADF80E00ADF81000CB
:102AE0004FF6FF7005900020ADF8120040F2026032
:102AF00002F076F8C32303220421214800F034FFBA
:102B00004FF4E06002F06CF803A94FF0804002F04F
:102B100021FC00231A4603214FF0804002F0AEFD55
:102B2000184903C9CDE9010101AA00214FF08040F5
:102B300002F05CFC01AA0121880702F057FC4FF06B
:102B4000804002F0F6FB40F2017002F049F803A960
:102B50000D4802F0FFFB00231A4603210A4802F049
:102B60008DFD01AA0021084802F040FC01AA0121C4
:102B7000054802F03BFC044802F0DBFB07B000BD57
:102B800000080140FC6B0008000400402DE9F047FC
:102B900007460C4691464FF4C06002F021F800222F
:102BA0001146062001F0BCFB00221146072001F06F
:102BB000B7FB00221146082001F0B2FB00221146AB
:102BC000092001F0ADFB002211460A2001F0A8FB0C
:102BD00000221146172001F0A3FB002211462820F5
:102BE00001F09EFB6748874206D14FF0000840F293
:102BF000026001F0F5FF3AE06348874206D14FF0EA
:102C0000010840F2036001F0EBFF30E05F488742CB
:102C100006D14FF0020840F2046001F0E1FF26E027
:102C20005B48874206D14FF0030840F2056001F08F
:102C3000D7FF1CE05748874206D14FF0040840F206
:102C4000066001F0CDFF12E05348874206D14FF0F5
:102C5000050840F2076001F0C3FF08E04F488742D3
:102C600005D14FF006084FF4C16001F0B9FF012C07
:102C700002D10025012658E0022C02D101250226AE
:102C800053E0042C02D1022504264EE0082C02D188
:102C90000325082649E0102C02D10425102644E023
:102CA000202C02D1052520263FE0402C02D106250C
:102CB00040263AE0802C02D10725802635E0B4F585
:102CC000807F02D108256E012FE0B4F5007F03D18B
:102CD00009254FF4007628E0B4F5806F03D10A256A
:102CE0004FF4806621E0B4F5006F03D10B254FF45B
:102CF00000661AE0B4F5805F03D10C254FF48056CE
:102D000013E0B4F5005F03D10D254FF400560CE03D
:102D1000B4F5804F03D10E254FF4804605E0B4F59D
:102D2000004F02D10F254FF400462946404600F0DF
:102D3000C3FD234603220421384600F015FEB9F1F5
:102D4000000F05D102220021304600F029F810E0E2
:102D5000B9F1010F05D100221146304600F020F8EC
:102D600007E0B9F1020F04D101220021304600F042
:102D700017F8304600F080F8304600F075F8BDE8EE
:102D8000F087000000080140000C014000100140E5
:102D90000014014000180140001C014000200140C7
:102DA00010B52C4B1B6883432A4C2360231D1B68E2
:102DB0008343241D2360231D1B688343241D23603C
:102DC000231D1B688343241D236011B101290ED1EB
:102DD00005E0204B1B6803431E4C236008E01D4B9D
:102DE0001B1D1B6803431B4C241D236000E000BF18
:102DF00000BF22B1012A0FD0022A27D119E0154BBA
:102E000008331B680343134C08342360231D1B68DD
:102E10008343241D23601AE00E4B08331B68834351
:102E20000C4C08342360231D1B680343241D2360BE
:102E30000DE0084B08331B680343064C083423603D
:102E4000231D1B680343241D236000E000BF00BF57
:102E500010BD000000040140024909688143014A95
:102E60001160704700040140024909680143014AAA
:102E7000116070470004014001490860704700007C
:102E80001404014001460748006800EA01020548B1
:102E90001438006800EA010312B10BB10120704739
:102EA0000020FCE7140401402DE9F047064688465F
:102EB00091461F464FF0006000EBC62000EB08056E
:102EC000042000FB075A00BF4FF4407000F0B6FB2F
:102ED0000028F9D1AAEB0500B0F5006F02D300205D
:102EE000BDE8F087002404E0286849F824002D1D7F
:102EF000641CBC42F8D30120F2E72DE9F0470646F6
:102F0000884691461F4600F033FC40F2073000F03F
:102F100085FB4FF0006000EBC62000EB08050420A5
:102F200000FB075AAAEB0500B0F5006F02D30020A2
:102F3000BDE8F08700BF284600F0A8FB0028FAD1C2
:102F4000002409E059F82410284600F033FC012041
:102F5000FFF77EFD2D1D641CBC42F3D300F080FB07
:102F60000120E5E710B5002468217648FDF734F923
:102F70007549098889020122C2EBD1201A23714ABE
:102F80000021FFF791FF6F480068B0F15A3F7DD1F3
:102F90006C48808E0228FAD16A48FFF77BF86949AD
:102FA000496E8842F3D1674890ED010A674880ED89
:102FB000000A644890ED020A644880ED020A614804
:102FC000408E012803D85F4890F8320000E00020CE
:102FD0005F4908705B48C0685E49086059480069ED
:102FE0005D4908605748808A5C4908805548C08A16
:102FF0005B4908805348008B5A4908805148408BF0
:10300000594908804F48808B584908804D48C08BEB
:10301000574908804B48008C564908804948408CE5
:10302000554908804748808C544908804548C08CE1
:10303000534908804348008D524908804148408DDB
:10304000514908803F48808D504908803D48C08DD7
:103050004F4908803B48008E4E4908803948C08E51
:103060004D4908803748008F4C4908803548408FCB
:103070004B4908803348808F4A4908803148C08FC7
:10308000494908802F48B0F8400000E054E0474923
:1030900008802C48B0F84200454908802948B0F81B
:1030A0004400444908802748B0F846004249088057
:1030B0002448B0F84800414908802248B0F84A0046
:1030C0003F4908801F48B0F84C003E4908801D4821
:1030D000B0F84E003C4908801A48006D3B49086032
:1030E0001848406D3A4908601648806D39490860B3
:1030F00037480068B0F5966F05D33548006842F24E
:103100001071884204D941F27C5031490860012491
:1031100030480068B0F5966F05D32E48006842F23B
:103120001071884204D941F270702A490860012464
:1031300034B100F023F903E000F04EF800F01EF97E
:1031400010BD000058080020E0F7FF1FC80700204E
:1031500027020020C4010020C8010020CC0100206B
:10316000CE010020D0010020D2010020D401002097
:10317000D6010020D8010020DA010020DC01002067
:10318000DE010020E0010020E2010020E401002037
:10319000E6010020E8010020EA010020EC01002007
:1031A000EE010020F0010020F2010020F4010020D7
:1031B000F6010020F8010020FA010020FC010020A7
:1031C000FE010020000200200202002088000020F2
:1031D00004020020080200209FED430A434880EDCE
:1031E000000A9FED430A80ED020A00204149087061
:1031F0003C20414908600120404908606420404962
:10320000088041F288303F49088041F664103E4909
:10321000088040F6B8303D4908804FF448703C497A
:10322000088040F6B8303B4908804FF448703A496E
:1032300008804FF496703949088041F26800384997
:10324000088040F6AC503749088040F6B83036491F
:10325000088040F214503549088041F2D470344956
:1032600008804FF4AF60334908804FF4167032493C
:1032700008804010314908804FF487703049088039
:1032800030490880C8203049088040002F49088014
:1032900040F698002E49088040F6C4102D49088059
:1032A00040F634002C49088040F628202B4908803D
:1032B0004FF4E1702A4908804FF40C7029490880C6
:1032C0004FF4A570284908804FF49670274908806C
:1032D0003C202749086041F27C502649086041F2B1
:1032E000707025490860704700007042C8070020D0
:1032F0000000000027020020C4010020C8010020B7
:10330000CC010020CE010020D0010020D2010020FD
:10331000D4010020D6010020D8010020DA010020CD
:10332000DC010020DE010020E0010020E20100209D
:10333000E4010020E6010020E8010020EA0100206D
:10334000EC010020EE010020F0010020F20100203D
:10335000F4010020F6010020F8010020FA0100200D
:10336000FC010020FE0100200002002002020020DB
:1033700088000020040200200802002000B59BB055
:1033800068215748FCF728FF4FF05A30544908602D
:10339000544890ED000A084680ED010A514890ED2E
:1033A000020A084680ED020A4F480068C8604F488C
:1033B000006808614E48008888824E480088C882AC
:1033C0004D48008808834D48008848834C48008851
:1033D00088834C480088C8834B48008808844B4841
:1033E000008848844A48008888844A480088C884FD
:1033F0004948008808854948008848854848008829
:10340000888548480088C885474800880886474816
:10341000007848860220888645480088C886454846
:10342000008808874448008848874448008888877F
:1034300043480088C88743480088A1F840004248B4
:103440000088A1F8420041480088A1F844004048A3
:103450000088A1F846003F480088A1F848003E488F
:103460000088A1F84A003D480088A1F84C003C487B
:103470000088A1F84E003B48006808653A4800689B
:1034800048653A48006888650846FEF703FE144917
:1034900048663749098889020122C2EBD1201A23E4
:1034A0000F4A0021FFF729FD10B900201BB000BD15
:1034B0002F49098889020122C2EBD1201A2301AACF
:1034C0000021FFF7F1FC08B90020EFE7682201A90D
:1034D0000348FCF78CFE08B10020E7E70120E5E790
:1034E00058080020C8070020C4010020C80100209F
:1034F000CC010020CE010020D0010020D20100200C
:10350000D4010020D6010020D8010020DA010020DB
:10351000DC010020DE010020E0010020E2010020AB
:10352000E4010020E6010020E8010020270200203D
:10353000EA010020EC010020EE010020F001002053
:10354000F2010020F4010020F6010020F801002023
:10355000FA010020FC010020FE01002000020020F2
:10356000020200208800002004020020080200203F
:10357000E0F7FF1F00B50346012200BF00F00CF882
:1035800002465B1E012A01D1002BF7D1012A00D18E
:103590000422104600BD000000200A49C96801F05D
:1035A000010109B101200CE00649C96801F01001D0
:1035B00009B1032005E00349C96801F0040101B124
:1035C000022070470020024000B50346012200BFE0
:1035D00000F00CF802465B1E012A01D1002BF7D146
:1035E000012A00D10422104600BD000000200A4933
:1035F000C96C01F0010109B101200CE00649C96C58
:1036000001F0100109B1032005E00349C96C01F084
:10361000040101B10220704700200240064A02EB7B
:103620009011096800F01F0301229A401143024BD8
:1036300003EB901211607047002002400146074AD8
:1036400002EB9110006801F01F0301229A40104024
:1036500008B1012070470020FCE700000020024074
:103660000848006940F08000064908610648008863
:10367000B0F5007F04D90846006D40F08000086571
:103680007047000000200240E0F7FF1F30B50546FC
:1036900033480088B0F5007F44D9324885421CD2B7
:1036A0003148FFF767FF0446002C56D12F480069C8
:1036B00040F002002D49086108464561006940F06C
:1036C000400008612848FFF755FF04462748006975
:1036D00020F00200254908613FE02348FFF774FF0E
:1036E0000446002C39D12148006D40F002001F49EA
:1036F000086508464565C06900F0020008B1084643
:1037000045611A48006D40F04000184908651648A8
:10371000FFF75AFF04461548006D20F002001349D8
:1037200008651AE01048FFF725FF0446ACB90F48BA
:10373000006940F002000D490861084645610069D2
:1037400040F0400008610848FFF714FF04460748AE
:10375000006920F0020005490861204630BD0000E4
:10376000E0F7FF1FFFFF07080000FF0F00200240E7
:103770000C48006900F0800020B10B4809494860FE
:103780000A4848600A480088B0F5007F09D9054812
:10379000006D00F0800020B10348024948640348EE
:1037A000486470470020024023016745AB89EFCD94
:1037B000E0F7FF1F70B504460D4600262748008835
:1037C000B0F5007F31D92648844217D22548FFF74B
:1037D000D1FE0646002E3ED12348006940F001008C
:1037E0002149086125601F48FFF7C4FE06461E48B0
:1037F000006920F001001C4908612CE01948FFF71E
:10380000E3FE06463EBB1848006D40F00100164935
:10381000086525601348FFF7D7FE06461248006D7D
:1038200020F001001049086515E00E48FFF7A2FEE0
:10383000064686B90C48006940F001000A49086153
:1038400025600848FFF796FE06460748006920F005
:10385000010005490861304670BD0000E0F7FF1F18
:10386000FFFF07080000FF0F0020024070B504466C
:103870000D46E1B2054802F0D0FC00BF0721034825
:1038800002F01DFD0028F9D0204670BD003801402F
:1038900070B505460E46144624B13146284600F060
:1038A00008F803E03146284600F001F870BD416198
:1038B000704701617047000010B500228B071C0F94
:1038C0000F2303FA04F204290EDA204B9B6893437A
:1038D0001E4CA36023469B688C07240F00FA04F457
:1038E00023431A4CA3602FE008290EDA174BDB683C
:1038F0009343164CE3602346DB688C07240F00FAE1
:1039000004F42343114CE3601EE00C290EDA0F4B44
:103910001B6993430D4C236123461B698C07240FBD
:1039200000FA04F42343094C23610DE0074B5B6963
:103930009343064C636123465B698C07240F00FAAE
:1039400004F42343014C636110BD000000000140FA
:1039500070B504460D462946204600F063F808B1CC
:10396000012070BD0020FCE7F0B504461646002596
:10397000002201F00F0501F0100747B1042E05D118
:1039800045F00305E76B1F43E76300E03543002084
:103990001EE0012787401F40C7B122684FEA800C14
:1039A0000F2707FA0CF7BA43870005FA07F73A43DF
:1039B000282904D1012787401F40676105E0482975
:1039C00003D1012787401F4027612260471CB8B2FE
:1039D0000828DED3082022E0012787401F40E7B1F6
:1039E0006268A0F108074FEA870C0F2707FA0CF767
:1039F000BA43A0F10807BF0005FA07F73A432829A0
:103A000004D1012787401F40676105E0482903D1A1
:103A1000012787401F4027616260471CB8B2102809
:103A2000DAD3F0BD02469068084008B10120704723
:103A30000020FCE770B505460C4616463E48854218
:103A400004D140F2026001F0CBF82EE03B48854201
:103A500004D140F2036001F0C3F826E03848854203
:103A600004D140F2046001F0BBF81EE03548854205
:103A700004D140F2056001F0B3F816E03248854207
:103A800004D140F2066001F0ABF80EE02F48854209
:103A900004D140F2076001F0A3F806E02C4885420B
:103AA00003D14FF4C16001F09BF834B933460322CF
:103AB00000212846FFF758FF3DE0012C06D1334690
:103AC000032204212846FFF74FFF34E0022C06D1E1
:103AD0003346032228212846FFF746FF2BE0032C1C
:103AE00006D13346032248212846FFF73DFF22E056
:103AF000042C06D13346032210212846FFF734FF59
:103B000019E0052C06D13346032214212846FFF77D
:103B10002BFF10E0062C06D133460322182128463D
:103B2000FFF722FF07E0072C05D1334603221C21B3
:103B30002846FFF719FF70BD00080140000C014046
:103B4000001001400014014000180140001C014019
:103B5000002001400A460021016821F480611143E0
:103B6000016070472DE9F05F04460E4692460EB99B
:103B700000BFFEE7022000F087FF07464648B7FB7C
:103B8000F0F8B8F13C0F01D34FF03C08D4F804B082
:103B90002BF07F0B4BEA080BC4F804B03F48864279
:103BA0001ED83D48B7FBF0F000F10109B9F13C0F18
:103BB00002D33C20206207E0B9F1020F02D80220B4
:103BC000206201E0C4F820907000B7FBF0F5042DEE
:103BD00000D20425E069C5F30B010843E06158E019
:103BE0002F4886422CD84FF4967008FB00F04FF413
:103BF0007A71B0FBF1F0401C2062BAF1000F08D1DD
:103C000006EB4600B7FBF0F5E06920F48040E06188
:103C100009E006EBC60000EB0610B7FBF0F5E06923
:103C200040F48040E061C5F30B0008B945F00105A0
:103C3000E06940F40040E061E0692843E06128E089
:103C4000C8EB0810C0004FF47A71B0FBF1F0401CD3
:103C50002062BAF1000F08D106EB4600B7FBF0F581
:103C6000E06920F48040E06109E006EBC60000EB6B
:103C70000610B7FBF0F5E06940F48040E061E069D0
:103C800040F40040E061E0692843E0610120C4F8AD
:103C90009000BDE8F09F000040420F00A0860100A8
:103CA000801A0600CAB202617047016841F0010142
:103CB0000160704710B540F20152914202D1426951
:103CC00082690AE000EB9112126801F01F040123DF
:103CD000A3409A4300EB91131A6010BD10B5024641
:103CE00002EB9110006801F01F040123A34018406B
:103CF00008B1012010BD0020FCE712F1020F02D133
:103D000021F0010101E041F001010161704730B58E
:103D10000C460021016821F0020121430160C3F338
:103D2000090342EA0305856030BD016841F48071F2
:103D300001607047016841F4007101607047000044
:103D400010B54FF4407000F04DFB022220211C48BA
:103D5000FEF71CFF00F0E8FF4FF4C06000F040FFEA
:103D600040F2026000F03CFF4FF4805203211448FF
:103D7000FFF760FE0C210020FFF79EFD01220021CD
:103D80001003FFF70DF84FF48050FFF775F800228D
:103D90001146172000F0C4FA00220221282000F06A
:103DA000BFFA4FF48050FFF75FF84FF4805104489A
:103DB000FFF7CEFD10B901200249087010BD0000C8
:103DC000000801406400002070B5002628E0164875
:103DD00000EB0614D4E9010100F058F80546607BB9
:103DE000A84203D065730020A07318E0A07B0228CE
:103DF00003DAA07B401CA07311E0207BA84205D011
:103E00002573012D02D10020E07308E0207B28B942
:103E1000E07B18B90120E073607870BD00BF761CAC
:103E2000062ED4D3FF20F8E74801002070B50546E0
:103E3000002424E0144800EB04100078A8421DD1AF
:103E4000114901EB04118A680F4901EB041148681C
:103E50000321FFF7EFFD01200B4901EB041108736B
:103E6000094901EB041148730020074901EB0411D3
:103E70008873054901EB0411C87302E0641C062C29
:103E8000D8D300BF70BD00004801002070B50446C3
:103E90000D4629462046FFF75BFD08B1012070BDA5
:103EA0000020FCE710B5FEF71BF9FEF7D1F9FFF78C
:103EB00059F802F01BF80120634908700A21634891
:103EC00001F050FB00220F211E2000F029FAB6E07D
:103ED0005F48007820B100205D490870FEF708FBBC
:103EE00002F056F8FEF742F85A480078D8B15A481E
:103EF00000685A490968401A142814D3002055490B
:103F0000087000F005FF40B1012055490870554880
:103F10000078401C5349087005E02020FEF7ACFFF4
:103F20002020FEF7A1FF4E48007858B100F0F0FEC7
:103F300040B900204A4908702020FEF79DFF20204C
:103F4000FEF792FFFEF7D8F9FEF79AF9FEF702FAAC
:103F5000FEF764FA4448007803282BD143480078E0
:103F600040BB4348007828BB4248007810BB424819
:103F70000078F8B94148006818B9374800683F49E7
:103F80000860354800683D490968401A3C4909887D
:103F900088421DD900203B49086001202A49087049
:103FA000324908700020304908703449086001F037
:103FB000B5FB0DE02C480078032804D100202A49E5
:103FC000087001F0ABFB00202E4908602B49086007
:103FD000FDF740FF2748007803280FD12A480068E2
:103FE00001280BD12948007890B10020274908709A
:103FF00001F094FB04201F49087009E01C48007878
:1040000030B923480078022802D1012021490870E4
:1040100014480078042812D14FF4E170FEF718FD1F
:104020000020094908700021012000F0CDF800218E
:10403000084600F0A3F8054801F08EFA00E047E7D3
:1040400000BF002010BD0000280000200008004034
:10405000BF0000204C0000204C0200205000002037
:10406000540000202A00002024000020BA00002074
:10407000270000202900002025000020C00000208B
:1040800002020020AC000020A8000020BE0000209A
:1040900026000020B500002070B53448B0F91A5051
:1040A00033480068002809DC002032490880324982
:1040B00008800021084600F0F9F870BD2C4800681F
:1040C00042F21071884202DD0846294908602848FA
:1040D0000068B0F5966F05DD25480068A0F596608C
:1040E00004B200E00024A54200DD2546604285427E
:1040F00001DA604205B21E480068401B00B21D494B
:1041000008801B480068284400B21B4908801948F1
:10411000B0F90000002802DA00201649088016488D
:10412000B0F90000002802DA002013490880114885
:10413000B0F9000042F21071884202DD08460D49D4
:1041400008800D48B0F9000042F21071884202DD8B
:104150000846094908800848B0F900100548B0F938
:10416000000000F0A3F800BFA7E70000C807002088
:1041700020000020740000207600002070B5044666
:104180000D4642F21070854200DD00E028460546EB
:1041900054B92A4600210B4800F04AFB00220121B5
:1041A000084800F045FB0BE0012C09D12A46032109
:1041B000044800F03DFB00220221024800F038FBD9
:1041C00070BD00000034014070B504460D4642F257
:1041D0001070854200DD00E02846054654B90022F3
:1041E00011460B4800F024FB2A460121084800F044
:1041F0001FFB0BE0012C09D100220321044800F031
:1042000017FB2A460221024800F012FB70BD000095
:104210000034014038B5044604BB80220621204802
:10422000FFF708FC402206211D48FFF703FC4FF072
:10423000804001F00BF800204FF47A730C2201212A
:104240000090184800F046FB00204FF47A730C22CF
:1042500001460090134800F03DFB20E0012C1ED1E8
:10426000620206210E48FFF7E5FB220206210C48F8
:10427000FFF7E0FB0C4800F0E9FF00204FF47A73F1
:104280000C2203210090074800F024FB00204FF48B
:104290007A730C2202210090024800F01BFB38BD0B
:1042A00000100140003401400004004070B5054694
:1042B0000E4642F21074002D07DDA54200DD25B246
:1042C000A9B20020FFF780FF0FE0002D09DA60425D
:1042D000854201DA604205B2A9B20020FFF74EFF25
:1042E00003E000210846FFF76FFF002E07DDA6421E
:1042F00000DD26B2B1B20120FFF766FF0FE0002E0D
:1043000009DA6042864201DA604206B2B1B20120A7
:10431000FFF734FF03E000210120FFF755FF70BDD8
:104320002DE9F04103460D46164600240027A0461D
:104330002A48006800F4E060B0F5E06F03D100BFE8
:104340004FF0040830E02548006800F4E060B0F564
:10435000C06F03D101274FF0030825E01F48006814
:1043600000F4E060B0F5A06F02D10227B8461BE070
:104370001A48006800F4E060B0F5806F03D10327AD
:104380004FF0010810E01548006800F4E060B0F557
:10439000407F03D104274FF0000805E04FF4A060F0
:1043A00000F020F80227B846C7F1040005FA00F42F
:1043B000C8F104010F20C8403040044324010848DC
:1043C000C45403F01F01012088405911890001F1F4
:1043D000E021C1F80001BDE8F08100000CED00E033
:1043E00000E400E002490143024A11607047000006
:1043F0000000FA050CED00E070B500240CE000258B
:1044000006E00020074901EBC5010855681CC5B24C
:10441000802DF6DB601CC4B2082CF0DB00F0A2F8A3
:1044200070BD0000C803002010B500218D2000F0F1
:1044300091F90021142000F08DF90021AF2000F047
:1044400089F910BD10B540F2036000F0C9FB40F2DD
:10445000167000F0C5FB4FF4406303221C213E4858
:10446000FFF782FA00223D493D48FFF77BFB7823A6
:10447000002211463A48FFF74AFC3948FFF715FC7D
:104480004FF480613648FFF765FB4FF44870FEF744
:10449000DFFA0021AE2000F05DF90021084600F0AF
:1044A00059F90021102000F055F90021402000F0BA
:1044B00051F90021B02000F04DF90021812000F0D9
:1044C00049F90021FF2000F045F90021A12000F06A
:1044D00041F90021A62000F03DF90021A82000F0BC
:1044E00039F900213F2000F035F90021C82000F003
:1044F00031F90021D32000F02DF90021084600F009
:1045000029F90021D52000F025F90021802000F0B4
:1045100021F90021D82000F01DF90021052000F02C
:1045200019F90021D92000F015F90021F12000F03F
:1045300011F90021DA2000F00DF90021122000F01D
:1045400009F90021DB2000F005F90021302000F0FE
:1045500001F9FFF751FF10BD000C0140A0860100DA
:104560000058004070B500241CE004F1B001C8B24E
:10457000002100F0EFF80021084600F0EBF80021E0
:10458000102000F0E7F8002508E0084901EBC5011C
:10459000085D012100F0DEF8681CC5B2802DF4DB57
:1045A000601CC4B2082CE0DB70BD0000C803002012
:1045B00070B504460D4605F1B001C8B2002100F007
:1045C000C9F8102141EA1410002100F0C3F804F0EA
:1045D0000F00002100F0BEF870BD00002DE9F0478B
:1045E00007460E469046994600250024A8F1200073
:1045F000C5B27F2F02DD0027B01CC6B2B9F1100F83
:1046000024D131463846FFF7D3FF002408E004EBFD
:104610000511194A505C012100F09CF8601CC4B2DD
:10462000082CF4DB701CC1B23846FFF7C1FF002430
:1046300009E004EB051108310F4A505C012100F03C
:1046400089F8601CC4B2082CF3DB12E0314638460E
:10465000FFF7AEFF00240AE005EB4501074A02EB35
:104660004101085D012100F075F8601CC4B2062C00
:10467000F2DBBDE8F08700000C660008E463000888
:104680002DE9F04104460F461546984600260FE0F6
:10469000AA5D434639462046FFF7A0FF04F1080013
:1046A000C4B2782C02DD0024B81CC7B2701CC6B29C
:1046B000A85D0028ECD1BDE8F08100002DE9F041B3
:1046C00005460E46174600BF40F201612048FFF73D
:1046D00005FB0028F8D11E48FFF727FB00BF4FF469
:1046E000A0611B48FFF7FAFA0028F8D06FF001022A
:1046F00029461748FFF701FB00BF40F2015114485B
:10470000FFF7ECFA0028F8D040F201511048FFF70B
:10471000D1FA00240DE0315D0D48FFF7C3FA00BF68
:1047200040F207510A48FFF7D9FA0028F8D0601C78
:10473000C4B2BC42EFD30648FFF7FCFA00BF0448FE
:10474000006800F400700028F9D1BDE8F081000095
:104750000058004038B504460D4655B140208DF84C
:1047600000008DF80140022269467820FFF7A6FF7D
:1047700009E000208DF800008DF801400222694612
:104780007820FFF79BFF38BD30B50B1AD360D2ED10
:10479000000AD36800EE103AB8EEC00A20EE800A94
:1047A000BDEEC00A10EE103AD4681569641B00EE25
:1047B000104AB8EEC00AD2ED020A20EE200ABDEE81
:1047C000C00A10EE104A23441BB25383D36813610E
:1047D000B2F91A3042F21074A34201DD234653832A
:1047E000B2F91A30034CA34202DA4DF6F0035383B8
:1047F00030BD0000F0D8FFFF70B52DED028B0446F0
:104800000D46B0EE408A094890ED000AF0EE408A6D
:1048100080ED008A024629462046FFF7B5FF03488F
:10482000C0ED008ABDEC028B70BD0000C8070020FF
:104830002DE9F04104460E4617461748844202D13E
:10484000164805881CE0B4F1804F02D11348458812
:1048500016E01348844202D11048858810E01148C0
:10486000844202D10D48C5880AE00F48844202D133
:104870000A48058904E00D48844201D1074845896A
:104880003946284600F014F88046B1B24246204628
:1048900000F09BFCBDE8F081002C0140C008002026
:1048A0000004004000080040000C004000340140BB
:1048B00002460AB90020704742F21070814201DBC3
:1048C000901EF8E701FB02F042F21073B0FBF3F028
:1048D000F1E700002DE9F04387B005460F46164684
:1048E0001C46DDF838804FF4C06000F079F9454887
:1048F000854209D1012100F0B5FE40F20B6000F0C5
:104900006FF94148048033E0B5F1804F06D14FF490
:10491000E06000F065F93C48448029E03B4885426E
:1049200006D140F2017000F05BF9374884801FE047
:104930003748854206D140F2027000F051F9324802
:10494000C48015E03348854206D140F2037000F080
:1049500047F92D4804810BE02F48854208D10121F9
:1049600000F080FE40F20D6000F03AF926484481E4
:10497000701E80B2ADF80C000020ADF80E001020C3
:10498000ADF81000601E05900020ADF812008DF803
:10499000180003A9284600F0DDFC0020ADF8040053
:1049A0000120ADF800000020ADF80600ADF80200CF
:1049B000ADF80800ADF80A006A463946284600F00E
:1049C000E1FA41462046FFF773FF81464A463946E1
:1049D000284600F0FAFB60223946284600F0C8FB62
:1049E00000223946284600F003FC0121284600F049
:1049F00039FE284600F094FA284600F09AFC07B0E9
:104A0000BDE8F083002C0140C008002000040040F5
:104A100000080040000C004000340140184B596869
:104A2000184B1940164BDA6A22F000520C2820D29B
:104A3000DFE800F0060708091F0C1F0D15161718F0
:104A400000BF00BF00BF41EA803113E000BF20F08B
:104A500004004FF0805343EA803319430AE000BF5B
:104A600000BF00BF20F00C0041EA803142F000524C
:104A700000E000BF00BF024B5960DA6270470000DF
:104A800000100240FF3FFFEF2DE9F04F8CB00746CA
:104A900000200A904AA090E8004CC068CDE905BE0D
:104AA000CDF810A007900FF21C1ADAE9000ACDE940
:104AB000020A0FF2101ADAE9000ACDE9000A4448A6
:104AC0004068C0F381000B900B9820B1012804D0FE
:104AD00002283FD103E03F4A3EE03E4A3CE03C48EA
:104AE000406800F4803CBCF5803F12D13848C06A71
:104AF00000F08048B8F1000F01D1364B00E0364B92
:104B00003348406800F40039B9F5003F02D15B0832
:104B100000E0324B2E484068C0F383412C48406887
:104B200000F0006008B141F010012948406800F031
:104B3000804008B141F020010F2901D2891C06E014
:104B40000F2903D33E2901D8491C00E03F2103FB74
:104B500001F201E01F4A00BF00BF1D484068C0F3DA
:104B6000031504A8465D22FA06F419484068C0F30C
:104B7000022502A8465D24FA06F009901448406810
:104B8000C0F3C2251DF8056024FA06F0089037B17D
:104B9000012F06D0022F06D0032F0AD106E00A9279
:104BA00008E00A9406E009980A9003E008980A9041
:104BB00000E000BF00BF0A980CB0BDE8F08F000015
:104BC00000000000000000000102030406070809BD
:104BD0000010024000127A00006CDC0200093D0067
:104BE000064A02EB9011096800F01F0301229A4067
:104BF0001143024B03EB901211607047001002400A
:104C0000064A02EB9011096800F01F0301229A4046
:104C10009143024B03EB9012116070470010024069
:104C2000064A02EB9011096800F01F0301229A4026
:104C30001143024B03EB90121160704700100240C9
:104C400010B52948007838B92848006820B10020FC
:104C5000264908602649086023480078012803D0C7
:104C60002148007802280DD1002020490860214900
:104C70000870214800681E49086003201A4908701E
:104C800000F04CFD18480078032814D11B48007828
:104C900040B91B48007828B91A48007810B91A485A
:104CA000007840B1002011490860114908600E49A0
:104CB000087000F033FD0F480078A0B91048007864
:104CC00088B91048007870B90F48007858B906487C
:104CD000007840B90D480078042804D00120054927
:104CE000087000F01BFD10BD24000020AC00002067
:104CF000C0000020280000204C020020BA00002044
:104D00002700002029000020250000202A00002084
:104D100010B520210348FEF71BFE08B9012010BD85
:104D20000020FCE70008014010B5202203210248C2
:104D3000FEF780FE10BD00000008014000200021A9
:104D40003F4A126842F480323D4B1A6000BF401C5B
:104D50003B4A126802F4003119B94FF6FF729042D3
:104D6000F5D1374A126802F400320AB900BFFEE7F3
:104D7000334AD26942F08052314BDA61314A1268CB
:104D800042F440422F4B1A602D4A52682C4B5A6015
:104D90001A4652685A601A46526842F480625A6053
:104DA0001A46526822F440325A601A46526842F457
:104DB00040325A601A465268234B1A40204B5A60C0
:104DC0001A465268214B1A431D4B5A601A46126804
:104DD00042F080721A6000BF194A126802F0007235
:104DE000002AF9D0174A126842F48032154B1A6033
:104DF00000BF144A526802F48032002AF9D0114AE6
:104E0000126842F400320F4B1A6000BF0D4A52681C
:104E100002F40032002AF9D0094A526822F0030253
:104E2000074B5A601A46526842F002025A6000BFAD
:104E3000034A526802F00802002AF9D070470000C5
:104E40000010024000700040FFFFC3B700003408AC
:104E500010B5FFF773FF10BD70B5204800682049FA
:104E60000860084600681F49B0FBF1F01E49086061
:104E70001B4800681B49B0FBF1F201FB12001B4903
:104E80000860174800684FF47A71B0FBF1F4B4F190
:104E9000807F02D316A0FCF73BF82546681EB0F1D0
:104EA000807F01D301200FE0681E4FF0E0214861B0
:104EB0000F214FF0FF30FBF7D9FD00204FF0E0212C
:104EC000886107200861002010B112A0FCF720F8CB
:104ED0000021481EFBF7CAFD70BD00002C02002017
:104EE0005402002040420F00580200205C020020C3
:104EF000CAB1D6D3B9FDB8DFA3ACCEDEB7A8C5E43E
:104F0000D6C3316D73D6D0B6CFA3ACD0E8B5F7D544
:104F1000FB0A0000C5E4D6C3CAA7B0DC0A00000043
:104F2000016841F080010160704731B101290CD066
:104F3000022913D0032922D118E0836923F00C033E
:104F400083618369134383611AE0836923F44063B7
:104F50008361836943EA0223836111E0C36923F01B
:104F60000C03C361C3691343C36109E0C36923F43C
:104F70004063C361C36943EA0223C36100E000BF29
:104F800000BF704710B531B101293FD002297DD053
:104F900003297CD1BFE0036A23F001030362836924
:104FA00023F003038361036A148823430362036AC3
:104FB00023F002030362036A9488234303626A4B6B
:104FC000984202D0694B98421FD1036A23F0040330
:104FD0000362036A548823430362036A23F00803CD
:104FE0000362036AD48823430362436823F4807313
:104FF00043604368148923434360436823F4007388
:1050000043604368548923434360ABE0036A23F061
:1050100010030362836923F440738361036A148875
:1050200043EA04130362036A23F020030362036A62
:10503000948843EA041303624B4B984202D04B4BD3
:10504000984226D1036A23F040030362036A54881E
:1050500043EA04130362036A23F080030362036AD2
:10506000D48843EA04130362436823F480634360F3
:105070004368148943EA84034360436823F400636C
:1050800043604368548943EA840301E002E068E036
:10509000436067E0036A23F480730362C36923F00B
:1050A0000303C361036A148843EA04230362036AA7
:1050B00023F400730362036A948843EA04230362BF
:1050C000294B984202D0294B984223D1036A23F4FA
:1050D00080630362036A548843EA04230362036A19
:1050E00023F400630362036AD48843EA042303625F
:1050F000436823F4805343604368148943EA0413EC
:105100004360436823F4005343604368548943EA8F
:105110000413436026E0036A23F480530362C369E7
:1051200023F44073C361036A148843EA04330362BF
:10513000036A23F400530362036A948843EA043346
:105140000362094B984202D0084B984208D1436849
:1051500023F4804343604368148943EA8413436023
:1051600000E000BF00BF10BD002C01400034014032
:1051700031B101290CD0022913D0032922D118E022
:10518000836923F0700383618369134383611AE0A9
:10519000836923F4E0438361836943EA02238361E3
:1051A00011E0C36923F07003C361C3691343C36192
:1051B00009E0C36923F4E043C361C36943EA0223FE
:1051C000C36100E000BF00BF704731B1012906D0C4
:1051D000022906D0032908D105E0426306E0826374
:1051E00004E0C26302E0026400E000BF00BF704759
:1051F00031B101290CD0022913D0032922D118E0A2
:10520000836923F0080383618369134383611AE090
:10521000836923F400638361836943EA0223836122
:1052200011E0C36923F00803C361C3691343C36179
:1052300009E0C36923F40063C361C36943EA02233D
:10524000C36100E000BF00BF7047000010B5044616
:105250003349601A8C4244D00CDCB4F1804F1CD02E
:105260003048204410B3B0F5806F28D0B0F5006FFF
:1052700052D12DE0B0F5806F3CD0B0F58E3F03D019
:10528000B0F5923F48D13EE040F20B30FFF7C8FC4A
:1052900040F20B30FFF7B4FC3FE04FF48060FFF7C3
:1052A000BFFC4FF48060FFF7ABFC36E040F20140FA
:1052B000FFF7B6FC40F20140FFF7A2FC2DE040F200
:1052C0000240FFF7ADFC40F20240FFF799FC24E0FA
:1052D00040F20340FFF7A4FC40F20340FFF790FCCC
:1052E0001BE040F20440FFF79BFC40F20440FFF754
:1052F00087FC12E040F20540FFF792FC40F20540C7
:10530000FFF77EFC09E040F20D30FFF789FC40F228
:105310000D30FFF775FC00E000BF00BF10BD0000BE
:105320000010004000FCFFBF016821F00101016096
:105330007047016841F0010101607047CA43026192
:10534000704702461069084008B1012070470020EC
:10535000FCE700000A8882621D4A90420ED0B0F13C
:10536000804F0BD01B4A904208D01B4A904205D078
:105370001A4A904202D01A4A90420BD1026822F097
:105380007002026002684B881A43026002688B88D0
:105390001A4302608A68C262124A90420AD0124AD4
:1053A000904207D0026822F4407202600268CB8803
:1053B0001A430260064A904202D0094A904201D143
:1053C0000A7B0263426942F00102426170470000B9
:1053D000002C01400004004000080040000C004088
:1053E00000340140001000400014004070B5044635
:1053F0000E46154636B1012E26D0022E48D0032E79
:105400007DD168E0206A20F001002062206A20F04F
:105410000A002062206A298808432062A06920F0DF
:105420000300A061A06969880843A061A06920F019
:10543000F000A061A069E98840EA0110A061206A3B
:1054400040F0010020626DE0206A20F01000206230
:10545000206A20F0A0002062206A298840EA01101A
:105460002062A06920F44070A061A069698840EAC8
:105470000120A061A06920F47040A061A069E988C2
:1054800040EA0130A061206A40F01000206249E04B
:10549000206A20F480702062206A20F4206020625C
:1054A000206A298840EA01202062E06920F0030098
:1054B000E061E06969880843E061E06920F0F0009C
:1054C000E061E069E98840EA0110E061206A40F4A7
:1054D0008070206226E0206A20F480502062206ADA
:1054E00020F400502062206A298840EA01302062BE
:1054F000E06920F44070E061E069698800E010E054
:1055000040EA0120E061E06920F47040E061E06978
:10551000E98840EA0130E061206A40F4805020626E
:1055200000E000BF00BFAA8831462046FFF7FDFC1F
:1055300070BDC2680A43C2607047CA4302617047C7
:105540000246D06800EA01031069084010B10BB1AF
:10555000012070470020FCE710B504462046FFF705
:10556000E3FE10BD7FB504460D46B4F1804F09D16E
:10557000002211461C20FEF7D3FE4FF4E060FFF737
:105580002FFB3FE03248844209D1002211461D2002
:10559000FEF7C6FE40F20170FFF722FB32E02D4815
:1055A000844209D100220F211E20FEF7B9FE40F2ED
:1055B0000270FFF715FB25E02748844209D100223D
:1055C00011463220FEF7ACFE40F20370FFF708FBF5
:1055D00018E02248844209D1002211463620FEF705
:1055E0009FFE40F20470FFF7FBFA0BE01C48844278
:1055F00008D1002211463720FEF792FE40F20570D6
:10560000FFF7EEFA2046FFF721FE7720ADF8000005
:105610000020ADF80200ADF8040005EB4500C0EB3A
:10562000C5100121C1EBC00002900020ADF80600BA
:1056300069462046FFF78EFE01212046FFF77DFFD9
:1056400001212046FFF775FF2046FFF772FE7FBD60
:105650000004004000080040000C00400010004022
:1056600000140040012904D1426C42F4004242641B
:1056700003E0426C22F400424264704730B5846813
:1056800024F00704846084680C438460846940F2D9
:105690000335AC438461846940F201152C43846175
:1056A000046A24F00A040462046A24F0A004046278
:1056B000046A42EA03152C43046230BD00210180D4
:1056C000418081804FF6FF7181600021C1800173AC
:1056D000704700009FED0C0A0C4880ED000A9FED1A
:1056E0000C0A80ED010A9FED0A0A80ED020A0020F3
:1056F0000649C86008614861088348830548006816
:10570000054908607047000000007042C80700208B
:1057100000000000080200202000002000200249B4
:10572000C860086148837047C80700201CB504465C
:105730004FF4E1304FF48063034A5115CDE9004046
:10574000104600F003F81CBD000801402DE9F047A9
:1057500005460F4614469846DDE908694FF4C060D7
:10576000FFF73EFA5A48864204D140F20E60FFF736
:1057700037FA1EE05748864204D140F21170FFF715
:105780002FFA16E05448864204D140F21270FFF717
:1057900027FA0EE05148864204D140F21370FFF719
:1057A0001FFA06E04E48864203D140F21470FFF71C
:1057B00017FA4C48854204D140F20260FFF710FA14
:1057C0002EE04948854204D140F20360FFF708FA11
:1057D00026E04648854204D140F20460FFF700FA13
:1057E0001EE04348854204D140F20560FFF7F8F916
:1057F00016E04048854204D140F20660FFF7F0F918
:105800000EE03D48854204D140F20760FFF7E8F919
:1058100006E03A48854203D14FF4C160FFF7E0F952
:105820003B46032218212846FEF79EF82D48844265
:1058300004D140F20260FFF7D3F92EE02A488442F7
:1058400004D140F20360FFF7CBF926E027488442F9
:1058500004D140F20460FFF7C3F91EE024488442FB
:1058600004D140F20560FFF7BBF916E021488442FD
:1058700004D140F20660FFF7B3F90EE01E488442FF
:1058800004D140F20760FFF7ABF906E01B48844201
:1058900003D14FF4C160FFF7A3F94346032204216B
:1058A0002046FEF761F8304600F0BCFC4946304621
:1058B00000F066FC0421304600F02AFD0821304645
:1058C00000F02EFD304600F0F5FCBDE8F08700004A
:1058D000003801400044004000480040004C0040B7
:1058E0000050004000080140000C01400010014041
:1058F0000014014000180140001C0140002001403C
:105900002DE9F04106460F4614461D4624B139469E
:10591000304600F0F0FC03E03946304600F0DEFC93
:10592000002211462846FEF7FBFCBDE8F08170B569
:1059300005460C460521284600F0C1FC28B1284642
:1059400000F066FC2080012070BD0020FCE7B0EE76
:10595000402A72EE202AB0EE620AB4EEC10AF1EEDD
:1059600010FA01D2B0EE410AB4EEE10AF1EE10FAFB
:1059700001DDB0EE610A704730B504466018904210
:1059800000DA1046984200DD184630BD70B5054675
:105990000C46122D70D2DFE805F009223B48556213
:1059A000707D8A97A4B1BECBD8E5F2F001EE104A23
:1059B000B8EEC11AF7EE001A21EE211AF0EE410AF4
:1059C0007E4890ED001AB0EE410ADFED7D1A9FEDA2
:1059D0007D1AFFF7BCFF794880ED000AECE001EE8C
:1059E000104AB8EEC11ADFED781A21EE211AF0EE56
:1059F000410A724890ED021AB0EE410ADFED701ACA
:105A00009FED701AFFF7A3FF6C4880ED020AD3E008
:105A100004EB8400410041F2883300226B48008887
:105A200000F0F4F869490880C6E004EB8400410006
:105A300041F2883300226648008800F0E7F86449A4
:105A40000880B9E004EB8400410041F28833002271
:105A50006048008800F0DAF85E490880ACE004EBAA
:105A60008400410041F2883300225B48008800F046
:105A7000CDF8594908809FE09DE004EB8400410087
:105A800041F2883300225548008800F0BFF853499E
:105A9000088091E0322004FB00F140F6FF73002201
:105AA0004F48008800F0B2F84D49088084E0322069
:105AB00004FB00F140F6FF7300224A48008800F022
:105AC000A5F84849088077E0322004FB00F140F651
:105AD000FF7300224448008800F098F8424908808B
