:020000040800F2
:10000000C00B002045010008410A00084D08000807
:10001000F50900083B070008211400080000000053
:100020000000000000000000000000009D0A000821
:100030006907000800000000950A0008A10A0008EE
:100040005F0100085F0100085F0100085F01000810
:100050005F0100085F0100086B0700088D070008BA
:100060008F07000891070008930700085F01000848
:100070005F0100085F0100085F0100085F010008E0
:100080005F0100085F0100085F0100085F010008D0
:100090005F0100085F0100085F0100089507000884
:1000A0005F0100085F0100085F0100085F010008B0
:1000B000890B00088B0B00088D0B00085108000805
:1000C0005F010008530800085F010008970A000854
:1000D000990A00081B1400081D1400081F140008CA
:1000E0006D0700085F0100085F0100085F0100085C
:1000F0005F0100085F010008111100085F0100089E
:100100005F0100085F0100085F0100089B0A00080A
:1001100017140008191400080D1100080F11000829
:100120005F0100085F0100085F0100085F0100082F
:10013000DFF80CD000F0B2FA004800476D37000835
:10014000C00B00200648804706480047FEE7FEE750
:10015000FEE7FEE7FEE7FEE7FEE7FEE7FEE7FEE777
:10016000E10A0008310100082DE9F05F0546002092
:1001700092469B4688460646814640241BE0284618
:1001800041464746224600F0EEF853465A46C01A0A
:10019000914110D311461846224600F0D5F82D1A89
:1001A00067EB01084F4622460120002100F0CCF801
:1001B00017EB00094E41201EA4F10104DFDC484684
:1001C00031462A464346BDE8F09FD2B201E000F82E
:1001D000012B491EFBD270470022F6E710B51346EB
:1001E0000A4604461946FFF7F0FF204610BD30B519
:1001F00004460020034600E05B1C934203D2E05C0F
:10020000CD5C401BF8D030BD2DE9FE4F81EA0304E0
:1002100004F0004421F0004100944FF0000B23F063
:10022000004350EA01045ED052EA03045BD0C3F3FA
:100230000A54C1F30A552C44A4F2F3340194A0FBF0
:100240000254C1F3130141F48011C3F3130343F4C7
:10025000801301FB024400FB034E840A970A44EA20
:10026000815447EA8357A4FB076802958D0A05FB72
:1002700007854FEA932C04FB0C542705029D4FEA97
:10028000065847EA1637B5EB08056EEB070C870EE4
:10029000920E47EA811742EA8312A7FB0201B6EBEE
:1002A0000B0164EB00042B0D43EA0C335E1844EBA6
:1002B0001C50DA465146E7FB0201C5F313044FEA2E
:1002C0000B3343EA14534FEA0432019C43EA06031A
:1002D000A4F10C040294009CCDE900B400F062F893
:1002E00003B0BDE8F08F00200146F9E730B5041EE9
:1002F00071F1000404DB4FF00044404264EB010163
:10030000141E73F1000405DB1C464FF000435242FB
:1003100063EB0403994208BF904230BD30B50B46F1
:10032000014600202022012409E021FA02F59D4225
:1003300005D303FA02F5491B04FA02F52844151EF9
:10034000A2F10102F1DC30BD202A04DB203A00FAE0
:1003500002F1002070479140C2F1200320FA03F31C
:10036000194390407047202A04DB203A21FA02F01A
:100370000021704721FA02F3D040C2F120029140DF
:1003800008431946704710B5141E73F1000408DACB
:10039000401C41F1000192185B411A4301D120F049
:1003A000010010BD2DE9F04D92469B4611B1B1FA06
:1003B00081F202E0B0FA80F220329046FFF7C4FFEB
:1003C00004460F4640EA0A0041EA0B0153465A46EA
:1003D000084313D0114653EA010019D0C8F1400276
:1003E0005046FFF7C0FF05460E4650465946424666
:1003F000FFF7AAFF084305D0012004E02046394654
:10040000BDE8F08D0020054346EAE0762C433743F3
:100410000A986305E40AA0EB08000022FD0A44EAFA
:1004200047540A3002D500200146E9E701051019BA
:100430006941DDE9084500196941BDE8F04DA2E7D1
:100440002DE9FE4F804681EA0300C00F0C46009064
:1004500021F0004123F00045B8EB0200A94105D28C
:100460004046214690461C460B46024623F000407B
:10047000104347D0270DC7F30A00C3F30A51029077
:10048000401A019040286BDAC3F3130040F4801B3C
:100490000098924620B10023D2EB030A63EB0B0BCA
:1004A00001985946C0F140025046FFF74DFF0646FD
:1004B0000D4650465946019A00F002F910EB08002B
:1004C0006141002487EA115284EAE7731A4340D05D
:1004D000009A62B3019A012A4FEA075215DC001B09
:1004E00061EB02014FF0004202EA0752CDE90042FF
:1004F000001C41F5801132462B46FFF753FF03B035
:10050000BDE8F08F40462146F9E7001B61EB020190
:10051000001C41F5801300185B412018A2F500175C
:1005200047EB030140EAD570B6196D4111E06D0843
:100530004FEA360645EAC0754FEA0752001B61EBE9
:100540000201001C41F5801149084FEA30000019F2
:10055000514132462B4603B0BDE8F04FFFF713BFC1
:100560000098012240000023D0EB020263EBE0730D
:10057000009821464FEAE074B8EB000061EB0401FB
:10058000E9E783F000435BE781F0004158E72DE99C
:10059000F04D81EA030404F0004B21F000451446BD
:1005A0004FF0000A23F0004150EA050220D054EA3F
:1005B00001021DD0C5F30A570246C5F31303C1F368
:1005C0001300C1F30A5640F4801543F48013A7EBDF
:1005D0000608101BD64608F2FD3873EB050002D35F
:1005E00008F1010801E092185B41B8F1000F03DA4D
:1005F00000200146BDE8F08D00204FF48011064632
:1006000084460EE0171B73EB050705D3121B63EB43
:10061000050306434CEA010C49084FEA30009218E2
:100620005B4150EA0107EDD152EA030012D082EAA1
:10063000040083EA0501084305D0101BAB4106D234
:100640000122002306E000224FF0004302E06FF099
:10065000010253101AEB06004CEB085110EB0A0094
:1006600041EB0B01BDE8F04DFFF78DBEC1F30A521F
:10067000C1F3130140F2FF3341F480119A4202DAD0
:1006800000200146704740F233439A42A2F23342BF
:1006900002DC5242FFF767BEFFF756BE064C074D1D
:1006A00006E0E06840F0010394E807009847103442
:1006B000AC42F6D3FFF740FD18510008385100084E
:1006C000202A06DBCB17203A41FA02F043EAE07316
:1006D00006E041FA02F3D040C2F120029140084303
:1006E0001946704770B58C1810F8015B15F00703B8
:1006F00001D110F8013B2A1106D110F8012B03E0BB
:1007000010F8016B01F8016B5B1EF9D12B0705D4C2
:100710000023521E0DD401F8013BFAE710F8013B0B
:10072000CB1A921C03E013F8015B01F8015B521E27
:10073000F9D5A142D8D3002070BD00BFFEE738B57F
:1007400000F070F804466946312000F025FD0120D4
:1007500001F074FF9DF8000000F00100A04201D1FB
:10076000012038BD0020FCE77047704710B54FF4FA
:10077000805002F06FF930B14FF4805002F064F90C
:1007800001200149087010BD6400002070477047C7
:100790007047704710B5202002F05CF990B120201E
:1007A00002F052F90848007860B90848007848B962
:1007B00007480068074908600120044908702020A4
:1007C00002F032F910BD0000540000204C0000205F
:1007D00024020020500000201CB5002001904FF49E
:1007E000AF600090FFF7ABFF08B900981CBD01A9EE
:1007F000892000F0D1FC9DF8040000F01F000928BA
:100800000AD16946962000F0FDFC0098B0F5AF6F64
:1008100002D94FF4AF6000900121862000F0C8FD9E
:100820000098E3E738B56946302000F0B5FC9DF844
:10083000000000F0100000909DF80000001108B9C1
:10084000012000E000200446204638BD00BFFEE73E
:100850007047704738B50024002000904FF47A7537
:1008600040220421544802F087FD8022052152488D
:1008700002F082FD012240214F4802F0ABFC012230
:1008800080214D4802F0A6FC022001F0C9FE694615
:1008900040F20F1000F0B6FC4EF6CC2100988842D2
:1008A00003D046A0009900F0BDFD87224A490120EF
:1008B00000F086FD32201E282AD008DC022851D004
:1008C000052844D00A2837D0142856D129E03228E8
:1008D00015D042280AD064284FD165215E2000F04F
:1008E0008BFD8721612000F087FD4FE01D215E20F8
:1008F00000F082FD2721612000F07EFD46E05121BD
:100900005E2000F079FD6E21612000F075FD3DE074
:10091000D6215E2000F070FD6E21612000F06CFD9C
:1009200034E04FF4D7715E2000F066FD4FF4F471AF
:10093000612000F061FD29E040F2E1215E2000F03D
:100940005BFD4FF46271612000F056FD1EE040F245
:10095000E1315E2000F050FD40F29641612000F050
:100960004BFD13E040F291515E2000F045FD40F256
:10097000C151612000F040FD08E065215E2000F0DB
:100980003BFD8721612000F037FD00BF00BF06E07E
:10099000FFF7D5FE04466D1E012001F041FE0CB9A3
:1009A000002DF5D11CB90DA000F03CFD03E00121A4
:1009B000862000F0FDFC38BD000C0140544F463449
:1009C000303043204944204572726F723A203078AB
:1009D000253034580D0A000053020020544F46348D
:1009E00030304320496E6974204572726F72210D58
:1009F0000A00000000BFFEE700B5DFED0B1A9FED17
:100A00000B1ADFED0B0A9FED0B0A0B4800F02EF8D6
:100A1000DFED051A9FED051ADFED050A9FED050ACA
:100A2000064800F023F800BD00401C46CDCCCC3D6C
:100A3000CDCC4C3ECDCC4C3F400700205807002089
:100A40007047000010B5002807DA0A07140E054A9F
:100A500000F00F031B1FD45403E00A07130E024AD1
:100A6000135410BD18ED00E000E400E080ED000A32
:100A7000C0ED010A80ED021A9FED052A80ED032AE0
:100A80009FED032A80ED042AC0ED051A704700008F
:100A900000000000704770477047704770470000C3
:100AA00010B507480068401C054908600846006802
:100AB00020B90020086003A000F0B4FC10BD0000C5
:100AC00024020020675F6D696C6C6973B7A2C9FA74
:100AD000D2E7B3F6A3ACD0E8B5F7D5FB0A00000027
:100AE00008B52648006840F470002449086024488E
:100AF000006840F001002249086000BF20480068FB
:100B000000F002000028F9D000BF1D48406840F006
:100B100080001B4948600020009002E00098401CC3
:100B2000009000985028F9D31548406840F0900094
:100B3000134948600020009002E00098401C00909B
:100B400000985028F9D300BF0D48406820F00300FA
:100B50000B494860084600680A490840084908608F
:100B60004FF41F0088600846006820F48020086069
:100B700000204860C86203F031FC08BD88ED00E049
:100B800000100240FFFFF6FE7047704710B50121CC
:100B9000F74803F09BFF01287ED10121F44803F0C0
:100BA00092FFF4480078F4490978884207D0F34866
:100BB0000068F3490860EF480078EF490870F14891
:100BC0000078F1490978884207D0EC480068EF497D
:100BD0000860EC480078EC490870ED480078ED4971
:100BE0000978884207D0E5480068EB490860E84882
:100BF0000078E8490870E9480078E94909788842AE
:100C000007D0DE480068E7490860E4480078E44916
:100C10000870E248007800287ED1E3480078012877
:100C200024D1E248007840B9E1480078012804D195
:100C300041F27C50DF49086003E041F27070DD4909
:100C400008609FEDDD0ADD4880ED000A052001F017
:100C500017FC01F027F901F041FBD9490860D74A98
:100C60000021D748006803F0D9F8FCE1C8480078B3
:100C700001282ED1BF48007858BBB3EE060ACF48F2
:100C800080ED000A022001F0FBFB01F00BF901F0FE
:100C900025FBCB49086000E022E2C84AC948016848
:100CA000C748006803F0BAF8B4480068BA49096850
:100CB000401AB0F5707FD8D90020B54908700120DE
:100CC000B94908700020C04908600120B84908707F
:100CD000C9E1A8480078012826D1042001F0D0FB02
:100CE0000020BA490880488040F2DC50888000200B
:100CF000C8804FF47A700881A0480068A04909684C
:100D0000401AB0F5E17F02D902209A49087001F03B
:100D1000E5FAAB49086000E066E1A84A0021A8486E
:100D2000006803F07BF89EE192480078022825D104
:100D3000012001F0A5FB40F6AC50A449088000203A
:100D4000488040F2DC5088800020C88008818B48B1
:100D500000688B490968401A40F28A21884202D90A
:100D600003208449087001F0B9FA95490860934A54
:100D700000219348006803F051F874E17D48007841
:100D800003282DD1002001F07BFB00208F49088033
:100D9000488040F2DC5088800020C88040F6C410B3
:100DA00008817648006876490968401AB0F5FA7FEC
:100DB0000BD900206F49087001207B490870002082
:100DC0008349086001208349087001F087FA7C4953
:100DD00008607A4A00217A48006803F01FF842E16F
:100DE0006848007801282AD1042001F049FB9FEDD2
:100DF0007A0A724880ED000A41F27C506D49086021
:100E00004FF4966071490880002048808880C8802F
:100E100008815A4800685D490968401AB0F5967F14
:100E200002D902205749087001F058FA6449086055
:100E3000624A00216248006802F0F0FF13E1514865
:100E40000078022825D1062001F01AFB41F27C50DF
:100E50005849086000205D49088048808880C88023
:100E600040F6282008814548006848490968401A2A
:100E7000B0F5967F02D903204249087001F02EFA9E
:100E80004F4908604D4A00214D48006802F0C6FFF6
:100E9000E9E03C480078032808D1002001F0F0FA8E
:100EA00000204649488343490860DCE03548007823
:100EB000042824D1032001F0E3FA41F270703D4987
:100EC000086000204149088048808880C8804FF42D
:100ED00096600881294800682C490968401ADC2876
:100EE00002D905202749087001F0F8F93449086053
:100EF000324A00213248006802F090FFB3E02148F6
:100F00000078052832D1002001F0BAFA40F6C4106A
:100F10002E4908800020488040F2DC508880002064
:100F2000C88008811548006818490968401AB0F55A
:100F3000C87F11D900201349087001201B4908708F
:100F400019490870002025490860022024490870CA
:100F50000A4800682349086001F0C0F91849086090
:100F6000164A00211648006802F058FF7BE0000096
:100F70000008004027000020C800002024020020B4
:100F8000C400002029000020D0000020CC00002058
:100F900025000020D8000020D400002024000020DC
:100FA000E0000020DC000020280000208600002057
:100FB000850000202000002000004842E0060020BC
:100FC0001C00002088000020A00000203407002022
:100FD000A40000208400002000002042A80000207F
:100FE000260000207C0000203E480078022812D114
:100FF0003D48007878B9052001F042FA00F052FF30
:1010000001F06CF939490860394A00213748006815
:1010100002F004FF27E033480078012823D132484A
:10102000007800BB032001F02BFA00203149088032
:1010300048808880C88040F6C410088101F04EF9CD
:101040002A4908602A4A00212848006802F0E6FE82
:101050002948006829490968401AB0F5C87F02D9B3
:101060000220204908701F480078032810D11E482C
:10107000007868B94FF4FA51012002F075FC4FF482
:10108000FA51002002F070FC002001F0F9F927E08D
:101090001748408B1A490968081A00B21949088094
:1010A0001348408B16490968084400B21649088065
:1010B0001448B0F90000002802DA00201149088025
:1010C0001148B0F90000002802DA00200E4908801B
:1010D0000D48B0F900100B48B0F9000002F0B6FC62
:1010E00010BD000024000020B90000201C000020DA
:1010F000E00600203407002024020020DC0000204D
:101100002000002074000020760000207047704707
:101110007047000070B506460024002240211D489B
:1011200002F058F8012001F089FA012280211948C3
:1011300002F050F800251DE0012001F07FFA0022A6
:101140004021144802F046F8012001F077FA01220C
:101150004021104802F03EF8012001F06FFA6006CD
:10116000040E80210B4802F095F808B1601CC4B24F
:10117000681CC5B2082DDFDB00224021054802F0C3
:1011800029F8012001F05AFA304600F04DF82046C7
:1011900070BD0000000C014070B504460D460122F0
:1011A0002946204600F001F870BD2DE9F0410546C2
:1011B0000E461746002400F061F8522000F0CAF8ED
:1011C000C5F3072000F0C6F8E8B200F0C3F800F05D
:1011D00055F8532000F0BEF800BF0DE0781EA04285
:1011E00004D00120FFF796FF305503E00020FFF701
:1011F00091FF3055601CC4B2BC42EFD300F05CF8E4
:10120000BDE8F08138B505460C460020009002226A
:1012100069462846FFF7C9FF9DF801009DF80010B8
:1012200000EB0120206038BD10B5044600224021AB
:10123000114801F0CFFF012001F000FA2CB100228B
:1012400080210D4801F0C6FF04E0012280210A48F8
:1012500001F0C0FF01224021074801F0BBFF01203F
:1012600001F0ECF900224021034801F0B3FF012016
:1012700001F0E4F910BD0000000C014010B501229E
:1012800040210C4801F0A6FF01228021094801F00D
:10129000A1FF012001F0D2F900228021054801F0D0
:1012A00099FF012001F0CAF900224021014801F014
:1012B00091FF10BD000C014010B5002240210E48E6
:1012C00001F088FF002280210B4801F083FF0120FC
:1012D00001F0B4F901224021074801F07BFF012011
:1012E00001F0ACF901228021034801F073FF0120D5
:1012F00001F0A4F910BD0000000C014010B500225F
:101300004021134801F066FF012001F097F9012206
:1013100040210F4801F05EFF012001F08FF980218C
:101320000B4801F0B7FF48B100224021084801F006
:1013300051FF012001F082F9002010BD0022402160
:10134000034801F047FF012001F078F90120F4E79C
:10135000000C014070B5044608251FE004F0800031
:1013600028B101228021114801F034FF04E000225D
:1013700080210E4801F02EFF6006040E012001F0CE
:101380005DF901224021094801F024FF012001F00C
:1013900055F900224021054801F01CFF281EA5F147
:1013A0000101CDB2DAD1FFF7A9FF70BD000C0140F9
:1013B00013B50446012201A9204600F001F81CBD26
:1013C00070B504460D461646FFF758FF5220FFF74A
:1013D000C1FFC4F30720FFF7BDFFE0B2FFF7BAFF7C
:1013E00003E015F8010BFFF7B5FF301EA6F101066B
:1013F000F7D1FFF761FF70BD38B505460C46200AEE
:101400008DF80000E0B28DF80100022269462846FE
:10141000FFF7D6FF38BD7047704770477047704779
:1014200000BFFEE70FB4054B10B503A9044A0298AC
:1014300000F0DAF810BC5DF814FB0000B1310008D0
:10144000DC02002002E008C8121F08C1002AFAD1FD
:1014500070477047002001E001C1121F002AFBD134
:10146000704700002DE9FF5F82B00021DDE9043004
:10147000020DDDF840B0034318D044F61050A2F23C
:10148000FF3242431514119801281FD0A5EB0B0021
:10149000401C5FEA000A4FF000064E4FDFF838911B
:1014A000B046504615D5CAF1000413E01198012446
:1014B0004AA3012801D16FEA0B010298119AC0E9F1
:1014C0000031C0E9024206B0BDE8F09FCBF1000058
:1014D000DFE704460021404A491842EB0450CDE9B9
:1014E000001012E0E00707D032463B46404649462E
:1014F000FEF78AFE8046894632463B46104619462C
:10150000FEF782FE06460F466410002CEAD1DDE9A4
:101510000401DDE90023BAF1000F06DAFEF774FEDC
:1015200042464B46FEF770FE05E0FFF730F84246B4
:101530004B46FFF72CF804460E460022284BFEF7D8
:10154000D5FE03D84FF0FF30014607E00022254BBF
:1015500020463146FEF774FFFFF788F8102409E0B3
:10156000002C0ADB0A220023FEF7FEFD039B30322B
:101570001A55641E50EA0102F2D1641C039AC4F1A8
:1015800011031444119A012A03D0012208430DD1FA
:101590000AE0084304D000204FF0110B119072E7CD
:1015A000A3EB0B056D1E0DE05B4504DD4FF0000263
:1015B00005F1010504E003DA4FF00002A5F1010591
:1015C000002AECD002981199C0E90231C0E9004527
:1015D00079E70000000014400000F03F30000000F8
:1015E0000000F0430000E03F2DE9FF4F95B09B461F
:1015F0008946064600250FE2252877D10024274694
:10160000F84A0121059400E0044316F8013F203B0D
:1016100001FA03F01042F7D130782A2811D06FF088
:101620002F033078A0F13002092A16D8059A44F029
:10163000020402EB820203EB42021044761C059086
:10164000EFE759F8042B0592002A03DA504244F4DC
:101650000054059044F00204761C30782E2816D1F0
:1016600016F8010F44F004042A280DD06FF02F0261
:101670003078A0F13003092B09D807EB870302EB80
:101680004303C718761CF3E759F8047B761C3078BF
:101690006C280FD006DC4C2817D068280DD06A289B
:1016A00014D104E0742810D07A280FD10DE044F44E
:1016B00000140AE044F4801401E044F44014727809
:1016C000824202D104F58014761C761C307866289C
:1016D0000BD013DC582877D009DC002875D04528BA
:1016E000F6D04628F4D047281AD19DE118E06328A7
:1016F00035D0642879D0652812D195E1702873D04F
:1017000008DC6728F1D069286FD06E280DD06F28CB
:1017100006D1B5E073282CD0752875D0782874D000
:101720005A46179990476D1C75E1C4F30250022880
:1017300009D003280DD0D9F8001004280DD00D6071
:1017400009F1040967E1D9F80010EA17C1E900526C
:10175000F6E7D9F800100D80F2E70D70F0E719F800
:10176000041B8DF8001000208DF80100EA460120CE
:1017700003E059F804AB4FF0FF3061074FF0000170
:1017800002D40DE008F101018846B9420FDA804524
:10179000F8DB1AF808100029F4D108E008F101017B
:1017A00088468142FADB1AF808100029F6D105981C
:1017B0005B46A0EB080721463846179A00F094FADA
:1017C000284400EB080507E04DE029E10DE01AF898
:1017D000010B5A4617999047B8F10108F7D25B46BA
:1017E00021463846179A13E142E00A220092C4F3D8
:1017F00002524FF0000A022A08D059F804CB032AFB
:101800004FEAEC710AD00DE029E02AE009F1070166
:1018100021F00702F2E802C1914609E00FFA8CFCC0
:101820004FEAEC71042A03D14FFA8CFC4FEAEC71B9
:10183000002907DA0A460021DCF1000C61EB020105
:101840002D2202E0220504D52B228DF8042001224E
:1018500003E0E20701D02022F7E7904659E00A2191
:1018600002E010220DE010214FF0000A00910BE081
:1018700010224FF0000A44F004040827009203E00D
:1018800008224FF0000A0092C4F30252022A05D047
:1018900059F804CB0021032A08D009E009F1070117
:1018A00021F00702F2E802C1914605E01FFA8CFC24
:1018B000042A01D10CF0FF0C4FF00008220728D5B4
:1018C000702806D0009B83F0100353EA0A0305D06A
:1018D0000EE040228DF80420012208E05CEA0102BB
:1018E00006D030228DF804208DF8050002229046A3
:1018F000009B83F0080353EA0A030AD15CEA010261
:1019000001D1620705D530228DF804204FF001087F
:101910007F1E582804D034A003900EA802900DE03A
:1019200036A0F9E753466046009AFEF71DFC844650
:101930000398825C0298401E029002705CEA0100EB
:10194000F0D1029806A9081A00F1200A600702D512
:1019500024F4803400E00127574502DDA7EB0A009C
:1019600000E0002000EB0A01009005984144401A75
:101970000590E00306D45B462146179A059800F0CF
:10198000B3F90544002706E001A85A46C05D17993F
:1019900090476D1C7F1C4745F6DBE0030CD55B468A
:1019A0002146179A059800F09FF9054404E030207D
:1019B0005A46179990476D1C0099481E00900029BF
:1019C000F5DC08E0029802995A460078491C029119
:1019D000179990476D1CBAF10001AAF1010AF1DCD8
:1019E00065E10000092801003031323334353637E3
:1019F000383961626364656600000000303132335B
:101A000034353637383941424344454600000000FA
:101A100000F058F90544761C307800287FF4ECADCE
:101A200019B02846BDE8F08F620700D4062709F1F7
:101A3000070222F0070CFCE80223E14603F000480D
:101A40005FEA080C02D00FF2702C0DE05FEA045C34
:101A500002D50FF2682C07E05FEAC47C02D00FF2D7
:101A6000602C01E0AFF2700C4FF0FF3823F0004320
:101A7000CDF850C065280CD006DC452809D0462892
:101A80001DD047283DD13DE0662818D067287ED17B
:101A900038E00021112F01DB112000E0781CCDE996
:101AA000000106A90EA8FFF7DDFCDDE90F010E9A83
:101AB00003910021009207F1010A04914DE04FF0DB
:101AC00000400097CDE9011006A90EA8FFF7CAFC57
:101AD000DDE90F0203920E9B11990022DDF80CA0A4
:101AE0000093049211B9791C00EB010AB7EB0A00CC
:101AF00004D4C0F1FF3007F1010A0490AAEB0700FB
:101B0000019044E0012F00DA01270021112F01DDAF
:101B1000112000E03846CDE9000106A90EA8FFF724
:101B2000A1FCDDE90F010E9A0391002104910092BE
:101B3000BA4621070CD40399514500DA8A46BAF116
:101B4000010F05DD009AAAF10101515C302908D08E
:101B5000B84202DA10F1040F06DA0121CDE90110D2
:101B600015E0AAF10101E9E7002805DC0499014428
:101B70000491AAEB000102E0411C514500DD8A46B8
:101B80000499401A401C01904FF000400290200739
:101B900004D40198504501DBCDF8048000208DF875
:101BA0004F0002980DF14F07B0F1004F25D02B20C8
:101BB0000E9002984FF0020800280CDA4042029082
:101BC0002D200E9007E00A210298FEF7A7FB303186
:101BD000029007F8011DB8F10001A8F10108F2DC3C
:101BE00002980028EFD1791E0E980870307800F026
:101BF000200040F0450007F8020D12A8C01B00F1BC
:101C000007081498007800B1012000EB0A01019840
:101C100001EBE07105984144401A401E0590E00335
:101C200006D45B462146179A059800F05DF80544F6
:101C30001498007818B15A46179990476D1CE00324
:101C400024D55B462146179A059800F04DF80544C7
:101C50001CE00498002807DBDDE90301884203DD6E
:101C60000098405C179901E0179930205A46904738
:101C7000049805F10105401C04900198401E019054
:101C800004D12E205A46179990476D1CBAF10001D5
:101C9000AAF1010ADDDC05E017F8010B5A46179995
:101CA00090476D1CB8F10001A8F10108F4DC5B4617
:101CB0002146179A0598ABE62D0000002B00000086
:101CC000200000002DE9F041044600251E4617467D
:101CD000880404D405E039462020B0476D1C641EFA
:101CE000F9D52846BDE8F0812DE9F04104460025EC
:101CF0001E469046C80301D5302700E020278804FF
:101D000004D505E041463846B0476D1C641EF9D540
:101D10002846BDE8F081816841F00801816000BF7C
:101D2000816801F008010029FAD1816841F00401BD
:101D3000816000BF816801F004010029FAD1704779
:101D400070B504460D462946204600F0CFF870BD18
:101D500070B505460C46052322460021284600F0B2
:101D6000D7F90121284600F02DFA0221284600F07B
:101D700083F800BF0221284600F082F80028F9D03D
:101D8000284600F01BFA70BD21B1826842F400625F
:101D9000826003E0826822F4006282607047000083
:101DA00010B504461348204430B1B0F5806F0CD014
:101DB000B0F5C05F1BD111E040F2093002F05EFACD
:101DC00040F2093002F04AFA12E040F20A3002F022
:101DD00055FA40F20A3002F041FA09E040F20F30C1
:101DE00002F04CFA40F20F3002F038FA00E000BF87
:101DF00000BF10BD00DCFEBF816801F0010119B910
:101E0000816841F001018160704772B101F0010306
:101E10001BB1836843F48013836001F0020393B124
:101E2000836843F4004383600DE001F001031BB1BC
:101E3000836823F48013836001F002031BB183687D
:101E400023F4004383607047012902D0022910D196
:101E500007E0836823F4602383608368134383600F
:101E600008E0836823F4E04383608368134383605E
:101E700000E000BF00BF704702688A4302607047FD
:101E80000246002013680B4003B10120704770B573
:101E900004460D4629462046FFF75AFF06463046BF
:101EA00070BD000010B50A210E48FFF7F0FF0E4983
:101EB00008800B210B48FFF7EAFF0B4948800C21F3
:101EC0000848FFF7E4FF084988800D210548FFF71F
:101ED000DEFF0549C8800F210248FFF7D8FF0249FD
:101EE000088110BD002401403407002070B505466C
:101EF0000C464FF4C06002F0A1F902F073FA6CB125
:101F0000012C0BD0022C09D0032C07D0042C05D0B7
:101F1000052C03D0062C01D0072C04D140F202601E
:101F200002F08CF918E0082C01D0092C04D140F201
:101F3000036002F083F90FE00A2C09D00B2C07D0C4
:101F40000C2C05D00D2C03D00E2C01D00F2C03D15E
:101F500040F2046002F072F934B901230322002137
:101F6000654801F0A3F985E0012C06D10223032284
:101F70000021614801F09AF97CE0022C06D104238B
:101F8000032200215C4801F091F973E0032C06D193
:101F9000082303220021584801F088F96AE0042C44
:101FA00006D1102303220021534801F07FF961E09C
:101FB000052C06D12023032200214F4801F076F999
:101FC00058E0062C06D14023032200214A4801F0A4
:101FD0006DF94FE0072C06D18023032200214648EB
:101FE00001F064F946E0082C06D101230322002108
:101FF000424801F05BF93DE0092C06D1022303229F
:1020000000213E4801F052F934E00A2C06D10123A8
:10201000032200213A4801F049F92BE00B2C06D1AC
:10202000022303220021364801F040F922E00C2C63
:1020300006D1042303220021314801F037F919E0C9
:102040000D2C06D10823032200212D4801F02EF982
:1020500010E00E2C06D1102303220021284801F0A5
:1020600025F907E00F2C05D1202303220021244865
:1020700001F01CF92348854204D140F2096002F0C6
:10208000DDF80EE02048854204D140F20A6002F0FB
:10209000D5F806E01D48854203D140F20F6002F0FA
:1020A000CDF8022001F0E8FF2846FFF779FE002274
:1020B0000221284600F095F800224FF4807128464E
:1020C00000F08FF800212846FFF75EFE4FF46022F3
:1020D00001212846FFF7B8FE012211462846FFF7E6
:1020E00094FE2846FFF788FE012000F099FA284662
:1020F000FFF711FE70BD000000080140000C014018
:10210000001001400024014000280140003C014033
:10211000F0B51D4606290CD2436B01EB81071F2643
:10212000BE40B34301EB810602FA06F63343436334
:1021300022E00C290ED2036B8E1F06EB86071F26AA
:10214000BE40B3438E1F06EB860602FA06F6334303
:10215000036311E010290FD2C36AA1F10C0606EB4C
:1021600086071F26BE40B343A1F10C0606EB860688
:1021700002FA06F63343C3620A2A0CD2046902EB60
:1021800042070726BE40B44302EB420605FA06F6B4
:102190003443046111E0122A0FD2C468A2F10A0686
:1021A00006EB46070726BE40B443A2F10A0606EB3B
:1021B000460605FA06F63443C460F0BD0146C86C15
:1021C00080B2704701F001021AB1826842F48002C5
:1021D000826001F002021AB1826842F40012826049
:1021E0007047AAB101F480731BB1436843F4807354
:1021F000436001F480631BB1436843F48063436030
:1022000001F00203CBB1836843F00203836014E062
:1022100001F480731BB1436823F48073436001F4BD
:1022200080631BB1436823F48063436001F00203C1
:102230001BB1836823F002038360704710B5124816
:10224000007800B110BD11480078D0B100200F49CE
:102250000870FEF7C1FA0E4908600E48006880B1A8
:1022600008460068B0F5487F0BD20846006840B1C8
:102270000948007828B9002008490870012002495F
:10228000087000BFDEE70000270000206400002087
:1022900078000020A40000208400002028000020F6
:1022A00010B50446012C09D1020204210A4801F0AC
:1022B00063F801221102084800F08CFF022C09D1BA
:1022C00022020421044801F057F801225102024879
:1022D00000F080FF10BD0000000C0140164880880F
:1022E0004FF48052B2EB400F02DC501E124A908035
:1022F00011480088104A528810440F4A92880223DD
:1023000003FB02000C4A128910440B4AD288811840
:1023100009B90020704708480088074A52881044CD
:10232000054A1289801A044AD288801A64225043CE
:1023300090FBF1F0EEE700003407002030B50246D4
:10234000002013460F24002103E053F821502844B5
:10235000491CA142F9D330BD10B5002003490870D3
:102360000349084600F0A0F810BD0000130100204A
:10237000F800002010B502F035F8284802F092FC71
:102380000A212748FFF7DCFC0B212548FFF7D8FC82
:102390000C212348FFF7D4FC0D212148FFF7D0FC86
:1023A0000F211F48FFF7CCFC02F05AFC012001F07E
:1023B000ADF9022001F0AAF9032001F0A7F90420E9
:1023C00001F0A4F9052001F0A1F9062001F09EF921
:1023D00001F070FF00F0AEFB002001F0EBFA0120ED
:1023E00001F0E8FA00F058F9FEF706FB02F036FEBD
:1023F000FFF7B2FF02F060FDFEF72CFA01F0F2FBEE
:1024000001F0E2FB02F038FD0120FFF749FF022056
:10241000FFF746FF01F036F910BD0000003801401B
:10242000002401400146082915D2DFE801F0040626
:10243000080A0C120E10094870470948FCE70948C1
:10244000FAE70948F8E70948F6E70948F4E70948D0
:10245000F2E70948F0E70948EEE700000401002030
:102460000A0100200D010020FE000020FB000020DA
:102470000101002007010020F800002010010020C9
:1024800070B504460020074908702046FFF7CAFFD0
:1024900005462046FFF7C6FF0646294600F004F829
:1024A00070BD00001301002070B505460C4628469B
:1024B00002F0F0FD204602F0EDFD70BD10B50B48B6
:1024C000007888B90A48007802280DD10948807838
:1024D00050B90120FFF7D4FF002007490870012000
:1024E000064908700349887010BD000027000020CD
:1024F0002A00002094000020280000202500002051
:1025000007480078012806D10648007818B901204C
:102510000549086002E00020034908607047000098
:10252000B500002027000020A400002010B51A48A4
:102530000078C0B919480078032814D11848C07829
:1025400088B91848007870B9002017490870012030
:1025500016490860FFF794FF1548006815490860A0
:102560000120104908700F48007898B110480068A1
:1025700010490968401AB0F5BE7F0BD901200E49F9
:1025800008700020FFF77CFF01200549C87000207B
:102590000449087010BD0000270000202A00002018
:1025A00094000020E800002028000020A80000205F
:1025B00024020020E40000202900002010B5134868
:1025C000006888B91248007870B912488088B0F560
:1025D0002F6F09DD0420FFF753FF0F4800680F49F4
:1025E000086001200A4908700948007860B10A486B
:1025F00000680A490968401AC82805D9012003491A
:10260000086000200249087010BD0000AC000020E6
:10261000F00000203407002024020020EC000020FD
:1026200000B97047044A116800BF034A1268521A81
:102630008242FAD300BFF4E72402002030B50146FD
:1026400001B930BD4FF0E0239A69104B1B6801FBC4
:1026500003F40F4B1B684B430E4DB3FBF5F31C44C7
:1026600020460FE04FF0E025AB69934202D8D51A1F
:10267000401B05E04FF0E0256D69ED1A1544401B45
:102680001A4600BF0028EDDC00BFDAE73002002068
:102690003402002040420F0000B587B003A802F0CA
:1026A000D3FA0020ADF80C00ADF80E00ADF8100024
:1026B0004FF6FF7005900020ADF8120040F2026066
:1026C00001F0BCFDC32303220421214800F0EEFDEC
:1026D0004FF4E06001F0B2FD03A94FF0804002F03A
:1026E000FFF800231A4603214FF0804002F08CFAD5
:1026F000184903C9CDE9010101AA00214FF080402A
:1027000002F03AF901AA0121880702F035F94FF0E9
:10271000804002F0D4F840F2017001F08FFD03A96F
:102720000D4802F0DDF800231A4603210A4802F0A2
:102730006BFA01AA0021084802F01EF901AA012142
:10274000054802F019F9044802F0B9F807B000BDD5
:102750000008014010510008000400402DE9F04736
:1027600007460C4691464FF4C06001F067FD002219
:102770001146062001F0A4F900221146072001F0BD
:102780009FF900221146082001F09AF90022114613
:10279000092001F095F9002211460A2001F090F974
:1027A00000221146172001F08BF900221146282043
:1027B00001F086F96748874206D14FF0000840F2E1
:1027C000026001F03BFD3AE06348874206D14FF0DA
:1027D000010840F2036001F031FD30E05F488742BC
:1027E00006D14FF0020840F2046001F027FD26E018
:1027F0005B48874206D14FF0030840F2056001F0C4
:102800001DFD1CE05748874206D14FF0040840F2F6
:10281000066001F013FD12E05348874206D14FF0E5
:10282000050840F2076001F009FD08E04F488742C3
:1028300005D14FF006084FF4C16001F0FFFC012CF8
:1028400002D10025012658E0022C02D101250226E2
:1028500053E0042C02D1022504264EE0082C02D1BC
:102860000325082649E0102C02D10425102644E057
:10287000202C02D1052520263FE0402C02D1062540
:1028800040263AE0802C02D10725802635E0B4F5B9
:10289000807F02D108256E012FE0B4F5007F03D1BF
:1028A00009254FF4007628E0B4F5806F03D10A259E
:1028B0004FF4806621E0B4F5006F03D10B254FF48F
:1028C00000661AE0B4F5805F03D10C254FF4805602
:1028D00013E0B4F5005F03D10D254FF400560CE072
:1028E000B4F5804F03D10E254FF4804605E0B4F5D2
:1028F000004F02D10F254FF400462946404600F014
:102900007DFC234603220421384600F0CFFCB9F1B8
:10291000000F05D102220021304600F029F810E016
:10292000B9F1010F05D100221146304600F020F820
:1029300007E0B9F1020F04D101220021304600F076
:1029400017F8304600F080F8304600F075F8BDE822
:10295000F087000000080140000C01400010014019
:102960000014014000180140001C014000200140FB
:1029700010B52C4B1B6883432A4C2360231D1B6816
:102980008343241D2360231D1B688343241D236070
:10299000231D1B688343241D236011B101290ED11F
:1029A00005E0204B1B6803431E4C236008E01D4BD1
:1029B0001B1D1B6803431B4C241D236000E000BF4C
:1029C00000BF22B1012A0FD0022A27D119E0154BEE
:1029D00008331B680343134C08342360231D1B6812
:1029E0008343241D23601AE00E4B08331B68834386
:1029F0000C4C08342360231D1B680343241D2360F3
:102A00000DE0084B08331B680343064C0834236071
:102A1000231D1B680343241D236000E000BF00BF8B
:102A200010BD000000040140024909688143014AC9
:102A30001160704700040140024909680143014ADE
:102A400011607047000401400149086070470000B0
:102A50001404014001460748006800EA01020548E5
:102A60001438006800EA010312B10BB1012070476D
:102A70000020FCE7140401402DE9F0470646884693
:102A800091461F464FF0006000EBC62000EB0805A2
:102A9000042000FB075A00BF4FF4407000F070FAAA
:102AA0000028F9D1AAEB0500B0F5006F02D3002091
:102AB000BDE8F087002404E0286849F824002D1DB3
:102AC000641CBC42F8D30120F2E72DE9F04706462A
:102AD000884691461F4600F0EDFA40F2073000F0BC
:102AE0003FFA4FF0006000EBC62000EB0805042021
:102AF00000FB075AAAEB0500B0F5006F02D30020D7
:102B0000BDE8F08700BF284600F062FA0028FAD13D
:102B1000002409E059F82410284600F0EDFA0120BD
:102B2000FFF77EFD2D1D641CBC42F3D300F03AFA82
:102B30000120E5E710B540213D48FDF74DFB3D493B
:102B4000098889020122C2EBD1201023384A0021D2
:102B5000FFF792FF36480068B0F15A3F62D134481F
:102B6000FFF7ECFB3249C96B88425BD1304890EDEE
:102B7000010A314880ED000A2D4890ED020A2E48E6
:102B800080ED020A2A48408E012803D8284890F890
:102B9000320000E00020294908702548C068284913
:102BA000086023480069274908602148808A26492F
:102BB00008801F48C08A254908801D48008B244989
:102BC00008801B48408B234908801948808B224984
:102BD00008801748C08B214908801548008C20497F
:102BE00008801348408C1F4908801148808C1E497A
:102BF00008800F48C08C1D4908800D48008D1C4975
:102C000008800B48408D1B4908800948808D1A496F
:102C100008800748C08D194908800548008E18496A
:102C2000088003E000F02EF800F0A4F810BD0000CA
:102C300070070020E0F7FF1FE0060020FC010020E5
:102C4000B8010020BC010020C0010020C20100200A
:102C5000C4010020C6010020C8010020CA010020D4
:102C6000CC010020CE010020D0010020D2010020A4
:102C7000D4010020D6010020D8010020DA01002074
:102C8000DC0100209FED260A264880ED000A9FED1A
:102C9000260A80ED020A0020244908703C202449BD
:102CA000086001202349086064202349088041F21C
:102CB00088302249088041F664102149088040F696
:102CC000B830204908804FF448701F49088040F60A
:102CD000B8301E4908804FF448701D4908804FF4F1
:102CE00096701C49088041F268001B49088040F634
:102CF000AC501A49088040F6B8301949088040F2B3
:102D000014501849088041F2D470174908804FF4D4
:102D1000AF60164908804FF4167015490880704757
:102D200000007042E006002000000000FC010020CE
:102D3000B8010020BC010020C0010020C201002019
:102D4000C4010020C6010020C8010020CA010020E3
:102D5000CC010020CE010020D0010020D2010020B3
:102D6000D4010020D6010020D8010020DA01002083
:102D7000DC01002000B591B04FF05A3039490860AD
:102D8000394890ED000A084680ED010A364890ED7A
:102D9000020A084680ED020A34480068C8603448D8
:102DA0000068086133480088888233480088C882F8
:102DB00032480088088332480088488331480088B8
:102DC000888331480088C8833048008808843048A8
:102DD000008848842F48008888842F480088C88449
:102DE0002E48008808852E48008848852D48008890
:102DF00088852D480088C8852C48008808862C487E
:102E00000078488600204863002116488163FFF758
:102E100095FA1449C8632749098889020122C2EB3F
:102E2000D12010230F4A0021FFF74FFE10B90020D8
:102E300011B000BD1F49098889020122C2EBD120CF
:102E4000102301AA0021FFF717FE08B90020EFE7C1
:102E5000402201A90348FDF7CAF908B10020E7E7BD
:102E60000120E5E770070020E0060020B8010020FF
:102E7000BC010020C0010020C2010020C4010020CC
:102E8000C6010020C8010020CA010020CC0100209A
:102E9000CE010020D0010020D2010020D40100206A
:102EA000D6010020D8010020DA010020DC0100203A
:102EB000FC010020E0F7FF1F00B50346012200BF20
:102EC00000F00CF802465B1E012A01D1002BF7D15D
:102ED000012A00D10422104600BD000000200A494A
:102EE000C96801F0010109B101200CE00649C96877
:102EF00001F0100109B1032005E00349C96801F0A0
:102F0000040101B1022070470020024000B50346D1
:102F1000012200BF00F00CF802465B1E012A01D11D
:102F2000002BF7D1012A00D10422104600BD000079
:102F300000200A49C96C01F0010109B101200CE02F
:102F40000649C96C01F0100109B1032005E00349ED
:102F5000C96C01F0040101B1022070470020024059
:102F6000064A02EB9011096800F01F0301229A4003
:102F70001143024B03EB9012116070470020024096
:102F80000146074A02EB9110006801F01F0301227D
:102F90009A40104008B1012070470020FCE7000073
:102FA000002002400848006940F08000064908619E
:102FB00006480088B0F5007F04D90846006D40F04F
:102FC000800008657047000000200240E0F7FF1F06
:102FD00030B5054633480088B0F5007F44D9324803
:102FE00085421CD23148FFF767FF0446002C56D1BA
:102FF0002F48006940F002002D49086108464561EC
:10300000006940F0400008612848FFF755FF04467A
:103010002748006920F00200254908613FE0234865
:10302000FFF774FF0446002C39D12148006D40F0B1
:1030300002001F49086508464565C06900F00200A6
:1030400008B1084645611A48006D40F04000184933
:1030500008651648FFF75AFF04461548006D20F032
:103060000200134908651AE01048FFF725FF0446DF
:10307000ACB90F48006940F002000D4908610846EC
:103080004561006940F0400008610848FFF714FFFF
:1030900004460748006920F00200054908612046FF
:1030A00030BD0000E0F7FF1FFFFF07080000FF0F23
:1030B000002002400C48006900F0800020B10B485D
:1030C000094948600A4848600A480088B0F5007F0E
:1030D00009D90548006D00F0800020B1034802497D
:1030E0004864034848647047002002402301674554
:1030F000AB89EFCDE0F7FF1F70B504460D46002603
:1031000027480088B0F5007F31D92648844217D27D
:103110002548FFF7D1FE0646002E3ED12348006920
:1031200040F001002149086125601F48FFF7C4FEF7
:1031300006461E48006920F001001C4908612CE089
:103140001948FFF7E3FE06463EBB1848006D40F005
:1031500001001649086525601348FFF7D7FE0646AB
:103160001248006D20F001001049086515E00E4876
:10317000FFF7A2FE064686B90C48006940F0010040
:103180000A49086125600848FFF796FE0646074889
:10319000006920F0010005490861304670BD00005B
:1031A000E0F7FF1FFFFF07080000FF0F00200240AD
:1031B00070B504460D46E1B2054801F0DFFE00BFE0
:1031C0000721034801F02BFF0028F9D0204670BDED
:1031D0000038014070B505460E46144624B131460C
:1031E000284600F008F803E03146284600F001F8D0
:1031F00070BD4161704701617047000010B5002249
:103200008B071C0F0F2303FA04F204290EDA204B5C
:103210009B6893431E4CA36023469B688C07240F36
:1032200000FA04F423431A4CA3602FE008290EDAB5
:10323000174BDB689343164CE3602346DB688C072F
:10324000240F00FA04F42343114CE3601EE00C2920
:103250000EDA0F4B1B6993430D4C236123461B6908
:103260008C07240F00FA04F42343094C23610DE07A
:10327000074B5B699343064C636123465B698C078C
:10328000240F00FA04F42343014C636110BD0000D5
:103290000000014070B504460D462946204600F066
:1032A00063F808B1012070BD0020FCE7F0B50446CA
:1032B00016460025002201F00F0501F0100747B166
:1032C000042E05D145F00305E76B1F43E76300E0DB
:1032D000354300201EE0012787401F40C7B1226808
:1032E0004FEA800C0F2707FA0CF7BA43870005FA5C
:1032F00007F73A43282904D1012787401F40676117
:1033000005E0482903D1012787401F40276122603B
:10331000471CB8B20828DED3082022E001278740E6
:103320001F40E7B16268A0F108074FEA870C0F273A
:1033300007FA0CF7BA43A0F10807BF0005FA07F730
:103340003A43282904D1012787401F40676105E0DF
:10335000482903D1012787401F4027616260471C2D
:10336000B8B21028DAD3F0BD02469068084008B120
:10337000012070470020FCE770B505460C46164654
:103380003E48854204D140F2026000F057FF2EE033
:103390003B48854204D140F2036000F04FFF26E035
:1033A0003848854204D140F2046000F047FF1EE037
:1033B0003548854204D140F2056000F03FFF16E039
:1033C0003248854204D140F2066000F037FF0EE03B
:1033D0002F48854204D140F2076000F02FFF06E03D
:1033E0002C48854203D14FF4C16000F027FF34B967
:1033F0003346032200212846FFF758FF3DE0012C09
:1034000006D13346032204212846FFF74FFF34E05C
:10341000022C06D13346032228212846FFF746FF17
:103420002BE0032C06D13346032248212846FFF720
:103430003DFF22E0042C06D133460322102128460A
:10344000FFF734FF19E0052C06D13346032214217F
:103450002846FFF72BFF10E0062C06D13346032247
:1034600018212846FFF722FF07E0072C05D1334635
:1034700003221C212846FFF719FF70BD00080140F8
:10348000000C0140001001400014014000180140F0
:10349000001C0140002001400A460021016821F47F
:1034A00080611143016070472DE9F05F04460E46CC
:1034B00092460EB900BFFEE7022000F013FE074659
:1034C0004648B7FBF0F8B8F13C0F01D34FF03C0889
:1034D000D4F804B02BF07F0B4BEA080BC4F804B00F
:1034E0003F4886421ED83D48B7FBF0F000F1010985
:1034F000B9F13C0F02D33C20206207E0B9F1020F82
:1035000002D80220206201E0C4F820907000B7FBCE
:10351000F0F5042D00D20425E069C5F30B01084342
:10352000E06158E02F4886422CD84FF4967008FB93
:1035300000F04FF47A71B0FBF1F0401C2062BAF158
:10354000000F08D106EB4600B7FBF0F5E06920F468
:103550008040E06109E006EBC60000EB0610B7FB17
:10356000F0F5E06940F48040E061C5F30B0008B974
:1035700045F00105E06940F40040E061E06928435E
:10358000E06128E0C8EB0810C0004FF47A71B0FB8E
:10359000F1F0401C2062BAF1000F08D106EB4600A2
:1035A000B7FBF0F5E06920F48040E06109E006EB4C
:1035B000C60000EB0610B7FBF0F5E06940F4804070
:1035C000E061E06940F40040E061E0692843E061C7
:1035D0000120C4F89000BDE8F09F000040420F00B9
:1035E000A0860100801A0600CAB202617047016815
:1035F00041F001010160704710B540F20152914263
:1036000002D1426982690AE000EB9112126801F06E
:103610001F040123A3409A4300EB91131A6010BDCD
:1036200010B5024602EB9110006801F01F0401235F
:10363000A340184008B1012010BD0020FCE712F1A2
:10364000020F02D121F0010101E041F0010101610D
:10365000704730B50C460021016821F0020121437A
:103660000160C3F3090342EA0305856030BD0168C8
:1036700041F4807101607047016841F4007101609C
:103680007047000010B54FF4407000F07BFA022242
:1036900020211C48FFF762F800F00CFE4FF4C060D8
:1036A00000F0CCFD40F2026000F0C8FD4FF4805203
:1036B00003211448FFF760FE0C210020FFF79EFD58
:1036C000012200211003FFF753F94FF48050FFF758
:1036D000BBF900221146172000F0F2F90022022166
:1036E000282000F0EDF94FF48050FFF7A5F94FF4D2
:1036F00080510448FFF7CEFD10B90120024908703F
:1037000010BD0000000801406400002070B50546AF
:10371000002424E0144800EB04100078A8421DD1D6
:10372000114901EB04118A680F4901EB0411486843
:103730000321FFF721FE01200B4901EB041108735F
:10374000094901EB041148730020074901EB0411FA
:103750008873054901EB0411C87302E0641C062C50
:10376000D8D300BF70BD00003C01002010B5FEF7AB
:1037700001FE0120574908700A21574801F0B8F9A5
:1037800000220F211E2000F09BF99FE05348007893
:10379000D8B15348006853490968401A142814D313
:1037A00000204E49087000F079FD40B101204E49DB
:1037B00008704E480078401C4C49087005E02020F5
:1037C000FFF742F92020FFF737F94748007858B152
:1037D00000F064FD40B90020434908702020FFF745
:1037E00033F92020FFF728F9FEF78AFEFEF766FE80
:1037F000FEF79CFEFEF7E2FE3D480068012824D15A
:103800003C48007808BB3C48006830B903203B497D
:103810000870334800683849086031480068364904
:103820000968401AC82810D90020314908600120D1
:10383000304908702749087000203149C860086184
:1038400048832E4908702C490860FEF7F7FC2D4884
:103850000078032819D12C480068012815D12B487D
:10386000006818B91E480068284908601C480068AC
:1038700026490968401AB0F57A6F10D90420214909
:10388000087000202149086009E02148007830B91B
:1038900020480078022802D101201F4908701348EF
:1038A0000078042812D14FF4AF70FEF7B9FE002063
:1038B000084908700021012000F056F80021084650
:1038C00000F02CF8044801F00DF900E05EE700BFBD
:1038D000002010BD28000020000800404C000020FF
:1038E0002402002050000020540000202A00002064
:1038F000AC000020B9000020BC0000202400002003
:10390000E006002029000020A8000020C0000020C0
:103910002700002026000020B500002070B50446D6
:103920000D4642F21070854200DD00E02846054653
:1039300054B92A4600210B4800F0A8FA00220121C0
:10394000084800F0A3FA0BE0012C09D12A46032114
:10395000044800F09BFA00220221024800F096FA87
:1039600070BD00000034014070B504460D4642F2BF
:103970001070854200DD00E02846054654B900225B
:1039800011460B4800F082FA2A460121084800F04F
:103990007DFA0BE0012C09D100220321044800F03C
:1039A00075FA2A460221024800F070FA70BD000044
:1039B0000034014038B5044604BB8022062120486B
:1039C000FFF7DAFC402206211D48FFF7D5FC4FF037
:1039D000804000F001FF00204FF47A730C22012197
:1039E0000090184800F0A4FA00204FF47A730C22DB
:1039F00001460090134800F09BFA20E0012C1ED1F4
:103A0000620206210E48FFF7B7FC220206210C488D
:103A1000FFF7B2FC0C4800F0DFFE00204FF47A7391
:103A20000C2203210090074800F082FA00204FF496
:103A30007A730C2202210090024800F079FA38BD16
:103A400000100140003401400004004070B50546FC
:103A50000E4642F21074002D07DDA54200DD25B2AE
:103A6000A9B20020FFF780FF0FE0002D09DA6042C5
:103A7000854201DA604205B2A9B20020FFF74EFF8D
:103A800003E000210846FFF76FFF002E07DDA64286
:103A900000DD26B2B1B20120FFF766FF0FE0002E75
:103AA00009DA6042864201DA604206B2B1B2012010
:103AB000FFF734FF03E000210120FFF755FF70BD41
:103AC0002DE9F04103460D46164600240027A04686
:103AD0002A48006800F4E060B0F5E06F03D100BF51
:103AE0004FF0040830E02548006800F4E060B0F5CD
:103AF000C06F03D101274FF0030825E01F4800687D
:103B000000F4E060B0F5A06F02D10227B8461BE0D8
:103B10001A48006800F4E060B0F5806F03D1032715
:103B20004FF0010810E01548006800F4E060B0F5BF
:103B3000407F03D104274FF0000805E04FF4A06058
:103B400000F020F80227B846C7F1040005FA00F497
:103B5000C8F104010F20C840304004432401084844
:103B6000C45403F01F01012088405911890001F15C
:103B7000E021C1F80001BDE8F08100000CED00E09B
:103B800000E400E002490143024A1160704700006E
:103B90000000FA050CED00E070B500240CE00025F3
:103BA00006E00020074901EBC5010855681CC5B2B5
:103BB000802DF6DB601CC4B2082CF0DB00F0A2F80C
:103BC00070BD0000E002002010B500218D2000F043
:103BD0000BF90021142000F007F90021AF2000F0BC
:103BE00003F910BD10B540F2036000F027FB40F26E
:103BF000167000F023FB4FF4406303221C213E4863
:103C0000FFF754FB00223D493D48FFF74DFC782368
:103C1000002211463A48FFF71CFD3948FFF7E7FC40
:103C20004FF480613648FFF737FC4FF44870FEF7D9
:103C3000F7FC0021AE2000F0D7F80021084600F084
:103C4000D3F80021102000F0CFF80021402000F030
:103C5000CBF80021B02000F0C7F80021812000F04F
:103C6000C3F80021FF2000F0BFF80021A12000F0E0
:103C7000BBF80021A62000F0B7F80021A82000F032
:103C8000B3F800213F2000F0AFF80021C82000F079
:103C9000ABF80021D32000F0A7F80021084600F07F
:103CA000A3F80021D52000F09FF80021802000F02B
:103CB0009BF80021D82000F097F80021052000F0A3
:103CC00093F80021D92000F08FF80021F12000F0B6
:103CD0008BF80021DA2000F087F80021122000F094
:103CE00083F80021DB2000F07FF80021302000F075
:103CF0007BF8FFF751FF10BD000C0140A0860100CA
:103D00000058004070B500241CE004F1B001C8B2B6
:103D1000002100F069F80021084600F065F8002154
:103D2000102000F061F8002508E0084901EBC5010A
:103D3000085D012100F058F8681CC5B2802DF4DB45
:103D4000601CC4B2082CE0DB70BD0000E002002063
:103D50002DE9F04105460E46174600BF40F20161CD
:103D60002048FFF75DFC0028F8D11E48FFF77FFCD4
:103D700000BF4FF4A0611B48FFF752FC0028F8D0A9
:103D80006FF0010229461748FFF759FC00BF40F2C7
:103D900001511448FFF744FC0028F8D040F20151CB
:103DA0001048FFF729FC00240DE0315D0D48FFF7B6
:103DB0001BFC00BF40F207510A48FFF731FC002806
:103DC000F8D0601CC4B2BC42EFD30648FFF754FCE5
:103DD00000BF0448006800F400700028F9D1BDE875
:103DE000F08100000058004038B504460D4655B13A
:103DF00040208DF800008DF80140022269467820AD
:103E0000FFF7A6FF09E000208DF800008DF80140C3
:103E1000022269467820FFF79BFF38BD30B50B1AA8
:103E2000D360D2ED000AD36800EE103AB8EEC00AB3
:103E300020EE800ABDEEC00A10EE103AD468156973
:103E4000641B00EE104AB8EEC00AD2ED020A20EE62
:103E5000200ABDEEC00A10EE104A23441BB2538361
:103E6000D3681361B2F91A3042F21074A34201DD33
:103E700023465383B2F91A30034CA34202DA4DF6BB
:103E8000F003538330BD0000F0D8FFFF2DE9F0416F
:103E900004460E4617461748844202D11648058844
:103EA0001CE0B4F1804F02D11348458816E0134856
:103EB000844202D11048858810E01148844202D122
:103EC0000D48C5880AE00F48844202D10A48058996
:103ED00004E00D48844201D1074845893946284607
:103EE00000F014F88046B1B24246204600F033FCA0
:103EF000BDE8F081002C0140B00700200004004024
:103F000000080040000C00400034014002460AB99D
:103F10000020704742F21070814201DB901EF8E7EA
:103F200001FB02F042F21073B0FBF3F0F1E7000086
:103F30002DE9F04387B005460F4616461C46DDF8CE
:103F400038804FF4C06000F079F94548854209D1C6
:103F5000012100F04DFE40F20B6000F06FF9414886
:103F6000048033E0B5F1804F06D14FF4E06000F0FB
:103F700065F93C48448029E03B48854206D140F23F
:103F8000017000F05BF9374884801FE037488542B4
:103F900006D140F2027000F051F93248C48015E0B9
:103FA0003348854206D140F2037000F047F92D48AE
:103FB00004810BE02F48854208D1012100F018FE52
:103FC00040F20D6000F03AF926484481701E80B23C
:103FD000ADF80C000020ADF80E001020ADF8100078
:103FE000601E05900020ADF812008DF8180003A99E
:103FF000284600F075FC0020ADF804000120ADF863
:1040000000000020ADF80600ADF80200ADF8080091
:10401000ADF80A006A463946284600F079FA41466A
:104020002046FFF773FF81464A463946284600F08E
:1040300092FB60223946284600F060FB0022394698
:10404000284600F09BFB0121284600F0D1FD2846C0
:1040500000F02CFA284600F032FC07B0BDE8F083EF
:10406000002C0140B0070020000400400008004080
:10407000000C004000340140184B5968184B19409F
:10408000164BDA6A22F000520C2820D2DFE800F04A
:10409000060708091F0C1F0D1516171800BF00BFD3
:1040A00000BF41EA803113E000BF20F004004FF070
:1040B000805343EA803319430AE000BF00BF00BFCA
:1040C00020F00C0041EA803142F0005200E000BFD5
:1040D00000BF024B5960DA627047000000100240D6
:1040E000FF3FFFEF2DE9F04F8CB0074600200A900C
:1040F0004AA090E8004CC068CDE905BECDF810A0FC
:1041000007900FF21C1ADAE9000ACDE9020A0FF251
:10411000101ADAE9000ACDE9000A44484068C0F301
:1041200081000B900B9820B1012804D002283FD1C8
:1041300003E03F4A3EE03E4A3CE03C48406800F431
:10414000803CBCF5803F12D13848C06A00F08048FE
:10415000B8F1000F01D1364B00E0364B33484068D0
:1041600000F40039B9F5003F02D15B0800E0324BA2
:104170002E484068C0F383412C48406800F000603E
:1041800008B141F010012948406800F0804008B1B2
:1041900041F020010F2901D2891C06E00F2903D329
:1041A0003E2901D8491C00E03F2103FB01F201E058
:1041B0001F4A00BF00BF1D484068C0F3031504A894
:1041C000465D22FA06F419484068C0F3022502A8A9
:1041D000465D24FA06F0099014484068C0F3C225F1
:1041E0001DF8056024FA06F0089037B1012F06D0BB
:1041F000022F06D0032F0AD106E00A9208E00A94A3
:1042000006E009980A9003E008980A9000E000BFD1
:1042100000BF0A980CB0BDE8F08F0000000000005D
:104220000000000001020304060708090010024014
:1042300000127A00006CDC0200093D00064A02EB25
:104240009011096800F01F0301229A401143024BAC
:1042500003EB90121160704700100240064A02EB17
:104260009011096800F01F0301229A409143024B0C
:1042700003EB90121160704700100240064A02EBF7
:104280009011096800F01F0301229A401143024B6C
:1042900003EB9012116070470010024010B520210E
:1042A0000348FEF7F7FF08B9012010BD0020FCE726
:1042B0000008014010B5202203210248FFF75CF8F6
:1042C00010BD000000080140002000213F4A126894
:1042D00042F480323D4B1A6000BF401C3B4A1268DA
:1042E00002F4003119B94FF6FF729042F5D1374A06
:1042F000126802F400320AB900BFFEE7334AD269FD
:1043000042F08052314BDA61314A126842F4404245
:104310002F4B1A602D4A52682C4B5A601A4652682D
:104320005A601A46526842F480625A601A465268CD
:1043300022F440325A601A46526842F440325A60BF
:104340001A465268234B1A40204B5A601A4652684C
:10435000214B1A431D4B5A601A46126842F0807274
:104360001A6000BF194A126802F00072002AF9D0E0
:10437000174A126842F48032154B1A6000BF144A83
:10438000526802F48032002AF9D0114A126842F4CD
:1043900000320F4B1A6000BF0D4A526802F400321F
:1043A000002AF9D0094A526822F00302074B5A60EA
:1043B0001A46526842F002025A6000BF034A52682D
:1043C00002F00802002AF9D07047000000100240F5
:1043D00000700040FFFFC3B70000340810B5FFF7BE
:1043E00073FF10BD70B5204800682049086008467A
:1043F00000681F49B0FBF1F01E4908601B480068C7
:104400001B49B0FBF1F201FB12001B490860174881
:1044100000684FF47A71B0FBF1F4B4F1807F02D3FD
:1044200016A0FCF7FFFF2546681EB0F1807F01D380
:1044300001200FE0681E4FF0E02148610F214FF08E
:10444000FF30FCF7FFFA00204FF0E02188610720E1
:104450000861002010B112A0FCF7E4FF0021481E03
:10446000FCF7F0FA70BD0000040200202C020020CE
:1044700040420F003002002034020020CAB1D6D3DF
:10448000B9FDB8DFA3ACCEDEB7A8C5E4D6C3316DA5
:1044900073D6D0B6CFA3ACD0E8B5F7D5FB0A0000F1
:1044A000C5E4D6C3CAA7B0DC0A000000016841F029
:1044B00080010160704731B101290CD0022913D06D
:1044C000032922D118E0836923F00C0383618369F7
:1044D000134383611AE0836923F440638361836932
:1044E00043EA0223836111E0C36923F00C03C36133
:1044F000C3691343C36109E0C36923F44063C36123
:10450000C36943EA0223C36100E000BF00BF7047F4
:1045100010B531B101293FD002297DD003297CD1CA
:10452000BFE0036A23F001030362836923F00303FE
:104530008361036A148823430362036A23F002033E
:104540000362036A9488234303626A4B984202D051
:10455000694B98421FD1036A23F004030362036A84
:10456000548823430362036A23F008030362036A47
:10457000D48823430362436823F480734360436811
:10458000148923434360436823F400734360436802
:10459000548923434360ABE0036A23F010030362B2
:1045A000836923F440738361036A148843EA041324
:1045B0000362036A23F020030362036A948843EAD8
:1045C000041303624B4B984202D04B4B984226D1C6
:1045D000036A23F040030362036A548843EA041326
:1045E0000362036A23F080030362036AD48843EA08
:1045F00004130362436823F48063436043681489AF
:1046000043EA84034360436823F4006343604368E0
:10461000548943EA840301E002E068E0436067E014
:10462000036A23F480730362C36923F00303C36145
:10463000036A148843EA04230362036A23F40073C1
:104640000362036A948843EA04230362294B984275
:1046500002D0294B984223D1036A23F4806303627A
:10466000036A548843EA04230362036A23F4006361
:104670000362036AD48843EA04230362436823F491
:10468000805343604368148943EA041343604368DA
:1046900023F4005343604368548943EA041343609E
:1046A00026E0036A23F480530362C36923F4407352
:1046B000C361036A148843EA04330362036A23F480
:1046C00000530362036A948843EA04330362094B8C
:1046D000984202D0084B984208D1436823F48043A3
:1046E00043604368148943EA8413436000E000BFD9
:1046F00000BF10BD002C01400034014031B1012940
:104700000CD0022913D0032922D118E0836923F0A9
:10471000700383618369134383611AE0836923F41F
:10472000E0438361836943EA0223836111E0C36943
:1047300023F07003C361C3691343C36109E0C36914
:1047400023F4E043C361C36943EA0223C36100E089
:1047500000BF00BF704731B1012906D0022906D041
:10476000032908D105E0426306E0826304E0C263E6
:1047700002E0026400E000BF00BF704731B10129D0
:104780000CD0022913D0032922D118E0836923F029
:10479000080383618369134383611AE0836923F407
:1047A00000638361836943EA0223836111E0C36983
:1047B00023F00803C361C3691343C36109E0C369FC
:1047C00023F40063C361C36943EA0223C36100E0C9
:1047D00000BF00BF7047000010B504463349601A9F
:1047E0008C4244D00CDCB4F1804F1CD030482044C3
:1047F00010B3B0F5806F28D0B0F5006F52D12DE026
:10480000B0F5806F3CD0B0F58E3F03D0B0F5923F4D
:1048100048D13EE040F20B30FFF730FD40F20B3064
:10482000FFF71CFD3FE04FF48060FFF727FD4FF4DA
:104830008060FFF713FD36E040F20140FFF71EFDF8
:1048400040F20140FFF70AFD2DE040F20240FFF781
:1048500015FD40F20240FFF701FD24E040F2034065
:10486000FFF70CFD40F20340FFF7F8FC1BE040F2BD
:104870000440FFF703FD40F20440FFF7EFFC12E0B5
:1048800040F20540FFF7FAFC40F20540FFF7E6FC76
:1048900009E040F20D30FFF7F1FC40F20D30FFF778
:1048A000DDFC00E000BF00BF10BD000000100040B4
:1048B00000FCFFBF016821F0010101607047016841
:1048C00041F0010101607047CA430261704702462E
:1048D0001069084008B1012070470020FCE7000083
:1048E0000A8882621D4A90420ED0B0F1804F0BD0F0
:1048F0001B4A904208D01B4A904205D01A4A904267
:1049000002D01A4A90420BD1026822F07002026073
:1049100002684B881A43026002688B881A4302605F
:104920008A68C262124A90420AD0124A904207D064
:10493000026822F4407202600268CB881A43026067
:10494000064A904202D0094A904201D10A7B026392
:10495000426942F00102426170470000002C0140B0
:104960000004004000080040000C004000340140FA
:10497000001000400014004070B504460E46154675
:1049800036B1012E26D0022E48D0032E7DD168E00C
:10499000206A20F001002062206A20F00A002062D4
:1049A000206A298808432062A06920F00300A061E2
:1049B000A06969880843A061A06920F0F000A061A7
:1049C000A069E98840EA0110A061206A40F0010076
:1049D00020626DE0206A20F010002062206A20F042
:1049E000A0002062206A298840EA01102062A069A4
:1049F00020F44070A061A069698840EA0120A061AC
:104A0000A06920F47040A061A069E98840EA013003
:104A1000A061206A40F01000206249E0206A20F482
:104A200080702062206A20F420602062206A298839
:104A300040EA01202062E06920F00300E061E069C3
:104A400069880843E061E06920F0F000E061E06916
:104A5000E98840EA0110E061206A40F48070206239
:104A600026E0206A20F480502062206A20F4005062
:104A70002062206A298840EA01302062E06920F43F
:104A80004070E061E069698800E010E040EA0120E0
:104A9000E061E06920F47040E061E069E98840EAA3
:104AA0000130E061206A40F48050206200E000BFE5
:104AB00000BFAA8831462046FFF7FDFC70BDC268E2
:104AC0000A43C2607047CA43026170470246D06819
:104AD00000EA01031069084010B10BB101207047D2
:104AE0000020FCE710B504462046FFF7E3FE10BDAA
:104AF0007FB504460D46B4F1804F09D1002211461E
:104B00001C20FEF7DDFF4FF4E060FFF797FB3FE06E
:104B10003248844209D1002211461D20FEF7D0FF01
:104B200040F20170FFF78AFB32E02D48844209D140
:104B300000220F211E20FEF7C3FF40F20270FFF794
:104B40007DFB25E02748844209D10022114632200E
:104B5000FEF7B6FF40F20370FFF770FB18E0224843
:104B6000844209D1002211463620FEF7A9FF40F207
:104B70000470FFF763FB0BE01C48844208D100225D
:104B800011463720FEF79CFF40F20570FFF756FBF9
:104B90002046FFF721FE7720ADF800000020ADF899
:104BA0000200ADF8040005EB4500C0EBC510012183
:104BB000C1EBC00002900020ADF806006946204617
:104BC000FFF78EFE01212046FFF77DFF01212046E1
:104BD000FFF775FF2046FFF772FE7FBD000400401F
:104BE00000080040000C004000100040001400408D
:104BF000012904D1426C42F40042426403E0426C59
:104C000022F400424264704730B5846824F00704FF
:104C1000846084680C438460846940F20335AC434B
:104C20008461846940F201152C438461046A24F094
:104C30000A040462046A24F0A0040462046A42EADA
:104C400003152C43046230BD002101804180818026
:104C50004FF6FF7181600021C18001737047000031
:104C60009FED0C0A0C4880ED000A9FED0C0A80EDC8
:104C7000010A9FED0A0A80ED020A00200649C86079
:104C8000086148610883488341F2707004490860F4
:104C90007047000000007042E006002000000000A5
:104CA000200000201CB504464FF4E1304FF480632F
:104CB000034A5115CDE90040104600F003F81CBD31
:104CC000000801402DE9F04705460F461446984676
:104CD000DDE908694FF4C060FFF7B0FA5A48864230
:104CE00004D140F20E60FFF7A9FA1EE05748864251
:104CF00004D140F21170FFF7A1FA16E05448864241
:104D000004D140F21270FFF799FA0EE05148864242
:104D100004D140F21370FFF791FA06E04E48864244
:104D200003D140F21470FFF789FA4C48854204D150
:104D300040F20260FFF782FA2EE04948854204D132
:104D400040F20360FFF77AFA26E04648854204D134
:104D500040F20460FFF772FA1EE04348854204D136
:104D600040F20560FFF76AFA16E04048854204D138
:104D700040F20660FFF762FA0EE03D48854204D13A
:104D800040F20760FFF75AFA06E03A48854203D13D
:104D90004FF4C160FFF752FA3B4603221821284620
:104DA000FEF784FA2D48844204D140F20260FFF7F6
:104DB00045FA2EE02A48844204D140F20360FFF70E
:104DC0003DFA26E02748844204D140F20460FFF710
:104DD00035FA1EE02448844204D140F20560FFF712
:104DE0002DFA16E02148844204D140F20660FFF714
:104DF00025FA0EE01E48844204D140F20760FFF716
:104E00001DFA06E01B48844203D14FF4C160FFF74E
:104E100015FA4346032204212046FEF747FA30469E
:104E200000F0B0F84946304600F060F80421304602
:104E300000F004F90821304600F008F9304600F08F
:104E4000E9F8BDE8F0870000003801400044004068
:104E500000480040004C0040005000400008014065
:104E6000000C0140001001400014014000180140F6
:104E7000001C01400020014010B5002009490870C5
:104E80000949087009490870012009490870002083
:104E90008870C8704870FF2006490870FEF77CFED5
:104EA00010BD0000F9010020FA010020FB010020E4
:104EB000FD0100200102002010B54FF4C060FFF793
:104EC000BDF94FF4006204210748FEF755FA0022AD
:104ED0004FF400610448FEF77DF94FF4806202212F
:104EE0000148FEF749FA10BD001001402DE9F047D6
:104EF00004460D460027B846B94600261D49601AEB
:104F00008C421CD006DC1C48204470B1B0F5806F88
:104F10001FD10FE0B0F5806F16D0B0F56C4F18D1EF
:104F20000320FFF7DFF8074614E00220FFF7DAF866
:104F300007460FE00220FFF7D5F807460AE00220F7
:104F4000FFF7D0F8074605E00220FFF7CBF8074649
:104F500000E000BF00BF07EB5500B0FBF5F64FF6D1
:104F6000F07006EA000806F00F0948EA0900A060A0
:104F7000BDE8F087004C004000BCFFBFC1F3080251
:104F80004260704710B504462049601A8C4228D010
:104F900006DC1F48204490B1B0F5806F33D117E094
:104FA000B0F5806F26D0B0F56C4F2CD140F20E30AA
:104FB000FFF764F940F20E30FFF750F924E040F2B9
:104FC0001140FFF75BF940F21140FFF747F91BE092
:104FD00040F21240FFF752F940F21240FFF73EF95B
:104FE00012E040F21340FFF749F940F21340FFF797
:104FF00035F909E040F21440FFF740F940F214405F
:10500000FFF72CF900E000BF00BF10BD004C0040CE
:1050100000BCFFBFC16841F40051C160704710B5CA
:10502000024602EB9110006801F01F040123A34027
:10503000184008B1012010BD0020FCE70A460021FD
:10504000C16821F004011143C16070470A46002184
:10505000C16821F008011143C160704708B54FF4E1
:10506000C060FFF7EBF840F20B60FFF7E7F84FF492
:10507000807206210548FEF77FF9002014230F22D5
:10508000014600900248FEF753FF08BD00080140AA
:10509000002C0140F8B5044660788DF800002078B7
:1050A0008DF80100A0788DF8020000252AE008267E
:1050B00025E01DF80500711E084100F0010030B127
:1050C00040F6B83200211148FEF7E0FE05E04FF44B
:1050D0007A7200210D48FEF7D9FE0C48FFF7EFFB6E
:1050E00000BF01210948FFF7F2FB0028F9D007486B
:1050F000FFF7E0FB01210548FFF7E6FB761E002ED7
:10510000D7D16D1C032DD2D3F8BD0000002C014077
:105110000000010000000F003851000800000020CE
:10512000E0020000E406000838520008E002002017
:10513000E008000054140008511AFF02112BFFFF71
:10514000053907190454A7C8E2033A70171A055124
:10515000012832453264B201290CA9100151091904
:10516000F80922282A019D140801401A08A8190CE0
:105170004B0202102A10B819103303033C0C0140F3
:10518000C819054B040410292729103305051A10E6
:1051900040193129103306062C14014027395C09C7
:1051A000197C2A3C24311264280988136419B80B2D
:1051B00020030428102C016810AC0DB80B1405D482
:1051C0001778055869091AE629411917110C1D0E9F
:1051D00027072A011609143014290210180825BCC3
:1051E0005181090793121575FFFE0D6A17CE411202
:1051F00030B3170A1311021302084B0810F212FF02
:1052000049B523200B4C02FF21A411228C1438FF36
:105210000112271234136507158705016844C00879
:10522000381399C85203170207050606031D02C763
:08523000FFDB421B01013B41C1
:0400000508000131BD
:00000001FF
