:020000040800F2
:10000000880B0020450100084D0A00085908000827
:10001000010A000863070008050F0008000000003F
:10002000000000000000000000000000A90A000815
:100030009107000800000000A10A0008AD0A0008AE
:100040005F0100085F0100085F0100085F01000810
:100050005F0100085F010008930700089707000888
:10006000990700089B0700089D0700085F0100082A
:100070005F0100085F0100085F0100085F010008E0
:100080005F0100085F0100085F0100085F010008D0
:100090005F0100085F0100085F010008A107000878
:1000A0005F0100085F0100085F0100085F010008B0
:1000B000950B0008970B0008990B00085D080008D5
:1000C0005F0100085F0800085F010008A30A00083C
:1000D000A50A0008FF0E0008010F0008030F000822
:1000E000950700085F0100085F0100085F01000834
:1000F0005F0100085F010008F50B00085F010008C0
:100100005F0100085F010008C10B0008A70A000892
:10011000FB0E0008FD0E0008F10B0008F30B0008B1
:100120005F0100085F0100085F0100085F0100082F
:10013000DFF80CD000F0C6FA004800476537000829
:10014000880B00200648804706480047FEE7FEE788
:10015000FEE7FEE7FEE7FEE7FEE7FEE7FEE7FEE777
:10016000ED0A0008310100082DE9F05F0546002086
:1001700092469B4688460646814640241BE0284618
:1001800041464746224600F002F953465A46C01AF5
:10019000914110D311461846224600F0E9F82D1A75
:1001A00067EB01084F4622460120002100F0E0F8ED
:1001B00017EB00094E41201EA4F10104DFDC484684
:1001C00031462A464346BDE8F09FD2B201E000F82E
:1001D000012B491EFBD270470022F6E710B51346EB
:1001E0000A4604461946FFF7F0FF204610BD30B519
:1001F00004460020034600E05B1C934203D2E05C0F
:10020000CD5C401BF8D030BD2DE9FE4F81EA0304E0
:1002100004F0004421F0004100944FF0000B23F063
:10022000004350EA01045ED052EA03045BD0C3F3FA
:100230000A54C1F30A552C44A4F2F3340194A0FBF0
:100240000254C1F3130141F48011C3F3130343F4C7
:10025000801301FB024400FB034E840A970A44EA20
:10026000815447EA8357A4FB076802958D0A05FB72
:1002700007854FEA932C04FB0C542705029D4FEA97
:10028000065847EA1637B5EB08056EEB070C870EE4
:10029000920E47EA811742EA8312A7FB0201B6EBEE
:1002A0000B0164EB00042B0D43EA0C335E1844EBA6
:1002B0001C50DA465146E7FB0201C5F313044FEA2E
:1002C0000B3343EA14534FEA0432019C43EA06031A
:1002D000A4F10C040294009CCDE900B400F076F87F
:1002E00003B0BDE8F08F00200146F9E700F00042BE
:1002F00030F000400AD0C10D01F56071C0F3160066
:1003000042EA0151C20840071143704700200146EC
:100310007047000030B5041E71F1000404DB4FF09B
:100320000044404264EB0101141E73F1000405DB3C
:100330001C464FF00043524263EB0403994208BF4E
:10034000904230BD30B50B460146002020220124EA
:1003500009E021FA02F59D4205D303FA02F5491B93
:1003600004FA02F52844151EA2F10102F1DC30BDA9
:10037000202A04DB203A00FA02F100207047914065
:10038000C2F1200320FA03F3194390407047202A5A
:1003900004DB203A21FA02F00021704721FA02F32F
:1003A000D040C2F12002914008431946704710B571
:1003B000141E73F1000408DA401C41F10001921888
:1003C0005B411A4301D120F0010010BD2DE9F04D31
:1003D00092469B4611B1B1FA81F202E0B0FA80F286
:1003E00020329046FFF7C4FF04460F4640EA0A0059
:1003F00041EA0B0153465A46084313D0114653EACB
:10040000010019D0C8F140025046FFF7C0FF054671
:100410000E46504659464246FFF7AAFF084305D00C
:10042000012004E020463946BDE8F08D0020054358
:1004300046EAE0762C4337430A986305E40AA0EBCA
:1004400008000022FD0A44EA47540A3002D5002081
:100450000146E9E7010510196941DDE90845001980
:100460006941BDE8F04DA2E72DE9FE4F804681EAE3
:100470000300C00F0C46009021F0004123F000451E
:10048000B8EB0200A94105D24046214690461C46E1
:100490000B46024623F00040104347D0270DC7F318
:1004A0000A00C3F30A510290401A019040286BDA07
:1004B000C3F3130040F4801B0098924620B1002340
:1004C000D2EB030A63EB0B0B01985946C0F14002D3
:1004D0005046FFF74DFF06460D4650465946019AD5
:1004E00000F002F910EB08006141002487EA115284
:1004F00084EAE7731A4340D0009A62B3019A012A52
:100500004FEA075215DC001B61EB02014FF000427D
:1005100002EA0752CDE90042001C41F58011324643
:100520002B46FFF753FF03B0BDE8F08F404621464E
:10053000F9E7001B61EB0201001C41F58013001874
:100540005B412018A2F5001747EB030140EAD57084
:10055000B6196D4111E06D084FEA360645EAC075DF
:100560004FEA0752001B61EB0201001C41F58011AC
:1005700049084FEA30000019514132462B4603B07A
:10058000BDE8F04FFFF713BF0098012240000023A1
:10059000D0EB020263EBE073009821464FEAE0746F
:1005A000B8EB000061EB0401E9E783F000435BE78F
:1005B00081F0004158E72DE9F04D81EA030404F091
:1005C000004B21F0004514464FF0000A23F0004193
:1005D00050EA050220D054EA01021DD0C5F30A57A3
:1005E0000246C5F31303C1F31300C1F30A5640F4E6
:1005F000801543F48013A7EB0608101BD64608F2BB
:10060000FD3873EB050002D308F1010801E09218F0
:100610005B41B8F1000F03DA00200146BDE8F08D20
:1006200000204FF48011064684460EE0171B73EB42
:10063000050705D3121B63EB050306434CEA010CC7
:1006400049084FEA300092185B4150EA0107EDD1AA
:1006500052EA030012D082EA040083EA050108434B
:1006600005D0101BAB4106D20122002306E0002278
:100670004FF0004302E06FF0010253101AEB060046
:100680004CEB085110EB0A0041EB0B01BDE8F04DBB
:10069000FFF78DBEC1F30A52C1F3130140F2FF33DD
:1006A00041F480119A4202DA00200146704740F27C
:1006B00033439A42A2F2334202DC5242FFF767BE52
:1006C000FFF756BE064C074D06E0E06840F0010318
:1006D00094E8070098471034AC42F6D3FFF72CFD9E
:1006E0006869000888690008202A06DBCB17203AD1
:1006F00041FA02F043EAE07306E041FA02F3D04027
:10070000C2F12002914008431946704770B58C1819
:1007100010F8015B15F0070301D110F8013B2A1115
:1007200006D110F8012B03E010F8016B01F8016B02
:100730005B1EF9D12B0705D40023521E0DD401F8FE
:10074000013BFAE710F8013BCB1A921C03E013F8C7
:10075000015B01F8015B521EF9D5A142D8D30020FC
:1007600070BD00BFFEE738B500F062F80446694688
:10077000312000F083FA012001F042FF9DF80000D3
:1007800000F00100A04201D1012038BD0020FCE7AB
:100790007047704770477047704770477047000058
:1007A00010B5202002F038F990B1202002F02EF987
:1007B0000848007860B90848007848B907480068D8
:1007C00007490860012004490870202002F00EF952
:1007D00010BD0000540000204C000020EC0100205F
:1007E000500000201CB5002001904FF4AF60009035
:1007F000FFF7B9FF08B900981CBD01A9892000F0D6
:100800003DFA9DF8040000F01F0009280AD169464E
:10081000962000F069FA0098B0F5AF6F02D94FF456
:10082000AF6000900121862000F034FB0098E3E7E0
:1008300038B56946302000F021FA9DF8000000F03C
:10084000100000909DF80000001108B9012000E0A0
:1008500000200446204638BD00BFFEE770477047C1
:1008600038B50024002000904FF47A75402204210E
:10087000544802F063FD80220521524802F05EFDDB
:10088000012240214F4802F087FC012280214D487F
:1008900002F082FC022001F0A5FE694640F20F1032
:1008A00000F022FA4EF6CC210098884203D046A0F0
:1008B000009900F029FB87224A49012000F0F2FA52
:1008C00032201E282AD008DC022851D0052844D026
:1008D0000A2837D0142856D129E0322815D04228CA
:1008E0000AD064284FD165215E2000F0F7FA8721F5
:1008F000612000F0F3FA4FE01D215E2000F0EEFAD7
:100900002721612000F0EAFA46E051215E2000F044
:10091000E5FA6E21612000F0E1FA3DE0D6215E208B
:1009200000F0DCFA6E21612000F0D8FA34E04FF4D8
:10093000D7715E2000F0D2FA4FF4F471612000F01C
:10094000CDFA29E040F2E1215E2000F0C7FA4FF431
:100950006271612000F0C2FA1EE040F2E1315E20D7
:1009600000F0BCFA40F29641612000F0B7FA13E0C3
:1009700040F291515E2000F0B1FA40F2C151612085
:1009800000F0ACFA08E065215E2000F0A7FA8721AC
:10099000612000F0A3FA00BF00BF06E0FFF7E3FE0E
:1009A00004466D1E012001F01DFE0CB9002DF5D18D
:1009B0001CB90DA000F0A8FA03E00121862000F088
:1009C00069FA38BD000C0140544F463430304320A2
:1009D0004944204572726F723A203078253034587D
:1009E0000D0A00001B020020544F463430304320D3
:1009F000496E6974204572726F72210D0A00000001
:100A000000BFFEE700B5DFED0B1A9FED0B1ADFED1F
:100A10000B0A9FED0B0A0B4800F02EF8DFED051ACC
:100A20009FED051ADFED050A9FED050A064800F067
:100A300023F800BD00401C46CDCCCC3DCDCC4C3E77
:100A4000CDCC4C3F08070020200700207047000055
:100A500010B5002807DA0A07140E054A00F00F0344
:100A60001B1FD45403E00A07130E024A135410BD8F
:100A700018ED00E000E400E080ED000AC0ED010A9E
:100A800080ED021A9FED052A80ED032A9FED032ACF
:100A900080ED042AC0ED051A704700000000000038
:100AA00070477047704770477047000010B507489F
:100AB0000068401C054908600846006820B900200D
:100AC000086003A000F020FA10BD0000EC01002037
:100AD000675F6D696C6C6973B7A2C9FAD2E7B3F648
:100AE000A3ACD0E8B5F7D5FB0A00000008B526484E
:100AF000006840F47000244908602448006840F011
:100B000001002249086000BF2048006800F0020090
:100B10000028F9D000BF1D48406840F080001B4904
:100B200048600020009002E00098401C009000986F
:100B30005028F9D31548406840F0900013494860A8
:100B40000020009002E00098401C0090009850287F
:100B5000F9D300BF0D48406820F003000B494860FE
:100B6000084600680A490840084908604FF41F0019
:100B700088600846006820F48020086000204860F3
:100B8000C86203F0B5FC08BD88ED00E0001002402B
:100B9000FFFFF6FE7047704710B50121064804F0CC
:100BA0001FF8012806D10121034804F016F801209E
:100BB0000249087010BD000000080040BA00002083
:100BC00010B50121074804F00BF8012809D10121D3
:100BD000044804F002F804480078012801D10349D0
:100BE000087010BD000C0040B5000020640000201B
:100BF000704770477047000070B506460024002219
:100C000040211D4802F0C8FA012001F0F9FC012240
:100C10008021194802F0C0FA00251DE0012001F0F2
:100C2000EFFC00224021144802F0B6FA012001F046
:100C3000E7FC01224021104802F0AEFA012001F049
:100C4000DFFC6006040E80210B4802F005FB08B1B2
:100C5000601CC4B2681CC5B2082DDFDB0022402135
:100C6000054802F099FA012001F0CAFC304600F074
:100C70004DF8204670BD0000000C014070B50446E0
:100C80000D4601222946204600F001F870BD2DE9ED
:100C9000F04105460E461746002400F061F8522048
:100CA00000F0CAF8C5F3072000F0C6F8E8B200F07B
:100CB000C3F800F055F8532000F0BEF800BF0DE077
:100CC000781EA04204D00120FFF796FF305503E0C4
:100CD0000020FFF791FF3055601CC4B2BC42EFD337
:100CE00000F05CF8BDE8F08138B505460C46002000
:100CF0000090022269462846FFF7C9FF9DF80100CF
:100D00009DF8001000EB0120206038BD10B50446AE
:100D100000224021114802F03FFA012001F070FC4E
:100D20002CB1002280210D4802F036FA04E00122A5
:100D300080210A4802F030FA01224021074802F0DF
:100D40002BFA012001F05CFC00224021034802F054
:100D500023FA012001F054FC10BD0000000C0140FA
:100D600010B5012240210C4802F016FA0122802120
:100D7000094802F011FA012001F042FC0022802112
:100D8000054802F009FA012001F03AFC0022402156
:100D9000014802F001FA10BD000C014010B500221C
:100DA00040210E4802F0F8F9002280210B4802F0A1
:100DB000F3F9012001F024FC01224021074802F050
:100DC000EBF9012001F01CFC01228021034802F014
:100DD000E3F9012001F014FC10BD0000000C0140FB
:100DE00010B500224021134802F0D6F9012001F08D
:100DF00007FC012240210F4802F0CEF9012001F04A
:100E0000FFFB80210B4802F027FA48B10022402165
:100E1000084802F0C1F9012001F0F2FB002010BDEA
:100E200000224021034802F0B7F9012001F0E8FB5D
:100E30000120F4E7000C014070B5044608251FE0CE
:100E400004F0800028B101228021114802F0A4F9A9
:100E500004E0002280210E4802F09EF96006040E94
:100E6000012001F0CDFB01224021094802F094F954
:100E7000012001F0C5FB00224021054802F08CF959
:100E8000281EA5F10101CDB2DAD1FFF7A9FF70BD8F
:100E9000000C014013B50446012201A9204600F0D0
:100EA00001F81CBD70B504460D461646FFF758FF05
:100EB0005220FFF7C1FFC4F30720FFF7BDFFE0B2E8
:100EC000FFF7BAFF03E015F8010BFFF7B5FF301E7F
:100ED000A6F10106F7D1FFF761FF70BD38B50546F1
:100EE0000C46200A8DF80000E0B28DF801000222C5
:100EF00069462846FFF7D6FF38BD704770477047F0
:100F00007047704700BFFEE70FB4054B10B503A94B
:100F1000044A029800F0EEF810BC5DF814FB0000E3
:100F200075310008A40200200FB4084B10B504A9C5
:100F300002AA039800F0DEF8044602A9002000F09F
:100F400070FC204610BC5DF814FB0000231800085C
:100F500002E008C8121F08C1002AFAD17047704782
:100F6000002001E001C1121F002AFBD170470000E0
:100F70002DE9FF5F82B00021DDE90430020DDDF8CC
:100F800040B0034318D044F61050A2F2FF3242435F
:100F90001514119801281FD0A5EB0B00401C5FEA27
:100FA000000A4FF000064E4FDFF83891B046504629
:100FB00015D5CAF1000413E0119801244AA30128B1
:100FC00001D16FEA0B010298119AC0E90031C0E922
:100FD000024206B0BDE8F09FCBF10000DFE7044617
:100FE0000021404A491842EB0450CDE9001012E0BC
:100FF000E00707D032463B4640464946FFF704F932
:101000008046894632463B4610461946FFF7FCF8B3
:1010100006460F466410002CEAD1DDE90401DDE943
:101020000023BAF1000F06DAFFF7EEF842464B460E
:10103000FFF7EAF805E0FFF7BEFA42464B46FFF736
:10104000BAFA04460E460022284BFFF763F903D88C
:101050004FF0FF30014607E00022254B2046314685
:10106000FFF702FAFFF716FB102409E0002C0ADB59
:101070000A220023FFF778F8039B30321A55641ECA
:1010800050EA0102F2D1641C039AC4F11103144422
:10109000119A012A03D0012208430DD10AE0084326
:1010A00004D000204FF0110B119072E7A3EB0B0559
:1010B0006D1E0DE05B4504DD4FF0000205F10105FA
:1010C00004E003DA4FF00002A5F10105002AECD09C
:1010D00002981199C0E90231C0E9004579E70000A2
:1010E000000014400000F03F300000000000F0431A
:1010F0000000E03F2DE9FF4F95B09B46894606462C
:1011000000250FE2252877D100242746F84A01213F
:10111000059400E0044316F8013F203B01FA03F078
:101120001042F7D130782A2811D06FF02F03307891
:10113000A0F13002092A16D8059A44F0020402EB05
:10114000820203EB42021044761C0590EFE759F847
:10115000042B0592002A03DA504244F4005405900F
:1011600044F00204761C30782E2816D116F8010FB0
:1011700044F004042A280DD06FF02F023078A0F13B
:101180003003092B09D807EB870302EB4303C71889
:10119000761CF3E759F8047B761C30786C280FD066
:1011A00006DC4C2817D068280DD06A2814D104E03A
:1011B000742810D07A280FD10DE044F400140AE00E
:1011C00044F4801401E044F440147278824202D165
:1011D00004F58014761C761C307866280BD013DC5E
:1011E000582877D009DC002875D04528F6D0462845
:1011F000F4D047281AD19DE118E0632835D064283F
:1012000079D0652812D195E1702873D008DC672861
:10121000F1D069286FD06E280DD06F2806D1B5E0C7
:1012200073282CD0752875D0782874D05A46179911
:1012300090476D1C75E1C4F30250022809D00328C1
:101240000DD0D9F8001004280DD00D6009F1040963
:1012500067E1D9F80010EA17C1E90052F6E7D9F8BA
:1012600000100D80F2E70D70F0E719F8041B8DF8FF
:10127000001000208DF80100EA46012003E059F833
:1012800004AB4FF0FF3061074FF0000102D40DE0D6
:1012900008F101018846B9420FDA8045F8DB1AF8F7
:1012A00008100029F4D108E008F1010188468142C4
:1012B000FADB1AF808100029F6D105985B46A0EB76
:1012C000080721463846179A00F094FA284400EBA4
:1012D000080507E04DE029E10DE01AF8010B5A4638
:1012E00017999047B8F10108F7D25B462146384676
:1012F000179A13E142E00A220092C4F302524FF01F
:10130000000A022A08D059F804CB032A4FEAEC71EC
:101310000AD00DE029E02AE009F1070121F00702D7
:10132000F2E802C1914609E00FFA8CFC4FEAEC7139
:10133000042A03D14FFA8CFC4FEAEC71002907DA3A
:101340000A460021DCF1000C61EB02012D2202E0D3
:10135000220504D52B228DF80420012203E0E207A8
:1013600001D02022F7E7904659E00A2102E010223E
:101370000DE010214FF0000A00910BE010224FF019
:10138000000A44F004040827009203E008224FF00A
:10139000000A0092C4F30252022A05D059F804CB85
:1013A0000021032A08D009E009F1070121F0070212
:1013B000F2E802C1914605E01FFA8CFC042A01D133
:1013C0000CF0FF0C4FF00008220728D5702806D03B
:1013D000009B83F0100353EA0A0305D00EE040227D
:1013E0008DF80420012208E05CEA010206D03022D8
:1013F0008DF804208DF8050002229046009B83F0B2
:10140000080353EA0A030AD15CEA010201D1620728
:1014100005D530228DF804204FF001087F1E582892
:1014200004D034A003900EA802900DE036A0F9E796
:1014300053466046009AFEF797FE84460398825C06
:101440000298401E029002705CEA0100F0D10298FE
:1014500006A9081A00F1200A600702D524F4803496
:1014600000E00127574502DDA7EB0A0000E000205D
:1014700000EB0A01009005984144401A0590E003F2
:1014800006D45B462146179A059800F0B3F9054447
:10149000002706E001A85A46C05D179990476D1CC9
:1014A0007F1C4745F6DBE0030CD55B462146179AC7
:1014B000059800F09FF9054404E030205A4617993A
:1014C00090476D1C0099481E00900029F5DC08E04B
:1014D000029802995A460078491C02911799904740
:1014E0006D1CBAF10001AAF1010AF1DC65E100000E
:1014F00009280100303132333435363738396162EA
:1015000063646566000000003031323334353637AD
:1015100038394142434445460000000000F058F984
:101520000544761C307800287FF4ECAD19B02846CD
:10153000BDE8F08F620700D4062709F1070222F008
:10154000070CFCE80223E14603F000485FEA080CC0
:1015500002D00FF2702C0DE05FEA045C02D50FF2AE
:10156000682C07E05FEAC47C02D00FF2602C01E037
:10157000AFF2700C4FF0FF3823F00043CDF850C0AD
:1015800065280CD006DC452809D046281DD0472800
:101590003DD13DE0662818D067287ED138E0002193
:1015A000112F01DB112000E0781CCDE9000106A914
:1015B0000EA8FFF7DDFCDDE90F010E9A0391002173
:1015C000009207F1010A04914DE04FF000400097AE
:1015D000CDE9011006A90EA8FFF7CAFCDDE90F024C
:1015E00003920E9B11990022DDF80CA00093049247
:1015F00011B9791C00EB010AB7EB0A0004D4C0F161
:10160000FF3007F1010A0490AAEB0700019044E0C3
:10161000012F00DA01270021112F01DD112000E048
:101620003846CDE9000106A90EA8FFF7A1FCDDE9C7
:101630000F010E9A0391002104910092BA462107EE
:101640000CD40399514500DA8A46BAF1010F05DD41
:10165000009AAAF10101515C302908D0B84202DA9F
:1016600010F1040F06DA0121CDE9011015E0AAF10D
:101670000101E9E7002805DC049901440491AAEB83
:10168000000102E0411C514500DD8A460499401AE0
:10169000401C01904FF000400290200704D40198B4
:1016A000504501DBCDF8048000208DF84F000298F2
:1016B0000DF14F07B0F1004F25D02B200E9002986E
:1016C0004FF0020800280CDA404202902D200E90C4
:1016D00007E00A210298FEF735FE3031029007F844
:1016E000011DB8F10001A8F10108F2DC0298002800
:1016F000EFD1791E0E980870307800F0200040F08D
:10170000450007F8020D12A8C01B00F10708149845
:10171000007800B1012000EB0A01019801EBE071B3
:1017200005984144401A401E0590E00306D45B46EC
:101730002146179A059800F05DF805441498007842
:1017400018B15A46179990476D1CE00324D55B46A3
:101750002146179A059800F04DF805441CE00498BE
:10176000002807DBDDE90301884203DD0098405CC7
:10177000179901E0179930205A469047049805F1CF
:101780000105401C04900198401E019004D12E20B8
:101790005A46179990476D1CBAF10001AAF1010A47
:1017A000DDDC05E017F8010B5A46179990476D1CD0
:1017B000B8F10001A8F10108F4DC5B462146179A54
:1017C0000598ABE62D0000002B0000002000000073
:1017D0002DE9F041044600251E461746880404D42E
:1017E00005E039462020B0476D1C641EF9D5284617
:1017F000BDE8F0812DE9F041044600251E469046E3
:10180000C80301D5302700E02027880404D505E06F
:1018100041463846B0476D1C641EF9D52846BDE8E0
:10182000F0810A68531C0B6010707047816841F0AA
:101830000801816000BF816801F008010029FAD128
:10184000816841F00401816000BF816801F00401FA
:101850000029FAD1704770B504460D462946204646
:1018600000F0D0F870BD21B1826842F4006282605D
:1018700003E0826822F400628260704710B504467B
:101880001348204430B1B0F5806F0CD0B0F5C05F84
:101890001BD111E040F2093002F07AFD40F209302C
:1018A00002F066FD12E040F20A3002F071FD40F2F3
:1018B0000A3002F05DFD09E040F20F3002F068FDF1
:1018C00040F20F3002F054FD00E000BF00BF10BD39
:1018D00000DCFEBF816801F0010119B9816841F0A7
:1018E00001018160704772B101F001031BB183688F
:1018F00043F48013836001F0020393B1836843F4DF
:10190000004383600DE001F001031BB1836823F401
:101910008013836001F002031BB1836823F400434A
:1019200083607047012902D0022910D107E0836843
:1019300023F46023836083681343836008E0836833
:1019400023F4E043836083681343836000E000BFB7
:1019500000BF704702688A43026070470246002059
:1019600013680B4003B10120704770B505460C4663
:1019700042F21076052322460021284600F054F951
:1019800002212846FFF7E6FF0121284600F0A6F9CC
:1019900009E0301EA6F1010605D102212846FFF715
:1019A000D9FF002070BD02212846FFF7D7FF00288D
:1019B000EFD0284600F08EF9F4E7000010B50A21B8
:1019C0000E48FFF7D2FF0E4908800B210B48FFF7A6
:1019D000CCFF0B4948800C210848FFF7C6FF084997
:1019E00088800D210548FFF7C0FF0549C8800F21F9
:1019F0000248FFF7BAFF0249088110BD00240140E8
:101A0000FC06002070B505460C464FF4C06002F09D
:101A10009FFC02F071FD6CB1012C0BD0022C09D09F
:101A2000032C07D0042C05D0052C03D0062C01D0A4
:101A3000072C04D140F2026002F08AFC18E0082C66
:101A400001D0092C04D140F2036002F081FC0FE0C8
:101A50000A2C09D00B2C07D00C2C05D00D2C03D050
:101A60000E2C01D00F2C03D140F2046002F070FC68
:101A700034B9012303220021654801F0F9FB85E018
:101A8000012C06D1022303220021614801F0F0FB62
:101A90007CE0022C06D10423032200215C4801F0E3
:101AA000E7FB73E0032C06D10823032200215848EA
:101AB00001F0DEFB6AE0042C06D110230322002192
:101AC000534801F0D5FB61E0052C06D12023032209
:101AD00000214F4801F0CCFB58E0062C06D14023F2
:101AE000032200214A4801F0C3FB4FE0072C06D136
:101AF000802303220021464801F0BAFB46E0082C6F
:101B000006D1012303220021424801F0B1FB3DE050
:101B1000092C06D10223032200213E4801F0A8FB34
:101B200034E00A2C06D10123032200213A4801F0B7
:101B30009FFB2BE00B2C06D1022303220021364809
:101B400001F096FB22E00C2C06D104230322002195
:101B5000314801F08DFB19E00D2C06D1082303223A
:101B600000212D4801F084FB10E00E2C06D110233B
:101B700003220021284801F07BFB07E00F2C05D150
:101B8000202303220021244801F072FB23488542D0
:101B900004D140F2096002F0DBFB0EE020488542F0
:101BA00004D140F20A6002F0D3FB06E01D488542F2
:101BB00003D140F20F6002F0CBFB022002F0E6FA04
:101BC0002846FFF75BFE00220221284600F095F828
:101BD00000224FF48071284600F08FF8002128463B
:101BE000FFF741FE4FF4602201212846FFF79AFEDD
:101BF000012211462846FFF776FE2846FFF76AFEC7
:101C0000012000F0EFFC2846FFF710FE70BD000039
:101C100000080140000C0140001001400024014078
:101C200000280140003C0140F0B51D4606290CD2B9
:101C3000436B01EB81071F26BE40B34301EB8106D6
:101C400002FA06F63343436322E00C290ED2036BFB
:101C50008E1F06EB86071F26BE40B3438E1F06EB82
:101C6000860602FA06F63343036311E010290FD209
:101C7000C36AA1F10C0606EB86071F26BE40B343DC
:101C8000A1F10C0606EB860602FA06F63343C362A0
:101C90000A2A0CD2046902EB42070726BE40B4436D
:101CA00002EB420605FA06F63443046111E0122AFB
:101CB0000FD2C468A2F10A0606EB46070726BE400B
:101CC000B443A2F10A0606EB460605FA06F63443CB
:101CD000C460F0BD0146C86C80B2704701F00102DB
:101CE0001AB1826842F48002826001F002021AB1E5
:101CF000826842F4001282607047AAB101F48073D6
:101D00001BB1436843F48073436001F480631BB1EB
:101D1000436843F48063436001F00203CBB18368FE
:101D200043F00203836014E001F480731BB1436845
:101D300023F48073436001F480631BB1436823F490
:101D40008063436001F002031BB1836823F0020348
:101D50008360704710B51248007800B110BD11487B
:101D6000007801281AD100200E490870FEF73AFDCC
:101D70000D4908600846006840F2523188420DD291
:101D80000948006850B10948007838B9002008496E
:101D900008600849087001200149087000BFDDE7AC
:101DA000270000206400002078000020840000202C
:101DB000EC0100202800002010B50446012C09D1B8
:101DC000020204210A4801F0B9FA0122110208486E
:101DD00001F0E2F9022C09D122020421044801F0A9
:101DE000ADFA01225102024801F0D6F910BD0000FF
:101DF000000C0140164880884FF48052B2EB400F2F
:101E000002DC501E124A908011480088104A528805
:101E100010440F4A9288022303FB02000C4A1289E5
:101E200010440B4AD288811809B90020704708482D
:101E30000088074A52881044054A1289801A044AC9
:101E4000D288801A6422504390FBF1F0EEE7000044
:101E5000FC06002030B50246002013460F24002166
:101E600003E053F821502844491CA142F9D330BD66
:101E700010B50020034908700349084600F0A0F897
:101E800010BD0000DB000020C000002010B502F0F3
:101E900033FB284802F090FF0A212748FFF7DBFCBC
:101EA0000B212548FFF7D7FC0C212348FFF7D3FC73
:101EB0000D212148FFF7CFFC0F211F48FFF7CBFC76
:101EC00002F058FF012001F011FC022001F00EFC8D
:101ED000032001F00BFC042001F008FC052001F0B8
:101EE00005FC062001F002FC02F06EFA00F004FE90
:101EF000002001F063FD012001F060FD00F0AEFB69
:101F0000FEF780FD04F0C6F8FFF7B2FF03F0F0FF24
:101F1000FEF7A6FC01F06AFE01F05AFE03F062F83B
:101F20000120FFF749FF0220FFF746FF01F08CFB7D
:101F300010BD00000038014000240140014608297E
:101F400015D2DFE801F00406080A0C120E10094849
:101F500070470948FCE70948FAE70948F8E70948E3
:101F6000F6E70948F4E70948F2E70948F0E70948C5
:101F7000EEE70000CC000020D2000020D5000020B9
:101F8000C6000020C3000020C9000020CF000020B0
:101F9000C0000020D800002070B50446002007498A
:101FA00008702046FFF7CAFF05462046FFF7C6FF28
:101FB0000646294600F004F870BD0000DB00002052
:101FC00070B505460C46284604F080F8204604F01B
:101FD0007DF870BD10B50C480078A0B90B480078AA
:101FE000022810D10A48807868B9002009490860A1
:101FF0000120FFF7D1FF00200749087001200749A1
:1020000008700349887010BD270000202A000020B6
:1020100094000020EC010020280000202500002072
:1020200007480078012806D10648007818B9012031
:102030000549086002E0002003490860704700007D
:10204000B500002027000020A400002010B5104893
:102050000078E0B90F480078032818D10E48C078FE
:10206000A8B900200D4908600D49087001200A49EF
:10207000C8700C490860FFF78FFF4FF4C37000F081
:1020800031F80120084908700020FFF785FF10BDD6
:10209000270000202A00002094000020EC010020EE
:1020A00028000020A80000202900002010B50A48C0
:1020B000006880B909488088B0F52F6F0BDD0420D7
:1020C000FFF76AFFC82000F00DF801200249086000
:1020D00000200349086010BDAC000020FC06002071
:1020E000EC01002070B504460548056801E000F0E9
:1020F00009F803480068401BA042F8D370BD0000F7
:10210000EC01002010B5FE48007800B910BD002099
:10211000FB490870FB48007800286ED1FA48007827
:10212000012824D1F948007840B9F94800780128FD
:1021300004D141F27C50F749086003E041F270702D
:10214000F44908609FEDF40AF44880ED000A052088
:10215000FFF722FFFFF732FCFFF74CFEF049086063
:10216000EE4A0021EE48006801F0E2FE9CE1ED48F5
:102170000078012818D1EC480078A8B99FEDEB0A47
:10218000E64880ED000A0220FFF706FFFFF716FC85
:10219000FFF730FEE2490860E04AE5480168E048A0
:1021A000006801F0C5FE7FE1DF480078012825D1F5
:1021B0000420FFF7F1FE0020DE490880488040F24D
:1021C000DC5088800020C88040F214500881DA4832
:1021D0000068B0F5027F05D90220D34908700020BD
:1021E000D5490860FFF706FECD490860CB4A0021BB
:1021F000CB48006801F09CFE56E121E1CA48007816
:10220000022825D10120FFF7C7FE40F6AC50C9498E
:1022100008800020488040F2DC5088800020C88080
:102220000881C548006840F2EE21884205D30320AA
:10223000BD4908700020C0490860FFF7DBFDB849C0
:102240000860B64A0021B648006801F071FE2BE133
:10225000B548007803282CD10020FFF79DFE002010
:10226000B4490880488040F2DC5088800020C88053
:1022700040F6C4100881B0480068B0F5FA7F0DD967
:102280000020A949087001209F4908700020AA4930
:102290000860AA4908600120A9490870FFF7AAFD53
:1022A0009F4908609D4A00219D48006801F040FE5A
:1022B000FAE0A448007801282AD10420FFF76CFE38
:1022C0009FEDA10A954880ED000A41F27C509149AA
:1022D00008604FF4FA6097490880002048808880A1
:1022E000C880088194480068B0F52F7F05D9022086
:1022F00094490870002090490860FFF77BFD8849E9
:102300000860864A00218648006801F011FECBE093
:102310008C480078022825D10620FFF73DFE41F2C7
:102320007C507C4908600020824908804880888071
:10233000C8804FF4166008817F480068B0F5967F2A
:1023400005D903207F49087000207B490860FFF70A
:1023500051FD73490860714A00217148006801F01D
:10236000E7FDA1E077480078032808D10020FFF7B7
:1023700013FE0020694948836649086094E071486B
:102380000078042825D10320FFF706FE41F2707083
:102390006049086000206749088048808880C880BC
:1023A00040F6AC50088164480068B0F58C7F05D9D0
:1023B00005206449087000205F490860FFF71AFD96
:1023C00057490860554A00215548006801F0B0FDA2
:1023D0006AE05C480078052866D10020FFF7DCFD44
:1023E0004FF4FA60534908800020488040F2DC50E6
:1023F00088800020C88008814F480068B0F5BE7F03
:1024000013D900204F4908700120404908703E4907
:1024100008700020484908604C49086002204C4977
:102420000870454800684B490860FFF7E3FC3C49E9
:1024300008603A4A00213A48006801F079FD33E02B
:1024400030480078022812D14348007878B9052036
:10245000FFF7A2FDFFF7B2FAFFF7CCFC30490860A6
:102460002E4A00212E48006801F062FD1CE025483C
:102470000078012818D138480078A8B90320FFF760
:102480008BFD00202B49088048808880C88040F65A
:10249000C4100881FFF7AEFC214908601F4A0021E3
:1024A0001F48006801F044FD16480078032810D149
:1024B0002948007868B941F27071012001F058FA9A
:1024C00041F27071002001F053FA0020FFF764FD23
:1024D0005AE01248408B0F490968081A00B21F4998
:1024E00008800E48408B0B490968084400B21C491B
:1024F00008801A48B0F90000002835DA002031E0E1
:10250000BA000020240000202800002086000020BF
:10251000850000202000002000007042A806002056
:102520001C00002025000020270000200000104291
:1025300088000020FC060020EC010020A400002000
:10254000840000202900002000002042A800002074
:10255000260000207C000020B9000020740000202C
:1025600076000020094908800948B0F900000028D9
:1025700002DA0020064908800548B0F90010034837
:10258000B0F9000001F066FA00BFBFE5740000205A
:10259000760000200E480078B0B1012815D10D4812
:1025A000006840F2523188420DD900200949086084
:1025B0000749087001200849087000200749086091
:1025C00001200749087000E000BF00BF704700000D
:1025D00025000020EC01002028000020A0000020A1
:1025E0008500002000B97047044A116800BF034A03
:1025F0001268521A8242FAD300BFF4E7EC010020BD
:1026000030B5014601B930BD4FF0E0239A69104B57
:102610001B6801FB03F40F4B1B684B430E4DB3FBD0
:10262000F5F31C4420460FE04FF0E025AB699342E0
:1026300002D8D51A401B05E04FF0E0256D69ED1A70
:102640001544401B1A4600BF0028EDDC00BFDAE746
:10265000F8010020FC01002040420F0000B587B0C7
:1026600003A802F07BFB0020ADF80C00ADF80E00D3
:10267000ADF810004FF6FF7005900020ADF8120085
:1026800040F2026001F064FEC323032204212148CA
:1026900000F0EEFD4FF4E06001F05AFE03A94FF0A8
:1026A000804002F0A7F900231A4603214FF0804032
:1026B00002F034FB184903C9CDE9010101AA002148
:1026C0004FF0804002F0E2F901AA0121880702F0F0
:1026D000DDF94FF0804002F07CF940F2017001F02A
:1026E00037FE03A90D4802F085F900231A4603219D
:1026F0000A4802F013FB01AA0021084802F0C6F9BB
:1027000001AA0121054802F0C1F9044802F061F96B
:1027100007B000BD000801406069000800040040E7
:102720002DE9F04707460C4691464FF4C06001F092
:102730000FFE00221146062001F0C6F900221146C4
:10274000072001F0C1F900221146082001F0BCF970
:1027500000221146092001F0B7F9002211460A2093
:1027600001F0B2F900221146172001F0ADF9002264
:102770001146282001F0A8F96748874206D14FF09A
:10278000000840F2026001F0E3FD3AE0634887424E
:1027900006D14FF0010840F2036001F0D9FD30E0AE
:1027A0005F48874206D14FF0020840F2046001F012
:1027B000CFFD26E05B48874206D14FF0030840F288
:1027C000056001F0C5FD1CE05748874206D14FF077
:1027D000040840F2066001F0BBFD12E05348874256
:1027E00006D14FF0050840F2076001F0B1FD08E0A6
:1027F0004F48874205D14FF006084FF4C16001F001
:10280000A7FD012C02D10025012658E0022C02D19F
:102810000125022653E0042C02D1022504264EE0B5
:10282000082C02D10325082649E0102C02D10425EA
:10283000102644E0202C02D1052520263FE0402C24
:1028400002D1062540263AE0802C02D107258026B9
:1028500035E0B4F5807F02D108256E012FE0B4F594
:10286000007F03D109254FF4007628E0B4F5806F8E
:1028700003D10A254FF4806621E0B4F5006F03D13F
:102880000B254FF400661AE0B4F5805F03D10C25E8
:102890004FF4805613E0B4F5005F03D10D254FF4DB
:1028A00000560CE0B4F5804F03D10E254FF480465E
:1028B00005E0B4F5004F02D10F254FF4004629463C
:1028C000404600F07DFC234603220421384600F0F8
:1028D000CFFCB9F1000F05D102220021304600F0F3
:1028E00029F810E0B9F1010F05D100221146304658
:1028F00000F020F807E0B9F1020F04D10122002115
:10290000304600F017F8304600F080F8304600F00E
:1029100075F8BDE8F087000000080140000C014098
:10292000001001400014014000180140001C01404B
:102930000020014010B52C4B1B6883432A4C2360B8
:10294000231D1B688343241D2360231D1B688343B1
:10295000241D2360231D1B688343241D236011B1A4
:1029600001290ED105E0204B1B6803431E4C236058
:1029700008E01D4B1B1D1B6803431B4C241D2360DB
:1029800000E000BF00BF22B1012A0FD0022A27D1E8
:1029900019E0154B08331B680343134C08342360BC
:1029A000231D1B688343241D23601AE00E4B08334C
:1029B0001B6883430C4C08342360231D1B680343AE
:1029C000241D23600DE0084B08331B680343064CAD
:1029D00008342360231D1B680343241D236000E08B
:1029E00000BF00BF10BD000000040140024909689B
:1029F0008143014A1160704700040140024909689F
:102A00000143014A11607047000401400149086018
:102A1000704700001404014001460748006800EABE
:102A2000010205481438006800EA010312B10BB135
:102A3000012070470020FCE7140401402DE9F04715
:102A40000646884691461F464FF0006000EBC620C0
:102A500000EB0805042000FB075A00BF4FF440704C
:102A600000F070FA0028F9D1AAEB0500B0F5006F6C
:102A700002D30020BDE8F087002404E0286849F86C
:102A800024002D1D641CBC42F8D30120F2E72DE97F
:102A9000F0470646884691461F4600F0EDFA40F2A0
:102AA000073000F03FFA4FF0006000EBC62000EB6B
:102AB0000805042000FB075AAAEB0500B0F5006FDB
:102AC00002D30020BDE8F08700BF284600F062FA7C
:102AD0000028FAD1002409E059F82410284600F013
:102AE000EDFA0120FFF77EFD2D1D641CBC42F3D3DF
:102AF00000F03AFA0120E5E710B540213D48FDF726
:102B00006BFB3D49098889020122C2EBD1201023C9
:102B1000384A0021FFF792FF36480068B0F15A3F6B
:102B200062D13448FFF796F93249C96B88425BD1CC
:102B3000304890ED010A314880ED000A2D4890EDB3
:102B4000020A2E4880ED020A2A48408E012803D846
:102B5000284890F8320000E00020294908702548F4
:102B6000C06828490860234800692749086021484F
:102B7000808A264908801F48C08A254908801D4848
:102B8000008B244908801B48408B23490880194842
:102B9000808B224908801748C08B2149088015483E
:102BA000008C204908801348408C1F490880114838
:102BB000808C1E4908800F48C08C1D4908800D4834
:102BC000008D1C4908800B48408D1B49088009482E
:102BD000808D1A4908800748C08D1949088005482A
:102BE000008E1849088003E000F02EF800F0A4F8E9
:102BF00010BD000038070020E0F7FF1FA8060020E6
:102C0000C4010020800100208401002088010020F0
:102C10008A0100208C0100208E01002090010020FC
:102C200092010020940100209601002098010020CC
:102C30009A0100209C0100209E010020A00100209C
:102C4000A2010020A40100209FED260A264880ED65
:102C5000000A9FED260A80ED020A00202449087030
:102C60003C2024490860012023490860642023494E
:102C7000088041F288302249088041F664102149D9
:102C8000088040F6B830204908804FF448701F494A
:102C9000088040F6B8301E4908804FF448701D493E
:102CA00008804FF496701C49088041F268001B4967
:102CB000088040F6AC501A49088040F6B8301949EF
:102CC000088040F214501849088041F2D470174926
:102CD00008804FF4AF60164908804FF4167015490C
:102CE0000880704700007042A80600200000000025
:102CF000C401002080010020840100208801002000
:102D00008A0100208C0100208E010020900100200B
:102D100092010020940100209601002098010020DB
:102D20009A0100209C0100209E010020A0010020AB
:102D3000A2010020A401002000B591B04FF05A304C
:102D400039490860394890ED000A084680ED010ACB
:102D5000364890ED020A084680ED020A34480068C1
:102D6000C860344800680861334800888882334866
:102D70000088C88232480088088332480088488327
:102D800031480088888331480088C88330480088EB
:102D900008843048008848842F48008888842F4859
:102DA0000088C8842E48008808852E4800884885F9
:102DB0002D48008888852D480088C8852C480088C3
:102DC00008862C4800784886002048630021164871
:102DD0008163FFF73FF81449C863274909888902CE
:102DE0000122C2EBD12010230F4A0021FFF74FFE32
:102DF00010B9002011B000BD1F49098889020122C5
:102E0000C2EBD120102301AA0021FFF717FE08B959
:102E10000020EFE7402201A90348FDF7E8F908B1D7
:102E20000020E7E70120E5E738070020A80600209A
:102E30008001002084010020880100208A010020F8
:102E40008C0100208E0100209001002092010020C2
:102E50009401002096010020980100209A01002092
:102E60009C0100209E010020A0010020A201002062
:102E7000A4010020C4010020E0F7FF1F00B50346B5
:102E8000012200BF00F00CF802465B1E012A01D1AE
:102E9000002BF7D1012A00D10422104600BD00000A
:102EA00000200A49C96801F0010109B101200CE0C4
:102EB0000649C96801F0100109B1032005E0034982
:102EC000C96801F0040101B10220704700200240EE
:102ED00000B50346012200BF00F00CF802465B1E5D
:102EE000012A01D1002BF7D1012A00D1042210467A
:102EF00000BD000000200A49C96C01F0010109B1C0
:102F000001200CE00649C96C01F0100109B1032051
:102F100005E00349C96C01F0040101B102207047CA
:102F200000200240064A02EB9011096800F01F03DE
:102F300001229A401143024B03EB9012116070473B
:102F4000002002400146074A02EB9110006801F0A0
:102F50001F0301229A40104008B101207047002051
:102F6000FCE70000002002400848006940F08000B3
:102F70000649086106480088B0F5007F04D9084674
:102F8000006D40F08000086570470000002002409E
:102F9000E0F7FF1F30B5054633480088B0F5007FE5
:102FA00044D9324885421CD23148FFF767FF0446B6
:102FB000002C56D12F48006940F002002D490861CD
:102FC00008464561006940F0400008612848FFF765
:102FD00055FF04462748006920F002002549086192
:102FE0003FE02348FFF774FF0446002C39D1214805
:102FF000006D40F002001F49086508464565C0693C
:1030000000F0020008B1084645611A48006D40F022
:103010004000184908651648FFF75AFF044615484E
:10302000006D20F00200134908651AE01048FFF710
:1030300025FF0446ACB90F48006940F002000D4975
:10304000086108464561006940F040000861084891
:10305000FFF714FF04460748006920F00200054905
:103060000861204630BD0000E0F7FF1FFFFF0708A2
:103070000000FF0F002002400C48006900F08000B3
:1030800020B10B48094948600A4848600A4800884E
:10309000B0F5007F09D90548006D00F0800020B12F
:1030A00003480249486403484864704700200240CE
:1030B00023016745AB89EFCDE0F7FF1F70B50446EC
:1030C0000D46002627480088B0F5007F31D92648F4
:1030D000844217D22548FFF7D1FE0646002E3ED186
:1030E0002348006940F001002149086125601F481C
:1030F000FFF7C4FE06461E48006920F001001C4987
:1031000008612CE01948FFF7E3FE06463EBB18486D
:10311000006D40F001001649086525601348FFF76F
:10312000D7FE06461248006D20F0010010490865E0
:1031300015E00E48FFF7A2FE064686B90C48006966
:1031400040F001000A49086125600848FFF796FE33
:1031500006460748006920F001000549086130462D
:1031600070BD0000E0F7FF1FFFFF07080000FF0F22
:103170000020024070B504460D46E1B2054802F059
:1031800019FF00BF0721034802F065FF0028F9D0AE
:10319000204670BD0038014070B505460E46144605
:1031A00024B13146284600F008F803E031462846AD
:1031B00000F001F870BD4161704701617047000087
:1031C00010B500228B071C0F0F2303FA04F2042909
:1031D0000EDA204B9B6893431E4CA36023469B68EA
:1031E0008C07240F00FA04F423431A4CA3602FE049
:1031F00008290EDA174BDB689343164CE36023462D
:10320000DB688C07240F00FA04F42343114CE360BD
:103210001EE00C290EDA0F4B1B6993430D4C236102
:1032200023461B698C07240F00FA04F42343094C3E
:1032300023610DE0074B5B699343064C63612346B2
:103240005B698C07240F00FA04F42343014C63618B
:1032500010BD00000000014070B504460D4629462F
:10326000204600F063F808B1012070BD0020FCE7A3
:10327000F0B5044616460025002201F00F0501F0C6
:10328000100747B1042E05D145F00305E76B1F4336
:10329000E76300E0354300201EE0012787401F4020
:1032A000C7B122684FEA800C0F2707FA0CF7BA4320
:1032B000870005FA07F73A43282904D101278740F8
:1032C0001F40676105E0482903D1012787401F405F
:1032D00027612260471CB8B20828DED3082022E00C
:1032E000012787401F40E7B16268A0F108074FEA55
:1032F000870C0F2707FA0CF7BA43A0F10807BF00A5
:1033000005FA07F73A43282904D1012787401F40CF
:10331000676105E0482903D1012787401F402761E5
:103320006260471CB8B21028DAD3F0BD024690683C
:10333000084008B1012070470020FCE770B5054641
:103340000C4616463E48854204D140F2026000F029
:10335000FFFF2EE03B48854204D140F2036000F0BD
:10336000F7FF26E03848854204D140F2046000F0BF
:10337000EFFF1EE03548854204D140F2056000F0C1
:10338000E7FF16E03248854204D140F2066000F0C3
:10339000DFFF0EE02F48854204D140F2076000F0C5
:1033A000D7FF06E02C48854203D14FF4C16000F0FE
:1033B000CFFF34B93346032200212846FFF758FFD8
:1033C0003DE0012C06D13346032204212846FFF7B5
:1033D0004FFF34E0022C06D1334603222821284631
:1033E000FFF746FF2BE0032C06D13346032248218A
:1033F0002846FFF73DFF22E0042C06D13346032286
:1034000010212846FFF734FF19E0052C06D133467A
:10341000032214212846FFF72BFF10E0062C06D1CB
:103420003346032218212846FFF722FF07E0072C26
:1034300005D1334603221C212846FFF719FF70BD32
:1034400000080140000C0140001001400014014040
:1034500000180140001C0140002001400A460021E4
:10346000016821F480611143016070472DE9F05F2C
:1034700004460E4692460EB900BFFEE7022000F059
:10348000BBFE07464648B7FBF0F8B8F13C0F01D346
:103490004FF03C08D4F804B02BF07F0B4BEA080B3C
:1034A000C4F804B03F4886421ED83D48B7FBF0F050
:1034B00000F10109B9F13C0F02D33C20206207E082
:1034C000B9F1020F02D80220206201E0C4F8209076
:1034D0007000B7FBF0F5042D00D20425E069C5F3B8
:1034E0000B010843E06158E02F4886422CD84FF486
:1034F000967008FB00F04FF47A71B0FBF1F0401CBD
:103500002062BAF1000F08D106EB4600B7FBF0F5D8
:10351000E06920F48040E06109E006EBC60000EBC2
:103520000610B7FBF0F5E06940F48040E061C5F3B8
:103530000B0008B945F00105E06940F40040E06186
:10354000E0692843E06128E0C8EB0810C0004FF4B0
:103550007A71B0FBF1F0401C2062BAF1000F08D183
:1035600006EB4600B7FBF0F5E06920F48040E0612F
:1035700009E006EBC60000EB0610B7FBF0F5E069CA
:1035800040F48040E061E06940F40040E061E069BF
:103590002843E0610120C4F89000BDE8F09F0000DE
:1035A00040420F00A0860100801A0600CAB20261E4
:1035B0007047016841F001010160704710B540F2A9
:1035C0000152914202D1426982690AE000EB9112F4
:1035D000126801F01F040123A3409A4300EB9113EA
:1035E0001A6010BD10B5024602EB9110006801F0A0
:1035F0001F040123A340184008B1012010BD002082
:10360000FCE712F1020F02D121F0010101E041F0CB
:1036100001010161704730B50C460021016821F0BD
:10362000020121430160C3F3090342EA03058560F7
:1036300030BD016841F4807101607047016841F458
:10364000007101607047000010B54FF4407000F049
:103650009DFA32210A4801F0D5FA00220E213220CB
:1036600000F032FA022220210648FFF759F800F054
:10367000ABFE00221146172000F026FA10BD000014
:10368000000C00400008014070B5002628E01648F4
:1036900000EB0614D4E9010100F058F80546607B00
:1036A000A84203D065730020A07318E0A07B022815
:1036B00003DAA07B401CA07311E0207BA84205D058
:1036C0002573012D02D10020E07308E0207B28B98A
:1036D000E07B18B90120E073607870BD00BF761CF4
:1036E000062ED4D3FF20F8E70401002070B505466C
:1036F000002424E0144800EB04100078A8421DD1F7
:10370000114901EB04118A680F4901EB0411486863
:103710000321FFF713FE01200B4901EB041108738D
:10372000094901EB041148730020074901EB04111A
:103730008873054901EB0411C87302E0641C062C70
:10374000D8D300BF70BD00000401002070B504464E
:103750000D4629462046FFF77FFD08B1012070BDC8
:103760000020FCE710B5FEF791FB012059490870D5
:103770000A21594801F046FA00220F211E2000F0CC
:10378000A3F9A3E0FEF7BEFC01F0A8FC53480078C3
:10379000D8B15348006853490968401A142814D313
:1037A00000204E49087000F003FE40B101204E4950
:1037B00008704E480078401C4C49087005E02020F5
:1037C000FFF724F92020FFF719F94748007858B18E
:1037D00000F0EEFD40B90020434908702020FFF7BB
:1037E00015F92020FFF70AF9FEF71AFCFEF7F2FBA5
:1037F000FEF72CFCFEF75AFC3D480068012817D163
:103800003C480078A0B903203B490870C820FEF767
:1038100069FC0020364908600120364908702D49AE
:10382000087000203549C860086148833249087033
:103830003348006808B1FEF78DFA3248007840B985
:103840003148007828B131480068012801D1FEF7DD
:10385000A1FE2F48007803280ED12E4800680128C9
:103860000AD140F6B830FEF73DFC00201C49086044
:1038700004202749087012E02248007878B92648C9
:10388000007802280BD11648006824490968401ABC
:1038900042F21071884202D9012021490870134870
:1038A0000078042812D14FF49670FEF71BFC00201C
:1038B000084908700021012000F05AF8002108464C
:1038C00000F030F8044801F097F900E05AE700BF33
:1038D000002010BD28000020000800404C000020FF
:1038E000EC01002050000020540000202A0000209D
:1038F000AC000020B900002024000020A806002011
:10390000A40000202700002025000020A0000020A7
:1039100029000020A8000020260000207C000020B4
:10392000B500002070B504460D4642F21070854285
:1039300000DD00E02846054654B92A4600210B4820
:1039400000F02EFB00220121084800F029FB0BE0CB
:10395000012C09D12A460321044800F021FB002252
:103960000221024800F01CFB70BD00000034014041
:1039700070B504460D4642F21070854200DD00E04D
:103980002846054654B9002211460B4800F008FBB2
:103990002A460121084800F003FB0BE0012C09D165
:1039A00000220321044800F0FBFA2A4602210248C3
:1039B00000F0F6FA70BD00000034014038B504464E
:1039C00004BB802206212048FFF7B8FC40220621D4
:1039D0001D48FFF7B3FC4FF0804000F087FF002048
:1039E0004FF47A730C2201210090184800F02AFB52
:1039F00000204FF47A730C2201460090134800F027
:103A000021FB20E0012C1ED1620206210E48FFF7A7
:103A100095FC220206210C48FFF790FC0C4800F0B0
:103A200065FF00204FF47A730C22032100900748B1
:103A300000F008FB00204FF47A730C220221009062
:103A4000024800F0FFFA38BD001001400034014088
:103A50000004004070B505460E4642F21074002D79
:103A600007DDA54200DD25B2A9B20020FFF780FFE7
:103A70000FE0002D09DA6042854201DA604205B2AA
:103A8000A9B20020FFF74EFF03E000210846FFF730
:103A90006FFF002E07DDA64200DD26B2B1B2012085
:103AA000FFF766FF0FE0002E09DA6042864201DA76
:103AB000604206B2B1B20120FFF734FF03E00021FB
:103AC0000120FFF755FF70BD2DE9F04103460D467B
:103AD000164600240027A0462A48006800F4E0604B
:103AE000B0F5E06F03D100BF4FF0040830E0254887
:103AF000006800F4E060B0F5C06F03D101274FF01B
:103B0000030825E01F48006800F4E060B0F5A06FEE
:103B100002D10227B8461BE01A48006800F4E060B2
:103B2000B0F5806F03D103274FF0010810E015486E
:103B3000006800F4E060B0F5407F03D104274FF047
:103B4000000805E04FF4A06000F020F80227B84616
:103B5000C7F1040005FA00F4C8F104010F20C840C1
:103B60003040044324010848C45403F01F010120DD
:103B700088405911890001F1E021C1F80001BDE838
:103B8000F08100000CED00E000E400E00249014398
:103B9000024A1160704700000000FA050CED00E0D9
:103BA00070B500240CE0002506E00020074901EB79
:103BB000C5010855681CC5B2802DF6DB601CC4B277
:103BC000082CF0DB00F0A2F870BD0000A802002075
:103BD00010B500218D2000F091F90021142000F093
:103BE0008DF90021AF2000F089F910BD10B540F229
:103BF000036000F0ADFB40F2167000F0A9FB4FF43B
:103C0000406303221C213E48FFF732FB00223D495E
:103C10003D48FFF72BFC7823002211463A48FFF776
:103C2000FAFC3948FFF7C5FC4FF480613648FFF7CE
:103C300015FC4FF44870FEF7D5FC0021AE2000F0D3
:103C40005DF90021084600F059F90021102000F02C
:103C500055F90021402000F051F90021B02000F07A
:103C60004DF90021812000F049F90021FF2000F0EA
:103C700045F90021A12000F041F90021A62000F023
:103C80003DF90021A82000F039F900213F2000F083
:103C900035F90021C82000F031F90021D32000F0CF
:103CA0002DF90021084600F029F90021D52000F067
:103CB00025F90021802000F021F90021D82000F012
:103CC0001DF90021052000F019F90021D92000F08C
:103CD00015F90021F12000F011F90021DA2000F09F
:103CE0000DF90021122000F009F90021DB2000F07D
:103CF00005F90021302000F001F9FFF751FF10BD58
:103D0000000C0140A08601000058004070B500245E
:103D10001CE004F1B001C8B2002100F0EFF800216E
:103D2000084600F0EBF80021102000F0E7F800252D
:103D300008E0084901EBC501085D012100F0DEF84B
:103D4000681CC5B2802DF4DB601CC4B2082CE0DB1B
:103D500070BD0000A802002070B504460D4605F1B4
:103D6000B001C8B2002100F0C9F8102141EA1410D6
:103D7000002100F0C3F804F00F00002100F0BEF8AD
:103D800070BD00002DE9F04707460E469046994663
:103D900000250024A8F12000C5B27F2F02DD0027F6
:103DA000B01CC6B2B9F1100F24D131463846FFF726
:103DB000D3FF002408E004EB0511194A505C0121EF
:103DC00000F09CF8601CC4B2082CF4DB701CC1B27B
:103DD0003846FFF7C1FF002409E004EB0511083164
:103DE0000F4A505C012100F089F8601CC4B2082C15
:103DF000F3DB12E031463846FFF7AEFF00240AE05D
:103E000005EB4501074A02EB4101085D012100F085
:103E100075F8601CC4B2062CF2DBBDE8F087000028
:103E200070630008486100082DE9F04104460F4620
:103E30001546984600260FE0AA5D434639462046BF
:103E4000FFF7A0FF04F10800C4B2782C02DD0024C3
:103E5000B81CC7B2701CC6B2A85D0028ECD1BDE882
:103E6000F08100002DE9F04105460E46174600BFDF
:103E700040F201612048FFF7B5FB0028F8D11E4849
:103E8000FFF7D7FB00BF4FF4A0611B48FFF7AAFB69
:103E90000028F8D06FF0010229461748FFF7B1FB60
:103EA00000BF40F201511448FFF79CFB0028F8D0F6
:103EB00040F201511048FFF781FB00240DE0315D15
:103EC0000D48FFF773FB00BF40F207510A48FFF7A8
:103ED00089FB0028F8D0601CC4B2BC42EFD306486E
:103EE000FFF7ACFB00BF0448006800F40070002836
:103EF000F9D1BDE8F08100000058004038B5044613
:103F00000D4655B140208DF800008DF80140022289
:103F100069467820FFF7A6FF09E000208DF8000031
:103F20008DF80140022269467820FFF79BFF38BDDB
:103F300030B50B1AD360D2ED000AD36800EE103A08
:103F4000B8EEC00A20EE800ABDEEC00A10EE103AAC
:103F5000D4681569641B00EE104AB8EEC00AD2EDB1
:103F6000020A20EE200ABDEEC00A10EE104A2344D9
:103F70001BB25383D3681361B2F91A3042F2107442
:103F8000A34201DD23465383B2F91A30034CA34206
:103F900002DA4DF6F003538330BD0000F0D8FFFF86
:103FA0002DE9F04104460E4617461748844202D1D7
:103FB000164805881CE0B4F1804F02D113484588AB
:103FC00016E01348844202D11048858810E0114859
:103FD000844202D10D48C5880AE00F48844202D1CC
:103FE0000A48058904E00D48844201D10748458903
:103FF0003946284600F014F88046B1B242462046C1
:1040000000F033FCBDE8F081002C0140780700206F
:104010000004004000080040000C00400034014053
:1040200002460AB90020704742F21070814201DB5B
:10403000901EF8E701FB02F042F21073B0FBF3F0C0
:10404000F1E700002DE9F04387B005460F4616461C
:104050001C46DDF838804FF4C06000F079F945481F
:10406000854209D1012100F04DFE40F20B6000F0C5
:104070006FF94148048033E0B5F1804F06D14FF429
:10408000E06000F065F93C48448029E03B48854207
:1040900006D140F2017000F05BF9374884801FE0E0
:1040A0003748854206D140F2027000F051F932489B
:1040B000C48015E03348854206D140F2037000F019
:1040C00047F92D4804810BE02F48854208D1012192
:1040D00000F018FE40F20D6000F03AF926484481E5
:1040E000701E80B2ADF80C000020ADF80E0010205C
:1040F000ADF81000601E05900020ADF812008DF89C
:10410000180003A9284600F075FC0020ADF8040053
:104110000120ADF800000020ADF80600ADF8020067
:10412000ADF80800ADF80A006A463946284600F0A6
:1041300079FA41462046FFF773FF81464A463946E1
:10414000284600F092FB60223946284600F060FBCA
:1041500000223946284600F09BFB0121284600F04A
:10416000D1FD284600F02CFA284600F032FC07B0BA
:10417000BDE8F083002C01407807002000040040D7
:1041800000080040000C004000340140184B596802
:10419000184B1940164BDA6A22F000520C2820D234
:1041A000DFE800F0060708091F0C1F0D1516171889
:1041B00000BF00BF00BF41EA803113E000BF20F024
:1041C00004004FF0805343EA803319430AE000BFF4
:1041D00000BF00BF20F00C0041EA803142F00052E5
:1041E00000E000BF00BF024B5960DA627047000078
:1041F00000100240FF3FFFEF2DE9F04F8CB0074663
:1042000000200A904AA090E8004CC068CDE905BEA5
:10421000CDF810A007900FF21C1ADAE9000ACDE9D8
:10422000020A0FF2101ADAE9000ACDE9000A44483E
:104230004068C0F381000B900B9820B1012804D096
:1042400002283FD103E03F4A3EE03E4A3CE03C4882
:10425000406800F4803CBCF5803F12D13848C06A09
:1042600000F08048B8F1000F01D1364B00E0364B2A
:104270003348406800F40039B9F5003F02D15B08CB
:1042800000E0324B2E484068C0F383412C48406820
:1042900000F0006008B141F010012948406800F0CA
:1042A000804008B141F020010F2901D2891C06E0AD
:1042B0000F2903D33E2901D8491C00E03F2103FB0D
:1042C00001F201E01F4A00BF00BF1D484068C0F373
:1042D000031504A8465D22FA06F419484068C0F3A5
:1042E000022502A8465D24FA06F0099014484068A9
:1042F000C0F3C2251DF8056024FA06F0089037B116
:10430000012F06D0022F06D0032F0AD106E00A9211
:1043100008E00A9406E009980A9003E008980A90D9
:1043200000E000BF00BF0A980CB0BDE8F08F0000AD
:104330000000000000000000010203040607080955
:104340000010024000127A00006CDC0200093D00FF
:10435000064A02EB9011096800F01F0301229A40FF
:104360001143024B03EB90121160704700100240A2
:10437000064A02EB9011096800F01F0301229A40DF
:104380009143024B03EB9012116070470010024002
:10439000064A02EB9011096800F01F0301229A40BF
:1043A0001143024B03EB9012116070470010024062
:1043B00010B520210348FEF74FFF08B9012010BDBA
:1043C0000020FCE70008014010B52022032102482C
:1043D000FEF7B4FF10BD00000008014000200021DE
:1043E0003F4A126842F480323D4B1A6000BF401CC5
:1043F0003B4A126802F4003119B94FF6FF7290423D
:10440000F5D1374A126802F400320AB900BFFEE75C
:10441000334AD26942F08052314BDA61314A126834
:1044200042F440422F4B1A602D4A52682C4B5A607E
:104430001A4652685A601A46526842F480625A60BC
:104440001A46526822F440325A601A46526842F4C0
:1044500040325A601A465268234B1A40204B5A6029
:104460001A465268214B1A431D4B5A601A4612686D
:1044700042F080721A6000BF194A126802F000729E
:10448000002AF9D0174A126842F48032154B1A609C
:1044900000BF144A526802F48032002AF9D0114A4F
:1044A000126842F400320F4B1A6000BF0D4A526886
:1044B00002F40032002AF9D0094A526822F00302BD
:1044C000074B5A601A46526842F002025A6000BF17
:1044D000034A526802F00802002AF9D0704700002F
:1044E0000010024000700040FFFFC3B70000340816
:1044F00010B5FFF773FF10BD70B520480068204964
:104500000860084600681F49B0FBF1F01E490860CA
:104510001B4800681B49B0FBF1F201FB12001B496C
:104520000860174800684FF47A71B0FBF1F4B4F1F9
:10453000807F02D316A0FCF7E7FC2546681EB0F189
:10454000807F01D301200FE0681E4FF0E021486119
:104550000F214FF0FF30FCF77BFA00204FF0E021F5
:10456000886107200861002010B112A0FCF7CCFC84
:104570000021481EFCF76CFA70BD0000CC01002041
:10458000F401002040420F00F8010020FC0100204F
:10459000CAB1D6D3B9FDB8DFA3ACCEDEB7A8C5E4A7
:1045A000D6C3316D73D6D0B6CFA3ACD0E8B5F7D5AE
:1045B000FB0A0000C5E4D6C3CAA7B0DC0A000000AD
:1045C000016841F080010160704731B101290CD0D0
:1045D000022913D0032922D118E0836923F00C03A8
:1045E00083618369134383611AE0836923F4406321
:1045F0008361836943EA0223836111E0C36923F085
:104600000C03C361C3691343C36109E0C36923F4A5
:104610004063C361C36943EA0223C36100E000BF92
:1046200000BF704710B531B101293FD002297DD0BC
:1046300003297CD1BFE0036A23F00103036283698D
:1046400023F003038361036A148823430362036A2C
:1046500023F002030362036A9488234303626A4BD4
:10466000984202D0694B98421FD1036A23F0040399
:104670000362036A548823430362036A23F0080336
:104680000362036AD48823430362436823F480737C
:1046900043604368148923434360436823F40073F1
:1046A00043604368548923434360ABE0036A23F0CB
:1046B00010030362836923F440738361036A1488DF
:1046C00043EA04130362036A23F020030362036ACC
:1046D000948843EA041303624B4B984202D04B4B3D
:1046E000984226D1036A23F040030362036A548888
:1046F00043EA04130362036A23F080030362036A3C
:10470000D48843EA04130362436823F4806343605C
:104710004368148943EA84034360436823F40063D5
:1047200043604368548943EA840301E002E068E09F
:10473000436067E0036A23F480730362C36923F074
:104740000303C361036A148843EA04230362036A10
:1047500023F400730362036A948843EA0423036228
:10476000294B984202D0294B984223D1036A23F463
:1047700080630362036A548843EA04230362036A82
:1047800023F400630362036AD48843EA04230362C8
:10479000436823F4805343604368148943EA041355
:1047A0004360436823F4005343604368548943EAF9
:1047B0000413436026E0036A23F480530362C36951
:1047C00023F44073C361036A148843EA0433036229
:1047D000036A23F400530362036A948843EA0433B0
:1047E0000362094B984202D0084B984208D14368B3
:1047F00023F4804343604368148943EA841343608D
:1048000000E000BF00BF10BD002C0140003401409B
:1048100031B101290CD0022913D0032922D118E08B
:10482000836923F0700383618369134383611AE012
:10483000836923F4E0438361836943EA022383614C
:1048400011E0C36923F07003C361C3691343C361FB
:1048500009E0C36923F4E043C361C36943EA022367
:10486000C36100E000BF00BF704731B1012906D02D
:10487000022906D0032908D105E0426306E08263DD
:1048800004E0C26302E0026400E000BF00BF7047C2
:1048900031B101290CD0022913D0032922D118E00B
:1048A000836923F0080383618369134383611AE0FA
:1048B000836923F400638361836943EA022383618C
:1048C00011E0C36923F00803C361C3691343C361E3
:1048D00009E0C36923F40063C361C36943EA0223A7
:1048E000C36100E000BF00BF7047000010B5044680
:1048F0003349601A8C4244D00CDCB4F1804F1CD098
:104900003048204410B3B0F5806F28D0B0F5006F68
:1049100052D12DE0B0F5806F3CD0B0F58E3F03D082
:10492000B0F5923F48D13EE040F20B30FFF730FD4A
:1049300040F20B30FFF71CFD3FE04FF48060FFF7C3
:1049400027FD4FF48060FFF713FD36E040F2014091
:10495000FFF71EFD40F20140FFF70AFD2DE040F297
:104960000240FFF715FD40F20240FFF701FD24E091
:1049700040F20340FFF70CFD40F20340FFF7F8FC64
:104980001BE040F20440FFF703FD40F20440FFF754
:10499000EFFC12E040F20540FFF7FAFC40F2054060
:1049A000FFF7E6FC09E040F20D30FFF7F1FC40F2C2
:1049B0000D30FFF7DDFC00E000BF00BF10BD0000C0
:1049C0000010004000FCFFBF016821F00101016000
:1049D0007047016841F0010101607047CA430261FC
:1049E000704702461069084008B101207047002056
:1049F000FCE700000A8882621D4A90420ED0B0F1A6
:104A0000804F0BD01B4A904208D01B4A904205D0E1
:104A10001A4A904202D01A4A90420BD1026822F000
:104A20007002026002684B881A43026002688B8839
:104A30001A4302608A68C262124A90420AD0124A3D
:104A4000904207D0026822F4407202600268CB886C
:104A50001A430260064A904202D0094A904201D1AC
:104A60000A7B0263426942F0010242617047000022
:104A7000002C01400004004000080040000C0040F1
:104A800000340140001000400014004070B504469E
:104A90000E46154636B1012E26D0022E48D0032EE2
:104AA0007DD168E0206A20F001002062206A20F0B9
:104AB0000A002062206A298808432062A06920F049
:104AC0000300A061A06969880843A061A06920F083
:104AD000F000A061A069E98840EA0110A061206AA5
:104AE00040F0010020626DE0206A20F0100020629A
:104AF000206A20F0A0002062206A298840EA011084
:104B00002062A06920F44070A061A069698840EA31
:104B10000120A061A06920F47040A061A069E9882B
:104B200040EA0130A061206A40F01000206249E0B4
:104B3000206A20F480702062206A20F420602062C5
:104B4000206A298840EA01202062E06920F0030001
:104B5000E061E06969880843E061E06920F0F00005
:104B6000E061E069E98840EA0110E061206A40F410
:104B70008070206226E0206A20F480502062206A43
:104B800020F400502062206A298840EA0130206227
:104B9000E06920F44070E061E069698800E010E0BD
:104BA00040EA0120E061E06920F47040E061E069E2
:104BB000E98840EA0130E061206A40F480502062D8
:104BC00000E000BF00BFAA8831462046FFF7FDFC89
:104BD00070BDC2680A43C2607047CA430261704731
:104BE0000246D06800EA01031069084010B10BB119
:104BF000012070470020FCE710B504462046FFF76F
:104C0000E3FE10BD7FB504460D46B4F1804F09D1D7
:104C1000002211461C20FEF757FF4FF4E060FFF71B
:104C200097FB3FE03248844209D1002211461D2003
:104C3000FEF74AFF40F20170FFF78AFB32E02D4891
:104C4000844209D100220F211E20FEF73DFF40F2D1
:104C50000270FFF77DFB25E02748844209D100223E
:104C600011463220FEF730FF40F20370FFF770FB71
:104C700018E02248844209D1002211463620FEF76E
:104C800023FF40F20470FFF763FB0BE01C488442F3
:104C900008D1002211463720FEF716FF40F20570BA
:104CA000FFF756FB2046FFF721FE7720ADF8000006
:104CB0000020ADF80200ADF8040005EB4500C0EBA4
:104CC000C5100121C1EBC00002900020ADF8060024
:104CD00069462046FFF78EFE01212046FFF77DFF43
:104CE00001212046FFF775FF2046FFF772FE7FBDCA
:104CF0000004004000080040000C0040001000408C
:104D000000140040012904D1426C42F40042426484
:104D100003E0426C22F400424264704730B584687C
:104D200024F00704846084680C438460846940F242
:104D30000335AC438461846940F201152C438461DE
:104D4000046A24F00A040462046A24F0A0040462E1
:104D5000046A42EA03152C43046230BD002101803D
:104D6000418081804FF6FF7181600021C180017315
:104D7000704700009FED0C0A0C4880ED000A9FED83
:104D80000C0A80ED010A9FED0A0A80ED020A00205C
:104D90000649C860086148610883488341F2707021
:104DA000044908607047000000007042A806002017
:104DB00000000000200000201CB504464FF4E13044
:104DC0004FF48063034A5115CDE90040104600F0CE
:104DD00003F81CBD000801402DE9F04705460F46C9
:104DE00014469846DDE908694FF4C060FFF7B0FA51
:104DF0005A48864204D140F20E60FFF7A9FA1EE03D
:104E00005748864204D140F21170FFF7A1FA16E02C
:104E10005448864204D140F21270FFF799FA0EE02E
:104E20005148864204D140F21370FFF791FA06E030
:104E30004E48864203D140F21470FFF789FA4C487D
:104E4000854204D140F20260FFF782FA2EE0494821
:104E5000854204D140F20360FFF77AFA26E0464823
:104E6000854204D140F20460FFF772FA1EE0434825
:104E7000854204D140F20560FFF76AFA16E0404827
:104E8000854204D140F20660FFF762FA0EE03D4829
:104E9000854204D140F20760FFF75AFA06E03A482B
:104EA000854203D14FF4C160FFF752FA3B4603221B
:104EB00018212846FEF7DCF92D48844204D140F23F
:104EC0000260FFF745FA2EE02A48844204D140F2FE
:104ED0000360FFF73DFA26E02748844204D140F200
:104EE0000460FFF735FA1EE02448844204D140F202
:104EF0000560FFF72DFA16E02148844204D140F204
:104F00000660FFF725FA0EE01E48844204D140F205
:104F10000760FFF71DFA06E01B48844203D14FF4F7
:104F2000C160FFF715FA4346032204212046FEF72D
:104F30009FF9304601F042F84946304600F0F2FF52
:104F40000421304601F096F80821304601F09AF825
:104F5000304601F07BF8BDE8F087000000380140E2
:104F60000044004000480040004C00400050004019
:104F700000080140000C01400010014000140140F5
:104F800000180140001C014000200140B0EE402A02
:104F900072EE202AB0EE620AB4EEC10AF1EE10FA07
:104FA00001D2B0EE410AB4EEE10AF1EE10FA01DDF1
:104FB000B0EE610A704730B504466018904200DADE
:104FC0001046984200DD184630BD30B504460D4607
:104FD0006119914200DA1146994200DD194688B202
:104FE00030BD000010B5002009490870094908705B
:104FF0000949087001200949087000208870C870AC
:105000004870FF2006490870FEF7CAFD10BD000079
:10501000C1010020C2010020C3010020C501002001
:10502000C901002010B5FEF72FFB10BD70B5044676
:10503000FDF782FE0546FEF7B3FD35B1102315A23C
:105040000221184600F03CF805E0102314A20221CA
:10505000184600F035F8FA20FDF7C4FA012013498C
:105060000870134804700078032804D910480078A9
:10507000C01EC0B200E000200E49087001200E4999
:10508000087000208870C8704870FF200B490870B5
:1050900070BD0000504152414D20534156454400DF
:1050A00053415645204641494C454400C10100202A
:1050B000C2010020C3010020C5010020C901002059
:1050C0002DE9F04104460D4616461F463B46324642
:1050D00029462046FEF7A8FEBDE8F081F0B52DED8B
:1050E000028B89B0FFF79EFF0446FE48007808282F
:1050F0000DD1FD480078401CC0B2FB4908700A2859
:1051000005DD0120F949C8700020F7490870FF2C1F
:1051100070D0F448007809280FD2DFE800F0050FBE
:10512000A4B7FBFAF9F8F7000120EE490870002057
:10513000EF4908700120ED490870FCE20720012CBE
:105140001BD1EB490978002903DDE9490978491E9B
:1051500000E0411EE64A117011460978E54A1278CE
:10516000914207DAE2490978E24A11700121DF4AE7
:10517000517002E00121DD4A9170022C27D1411EBD
:10518000DB4A1278914203DDD9490978491C00E0D5
:105190000021D74A117011460A78D6490978091DAD
:1051A0008A4208DBD2490978C91ED24A117001210E
:1051B000CE4A517002E00121CC4A9170CC49097865
:1051C00029B90021CB4A11700121C84A5170042C21
:1051D00005D10021C34A11700121C44A1170052C68
:1051E00001D0032C3ED1C249097821B90221BD4A20
:1051F00011702FE0A0E2BE490978012903D10321F3
:10520000B84A117026E0BA490978022903D104216D
:10521000B44A11701EE0B6490978032903D105216B
:10522000B04A117016E0B2490978042903D1062169
:10523000AC4A11700EE0AE490978052903D1072167
:10524000A84A117006E0AA490978062902D1082166
:10525000A44A11700021A64A1170A64A11700121BA
:10526000A24A117067E2012C01D0022C08D1A24899
:105270000078C0F10100A049087001209B498870A6
:10528000052C02D10020FFF7D1FE54E2012C0DD1F4
:1052900097480078002803DD95480078401E00E01C
:1052A000012093490870012090498870022C0DD18B
:1052B0008F480078012803DA8D480078401C00E010
:1052C00000208B490870012088498870032C01D187
:1052D000012004E0042C01D1601F00E000200546FD
:1052E000F5B383480078F0B901EE105AB8EEC11A50
:1052F000F7EE001A21EE211AF0EE410A7F4890EDF8
:10530000001AB0EE410ADFED7E1A04E002E251E03D
:105310004FE04DE02EE09FED7B1AFFF737FE774818
:1053200080ED000A1BE072480078012817D101EED9
:10533000105AB8EEC11AF7EE001A21EE211AF0EE5B
:10534000410A6E4890ED021AB0EE410ADFED6C1A88
:105350009FED6C1AFFF71AFE684880ED020A00E024
:1053600002E001206149C870052C02D10120FFF73D
:105370005DFEE0E1032C01D1012004E0042C01D109
:10538000601F00E00020054665B14FF496730122CE
:1053900029465D480068FFF70EFE5B490860012062
:1053A0005249C870052C02D10220FFF73FFEC2E12E
:1053B00000BF00BF4B480078052801D1072006E058
:1053C00048480078062801D1042000E00520064660
:1053D000012C1BD146480078002803DD44480078A2
:1053E000401E00E0701E424908700846007841499E
:1053F0000978884207DA3E4800783E490870012063
:105400003A49487002E0012038498870022C27D1BF
:10541000701E37490978884203DD35480078401C02
:1054200000E00020324908700846017831480078D1
:10543000001D814208DB2E480078C01E2D490870EF
:1054400001202A49487002E0012028498870284834
:10545000007828B9002027490870012023494870A6
:10546000032C01D1012004E0042C01D1601F00E0D5
:1054700000200546002D75D01A480078052872D105
:105480001B48007860B9642005FB00F141F28833C5
:1054900000221E480088FFF798FD1C49088023E180
:1054A0001348007801280DD14FF4FA7005FB00F184
:1054B0004EF66023002216480088FFF786FD144947
:1054C000088011E10A480078022828D14FF4FA70C8
:1054D00005FB00F14EF6602300220E480088FFF71E
:1054E00074FD19E0C1010020CA010020C50100209F
:1054F000C2010020C3010020C4010020A806002032
:105500000000964300000000800100208801002078
:105510008A0100208C010020F8490880E4E0F84866
:10552000007803280DD14FF4FA7005FB00F14EF618
:1055300060230022F3480088FFF747FDF149088007
:10554000D2E0EF48007804280ED1322005FB00F1AC
:1055500040F6FF730022EC480088FFF736FDEA4969
:105560000880C1E0C3E021E0E548007805280CD1BF
:10557000322005FB00F140F6FF730022E34800886B
:10558000FFF723FDE1490880AEE0DD4800780628FA
:105590000BD1322005FB00F140F6FF730022DC48FE
:1055A0000088FFF712FDDA4908809DE0D9480078AD
:1055B000062844D1D248007860B905EB8500410047
:1055C00041F288330022D4480088FFF7FEFCD2491C
:1055D000088089E0CA48007801280DD14FF4FA709C
:1055E00005FB00F14EF660230022CC480088FFF74F
:1055F000ECFCCA49088077E0C148007802280CD149
:1056000005EB8500410040F6FF730022C448008886
:10561000FFF7DBFCC249088066E0B9480078032840
:1056200062D14FF4FA7005FB00F14EF660230022C0
:10563000BC480088FFF7C9FCBA49088054E0B54867
:105640000078072850D1AE48007860B905EB850096
:10565000410040F6FF730022B3480088FFF7B5FC15
:10566000B149088040E0A648007801280DD14FF4E8
:10567000FA7005FB00F14EF660230022AB4800886B
:10568000FFF7A3FCA94908802EE09D480078022876
:105690000CD1322005FB00F14EF660230022A44815
:1056A0000088FFF792FCA24908801DE0944800782A
:1056B00003280CD1322005FB00F14EF660230022B6
:1056C0009C480088FFF781FC9A4908800CE08C48D0
:1056D0000078042808D1142300222946964800683F
:1056E000FFF769FC94490860012094494870052C33
:1056F0000FD188490978052901D1032106E08549A0
:105700000978062901D1042100E005210846FFF7A8
:105710008DFC10E0052C01D0042C0BD101207D491B
:10572000087006207649087003208549087001201A
:105730008249087000BF00BF8048007860B97F4888
:10574000807848B97D48C07830B97C48407818B92D
:1057500009B0BDEC028BF0BD78480078C0B3FEF70D
:105760001FFA6C48007830B1022811D0032822D0EB
:10577000042835D12DE0102372A200211846FFF72E
:105780009FFC082373A206211820FFF799FC28E04C
:10579000102373A200210846FFF792FC102374A285
:1057A00002211420FFF78CFC102374A20421142082
:1057B000FFF786FC15E0102373A200210820FFF7F5
:1057C0007FFC102372A202210820FFF779FC08E079
:1057D00010E0102370A200210820FFF771FC00E008
:1057E00000BF00BF012055498870C8704870FF2075
:1057F0006C49087051484078002873D045480078BB
:1058000001280BD043480078052807D0414800788C
:10581000062803D03F480078072863D13D48007828
:10582000012801D107200CE03A480078052801D171
:10583000072006E037480078062801D1042000E060
:105840000520074600268AE13D4800783044C5B26D
:105850007006010E102354A20020FFF731FCBD4258
:1058600000DB7AE12B48007801282FD125B953A11C
:1058700001A8FBF759FB68E1012D04D153A101A850
:10588000FBF752FB61E1022D04D153A101A8FBF704
:105890004BFB5AE1032D04D153A101A8FBF744FBB4
:1058A00053E1042D04D153A101A8FBF73DFB4CE1CA
:1058B000052D04D153A101A8FBF736FB45E1062DC8
:1058C000D9D154A101A8FBF72FFB3EE11148007884
:1058D000052811D13DB95348028853A101A8FBF70F
:1058E00023FB32E142E1012D07D15248028852A147
:1058F00001A8FBF719FB28E1D1E0A3E08C0100200F
:10590000C20100208E0100209001002092010020A1
:1059100094010020C1010020960100209801002080
:105920009A0100209C0100209E010020A00100207F
:10593000A2010020A401002084010020C501002054
:10594000C3010020534D415254204341522056324E
:10595000000000005B50555348204D454E555D00FA
:10596000534554204944454E544954593A00000087
:1059700043415220312028545829000043415220ED
:10598000322028525829000054726B5F503A0000B0
:1059900054726B5F443A00005365744F666620444E
:1059A0006C793A00C90100202020202020202020EE
:1059B000202020202020202000000000312E526FC7
:1059C0006C6520536574757000000000322E5049DC
:1059D0004420536574730000332E5365744F66661C
:1059E00028476F2900000000342E41766F6964203B
:1059F0004F627300352E526F756E6461626F7574FD
:105A000000000000362E5061726B2853746F7029AD
:105A100000000000372E416C6C2053656E736F726E
:105A20007300000088010020445F4176643A20251D
:105A30002D3575008A010020505F4176313A2025CE
:105A40002D357500022D06D1CE480288CEA101A8C1
:105A5000FBF76AFA79E0032D06D1CE480288CEA181
:105A600001A8FBF761FA70E0042D06D1CD48028849
:105A7000CDA101A8FBF758FA67E0052D06D1CD4866
:105A80000288CDA101A8FBF74FFA5EE0062D5CD19C
:105A9000CC480288CCA101A8FBF746FA55E0CD48D6
:105AA0000078062822D135B9CB480288CBA101A8BD
:105AB000FBF73AFA49E0012D06D1CB480288CBA189
:105AC00001A8FBF731FA40E0022D06D1CA4802884E
:105AD000CAA101A8FBF728FA37E0032D35D1CA483F
