:020000040800F2
:10000000780B002045010008B90900080D08000818
:10001000B509000863070008490E00080000000049
:10002000000000000000000000000000ED090008D2
:100030009107000800000000E5090008F109000828
:100040005F0100085F0100085F0100085F01000810
:100050005F0100085F010008930700089707000888
:10006000990700089B0700089D0700085F0100082A
:100070005F0100085F0100085F0100085F010008E0
:100080005F0100085F0100085F0100085F010008D0
:100090005F0100085F0100085F010008A107000878
:1000A0005F0100085F0100085F0100085F010008B0
:1000B000D90A0008DB0A0008DD0A00081108000858
:1000C0005F010008130800085F010008E709000845
:1000D000E9090008430E0008450E0008470E000815
:1000E000950700085F0100085F0100085F01000834
:1000F0005F0100085F010008390B00085F0100087C
:100100005F0100085F010008050B0008EB0900080B
:100110003F0E0008410E0008350B0008370B0008A1
:100120005F0100085F0100085F0100085F0100082F
:10013000DFF80CD000F0C6FA004800475D38000830
:10014000780B00200648804706480047FEE7FEE798
:10015000FEE7FEE7FEE7FEE7FEE7FEE7FEE7FEE777
:10016000310A0008310100082DE9F05F0546002042
:1001700092469B4688460646814640241BE0284618
:1001800041464746224600F002F953465A46C01AF5
:10019000914110D311461846224600F0E9F82D1A75
:1001A00067EB01084F4622460120002100F0E0F8ED
:1001B00017EB00094E41201EA4F10104DFDC484684
:1001C00031462A464346BDE8F09FD2B201E000F82E
:1001D000012B491EFBD270470022F6E710B51346EB
:1001E0000A4604461946FFF7F0FF204610BD30B519
:1001F00004460020034600E05B1C934203D2E05C0F
:10020000CD5C401BF8D030BD2DE9FE4F81EA0304E0
:1002100004F0004421F0004100944FF0000B23F063
:10022000004350EA01045ED052EA03045BD0C3F3FA
:100230000A54C1F30A552C44A4F2F3340194A0FBF0
:100240000254C1F3130141F48011C3F3130343F4C7
:10025000801301FB024400FB034E840A970A44EA20
:10026000815447EA8357A4FB076802958D0A05FB72
:1002700007854FEA932C04FB0C542705029D4FEA97
:10028000065847EA1637B5EB08056EEB070C870EE4
:10029000920E47EA811742EA8312A7FB0201B6EBEE
:1002A0000B0164EB00042B0D43EA0C335E1844EBA6
:1002B0001C50DA465146E7FB0201C5F313044FEA2E
:1002C0000B3343EA14534FEA0432019C43EA06031A
:1002D000A4F10C040294009CCDE900B400F076F87F
:1002E00003B0BDE8F08F00200146F9E700F00042BE
:1002F00030F000400AD0C10D01F56071C0F3160066
:1003000042EA0151C20840071143704700200146EC
:100310007047000030B5041E71F1000404DB4FF09B
:100320000044404264EB0101141E73F1000405DB3C
:100330001C464FF00043524263EB0403994208BF4E
:10034000904230BD30B50B460146002020220124EA
:1003500009E021FA02F59D4205D303FA02F5491B93
:1003600004FA02F52844151EA2F10102F1DC30BDA9
:10037000202A04DB203A00FA02F100207047914065
:10038000C2F1200320FA03F3194390407047202A5A
:1003900004DB203A21FA02F00021704721FA02F32F
:1003A000D040C2F12002914008431946704710B571
:1003B000141E73F1000408DA401C41F10001921888
:1003C0005B411A4301D120F0010010BD2DE9F04D31
:1003D00092469B4611B1B1FA81F202E0B0FA80F286
:1003E00020329046FFF7C4FF04460F4640EA0A0059
:1003F00041EA0B0153465A46084313D0114653EACB
:10040000010019D0C8F140025046FFF7C0FF054671
:100410000E46504659464246FFF7AAFF084305D00C
:10042000012004E020463946BDE8F08D0020054358
:1004300046EAE0762C4337430A986305E40AA0EBCA
:1004400008000022FD0A44EA47540A3002D5002081
:100450000146E9E7010510196941DDE90845001980
:100460006941BDE8F04DA2E72DE9FE4F804681EAE3
:100470000300C00F0C46009021F0004123F000451E
:10048000B8EB0200A94105D24046214690461C46E1
:100490000B46024623F00040104347D0270DC7F318
:1004A0000A00C3F30A510290401A019040286BDA07
:1004B000C3F3130040F4801B0098924620B1002340
:1004C000D2EB030A63EB0B0B01985946C0F14002D3
:1004D0005046FFF74DFF06460D4650465946019AD5
:1004E00000F002F910EB08006141002487EA115284
:1004F00084EAE7731A4340D0009A62B3019A012A52
:100500004FEA075215DC001B61EB02014FF000427D
:1005100002EA0752CDE90042001C41F58011324643
:100520002B46FFF753FF03B0BDE8F08F404621464E
:10053000F9E7001B61EB0201001C41F58013001874
:100540005B412018A2F5001747EB030140EAD57084
:10055000B6196D4111E06D084FEA360645EAC075DF
:100560004FEA0752001B61EB0201001C41F58011AC
:1005700049084FEA30000019514132462B4603B07A
:10058000BDE8F04FFFF713BF0098012240000023A1
:10059000D0EB020263EBE073009821464FEAE0746F
:1005A000B8EB000061EB0401E9E783F000435BE78F
:1005B00081F0004158E72DE9F04D81EA030404F091
:1005C000004B21F0004514464FF0000A23F0004193
:1005D00050EA050220D054EA01021DD0C5F30A57A3
:1005E0000246C5F31303C1F31300C1F30A5640F4E6
:1005F000801543F48013A7EB0608101BD64608F2BB
:10060000FD3873EB050002D308F1010801E09218F0
:100610005B41B8F1000F03DA00200146BDE8F08D20
:1006200000204FF48011064684460EE0171B73EB42
:10063000050705D3121B63EB050306434CEA010CC7
:1006400049084FEA300092185B4150EA0107EDD1AA
:1006500052EA030012D082EA040083EA050108434B
:1006600005D0101BAB4106D20122002306E0002278
:100670004FF0004302E06FF0010253101AEB060046
:100680004CEB085110EB0A0041EB0B01BDE8F04DBB
:10069000FFF78DBEC1F30A52C1F3130140F2FF33DD
:1006A00041F480119A4202DA00200146704740F27C
:1006B00033439A42A2F2334202DC5242FFF767BE52
:1006C000FFF756BE064C074D06E0E06840F0010318
:1006D00094E8070098471034AC42F6D3FFF72CFD9E
:1006E00090680008B0680008202A06DBCB17203A83
:1006F00041FA02F043EAE07306E041FA02F3D04027
:10070000C2F12002914008431946704770B58C1819
:1007100010F8015B15F0070301D110F8013B2A1115
:1007200006D110F8012B03E010F8016B01F8016B02
:100730005B1EF9D12B0705D40023521E0DD401F8FE
:10074000013BFAE710F8013BCB1A921C03E013F8C7
:10075000015B01F8015B521EF9D5A142D8D30020FC
:1007600070BD00BFFEE738B500F03CF804466946AE
:10077000312000F025FA012001F092FF9DF80000E1
:1007800000F00100A04201D1012038BD0020FCE7AB
:100790007047704770477047704770477047000058
:1007A00010B5202002F026F990B1202002F01CF9AB
:1007B0000848007860B90848007848B907480068D8
:1007C00007490860012004490870202002F0FCF865
:1007D00010BD0000540000204C0000200C0200203E
:1007E0005000002038B56946302000F0E9F99DF846
:1007F000000000F0100000909DF80000001108B902
:10080000012000E000200446204638BD00BFFEE77E
:100810007047704738B50024002000904FF47A7577
:1008200040220421544802F0EBFD80220521524869
:1008300002F0E6FD012240214F4802F00FFD0122A7
:1008400080214D4802F00AFD022001F01BFF69469D
:1008500040F20F1000F0EAF94EF6CC2100988842E1
:1008600003D046A0009900F0F1FA87224A490120FE
:1008700000F0BAFA32201E282AD008DC022851D013
:10088000052844D00A2837D0142856D129E0322828
:1008900015D042280AD064284FD165215E2000F08F
:1008A000BFFA8721612000F0BBFA4FE01D215E20D6
:1008B00000F0B6FA2721612000F0B2FA46E051219B
:1008C0005E2000F0ADFA6E21612000F0A9FA3DE053
:1008D000D6215E2000F0A4FA6E21612000F0A0FA7B
:1008E00034E04FF4D7715E2000F09AFA4FF4F471BF
:1008F000612000F095FA29E040F2E1215E2000F04D
:100900008FFA4FF46271612000F08AFA1EE040F223
:10091000E1315E2000F084FA40F29641612000F05F
:100920007FFA13E040F291515E2000F079FA40F234
:10093000C151612000F074FA08E065215E2000F0EA
:100940006FFA8721612000F06BFA00BF00BF06E05C
:10095000FFF709FF04466D1E012001F093FE0CB95C
:10096000002DF5D11CB90DA000F070FA03E00121B3
:10097000862000F031FA38BD000C0140544F463457
:10098000303043204944204572726F723A203078EB
:10099000253034580D0A00003B020020544F4634E5
:1009A00030304320496E6974204572726F72210D98
:1009B0000A00000000BFFEE77047000010B50028E5
:1009C00007DA0A07140E054A00F00F031B1FD45460
:1009D00003E00A07130E024A135410BD18ED00E09D
:1009E00000E400E0704770477047704770470000B0
:1009F00010B507480068401C0549086008460068B3
:100A000020B90020086003A000F020FA10BD00000B
:100A10000C020020675F6D696C6C6973B7A2C9FA3C
:100A2000D2E7B3F6A3ACD0E8B5F7D5FB0A000000D7
:100A300008B52648006840F470002449086024483E
:100A4000006840F001002249086000BF20480068AB
:100A500000F002000028F9D000BF1D48406840F0B7
:100A600080001B4948600020009002E00098401C74
:100A7000009000985028F9D31548406840F0900045
:100A8000134948600020009002E00098401C00904C
:100A900000985028F9D300BF0D48406820F00300AB
:100AA0000B494860084600680A4908400849086040
:100AB0004FF41F0088600846006820F4802008601A
:100AC00000204860C86203F027FE08BD88ED00E002
:100AD00000100240FFFFF6FE7047704710B501217D
:100AE000064804F0C2F8012806D10121034804F0A9
:100AF000B9F801200249087010BD0000000800404C
:100B0000E000002010B50121074804F0AEF80128EC
:100B100009D10121044804F0A5F80448007801280F
:100B200001D10349087010BD000C0040B500002041
:100B300064000020704770477047000070B506469B
:100B40000024002240211D4802F088FB012001F012
:100B5000A7FD01228021194802F080FB00251DE03D
:100B6000012001F09DFD00224021144802F076FB97
:100B7000012001F095FD01224021104802F06EFB9A
:100B8000012001F08DFD6006040E80210B4802F06B
:100B9000C5FB08B1601CC4B2681CC5B2082DDFDB00
:100BA00000224021054802F059FB012001F078FDA8
:100BB000304600F04DF8204670BD0000000C0140AA
:100BC00070B504460D4601222946204600F001F882
:100BD00070BD2DE9F04105460E461746002400F091
:100BE00061F8522000F0CAF8C5F3072000F0C6F8FB
:100BF000E8B200F0C3F800F055F8532000F0BEF85A
:100C000000BF0DE0781EA04204D00120FFF796FF40
:100C1000305503E00020FFF791FF3055601CC4B24F
:100C2000BC42EFD300F05CF8BDE8F08138B5054672
:100C30000C4600200090022269462846FFF7C9FFB3
:100C40009DF801009DF8001000EB0120206038BDE8
:100C500010B5044600224021114802F0FFFA01209D
:100C600001F01EFD2CB1002280210D4802F0F6FAA1
:100C700004E0012280210A4802F0F0FA012240211A
:100C8000074802F0EBFA012001F00AFD00224021A2
:100C9000034802F0E3FA012001F002FD10BD00005C
:100CA000000C014010B5012240210C4802F0D6FA98
:100CB00001228021094802F0D1FA012001F0F0FC64
:100CC00000228021054802F0C9FA012001F0E8FC69
:100CD00000224021014802F0C1FA10BD000C014081
:100CE00010B5002240210E4802F0B8FA00228021FF
:100CF0000B4802F0B3FA012001F0D2FC012240219E
:100D0000074802F0ABFA012001F0CAFC0122802161
:100D1000034802F0A3FA012001F0C2FC10BD00005C
:100D2000000C014010B500224021134802F096FA51
:100D3000012001F0B5FC012240210F4802F08EFA9B
:100D4000012001F0ADFC80210B4802F0E7FA48B128
:100D500000224021084802F081FA012001F0A0FCA5
:100D6000002010BD00224021034802F077FA012044
:100D700001F096FC0120F4E7000C014070B5044638
:100D800008251FE004F0800028B1012280211148CD
:100D900002F064FA04E0002280210E4802F05EFABC
:100DA0006006040E012001F07BFC0122402109486D
:100DB00002F054FA012001F073FC002240210548A2
:100DC00002F04CFA281EA5F10101CDB2DAD1FFF7ED
:100DD000A9FF70BD000C014013B50446012201A912
:100DE000204600F001F81CBD70B504460D461646BD
:100DF000FFF758FF5220FFF7C1FFC4F30720FFF7AA
:100E0000BDFFE0B2FFF7BAFF03E015F8010BFFF7F3
:100E1000B5FF301EA6F10106F7D1FFF761FF70BDE7
:100E200038B505460C46200A8DF80000E0B28DF872
:100E30000100022269462846FFF7D6FF38BD7047F9
:100E4000704770477047704700BFFEE70FB4054B0F
:100E500010B503A9044A029800F0EEF810BC5DF842
:100E600014FB0000D9310008C40200200FB4084B65
:100E700010B504A902AA039800F0DEF8044602A9FE
:100E8000002000F070FC204610BC5DF814FB000050
:100E90006717000802E008C8121F08C1002AFAD12B
:100EA00070477047002001E001C1121F002AFBD1EA
:100EB000704700002DE9FF5F82B00021DDE90430BA
:100EC000020DDDF840B0034318D044F61050A2F2F2
:100ED000FF3242431514119801281FD0A5EB0B00D7
:100EE000401C5FEA000A4FF000064E4FDFF83891D1
:100EF000B046504615D5CAF1000413E011980124FC
:100F00004AA3012801D16FEA0B010298119AC0E9A6
:100F10000031C0E9024206B0BDE8F09FCBF100000D
:100F2000DFE704460021404A491842EB0450CDE96E
:100F3000001012E0E00707D032463B4640464946E3
:100F4000FFF762F98046894632463B46104619460D
:100F5000FFF75AF906460F466410002CEAD1DDE986
:100F60000401DDE90023BAF1000F06DAFFF74CF9BE
:100F700042464B46FFF748F905E0FFF71CFB4246A7
:100F80004B46FFF718FB04460E460022284BFFF79E
:100F9000C1F903D84FF0FF30014607E00022254B8E
:100FA00020463146FFF760FAFFF774FB102409E092
:100FB000002C0ADB0A220023FFF7D6F8039B30320D
:100FC0001A55641E50EA0102F2D1641C039AC4F15E
:100FD00011031444119A012A03D0012208430DD1B0
:100FE0000AE0084304D000204FF0110B119072E783
:100FF000A3EB0B056D1E0DE05B4504DD4FF0000219
:1010000005F1010504E003DA4FF00002A5F1010546
:10101000002AECD002981199C0E90231C0E90045DC
:1010200079E70000000014400000F03F30000000AD
:101030000000F0430000E03F2DE9FF4F95B09B46D4
:101040008946064600250FE2252877D10024274649
:10105000F84A0121059400E0044316F8013F203BC3
:1010600001FA03F01042F7D130782A2811D06FF03E
:101070002F033078A0F13002092A16D8059A44F0DF
:10108000020402EB820203EB42021044761C05903C
:10109000EFE759F8042B0592002A03DA504244F492
:1010A0000054059044F00204761C30782E2816D1A6
:1010B00016F8010F44F004042A280DD06FF02F0217
:1010C0003078A0F13003092B09D807EB870302EB36
:1010D0004303C718761CF3E759F8047B761C307875
:1010E0006C280FD006DC4C2817D068280DD06A2851
:1010F00014D104E0742810D07A280FD10DE044F404
:1011000000140AE044F4801401E044F440147278BE
:10111000824202D104F58014761C761C3078662851
:101120000BD013DC582877D009DC002875D045286F
:10113000F6D04628F4D047281AD19DE118E063285C
:1011400035D0642879D0652812D195E1702873D004
:1011500008DC6728F1D069286FD06E280DD06F2881
:1011600006D1B5E073282CD0752875D0782874D0B6
:101170005A46179990476D1C75E1C4F30250022836
:1011800009D003280DD0D9F8001004280DD00D6027
:1011900009F1040967E1D9F80010EA17C1E9005222
:1011A000F6E7D9F800100D80F2E70D70F0E719F8B6
:1011B000041B8DF8001000208DF80100EA46012084
:1011C00003E059F804AB4FF0FF3061074FF0000126
:1011D00002D40DE008F101018846B9420FDA8045DA
:1011E000F8DB1AF808100029F4D108E008F1010131
:1011F00088468142FADB1AF808100029F6D10598D2
:101200005B46A0EB080721463846179A00F094FA8F
:10121000284400EB080507E04DE029E10DE01AF84D
:10122000010B5A4617999047B8F10108F7D25B466F
:1012300021463846179A13E142E00A220092C4F38D
:1012400002524FF0000A022A08D059F804CB032AB0
:101250004FEAEC710AD00DE029E02AE009F107011C
:1012600021F00702F2E802C1914609E00FFA8CFC76
:101270004FEAEC71042A03D14FFA8CFC4FEAEC716F
:10128000002907DA0A460021DCF1000C61EB0201BB
:101290002D2202E0220504D52B228DF80420012204
:1012A00003E0E20701D02022F7E7904659E00A2147
:1012B00002E010220DE010214FF0000A00910BE037
:1012C00010224FF0000A44F004040827009203E0C3
:1012D00008224FF0000A0092C4F30252022A05D0FD
:1012E00059F804CB0021032A08D009E009F10701CD
:1012F00021F00702F2E802C1914605E01FFA8CFCDA
:10130000042A01D10CF0FF0C4FF00008220728D569
:10131000702806D0009B83F0100353EA0A0305D01F
:101320000EE040228DF80420012208E05CEA010270
:1013300006D030228DF804208DF805000222904658
:10134000009B83F0080353EA0A030AD15CEA010216
:1013500001D1620705D530228DF804204FF0010835
:101360007F1E582804D034A003900EA802900DE0F0
:1013700036A0F9E753466046009AFEF7F5FE84462C
:101380000398825C0298401E029002705CEA0100A1
:10139000F0D1029806A9081A00F1200A600702D5C8
:1013A00024F4803400E00127574502DDA7EB0A0052
:1013B00000E0002000EB0A01009005984144401A2B
:1013C0000590E00306D45B462146179A059800F085
:1013D000B3F90544002706E001A85A46C05D1799F5
:1013E00090476D1C7F1C4745F6DBE0030CD55B4640
:1013F0002146179A059800F09FF9054404E0302033
:101400005A46179990476D1C0099481E0090002974
:10141000F5DC08E0029802995A460078491C0291CE
:10142000179990476D1CBAF10001AAF1010AF1DC8D
:1014300065E1000009280100303132333435363798
:101440003839616263646566000000003031323310
:1014500034353637383941424344454600000000B0
:1014600000F058F90544761C307800287FF4ECAD84
:1014700019B02846BDE8F08F620700D4062709F1AD
:10148000070222F0070CFCE80223E14603F00048C3
:101490005FEA080C02D00FF2702C0DE05FEA045CEA
:1014A00002D50FF2682C07E05FEAC47C02D00FF28D
:1014B000602C01E0AFF2700C4FF0FF3823F00043D6
:1014C000CDF850C065280CD006DC452809D0462848
:1014D0001DD047283DD13DE0662818D067287ED131
:1014E00038E00021112F01DB112000E0781CCDE94C
:1014F000000106A90EA8FFF7DDFCDDE90F010E9A39
:1015000003910021009207F1010A04914DE04FF090
:1015100000400097CDE9011006A90EA8FFF7CAFC0C
:10152000DDE90F0203920E9B11990022DDF80CA059
:101530000093049211B9791C00EB010AB7EB0A0081
:1015400004D4C0F1FF3007F1010A0490AAEB0700B0
:10155000019044E0012F00DA01270021112F01DD65
:10156000112000E03846CDE9000106A90EA8FFF7DA
:10157000A1FCDDE90F010E9A039100210491009274
:10158000BA4621070CD40399514500DA8A46BAF1CC
:10159000010F05DD009AAAF10101515C302908D044
:1015A000B84202DA10F1040F06DA0121CDE9011088
:1015B00015E0AAF10101E9E7002805DC04990144DE
:1015C0000491AAEB000102E0411C514500DD8A466E
:1015D0000499401A401C01904FF0004002902007EF
:1015E00004D40198504501DBCDF8048000208DF82B
:1015F0004F0002980DF14F07B0F1004F25D02B207E
:101600000E9002984FF0020800280CDA4042029037
:101610002D200E9007E00A210298FEF793FE30314C
:10162000029007F8011DB8F10001A8F10108F2DCF1
:1016300002980028EFD1791E0E980870307800F0DB
:10164000200040F0450007F8020D12A8C01B00F171
:1016500007081498007800B1012000EB0A010198F6
:1016600001EBE07105984144401A401E0590E003EB
:1016700006D45B462146179A059800F05DF80544AC
:101680001498007818B15A46179990476D1CE003DA
:1016900024D55B462146179A059800F04DF805447D
:1016A0001CE00498002807DBDDE90301884203DD24
:1016B0000098405C179901E0179930205A469047EE
:1016C000049805F10105401C04900198401E01900A
:1016D00004D12E205A46179990476D1CBAF100018B
:1016E000AAF1010ADDDC05E017F8010B5A4617994B
:1016F00090476D1CB8F10001A8F10108F4DC5B46CD
:101700002146179A0598ABE62D0000002B0000003B
:10171000200000002DE9F041044600251E46174632
:10172000880404D405E039462020B0476D1C641EAF
:10173000F9D52846BDE8F0812DE9F04104460025A1
:101740001E469046C80301D5302700E020278804B4
:1017500004D505E041463846B0476D1C641EF9D5F6
:101760002846BDE8F0810A68531C0B601070704772
:10177000816841F00801816000BF816801F00801C3
:101780000029FAD1816841F00401816000BF8168BD
:1017900001F004010029FAD1704770B504460D46E6
:1017A0002946204600F0CEF870BD70B505460C46BF
:1017B000052322460021284600F0D6F901212846BB
:1017C00000F02CFA0221284600F082F800BF022126
:1017D000284600F081F80028F9D0284600F01AFACF
:1017E00070BD21B1826842F40062826003E08268C9
:1017F00022F400628260704710B50446134820440A
:1018000030B1B0F5806F0CD0B0F5C05F1BD111E0E6
:1018100040F2093002F0D0FE40F2093002F0BCFE86
:1018200012E040F20A3002F0C7FE40F20A3002F045
:10183000B3FE09E040F20F3002F0BEFE40F20F307E
:1018400002F0AAFE00E000BF00BF10BD00DCFEBF3A
:10185000816801F0010119B9816841F001018160DD
:10186000704772B101F001031BB1836843F4801328
:10187000836001F0020393B1836843F40043836003
:101880000DE001F001031BB1836823F48013836032
:1018900001F002031BB1836823F4004383607047A7
:1018A000012902D0022910D107E0836823F46023C4
:1018B000836083681343836008E0836823F4E04314
:1018C000836083681343836000E000BF00BF7047FC
:1018D00002688A43026070470246002013680B408A
:1018E00003B10120704770B504460D4629462046D5
:1018F000FFF75BFF0646304670BD000010B50A21B9
:101900000E48FFF7F0FF0E4908800B210B48FFF748
:10191000EAFF0B4948800C210848FFF7E4FF08491B
:1019200088800D210548FFF7DEFF0549C8800F219B
:101930000248FFF7D8FF0249088110BD002401408A
:101940001C07002070B505460C464FF4C06002F03D
:1019500013FE02F0E5FE6CB1012C0BD0022C09D075
:10196000032C07D0042C05D0052C03D0062C01D065
:10197000072C04D140F2026002F0FEFD18E0082CB2
:1019800001D0092C04D140F2036002F0F5FD0FE014
:101990000A2C09D00B2C07D00C2C05D00D2C03D011
:1019A0000E2C01D00F2C03D140F2046002F0E4FDB4
:1019B00034B9012303220021654801F0BBFC85E016
:1019C000012C06D1022303220021614801F0B2FC60
:1019D0007CE0022C06D10423032200215C4801F0A4
:1019E000A9FC73E0032C06D10823032200215848E8
:1019F00001F0A0FC6AE0042C06D110230322002190
:101A0000534801F097FC61E0052C06D12023032206
:101A100000214F4801F08EFC58E0062C06D14023EF
:101A2000032200214A4801F085FC4FE0072C06D133
:101A3000802303220021464801F07CFC46E0082C6C
:101A400006D1012303220021424801F073FC3DE04E
:101A5000092C06D10223032200213E4801F06AFC32
:101A600034E00A2C06D10123032200213A4801F078
:101A700061FC2BE00B2C06D1022303220021364807
:101A800001F058FC22E00C2C06D104230322002193
:101A9000314801F04FFC19E00D2C06D10823032238
:101AA00000212D4801F046FC10E00E2C06D1102339
:101AB00003220021284801F03DFC07E00F2C05D14E
:101AC000202303220021244801F034FC23488542CE
:101AD00004D140F2096002F04FFD0EE0204885423B
:101AE00004D140F20A6002F047FD06E01D4885423D
:101AF00003D140F20F6002F03FFD022002F05AFCD9
:101B00002846FFF779FE00220221284600F095F8CA
:101B100000224FF48071284600F08FF800212846FB
:101B2000FFF75FFE4FF4602201212846FFF7B8FE61
:101B3000012211462846FFF794FE2846FFF788FE4B
:101B4000012000F09FFD2846FFF712FE70BD000047
:101B500000080140000C0140001001400024014039
:101B600000280140003C0140F0B51D4606290CD27A
:101B7000436B01EB81071F26BE40B34301EB810697
:101B800002FA06F63343436322E00C290ED2036BBC
:101B90008E1F06EB86071F26BE40B3438E1F06EB43
:101BA000860602FA06F63343036311E010290FD2CA
:101BB000C36AA1F10C0606EB86071F26BE40B3439D
:101BC000A1F10C0606EB860602FA06F63343C36261
:101BD0000A2A0CD2046902EB42070726BE40B4432E
:101BE00002EB420605FA06F63443046111E0122ABC
:101BF0000FD2C468A2F10A0606EB46070726BE40CC
:101C0000B443A2F10A0606EB460605FA06F634438B
:101C1000C460F0BD0146C86C80B2704701F001029B
:101C20001AB1826842F48002826001F002021AB1A5
:101C3000826842F4001282607047AAB101F4807396
:101C40001BB1436843F48073436001F480631BB1AC
:101C5000436843F48063436001F00203CBB18368BF
:101C600043F00203836014E001F480731BB1436806
:101C700023F48073436001F480631BB1436823F451
:101C80008063436001F002031BB1836823F0020309
:101C90008360704710B51A48007800B110BD19482C
:101CA000007801282AD100201649087004F06AF84B
:101CB00015490860084600683C2808D208460068B4
:101CC00028B112480078401C1049087002E000203A
:101CD0000E4908700E48007880B90C480078032837
:101CE0000CDB00200B4908600B49087001200449F7
:101CF000087000F013F800200449087000BFCDE719
:101D000027000020640000207800002080000020D0
:101D1000840000200C0200202800002010B50120C3
:101D2000044908700448006804490860012000F074
:101D300095F910BDD90000200C02002060000020A1
:101D40000020014908707047D900002010B50948EB
:101D5000007868B10848006808490968401A642892
:101D600006D3012000F07AF90348006803490860AF
:101D700010BD0000D90000200C02002060000020EF
:101D800001200549087000200449087004480068D3
:101D90000449086070470000DA000020DB000020E2
:101DA0000C020020DC00002010B51948007800B9B2
:101DB00010BD1848006818490968401A42F21071AD
:101DC000884205D900201249087014490870EFE7CD
:101DD0001048006810490968401A40F6C41188424A
:101DE00013D90E48007830B10A4800680C490968D8
:101DF000401A642809D3022000F030F90548006831
:101E00000749086001200549087000BFD0E70000BD
:101E1000DA0000200C0200207C000020DB00002003
:101E2000DC00002010B50446012C09D10202042177
:101E30000A4801F0E5FA01221102084801F00EFA01
:101E4000022C09D122020421044801F0D9FA01220E
:101E50005102024801F002FA10BD0000000C0140DE
:101E6000164880884FF48052B2EB400F02DC501EBF
:101E7000124A908011480088104A528810440F4A34
:101E80009288022303FB02000C4A128910440B4A79
:101E9000D288811809B90020704708480088074A8D
:101EA00052881044054A1289801A044AD288801A3E
:101EB0006422504390FBF1F0EEE700001C07002085
:101EC00030B50246002013460F24002103E053F8EA
:101ED00021502844491CA142F9D330BD10B502F06D
:101EE0001FFC234802F084FF0A212248FFF755FC1B
:101EF0000B212048FFF751FC0C211E48FFF74DFC39
:101F00000D211C48FFF749FC0F211A48FFF745FC3B
:101F100002F04AFF012001F065FC022001F062FCA2
:101F2000032001F05FFC042001F05CFC052001F0BF
:101F300059FC062001F056FC02F05AFB002001F08B
:101F400051FE012001F04EFE04F03CF803F068FF62
:101F5000FEF760FC01F05EFF01F04EFF01F0FCFBBC
:101F60000120FFF75FFF0220FFF75CFF10BD0000BC
:101F700000380140002401400146082915D2DFE85D
:101F800001F00406080A0C120E10094870470948AF
:101F9000FCE70948FAE70948F8E70948F6E709487D
:101FA000F4E70948F2E70948F0E70948EEE70000DE
:101FB0000C01002012010020150100200601002064
:101FC00003010020090100200F0100200001002072
:101FD0001801002070B504460F48007838B90F4842
:101FE000007820B10E480078A04200D170BD0020DA
:101FF000094908702046FFF7BFFF05462046FFF756
:10200000BBFF0646294600F00DF805480470012084
:102010000249087000BFE9E71B01002028010020E9
:102020002901002070B505460C46284603F0E6FF5E
:10203000204603F0E3FF70BD1CB54FF4E1300549C5
:102040000823054ACDE900100421104602F0E0FE05
:102050001CBD0000004400400008014010B50446CB
:102060002146024802F0AEFF10BD000000440040CF
:1020700010B50B48007888B90A48007802280DD1BD
:102080000948807850B90020084908700120FFF7FE
:10209000A1FF0120064908700349887010BD0000A7
:1020A000270000202A0000209400002028000020A3
:1020B0002500002008480078012809D10748007849
:1020C00030B90748006818B901200549086002E0E6
:1020D0000020034908607047B50000202700002059
:1020E000A400002010B51748007848BB16480078B7
:1020F000032825D11548C07810BB0020144908607A
:10210000144908700120144908701049C870134917
:1021100008600F480068124908600021084601F075
:102120003BFD0021012001F037FD00200D494883CF
:102130000D4908600D4802F02FFD0020FFF74AFF0F
:1021400010BD0000270000202A000020940000207D
:102150000C0200202800002026000020A8000020FB
:102160007C000020C806002020000020000800405D
:1021700010B51448006820BB1348808840F6B83179
:1021800088420CDD1148007848B90420FFF722FF8F
:102190000F4800680F49086001200C4908700B487F
:1021A000007870B10A4800680A490968401AC828CE
:1021B00007D9012003490860002005490860034948
:1021C000087010BDAC0000201C070020F8000020A3
:1021D0000C020020F400002010B5F448007800281C
:1021E00079D1F3480078012803D0F248007801281B
:1021F0001DD1F148007828B1B3EE0E0AEF4880ED0A
:10220000000A04E09FEDEE0AEC4880ED000A05208C
:10221000FFF7E0FEFFF772FBFFF722FEE9490860D7
:10222000E64A0021E748006801F096FFF2E0E64840
:102230000078012825D10420FFF7CCFEE348008870
:10224000E34908800020488040F2DC50888000206C
:10225000C8800881DF480068DF490988884205D9BD
:102260000220D94908700020DA490860FFF7F8FD1C
:10227000D4490860D14A0021D248006801F06CFFBF
:10228000C8E0D1480078022826D10120FFF7A2FE3D
:102290000020CF490880488040F2DC508880002030
:1022A000C880CE4800880881CA480068CC4909889F
:1022B000884205D30320C44908700020C54908603E
:1022C000FFF7CEFDBF490860BC4A0021BD48006849
:1022D00001F042FF9EE06CE0BB480078032808D183
:1022E0000020FFF777FE0020B4494883BD4908600D
:1022F00090E0B5480078042829D10320FFF76AFE52
:10230000B9480068B74908600020B1490880488092
:1023100040F2DC5088800020C880B44800880881E2
:10232000AC480068B2490988884205D90520A64909
:1023300008700020A7490860FFF792FDA1490860D6
:102340009E4A00219F48006801F006FF62E09E4817
:10235000007805285ED10020FFF73CFEA5480088E4
:102360009B4908800020488040F2DC508880002093
:10237000C8800881974800689F49098888420DD91C
:102380000020914908700120894908700020914976
:1023900008609A490860012099490870FFF760FDBC
:1023A00088490860854A00218648006801F0D4FE0B
:1023B00030E07E48007802280FD19248007860B95A
:1023C000FFF79CFAFFF74CFD7E4908607B4A00212D
:1023D0007C48006801F0C0FE1CE0744800780128C9
:1023E00018D188480078A8B90320FFF7F3FD002032
:1023F0007749088048808880C88040F6C4100881EA
:10240000FFF72EFD6F4908606C4A00216D48006897
:1024100001F0A2FE7C48007804282BD17248008885
:1024200081B2012001F0B8FB6F48008881B2002022
:1024300001F0B2FB0320FFF7CDFD66480068642879
:1024400017D9694800686749086000205B49C8607F
:102450000861488301205649087002206A490870C3
:102460005C48006869490860FFF78AFC012052490E
:1024700008709AE04D480078032863D161480078DD
:1024800000285FD1FFF73AFA5148808840F6E3010F
:10249000884202DD01205E4908705D480078C8B1BD
:1024A0000320FFF797FD002049490880488040F24B
:1024B000DC5088800020C88040F24C400881FFF743
:1024C000CFFC404908603D4A00213E48006801F0C9
:1024D00043FE0EE0FFF7C4FC3A490860B3EE040A7D
:1024E000364880ED000A02465F213648006801F058
:1024F00033FE3248408B3B490968081A00B245490F
:1025000008802E48408B37490968084400B2424988
:1025100008804048B0F90000002802DA00203D4958
:1025200008803D48B0F90000002802DA00203A494E
:1025300008803948B0F900103648B0F9000001F0C1
:102540009DFB32E035480078012806D11A48007812
:1025500018B933480068234908601848408B21495E
:102560000968081A00B22B4908801448408B1D499D
:102570000968084400B2284908802648B0F90000DC
:10258000002802DA0020234908802348B0F900001F
:10259000002802DA0020204908801F48B0F9001006
:1025A0001C48B0F9000001F069FB10BD24000020B8
:1025B000280000202500002085000020C8060020FB
:1025C00000000C421C00002027000020C400002056
:1025D0001C0700200C020020BA000020C6000020CA
:1025E000BC00002020000020D4000020C8000020F3
:1025F000C0000020CA000020C2000020A40000206B
:1026000084000020D8000020260000207C0000204C
:10261000B700002074000020760000208600002013
:10262000D000002012480078F0B101281DD11148D7
:10263000006810B901200F4908600E4800680128A1
:1026400011D10D480068B0F5965F0CD900200A49F9
:1026500008600749087007490860012007490870A9
:1026600000200749086000E000BF00BF704700007D
:1026700025000020900000200C02002028000020EF
:10268000A000002000B97047044A116800BF034A47
:102690001268521A8242FAD300BFF4E70C020020FB
:1026A00030B5014601B930BD4FF0E0239A69104BB7
:1026B0001B6801FB03F40F4B1B684B430E4DB3FB30
:1026C000F5F31C4420460FE04FF0E025AB69934240
:1026D00002D8D51A401B05E04FF0E0256D69ED1AD0
:1026E0001544401B1A4600BF0028EDDC00BFDAE7A6
:1026F000180200201C02002040420F002DE9F04784
:1027000007460C4691464FF4C06001F035FF0022A9
:102710001146062001F0ECFA00221146072001F0D4
:10272000E7FA00221146082001F0E2FA00221146E1
:10273000092001F0DDFA002211460A2001F0D8FA42
:1027400000221146172001F0D3FA0022114628205A
:1027500001F0CEFA6748874206D14FF0000840F2F8
:10276000026001F009FF3AE06348874206D14FF06A
:10277000010840F2036001F0FFFE30E05F4887424D
:1027800006D14FF0020840F2046001F0F5FE26E0A9
:102790005B48874206D14FF0030840F2056001F024
:1027A000EBFE1CE05748874206D14FF0040840F288
:1027B000066001F0E1FE12E05348874206D14FF077
:1027C000050840F2076001F0D7FE08E04F48874255
:1027D00005D14FF006084FF4C16001F0CDFE012C89
:1027E00002D10025012658E0022C02D10125022643
:1027F00053E0042C02D1022504264EE0082C02D11D
:102800000325082649E0102C02D10425102644E0B7
:10281000202C02D1052520263FE0402C02D10625A0
:1028200040263AE0802C02D10725802635E0B4F519
:10283000807F02D108256E012FE0B4F5007F03D11F
:1028400009254FF4007628E0B4F5806F03D10A25FE
:102850004FF4806621E0B4F5006F03D10B254FF4EF
:1028600000661AE0B4F5805F03D10C254FF4805662
:1028700013E0B4F5005F03D10D254FF400560CE0D2
:10288000B4F5804F03D10E254FF4804605E0B4F532
:10289000004F02D10F254FF400462946404600F074
:1028A000F1FC234603220421384600F043FDB9F130
:1028B000000F05D102220021304600F029F810E077
:1028C000B9F1010F05D100221146304600F020F881
:1028D00007E0B9F1020F04D101220021304600F0D7
:1028E00017F8304600F080F8304600F075F8BDE883
:1028F000F087000000080140000C0140001001407A
:102900000014014000180140001C0140002001405B
:1029100010B52C4B1B6883432A4C2360231D1B6876
:102920008343241D2360231D1B688343241D2360D0
:10293000231D1B688343241D236011B101290ED17F
:1029400005E0204B1B6803431E4C236008E01D4B31
:102950001B1D1B6803431B4C241D236000E000BFAC
:1029600000BF22B1012A0FD0022A27D119E0154B4E
:1029700008331B680343134C08342360231D1B6872
:102980008343241D23601AE00E4B08331B688343E6
:102990000C4C08342360231D1B680343241D236053
:1029A0000DE0084B08331B680343064C08342360D2
:1029B000231D1B680343241D236000E000BF00BFEC
:1029C00010BD000000040140024909688143014A2A
:1029D0001160704700040140024909680143014A3F
:1029E0001160704700040140014908607047000011
:1029F0001404014001460748006800EA0102054846
:102A00001438006800EA010312B10BB101207047CD
:102A10000020FCE7140401402DE9F04706468846F3
:102A200091461F464FF0006000EBC62000EB080502
:102A3000042000FB075A00BF4FF4407000F0B4FAC6
:102A40000028F9D1AAEB0500B0F5006F02D30020F1
:102A5000BDE8F087002404E0286849F824002D1D13
:102A6000641CBC42F8D30120F2E72DE9F04706468A
:102A7000884691461F4600F031FB40F2073000F0D7
:102A800083FA4FF0006000EBC62000EB080504203D
:102A900000FB075AAAEB0500B0F5006F02D3002037
:102AA000BDE8F08700BF284600F0A6FA0028FAD15A
:102AB000002409E059F82410284600F031FB0120D9
:102AC000FFF7E0FD2D1D641CBC42F3D300F07EFA3D
:102AD0000120E5E710B540213948FDF77DFB394974
:102AE000098889020122C2EBD1201023344A002137
:102AF000FFF792FF32480068334988425AD1304884
:102B0000FFF7DEF92E49C96B884253D12C4800F0FB
:102B1000E5F800284ED02A4890ED010A2B4880EDB8
:102B2000000A274890ED020A284880ED020A24484E
:102B3000008A012802D82248007C00E000202449B5
:102B400008701F48C068234908601D48408A224910
:102B500008801B48808A214908801948C08A20497A
:102B600008801748008B1F4908801548408B1E4974
:102B700008801348808B1D4908801148C08B1C4970
:102B800008800F48008C1B4908800D48408C1A496A
:102B900008800B48808C194908800948806A1849C8
:102BA00008600748C06A1749086008460068164967
:102BB000086003E000F02AF800F0F8F810BD00000B
:102BC00028070020E0F7FF1F02325642C806002007
:102BD000E6010020C4010020BA000020BC00002053
:102BE000BE000020C0000020C2000020C400002061
:102BF000C6000020C8000020CA000020CC00002031
:102C0000D0000020D4000020200000209FED210AE9
:102C1000214880ED000A9FED210A80ED020A002084
:102C20001F4908703C201F4908604FF4A5701E49D9
:102C300008804FF4AF701D49088040F628201C49D9
:102C400008804FF4F0701B4908804FF496701A49C1
:102C5000088040F6AC50194908804FF4FA601849D2
:102C6000088040F6B830174908804010164908809F
:102C70004FF47A701549088041F27C50144908607D
:102C800041F27070134908600846006812490860F4
:102C90007047000000000C42C80600200000000041
:102CA000E6010020C4010020BA000020BC00002082
:102CB000BE000020C0000020C2000020C400002090
:102CC000C6000020C8000020CA000020CC00002060
:102CD000D0000020D400002020000020014691ED0B
:102CE000010AB5EEC00AF1EE10FA18DB91ED010A07
:102CF000DFED2D0AB4EEE00AF1EE10FA0FD891EDF7
:102D0000020AB5EEC00AF1EE10FA08DB91ED020AF4
:102D1000DFED250AB4EEE00AF1EE10FA01D9002049
:102D20007047088A012801D90020F9E7C8680128FE
:102D300003DBC868B0F5967F01DD0020F0E7488A24
:102D400042F2107290420ED8888A90420BD8C88AFC
:102D5000904208D8088B904205D8488B904202D800
:102D6000888C904201D90020DAE7888BB0F5805F2B
:102D70000BD2C88BB0F5805F07D2088CB0F5805FAE
:102D800003D2488CB0F5805F01D30020C8E742F23F
:102D90001072886A904202D8C86A904201D9002015
:102DA000BEE70120BCE700000000964300B591B0EB
:102DB00040213948FDF710FA38483749086038484B
:102DC00090ED000A084680ED010A354890ED020AB0
:102DD000084680ED020A33480068C860324800782F
:102DE0000882324800884882314800888882314809
:102DF0000088C882304800880883304800884883AB
:102E00002F48008888832F480088C8832E48008870
:102E100008842E48008848842D48008888842D48DE
:102E2000006888622C480068C8620020086300219E
:102E3000194841638163FFF751FF10B9002011B0B9
:102E400000BD1548FFF73CF81349C86323490988BA
:102E500089020122C2EBD12010230F4A0021FFF783
:102E600004FE08B90020EAE71C490988890201220A
:102E7000C2EBD120102301AA0021FFF7CDFD08B934
:102E80000020DCE7402201A90348FDF7B0F908B1B2
:102E90000020D4E70120D2E7280700200232564262
:102EA000C8060020C4010020E6010020BA0000206E
:102EB000BC000020BE000020C0000020C200002096
:102EC000C4000020C6000020C8000020CA00002066
:102ED000CC000020D0000020D4000020E0F7FF1F2D
:102EE00000B50346012200BF00F00CF802465B1E4D
:102EF000012A01D1002BF7D1012A00D1042210466A
:102F000000BD000000200A49C96801F0010109B1B3
:102F100001200CE00649C96801F0100109B1032045
:102F200005E00349C96801F0040101B102207047BE
:102F30000020024000B50346012200BF00F00CF85B
:102F400002465B1E012A01D1002BF7D1012A00D1D4
:102F50000422104600BD000000200A49C96C01F09F
:102F6000010109B101200CE00649C96C01F0100112
:102F700009B1032005E00349C96C01F0040101B166
:102F80000220704700200240064A02EB90110968B7
:102F900000F01F0301229A401143024B03EB9012F1
:102FA00011607047002002400146074A02EB911071
:102FB000006801F01F0301229A40104008B101206F
:102FC00070470020FCE7000000200240084800692C
:102FD00040F080000649086106480088B0F5007F8F
:102FE00004D90846006D40F0800008657047000075
:102FF00000200240E0F7FF1F30B505463348008847
:10300000B0F5007F44D9324885421CD23148FFF7E1
:1030100067FF0446002C56D12F48006940F002009B
:103020002D49086108464561006940F0400008618B
:103030002848FFF755FF04462748006920F00200A2
:10304000254908613FE02348FFF774FF0446002C40
:1030500039D12148006D40F002001F49086508463B
:103060004565C06900F0020008B1084645611A488C
:10307000006D40F04000184908651648FFF75AFFF8
:1030800004461548006D20F00200134908651AE057
:103090001048FFF725FF0446ACB90F48006940F01F
:1030A00002000D49086108464561006940F0400092
:1030B00008610848FFF714FF04460748006920F03C
:1030C000020005490861204630BD0000E0F7FF1FFF
:1030D000FFFF07080000FF0F002002400C480069B6
:1030E00000F0800020B10B48094948600A48486058
:1030F0000A480088B0F5007F09D90548006D00F046
:10310000800020B10348024948640348486470477E
:103110000020024023016745AB89EFCDE0F7FF1F98
:1031200070B504460D46002627480088B0F5007F9C
:1031300031D92648844217D22548FFF7D1FE0646EA
:10314000002E3ED12348006940F00100214908616A
:1031500025601F48FFF7C4FE06461E48006920F0A0
:1031600001001C4908612CE01948FFF7E3FE064600
:103170003EBB1848006D40F0010016490865256007
:103180001348FFF7D7FE06461248006D20F00100F5
:103190001049086515E00E48FFF7A2FE064686B9FD
:1031A0000C48006940F001000A49086125600848A0
:1031B000FFF796FE06460748006920F00100054922
:1031C0000861304670BD0000E0F7FF1FFFFF0708F1
:1031D0000000FF0F0020024070B504460D46E1B22A
:1031E000054802F07FFE00BF0721034802F0CBFE36
:1031F0000028F9D0204670BD003801402DE9F05F6D
:1032000000BF134806684FF0E020D0F8189010482F
:1032100000688642F5D14FF0E0204069A0EB090A32
:103220000C48AAFB00B001460B4800230268584630
:10323000FCF79AFF04460D464FF47A70A6FB003265
:103240001F1942EB050838464146BDE8F09F0000D3
:103250000C02002040420F001402002070B5054609
:103260000E46144624B13146284600F008F803E023
:103270003146284600F001F870BD41617047016198
:103280007047000010B500228B071C0F0F2303FAB4
:1032900004F204290EDA204B9B6893431E4CA36072
:1032A00023469B688C07240F00FA04F423431A4C2E
:1032B000A3602FE008290EDA174BDB689343164C06
:1032C000E3602346DB688C07240F00FA04F42343F1
:1032D000114CE3601EE00C290EDA0F4B1B6993437F
:1032E0000D4C236123461B698C07240F00FA04F45C
:1032F0002343094C23610DE0074B5B699343064C64
:10330000636123465B698C07240F00FA04F42343AE
:10331000014C636110BD00000000014070B504461F
:103320000D462946204600F063F808B1012070BD23
:103330000020FCE7F0B5044616460025002201F007
:103340000F0501F0100747B1042E05D145F0030524
:10335000E76B1F43E76300E0354300201EE00127D1
:1033600087401F40C7B122684FEA800C0F2707FA39
:103370000CF7BA43870005FA07F73A43282904D126
:10338000012787401F40676105E0482903D10127D5
:1033900087401F4027612260471CB8B20828DED34F
:1033A000082022E0012787401F40E7B16268A0F1B2
:1033B00008074FEA870C0F2707FA0CF7BA43A0F16A
:1033C0000807BF0005FA07F73A43282904D1012767
:1033D00087401F40676105E0482903D101278740E6
:1033E0001F4027616260471CB8B21028DAD3F0BDD5
:1033F00002469068084008B1012070470020FCE7B1
:1034000070B505460C4616463E48854204D140F24A
:10341000026001F0B1F82EE03B48854204D140F251
:10342000036001F0A9F826E03848854204D140F253
:10343000046001F0A1F81EE03548854204D140F255
:10344000056001F099F816E03248854204D140F257
:10345000066001F091F80EE02F48854204D140F259
:10346000076001F089F806E02C48854203D14FF44B
:10347000C16001F081F834B93346032200212846A7
:10348000FFF758FF3DE0012C06D13346032204210B
:103490002846FFF74FFF34E0022C06D133460322C3
:1034A00028212846FFF746FF2BE0032C06D13346A0
:1034B000032248212846FFF73DFF22E0042C06D1D5
:1034C0003346032210212846FFF734FF19E0052C6C
:1034D00006D13346032214212846FFF72BFF10E0C4
:1034E000062C06D13346032218212846FFF722FF77
:1034F00007E0072C05D1334603221C212846FFF79D
:1035000019FF70BD00080140000C0140001001408F
:103510000014014000180140001C0140002001403F
:103520000F48007800B170470E48007830B900208D
:103530000D49086001200B4908700EE00948007829
:1035400001280AD108480068B0F58C7F05D902200F
:103550000449087000200449086000BFE3E7000048
:10356000D8000020240000200C0200200A46002180
:10357000016821F480611143016070472DE9F05F1B
:1035800004460E4692460EB900BFFEE7022000F048
:1035900047FF07464648B7FBF0F8B8F13C0F01D3A8
:1035A0004FF03C08D4F804B02BF07F0B4BEA080B2B
:1035B000C4F804B03F4886421ED83D48B7FBF0F03F
:1035C00000F10109B9F13C0F02D33C20206207E071
:1035D000B9F1020F02D80220206201E0C4F8209065
:1035E0007000B7FBF0F5042D00D20425E069C5F3A7
:1035F0000B010843E06158E02F4886422CD84FF475
:10360000967008FB00F04FF47A71B0FBF1F0401CAB
:103610002062BAF1000F08D106EB4600B7FBF0F5C7
:10362000E06920F48040E06109E006EBC60000EBB1
:103630000610B7FBF0F5E06940F48040E061C5F3A7
:103640000B0008B945F00105E06940F40040E06175
:10365000E0692843E06128E0C8EB0810C0004FF49F
:103660007A71B0FBF1F0401C2062BAF1000F08D172
:1036700006EB4600B7FBF0F5E06920F48040E0611E
:1036800009E006EBC60000EB0610B7FBF0F5E069B9
:1036900040F48040E061E06940F40040E061E069AE
:1036A0002843E0610120C4F89000BDE8F09F0000CD
:1036B00040420F00A0860100801A0600CAB20261D3
:1036C0007047016841F001010160704710B540F298
:1036D0000152914202D1426982690AE000EB9112E3
:1036E000126801F01F040123A3409A4300EB9113D9
:1036F0001A6010BD10B5024602EB9110006801F08F
:103700001F040123A340184008B1012010BD002070
:10371000FCE712F1020F02D121F0010101E041F0BA
:1037200001010161704730B50C460021016821F0AC
:10373000020121430160C3F3090342EA03058560E6
:1037400030BD016841F4807101607047016841F447
:10375000007101607047000010B56421064801F057
:1037600097FA022220210548FEF7C8FF20220321F4
:103770000248FFF745FE10BD000C00400008014064
:1037800070B5002628E0164800EB0614D4E90101C4
:1037900000F058F80546607BA84203D0657300200E
:1037A000A07318E0A07B022803DAA07B401CA07362
:1037B00011E0207BA84205D02573012D02D1002005
:1037C000E07308E0207B28B9E07B18B90120E073A2
:1037D000607870BD00BF761C062ED4D3FF20F8E7BA
:1037E0004801002070B50546002424E0144800EB91
:1037F00004100078A8421DD1114901EB04118A6818
:103800000F4901EB041148680321FFF7F9FD01207E
:103810000B4901EB04110873094901EB04114873CA
:103820000020074901EB04118873054901EB0411DD
:10383000C87302E0641C062CD8D300BF70BD000022
:103840004801002070B504460D4629462046FFF782
:1038500065FD08B1012070BD0020FCE710B5FEF742
:103860003DFBFEF7E9FBFFF735F901F0EFFB012027
:10387000984908700A21984801F00AFA00220F219D
:103880001E2000F035FA21E19448007820B1002094
:1038900092490870FEF7A0FC01F048FCFEF756FACA
:1038A000FEF782FA8E480078D8B18E4800688E49BB
:1038B0000968401A032814D300208949087000F0D1
:1038C0008BFE40B101208949087089480078401C6E
:1038D0008749087005E02020FFF786F82020FFF7D1
:1038E0007BF88248007858B100F076FE40B900209D
:1038F0007E4908702020FFF777F82020FFF76CF84A
:10390000FEF7D8FBFEF7B4FBFEF7ECFBFEF730FC4E
:1039100078480068012828D17748007828BBFFF74D
:10392000FFFD7648007802281FD17548006830B93D
:103930000620FEF74FFB6B48006871490860694834
:1039400000686F490968401A6E49098888420CD995
:1039500003206A4908700520FEF73CFB61480068B7
:1039600069490860002066490860684800780128B5
:1039700025D16748006818B95A480068644908604A
:103980005848006862490968401AB0F5C87F16D9DE
:1039900000205E49087057490860012056490870A8
:1039A0004C49087000205B49C8600861488353494E
:1039B0000870012058490870002055490860574890
:1039C000006808B1FEF766F95548007803281AD157
:1039D0005448006818B94348006852490860414893
:1039E000006850490968401A4F49098888420AD935
:1039F00000203C490860042049490870FEF7A0F9FE
:103A00000020484908604648007848B9474800788F
:103A100030B147480068012802D1FEF703FE3FE0BD
:103A20003F48007820BB2F48006842490968401A87
:103A3000B0F52F7F1CD940480078012818D1042008
:103A40003D49087000203349C8600861488305205B
:103A5000FEF7C0FA002039490860224908600022B8
:103A60000F211E2000F044F91B4801F09AF817E0DE
:103A70002B480078A0B930480078022810D11948A6
:103A800000682C490968401A42F21071884207D92F
:103A900000202B4908702B49087001202A49087022
:103AA00013480078042811D1FA20FEF7EBFD00201E
:103AB000084908700021012000F06EF80021084636
:103AC00000F044F8044801F0DCF800E0DCE600BF58
:103AD000002010BD2800002000080040E000002069
:103AE0004C0000200C020020500000205400002058
:103AF0002A000020AC000020D80000202400002074
:103B0000E8000020CC000020E4000020B7000020E6
:103B1000EC000020C806002086000020A400002041
:103B200027000020F0000020BE000020250000201B
:103B3000A00000207C000020260000203000002093
:103B4000DA000020DB000020B500002070B504463C
:103B50000D4642F21070854200DD00E02846054621
:103B600054B92A4600210B4800F02EFB0022012107
:103B7000084800F029FB0BE0012C09D12A4603215B
:103B8000044800F021FB00220221024800F01CFB47
:103B900070BD00000034014070B504460D4642F28D
:103BA0001070854200DD00E02846054654B9002229
:103BB00011460B4800F008FB2A460121084800F096
:103BC00003FB0BE0012C09D100220321044800F083
:103BD000FBFA2A460221024800F0F6FA70BD000006
:103BE0000034014038B5044604BB80220621204839
:103BF000FFF706FC402206211D48FFF701FC4FF0AD
:103C0000804000F05BFF00204FF47A730C2201210A
:103C10000090184800F02AFB00204FF47A730C2221
:103C200001460090134800F021FB20E0012C1ED13A
:103C3000620206210E48FFF7E3FB220206210C4830
:103C4000FFF7DEFB0C4800F039FF00204FF47A73D9
:103C50000C2203210090074800F008FB00204FF4DD
:103C60007A730C2202210090024800F0FFFA38BD5E
:103C700000100140003401400004004070B50546CA
:103C80000E4642F21074002D07DDA54200DD25B27C
:103C9000A9B20020FFF780FF0FE0002D09DA604293
:103CA000854201DA604205B2A9B20020FFF74EFF5B
:103CB00003E000210846FFF76FFF002E07DDA64254
:103CC00000DD26B2B1B20120FFF766FF0FE0002E43
:103CD00009DA6042864201DA604206B2B1B20120DE
:103CE000FFF734FF03E000210120FFF755FF70BD0F
:103CF0002DE9F04103460D46164600240027A04654
:103D00002A48006800F4E060B0F5E06F03D100BF1E
:103D10004FF0040830E02548006800F4E060B0F59A
:103D2000C06F03D101274FF0030825E01F4800684A
:103D300000F4E060B0F5A06F02D10227B8461BE0A6
:103D40001A48006800F4E060B0F5806F03D10327E3
:103D50004FF0010810E01548006800F4E060B0F58D
:103D6000407F03D104274FF0000805E04FF4A06026
:103D700000F020F80227B846C7F1040005FA00F465
:103D8000C8F104010F20C840304004432401084812
:103D9000C45403F01F01012088405911890001F12A
:103DA000E021C1F80001BDE8F08100000CED00E069
:103DB00000E400E002490143024A1160704700003C
:103DC0000000FA050CED00E070B500240CE00025C1
:103DD00006E00020074901EBC5010855681CC5B283
:103DE000802DF6DB601CC4B2082CF0DB00F0A2F8DA
:103DF00070BD0000C802002010B500218D2000F029
:103E000091F90021142000F08DF90021AF2000F07D
:103E100089F910BD10B540F2036000F0ADFB40F22F
:103E2000167000F0A9FB4FF4406303221C213E48AA
:103E3000FFF780FA00223D493D48FFF79FFB7823BA
:103E4000002211463A48FFF76EFC3948FFF739FC6B
:103E50004FF480613648FFF789FB4FF44870FEF756
:103E600011FC0021AE2000F05DF90021084600F0B1
:103E700059F90021102000F055F90021402000F0F0
:103E800051F90021B02000F04DF90021812000F00F
:103E900049F90021FF2000F045F90021A12000F0A0
:103EA00041F90021A62000F03DF90021A82000F0F2
:103EB00039F900213F2000F035F90021C82000F039
:103EC00031F90021D32000F02DF90021084600F03F
:103ED00029F90021D52000F025F90021802000F0EB
:103EE00021F90021D82000F01DF90021052000F063
:103EF00019F90021D92000F015F90021F12000F076
:103F000011F90021DA2000F00DF90021122000F053
:103F100009F90021DB2000F005F90021302000F034
:103F200001F9FFF751FF10BD000C0140A086010010
:103F30000058004070B500241CE004F1B001C8B284
:103F4000002100F0EFF80021084600F0EBF8002116
:103F5000102000F0E7F8002508E0084901EBC50152
:103F6000085D012100F0DEF8681CC5B2802DF4DB8D
:103F7000601CC4B2082CE0DB70BD0000C802002049
:103F800070B504460D4605F1B001C8B2002100F03D
:103F9000C9F8102141EA1410002100F0C3F804F020
:103FA0000F00002100F0BEF870BD00002DE9F047C1
:103FB00007460E469046994600250024A8F12000A9
:103FC000C5B27F2F02DD0027B01CC6B2B9F1100FB9
:103FD00024D131463846FFF7D3FF002408E004EB34
:103FE0000511194A505C012100F09CF8601CC4B214
:103FF000082CF4DB701CC1B23846FFF7C1FF002467
:1040000009E004EB051108310F4A505C012100F072
:1040100089F8601CC4B2082CF3DB12E03146384644
:10402000FFF7AEFF00240AE005EB4501074A02EB6B
:104030004101085D012100F075F8601CC4B2062C36
:10404000F2DBBDE8F0870000A0620008786000089D
:104050002DE9F04104460F461546984600260FE02C
:10406000AA5D434639462046FFF7A0FF04F1080049
:10407000C4B2782C02DD0024B81CC7B2701CC6B2D2
:10408000A85D0028ECD1BDE8F08100002DE9F041E9
:1040900005460E46174600BF40F201612048FFF773
:1040A00029FB0028F8D11E48FFF74BFB00BF4FF457
:1040B000A0611B48FFF71EFB0028F8D06FF001023B
:1040C00029461748FFF725FB00BF40F2015114486D
:1040D000FFF710FB0028F8D040F201511048FFF71D
:1040E000F5FA00240DE0315D0D48FFF7E7FA00BF57
:1040F00040F207510A48FFF7FDFA0028F8D0601C8B
:10410000C4B2BC42EFD30648FFF720FB00BF04480F
:10411000006800F400700028F9D1BDE8F0810000CB
:104120000058004038B504460D4655B140208DF882
:1041300000008DF80140022269467820FFF7A6FFB3
:1041400009E000208DF800008DF801400222694648
:104150007820FFF79BFF38BD30B50B1AD360D2ED46
:10416000000AD36800EE103AB8EEC00A20EE800ACA
:10417000BDEEC00A10EE103AD4681569641B00EE5B
:10418000104AB8EEC00AD2ED020A20EE200ABDEEB7
:10419000C00A10EE104A23441BB25383D368136144
:1041A000B2F91A3042F21074A34201DD2346538360
:1041B000B2F91A30034CA34202DA4DF6F0035383EE
:1041C00030BD0000F0D8FFFF2DE9F04104460E4657
:1041D00017461748844202D1164805881CE0B4F1FE
:1041E000804F02D11348458816E01348844202D11B
:1041F0001048858810E01148844202D10D48C588D6
:104200000AE00F48844202D10A48058904E00D48BB
:10421000844201D1074845893946284600F014F800
:104220008046B1B24246204600F007FCBDE8F0816E
:10423000002C0140680700200004004000080040F6
:10424000000C00400034014002460AB900207047CB
:1042500042F21070814201DB901EF8E701FB02F090
:1042600042F21073B0FBF3F0F1E700002DE9F043E8
:1042700087B005460F4616461C46DDF838804FF4D9
:10428000C06000F079F94548854209D1012100F06C
:104290007FFD40F20B6000F06FF94148048033E08D
:1042A000B5F1804F06D14FF4E06000F065F93C486D
:1042B000448029E03B48854206D140F2017000F07D
:1042C0005BF9374884801FE03748854206D140F2C9
:1042D000027000F051F93248C48015E0334885423D
:1042E00006D140F2037000F047F92D4804810BE03D
:1042F0002F48854208D1012100F04AFD40F20D60AF
:1043000000F03AF926484481701E80B2ADF80C00E6
:104310000020ADF80E001020ADF81000601E0590D2
:104320000020ADF812008DF8180003A9284600F00F
:1043300049FC0020ADF804000120ADF80000002089
:10434000ADF80600ADF80200ADF80800ADF80A00BF
:104350006A463946284600F04DFA41462046FFF7A6
:1043600073FF81464A463946284600F066FB6022C4
:104370003946284600F034FB00223946284600F032
:104380006FFB0121284600F003FD284600F02CFABF
:10439000284600F006FC07B0BDE8F083002C014081
:1043A000680700200004004000080040000C0040A6
:1043B00000340140184B5968184B1940164BDA6A03
:1043C00022F000520C2820D2DFE800F0060708098E
:1043D0001F0C1F0D1516171800BF00BF00BF41EAC4
:1043E000803113E000BF20F004004FF0805343EA17
:1043F000803319430AE000BF00BF00BF20F00C006B
:1044000041EA803142F0005200E000BF00BF024BA1
:104410005960DA627047000000100240FF3FFFEF72
:104420002DE9F04F8CB0074600200A904AA090E892
:10443000004CC068CDE905BECDF810A007900FF282
:104440001C1ADAE9000ACDE9020A0FF2101ADAE9B9
:10445000000ACDE9000A44484068C0F381000B908F
:104460000B9820B1012804D002283FD103E03F4A35
:104470003EE03E4A3CE03C48406800F4803CBCF5ED
:10448000803F12D13848C06A00F08048B8F1000F70
:1044900001D1364B00E0364B3348406800F4003918
:1044A000B9F5003F02D15B0800E0324B2E4840686E
:1044B000C0F383412C48406800F0006008B141F02F
:1044C00010012948406800F0804008B141F0200107
:1044D0000F2901D2891C06E00F2903D33E2901D8F8
:1044E000491C00E03F2103FB01F201E01F4A00BF2D
:1044F00000BF1D484068C0F3031504A8465D22FABA
:1045000006F419484068C0F3022502A8465D24FA63
:1045100006F0099014484068C0F3C2251DF80560F4
:1045200024FA06F0089037B1012F06D0022F06D0EA
:10453000032F0AD106E00A9208E00A9406E00998DF
:104540000A9003E008980A9000E000BF00BF0A98B4
:104550000CB0BDE8F08F000000000000000000007B
:1045600001020304060708090010024000127A0045
:10457000006CDC0200093D00064A02EB901109685C
:1045800000F01F0301229A401143024B03EB9012EB
:104590001160704700100240064A02EB9011096852
:1045A00000F01F0301229A409143024B03EB90124B
:1045B0001160704700100240064A02EB9011096832
:1045C00000F01F0301229A401143024B03EB9012AB
:1045D000116070470010024010B520210348FEF71B
:1045E0009DFE08B9012010BD0020FCE70008014035
:1045F00010B5202203210248FEF702FF10BD000083
:1046000000080140002000213F4A126842F4803235
:104610003D4B1A6000BF401C3B4A126802F4003157
:1046200019B94FF6FF729042F5D1374A126802F479
:1046300000320AB900BFFEE7334AD26942F0805225
:10464000314BDA61314A126842F440422F4B1A6012
:104650002D4A52682C4B5A601A4652685A601A46C4
:10466000526842F480625A601A46526822F440321C
:104670005A601A46526842F440325A601A465268EA
:10468000234B1A40204B5A601A465268214B1A435A
:104690001D4B5A601A46126842F080721A6000BFC1
:1046A000194A126802F00072002AF9D0174A1268FB
:1046B00042F48032154B1A6000BF144A526802F46B
:1046C0008032002AF9D0114A126842F400320F4BAE
:1046D0001A6000BF0D4A526802F40032002AF9D075
:1046E000094A526822F00302074B5A601A46526880
:1046F00042F002025A6000BF034A526802F0080208
:10470000002AF9D0704700000010024000700040FD
:10471000FFFFC3B70000340810B5FFF773FF10BDEB
:1047200070B52048006820490860084600681F49A5
:10473000B0FBF1F01E4908601B4800681B49B0FB44
:10474000F1F201FB12001B490860174800684FF4A2
:104750007A71B0FBF1F4B4F1807F02D316A0FCF7BC
:1047600075FB2546681EB0F1807F01D301200FE064
:10477000681E4FF0E02148610F214FF0FF30FCF739
:104780001DF900204FF0E02188610720086100201A
:1047900010B112A0FCF75AFB0021481EFCF70EF9DD
:1047A00070BD0000EC0100201402002040420F0008
:1047B000180200201C020020CAB1D6D3B9FDB8DF10
:1047C000A3ACCEDEB7A8C5E4D6C3316D73D6D0B6E0
:1047D000CFA3ACD0E8B5F7D5FB0A0000C5E4D6C33B
:1047E000CAA7B0DC0A000000016841F08001016046
:1047F0007047000010B531B101293FD002297DD0AA
:1048000003297CD1BFE0036A23F0010303628369BB
:1048100023F003038361036A148823430362036A5A
:1048200023F002030362036A9488234303626A4B02
:10483000984202D0694B98421FD1036A23F00403C7
:104840000362036A548823430362036A23F0080364
:104850000362036AD48823430362436823F48073AA
:1048600043604368148923434360436823F400731F
:1048700043604368548923434360ABE0036A23F0F9
:1048800010030362836923F440738361036A14880D
:1048900043EA04130362036A23F020030362036AFA
:1048A000948843EA041303624B4B984202D04B4B6B
:1048B000984226D1036A23F040030362036A5488B6
:1048C00043EA04130362036A23F080030362036A6A
:1048D000D48843EA04130362436823F4806343608B
:1048E0004368148943EA84034360436823F4006304
:1048F00043604368548943EA840301E002E068E0CE
:10490000436067E0036A23F480730362C36923F0A2
:104910000303C361036A148843EA04230362036A3E
:1049200023F400730362036A948843EA0423036256
:10493000294B984202D0294B984223D1036A23F491
:1049400080630362036A548843EA04230362036AB0
:1049500023F400630362036AD48843EA04230362F6
:10496000436823F4805343604368148943EA041383
:104970004360436823F4005343604368548943EA27
:104980000413436026E0036A23F480530362C3697F
:1049900023F44073C361036A148843EA0433036257
:1049A000036A23F400530362036A948843EA0433DE
:1049B0000362094B984202D0084B984208D14368E1
:1049C00023F4804343604368148943EA84134360BB
:1049D00000E000BF00BF10BD002C014000340140CA
:1049E00031B101290CD0022913D0032922D118E0BA
:1049F000836923F0700383618369134383611AE041
:104A0000836923F4E0438361836943EA022383617A
:104A100011E0C36923F07003C361C3691343C36129
:104A200009E0C36923F4E043C361C36943EA022395
:104A3000C36100E000BF00BF704731B1012906D05B
:104A4000022906D0032908D105E0426306E082630B
:104A500004E0C26302E0026400E000BF00BF7047F0
:104A600031B101290CD0022913D0032922D118E039
:104A7000836923F0080383618369134383611AE028
:104A8000836923F400638361836943EA02238361BA
:104A900011E0C36923F00803C361C3691343C36111
:104AA00009E0C36923F40063C361C36943EA0223D5
:104AB000C36100E000BF00BF7047000010B50446AE
:104AC0003349601A8C4244D00CDCB4F1804F1CD0C6
:104AD0003048204410B3B0F5806F28D0B0F5006F97
:104AE00052D12DE0B0F5806F3CD0B0F58E3F03D0B1
:104AF000B0F5923F48D13EE040F20B30FFF75CFD4D
:104B000040F20B30FFF748FD3FE04FF48060FFF7C5
:104B100053FD4FF48060FFF73FFD36E040F2014067
:104B2000FFF74AFD40F20140FFF736FD2DE040F26D
:104B30000240FFF741FD40F20240FFF72DFD24E067
:104B400040F20340FFF738FD40F20340FFF724FD39
:104B50001BE040F20440FFF72FFD40F20440FFF756
:104B60001BFD12E040F20540FFF726FD40F2054034
:104B7000FFF712FD09E040F20D30FFF71DFD40F296
:104B80000D30FFF709FD00E000BF00BF10BD0000C1
:104B90000010004000FCFFBF016821F0010101602E
:104BA0007047016841F0010101607047CA4302612A
:104BB000704702461069084008B101207047002084
:104BC000FCE700000A8882621D4A90420ED0B0F1D4
:104BD000804F0BD01B4A904208D01B4A904205D010
:104BE0001A4A904202D01A4A90420BD1026822F02F
:104BF0007002026002684B881A43026002688B8868
:104C00001A4302608A68C262124A90420AD0124A6B
:104C1000904207D0026822F4407202600268CB889A
:104C20001A430260064A904202D0094A904201D1DA
:104C30000A7B0263426942F0010242617047000050
:104C4000002C01400004004000080040000C00401F
:104C5000003401400010004000140040C2680A43C4
:104C6000C2607047CA43026170470246D06800EADA
:104C700001031069084010B10BB1012070470020FA
:104C8000FCE710B504462046FFF786FF10BD000084
:104C90007FB504460D46B4F1804F09D1002211467C
:104CA0001C20FFF725F84FF4E060FFF765FC3FE0BC
:104CB0003248844209D1002211461D20FFF718F81E
:104CC00040F20170FFF758FC32E02D48844209D1D0
:104CD00000220F211E20FFF70BF840F20270FFF7B1
:104CE0004BFC25E02748844209D10022114632209E
:104CF000FEF7FEFF40F20370FFF73EFC18E022488B
:104D0000844209D1002211463620FEF7F1FF40F21D
:104D10000470FFF731FC0BE01C48844208D10022EC
:104D200011463720FEF7E4FF40F20570FFF724FC40
:104D30002046FFF7C3FE7720ADF800000020ADF855
:104D40000200ADF8040005EB4500C0EBC5100121E1
:104D5000C1EBC00002900020ADF806006946204675
:104D6000FFF730FF01212046FFF77CFF012120469D
:104D7000FFF774FF2046FFF714FF7FBD00040040DB
:104D800000080040000C00400010004000140040EB
:104D9000012904D1426C42F40042426403E0426CB7
:104DA00022F40042426470479FED0C0A0C4880EDEB
:104DB000000A9FED0C0A80ED010A9FED0A0A80EDC2
:104DC000020A00200649C8600861486108834883D8
:104DD00005480068054908607047000000000C4263
:104DE000C806002000000000D400002020000020A1
:104DF0001CB504464FF4E1304FF48063034A51156B
:104E0000CDE90040104600F003F81CBD0008014049
:104E10002DE9F04705460F4614469846DDE9086936
:104E20004FF4C060FFF7A8FB5A48864204D140F215
:104E30000E60FFF7A1FB1EE05748864204D140F206
:104E40001170FFF799FB16E05448864204D140F2F6
:104E50001270FFF791FB0EE05148864204D140F2F8
:104E60001370FFF789FB06E04E48864203D140F2FB
:104E70001470FFF781FB4C48854204D140F2026078
:104E8000FFF77AFB2EE04948854204D140F20360E7
:104E9000FFF772FB26E04648854204D140F20460E9
:104EA000FFF76AFB1EE04348854204D140F20560EB
:104EB000FFF762FB16E04048854204D140F20660ED
:104EC000FFF75AFB0EE03D48854204D140F20760EF
:104ED000FFF752FB06E03A48854203D14FF4C16028
:104EE000FFF74AFB3B46032218212846FEF722FA29
:104EF0002D48844204D140F20260FFF73DFB2EE0D2
:104F00002A48844204D140F20360FFF735FB26E0D3
:104F10002748844204D140F20460FFF72DFB1EE0D5
:104F20002448844204D140F20560FFF725FB16E0D7
:104F30002148844204D140F20660FFF71DFB0EE0D9
:104F40001E48844204D140F20760FFF715FB06E0DB
:104F50001B48844203D14FF4C160FFF70DFB434669
:104F6000032204212046FEF7E5F9304600F0BEFF9B
:104F70004946304600F06EFF0421304601F012F839
:104F80000821304601F016F8304600F0F7FFBDE882
:104F9000F087000000380140004400400048004015
:104FA000004C00400050004000080140000C01404F
:104FB000001001400014014000180140001C014095
:104FC0000020014070B504460D462946204600F0F9
:104FD00089FF00BF0721204600F0D5FF0028F9D047
:104FE00070BDB0EE402A72EE202AB0EE620AB4EE36
:104FF000C10AF1EE10FA01D2B0EE410AB4EEE10AB4
:10500000F1EE10FA01DDB0EE610A704730B50446EA
:105010006018904200DA1046984200DD184630BD14
:1050200030B504460D466119914200DA11469942A5
:1050300000DD194688B230BD30B504466018904294
:1050400000DA1046984200DD184630BD10B5002049
:105050000749087007490870074908700120074987
:10506000087000208870C8704870FEF7ADFE10BD53
:10507000E3010020E4010020E5010020E701002019
:1050800010B5FEF77DFB10BD70B50446FDF78EFE32
:105090000546FEF799FE35B1102313A202211846EA
:1050A00000F036F805E0102312A20221184600F0A5
:1050B0002FF8FA20FDF7E6FA01201149087011488F
:1050C00004700078032804D90E480078C01EC0B2CE
:1050D00000E000200C49087001200C4908700020F5
:1050E0008870C870487070BD504152414D20534186
:1050F0005645440053415645204641494C454400DD
:10510000E3010020E4010020E5010020E701002088
:105110002DE9F04104460D4616461F463B463246F1
:1051200029462046FEF794FFBDE8F081F0B52DED4D
:10513000028B89B0FFF7A4FF0446FE4800780728D9
:105140000DD1FD480078401CC0B2FB4908700A2808
:1051500005DD0120F949C8700020F7490870FF2CCF
:105160006FD0F448007808280ED2DFE800F0040E73
:105170009BAEF8F7F6F50120EE4908700020F049E3
:1051800008700120ED490870A0E20620012C1BD117
:10519000EB490978002903DDE9490978491E00E057
:1051A000411EE74A117011460978E64A1278914289
:1051B00007DAE3490978E34A11700121DF4A5170A7
:1051C00002E00121DD4A9170022C27D1411EDC4A08
:1051D0001278914203DDDA490978491C00E0002188
:1051E000D74A117011460A78D6490978091D8A42B2
:1051F00008DBD3490978C91ED24A11700121CF4A70
:10520000517002E00121CD4A9170CD49097829B948
:105210000021CC4A11700121C84A5170042C05D1DB
:105220000021C44A11700121C44A1170052C01D01B
:10523000032C36D1C249097821B90221BD4A117027
:1052400027E044E2BE490978012903D10321B94A84
:1052500011701EE0BA490978022903D10421B54A28
:10526000117016E0B6490978032903D10521B14A26
:1052700011700EE0B2490978042903D10621AD4A24
:10528000117006E0AE490978052902D10721A94A23
:1052900011700021AA4A1170AA4A11700121A74A6F
:1052A000117013E2012C01D0022C08D1A64800781D
:1052B000C0F10100A44908700120A0498870052CA4
:1052C00002D10020FFF7E0FE00E2012C0DD19C4846
:1052D0000078002803DD9A480078401E00E0012095
:1052E00097490870012095498870022C0DD1944887
:1052F0000078012803DA92480078401C00E0002082
:105300008F49087001208D498870032C01D101203C
:1053100004E0042C01D1601F00E000200546EDB33D
:1053200087480078E0B901EE105AB8EEC11AF7EEDE
:10533000001A21EE211AF0EE410A844890ED001A7D
:10534000B0EE410ADFED821A9FED821AFFF749FEA7
:105350007E4880ED000A1FE0A7E147E045E026E037
:1053600077480078012817D101EE105AB8EEC11A1B
:10537000F7EE001A21EE211AF0EE410A734890ED83
:10538000021AB0EE410ADFED721A9FED721AFFF7B2
:1053900028FE6E4880ED020A012000E001E0674926
:1053A000C870052C02D10120FFF76EFE8EE1032CA0
:1053B00001D1012004E0042C01D1601F00E0002095
:1053C000054665B14FF4967301222946624800688C
:1053D000FFF71CFE6049086001205849C870052C81
:1053E00002D10220FFF750FE70E100BF5148007863
:1053F000052801D1092000E003200646012C1BD11D
:105400004F480078002803DD4D480078401E00E03A
:10541000701E4B490870084600784A49097888424E
:1054200007DA474800784749087001204349487027
:1054300002E0012041498870022C27D1701E4049AA
:105440000978884203DD3E480078401C00E00020D7
:105450003B490870084601783A480078001D8142AF
:1054600008DB37480078C01E3649087001203349F0
:10547000487002E00120314988703148007828B92D
:1054800000203049087001202C494870032C01D1BC
:10549000012004E0042C01D1601F00E0002005463B
:1054A000002D46D023480078052870D12448007884
:1054B00060B905EB8500410042F2107300222748D5
:1054C0000088FFF7ADFD25490880DEE01C48007824
:1054D00001280CD105EB8500410042F21073002237
:1054E0001F480088FFF79CFD1D490880CDE0144847
:1054F000007802280CD105EB8500410042F21073C0
:10550000002218480088FFF78BFD16490880BCE090
:105510000B480078032829D105EB8500410042F2B1
:105520001073002210480088FFF77AFD0E490880AA
:10553000ABE0ADE0E3010020EB010020E70100203B
:10554000E4010020E5010020E6010020C80600205B
:105550000000964300000000C4010020BA000020B3
:10556000BC000020BE000020C0000020FC480078E5
:1055700004280DD105EB8500410042F21073002292
:10558000F8480088FFF74CFDF64908807DE043E0CD
:10559000F348007805280CD1322005FB00F140F6D5
:1055A000FF730022F0480088FFF73AFDEE490880BB
:1055B0006BE0EB48007806280CD1322005FB00F1A7
:1055C00040F6FF730022E9480088FFF729FDE7490C
:1055D00008805AE0E248007807280CD1322005FB09
:1055E00000F140F6FF730022E1480088FFF718FD44
:1055F000DF49088049E0DA480078082845D13220A0
:1056000005FB00F140F6FF730022DA480088FFF73F
:1056100007FDD849088038E0D7480078062834D1FB
:10562000CF48007860B905EB8500410042F2107365
:105630000022D2480088FFF7F3FCD049088024E01C
:10564000C748007801280CD1642005FB00F142F224
:1056500010730022CA480068FFF7EEFCC8490860D2
:1056600013E0BF48007802280FD1642005FB00F149
:1056700042F210730022C3480068FFF7DDFCC14905
:10568000086008460068C04908600120BF494870AA
:10569000052C09D1B8490978052901D1032100E079
:1056A00004210846FFF7F0FC10E0052C01D0042C83
:1056B0000BD10120B04908700520A94908700220CB
:1056C000B34908700120B149087000BF00BFAF485E
:1056D000007860B9AD48807848B9AC48C07830B936
:1056E000AA48407818B909B0BDEC028BF0BDA748B4
:1056F0000078C0B3FEF768FB9F48007830B10228FD
:1057000011D0032822D0042835D12DE01023A1A2E6
:1057100000211846FFF7FCFC0823A2A2062118204E
:10572000FFF7F6FC28E01023A1A200210846FFF7AE
:10573000EFFC1023A2A202211420FFF7E9FC1023A2
:10574000A2A204211420FFF7E3FC15E01023A2A27B
:1057500000210820FFF7DCFC1023A1A20221082071
:10576000FFF7D6FC08E00DE010239FA200210820DF
:10577000FFF7CEFC00E000BF00BF01208349887026
:10578000C870487081484078002874D07A48007802
:10579000012807D078480078052803D0764800789B
:1057A000062868D174480078012801D1062006E057
:1057B00071480078052801D1092000E00320074640
:1057C0000026B6E0724800783044C5B27006010E7B
:1057D000102388A20020FFF79BFCBD4200DBA6E05F
:1057E00065480078012828D125B987A101A8FBF7D1
:1057F0003DFB94E0012D04D187A101A8FBF736FB06
:105800008DE0022D04D187A101A8FBF72FFB86E0D4
:10581000032D04D187A101A8FBF728FB7FE0042D0D
:1058200004D187A101A8FBF721FB78E0052D76D1F3
:1058300087A101A8FBF71AFB71E04F480078052803
:1058400050D135B98648028886A101A8FBF70EFB26
:1058500065E0012D06D18648028886A101A8FBF7E4
:1058600005FB5CE0022D07D18548028885A101A8CF
:10587000FBF7FCFA53E063E0032D06D1844802886D
:1058800084A101A8FBF7F2FA49E0042D06D13548BE
:10589000028883A101A8FBF7E9FA40E0052D06D1B3
:1058A0003148028881A101A8FBF7E0FA37E0062D14
:1058B00006D12E48028880A101A8FBF7D7FA2EE076
:1058C000072D06D12A4802887EA101A8FBF7CEFA4F
:1058D00025E0082D23D1274802887DA101A8FBF7E8
:1058E000C5FA1CE024480078062818D135B92348A9
:1058F00002887AA101A8FBF7B9FA10E0012D06D1C0
:105900001F4879A1026801A8FBF7B0FA07E0022D51
:1059100005D11C4877A1026801A8FBF7A7FA700619
:10592000010E102301AA0820FFF7F2FB00BF701C34
:10593000C6B2042EFFF646AF01201449887000BF9E
:105940001248C07810B91148007830B10A48007880
:1059500020B96B480278521CD4E056E1DDE000002B
:10596000E4010020C2000020C4000020C600002086
:10597000C8000020CA000020E3010020CC00002065
:10598000D0000020D400002020000020E7010020EB
:10599000E5010020534D41525420434152205632DC
:1059A000000000005B50555348204D454E555D00AA
:1059B000534554204944454E544954593A00000037
:1059C000434152203120285458290000434152209D
:1059D000322028525829000054726B5F503A000060
:1059E00054726B5F443A00005365744F66662044FE
:1059F0006C793A0020202020202020202020202008
:105A00002020202000000000312E526F6C652053B2
:105A10006574757000000000322E504944205365B3
:105A200074730000332E5365744F666628476F29E0
:105A300000000000342E41766F6964204F627300CD
:105A4000352E526F756E642F5370656564000000CB
:105A5000362E416C6C2053656E736F7273000000BC
:105A6000BA000020544176313A20252D35750000CA
:105A7000BC000020544176323A20252D35750000B7
:105A8000BE000020544176333A20252D35750000A4
:105A9000C0000020544176343A20252D3575000091
:105AA000544176353A20252D357500004141763137
:105AB0003A20252D35750000414176323A20252DBA
:105AC00035750000414176343A20252D35750000AA
:105AD000414176353A20252D3575000054526E64CB
