:020000040800F2
:100000004806002045010008B11400080914000842
:10001000AD140008990E0008DD1A00080000000069
:1000200000000000000000000000000009150008AA
:10003000B513000800000000F9140008611500085D
:100040005F0100085F0100085F0100085F01000810
:100050005F0100085F010008B9130008C113000820
:10006000C5130008C9130008CD1300085F0100087C
:100070005F0100085F0100085F0100085F010008E0
:100080005F0100085F0100085F0100085F010008D0
:100090005F0100085F0100085F010008D11300083C
:1000A0005F0100085F0100085F0100087516000885
:1000B000791600087D160008811600080D14000846
:1000C0005F010008111400085F010008FD1400081A
:1000D00001150008CD1A0008D11A0008D91A000825
:1000E000BD1300085F0100085F0100085F01000800
:1000F0005F0100085F010008911600085F01000819
:100100005F0100085F01000885160008051500085A
:10011000C51A0008C91A0008891600088D160008BB
:100120005F0100085F0100085F0100085F0100082F
:10013000DFF80CD000F080FB004800479533000842
:10014000480600200648804706480047FEE7FEE7CD
:10015000FEE7FEE7FEE7FEE7FEE7FEE7FEE7FEE777
:1001600095150008310100082DE9F05F05460020D3
:1001700092469B4688460646814640241BE0284618
:1001800041464746224600F0E0F853465A46C01A18
:10019000914110D311461846224600F0C7F82D1A97
:1001A00067EB01084F4622460120002100F0BEF80F
:1001B00017EB00094E41201EA4F10104DFDC484684
:1001C00031462A464346BDE8F09F70B5064605F025
:1001D00057FA046805460A220021304600F01AF951
:1001E0002C6070BD2DE9FE4F81EA030404F0004449
:1001F00021F0004100944FF0000B23F0004350EA3F
:1002000001045ED052EA03045BD0C3F30A54C1F385
:100210000A552C44A4F2F3340194A0FB0254C1F318
:10022000130141F48011C3F3130343F4801301FB62
:10023000024400FB034E840A970A44EA815447EAC9
:100240008357A4FB076802958D0A05FB07854FEAD3
:10025000932C04FB0C542705029D4FEA065847EAED
:100260001637B5EB08056EEB070C870E920E47EAC2
:10027000811742EA8312A7FB0201B6EB0B0164EB84
:1002800000042B0D43EA0C335E1844EB1C50DA4695
:100290005146E7FB0201C5F313044FEA0B3343EA6F
:1002A00014534FEA0432019C43EA0603A4F10C0400
:1002B0000294009CCDE900B400F02AF903B0BDE837
:1002C000F08F00200146F9E701F0004330B421F03F
:1002D000004150EA010206D00A0DA2F56072C1F396
:1002E0001301002A02DC30BC00207047440F44EAAE
:1002F000C104C100E01830BC00EBC25000F0C2B82D
:1003000030B50B46014600202022012409E021FAE5
:1003100002F59D4205D303FA02F5491B04FA02F5E2
:100320002844151EA2F10102F1DC30BD202A04DBB5
:10033000203A00FA02F1002070479140C2F12003F8
:1003400020FA03F3194390407047202A04DB203A37
:1003500021FA02F00021704721FA02F3D040C2F1E5
:100360002002914008431946704700000FB40B006B
:1003700010B58AB00FA900910E994FF00004234ADE
:10038000CC60214CCDE9064200D004236FF000423E
:10039000CDE901321E4A089202466B46002000F069
:1003A00017FB0AB010BC5DF814FBF0B585B007462A
:1003B0004FF0FF300091CDE901011E4600201546A7
:1003C0000C4604903B466A46314604A8FFF7CEFF30
:1003D00004990346601825B109B1024600E022469F
:1003E0002A6000290ED0002B02DD0099814209D03D
:1003F0000094001BCDE901043B466A46314604A83F
:10040000FFF7B4FF05B0F0BD090C0008270C000889
:10041000950800082DE9F04791460F4680460446AE
:10042000002614F8015B2DB100F030FA0068405D41
:10043000C007F6D12B2D02D02D2D18D0641E4A46B0
:100440003946204600F000FC27B13968A14201D1AD
:10045000C7F8008071054FF002040BD54042002818
:1004600003DD05F00DF90460A007BDE8F08746F450
:100470008066E4E70028F8DA05F002F904606FF01E
:100480000040F2E70029A8BF7047401C490008BFA0
:1004900020F00100704710B4B0FA80FC00FA0CF0B4
:1004A00050EA010404BF10BC704749B1CCF12004EC
:1004B00021FA04F411FA0CF118BF01212143084379
:1004C000A3EB0C01CB1D4FEA00614FEA102042BFA5
:1004D000002010BC704700EBC35010440029A4BF9B
:1004E00010BC7047401C490008BF20F0010010BC40
:1004F000704710B5141E73F1000408DA401C41F176
:10050000000192185B411A4301D120F0010010BD97
:100510002DE9F04D92469B4611B1B1FA81F202E00D
:10052000B0FA80F220329046FFF700FF04460F46F3
:1005300040EA0A0041EA0B0153465A46084313D0E9
:10054000114653EA010019D0C8F140025046FFF7A6
:10055000FCFE05460E46504659464246FFF7E6FE6B
:10056000084305D0012004E020463946BDE8F08D5F
:100570000020054346EAE0762C4337430A9863059A
:10058000E40AA0EB08000022FD0A44EA47540A30BE
:1005900002D500200146E9E7010510196941DDE9AE
:1005A000084500196941BDE8F04DA2E72DE9FE4F6D
:1005B000804681EA0300C00F0C46009021F0004104
:1005C00023F00045B8EB0200A94105D24046214680
:1005D00090461C460B46024623F00040104347D08D
:1005E000270DC7F30A00C3F30A510290401A019085
:1005F00040286BDAC3F3130040F4801B0098924646
:1006000020B10023D2EB030A63EB0B0B0198594690
:10061000C0F140025046FFF789FE06460D4650469F
:100620005946019A00F020F910EB080061410024BE
:1006300087EA115284EAE7731A4340D0009A62B302
:10064000019A012A4FEA075215DC001B61EB0201F7
:100650004FF0004202EA0752CDE90042001C41F58A
:10066000801132462B46FFF753FF03B0BDE8F08FF1
:1006700040462146F9E7001B61EB0201001C41F5F1
:10068000801300185B412018A2F5001747EB030107
:1006900040EAD570B6196D4111E06D084FEA360693
:1006A00045EAC0754FEA0752001B61EB0201001CCE
:1006B00041F5801149084FEA300000195141324696
:1006C0002B4603B0BDE8F04FFFF713BF009801229F
:1006D00040000023D0EB020263EBE0730098214658
:1006E0004FEAE074B8EB000061EB0401E9E783F046
:1006F00000435BE781F0004158E72DE9F04D81EAC6
:10070000030404F0004B21F0004514464FF0000AAA
:1007100023F0004150EA050220D054EA01021DD026
:10072000C5F30A570246C5F31303C1F31300C1F31F
:100730000A5640F4801543F48013A7EB0608101BFB
:10074000D64608F2FD3873EB050002D308F1010824
:1007500001E092185B41B8F1000F03DA0020014676
:10076000BDE8F08D00204FF48011064684460EE06F
:10077000171B73EB050705D3121B63EB0503064339
:100780004CEA010C49084FEA300092185B4150EAEC
:100790000107EDD152EA030012D082EA040083EA95
:1007A0000501084305D0101BAB4106D201220023EE
:1007B00006E000224FF0004302E06FF00102531008
:1007C0001AEB06004CEB085110EB0A0041EB0B0151
:1007D000BDE8F04DFFF78DBEC1F30A52C1F313011E
:1007E00040F2FF3341F480119A4202DA00200146C0
:1007F000704740F233439A42A2F2334202DC524243
:10080000FFF7A3BDFFF792BD30B5041E71F10004E0
:1008100004DB4FF00044404264EB0101141E73F10D
:10082000000405DB1C464FF00043524263EB040317
:10083000994208BF904230BD1CB509480090094854
:1008400001900546009C06E0E06840F0010394E852
:10085000070098471034AC42F6D3FFF76DFC000058
:10086000F061000810620008202A06DBCB17203A4E
:1008700041FA02F043EAE07306E041FA02F3D040A5
:10088000C2F1200291400843194670470048704762
:100890004860000810B50446FFF7F8FF0068005DE7
:1008A00000F0010010BD00002DE9FF4F087883B073
:1008B0009946FF2805D0491C2D2804D0002400208B
:1008C00008E000200BE00124F9E700EB800003EBD7
:1008D0004000491C0B78FF2BF7D104B140420023A4
:1008E0000293147819461D462D2C01D02B2C04D1CF
:1008F000521C2D2C13D000240294AA461478FF2CED
:100900000FD00A25A3FB057801FB05814FF0000CF1
:1009100003FB0C11521CE3194AEB0101EEE7012421
:10092000EAE7814453EA010002D019F5C87F06DAEC
:1009300003980021C0E9001107B0BDE8F08F002541
:10094000AE4E2F46DFF8B882184600F0DAF9CDE94E
:100950000001B9F1000002DAC9F1000400E0044628
:100960000023A74A1AEB030B42EB045A12E0E007FC
:1009700007D02A46334638464146FFF733FC074640
:1009800088462A46334610461946FFF72BFC054693
:100990000E466410002CEAD1DDE90001B9F1000F28
:1009A0005A46534606DAFFF7A8FE3A464346FFF793
:1009B000A4FE05E0FFF716FC3A464346FFF712FC9B
:1009C000029A0AB181F00041039AC2E90001B3E73B
:1009D0002DE9FF4F1F468DB0D7E901464FF0FF3894
:1009E0002E2045464FF000090B90B9696D1C0E98FA
:1009F0008847396A824688470028F6D1BAF1FF3F16
:100A00000AD024F4D064002E11DDBAF12B0F08D0E7
:100A1000BAF12D0F0BD102E0404611B08DE744F43E
:100A20008064B9696D1C0E9888478246761E6946B7
:100A3000600501D52D2000E02B208DF8000001F18C
:100A4000010B0DF1200809E0B9696D1C0E9888476B
:100A500082460F9844F40074761E0560002E02DD75
:100A6000BAF1300FF0D00B998A453ED144F08004A2
:100A700006E00F99681CA9F1010944F400740860AC
:100A8000B9696D1C761E0E98884782463028F0D0D2
:100A90002BE00B998A4505D1200603D444F080044D
:100AA000761E18E0504604F0E9FE08B30DF113027B
:100AB000761EAAF1300044F40074934506D20BF878
:100AC000010B200607D5A9F1010003E0200602D49E
:100AD00009F101008146A00502D50F99681C086044
:100AE000B9696D1C0E9888478246002ED1DC53E010
:100AF000002E51DDBAF1650F02D0BAF1450F4BD18E
:100B0000A00549D5B9696D1C24F44074761E0E9871
:100B100088478246002E0CDD2B2804D0BAF12D0F19
:100B200007D144F48074B9696D1C0E9888478246D9
:100B3000761EE00501D52D2100E02B2108F8011BD0
:100B4000CDF82C8021E00DF12901761E44F40074CB
:100B500088450CD2AAF1300010F0FF0088F80000A0
:100B600002D10B99884509D908F1010806E0E00592
:100B700001D5244801E042F20F708146B9696D1C2D
:100B80000E98884782460F980560002E04DD504677
:100B900004F074FE0028D6D1F9690E988847FF202A
:100BA0008BF8000088F800000020069007904B4664
:100BB0006A4608A906A8FFF777FEA00502D46FF0E1
:100BC00001002AE714F0240F0AD0E00714D1DDE970
:100BD00006123868031D3B600068C0E900120BE094
:100BE000DDE90601FFF770FB0146E00704D1386834
:100BF000021D3A600068016028460EE700001440BC
:100C00000000F03FF1D8FFFF426842B1016811F8DF
:100C1000013B23B1521EC0E9001218467047012162
:100C2000C160881E704742685AB1C368016843B901
:100C300083688B4205D0491E521CC0E90012002077
:100C400070474FF0FF3070472DE9F05F8246007823
:100C5000002715468B460AF10104B946302801D019
:100C60009DB113E014F8010B0127782803D0582810
:100C700001D045B10AE00DB1102D07D10027102594
:100C800014F8010B02E0082500E00A250026B04612
:100C90000EE005FB080005FB06F1012701EB1046FD
:100CA0001FFA80F8B6F5803F00D3B94614F8010B5F
:100CB000294600F018F80028EBDABBF1000F05D048
:100CC0000FB1641E00E05446CBF80040B9F1000FAC
:100CD00006D004F0D5FC02210160C81EBDE8F09FDB
:100CE00048EA0640FAE73A2800D2303820F02002DD
:100CF000412A01D3A2F13700884201D34FF0FF30DF
:100D000070470EB540F2334202920022CDE9002234
:100D10001346FFF7FDFB03B000BD000080B540F2B5
:100D20003911C2F200010020087040F2A811C2F28D
:100D30000001087040F2A911C2F20001087002F02F
:100D400081F90A4640F24011C2F200014A6008608F
:100D500044F20040C4F2000040F205310122262393
:100D600004F08AF980BD000080B5FFE744F200403E
:100D7000C4F20000052104F06DFB50B1FFE744F21E
:100D80000040C4F2000004F0EDFAC0B201F084FCAF
:100D9000ECE744F20040C4F20000032104F05AFBE7
:100DA00038B1FFE744F20040C4F2000004F0DAFA80
:100DB000FFE780BD10B5A4B040F20210C2F20000FF
:100DC000007808B9FFE71EE01EA800F08BF81F9B13
:100DD0002198BDF97820BDF97AC0DDF880E0229C29
:100DE0006946CC60C1F808E0C1F804C0086046F26A
:100DF0005911C0F6000106A8059004F02DFC0598D5
:100E000001F0A0FDFFE724B010BD000080B584B064
:100E1000FFE70DF10D0001F081FC28B1FFE79DF81F
:100E20000D0001F041F9F4E7FFE744F20040C4F29D
:100E300000000DF10E0104F053F928B1FFE79DF811
:100E40000E0001F031F9F0E702F0FCF8019100909A
:100E500040F23910C2F200000078D0B1FFE701F093
:100E600065F8B0B1FFE70099019840F24012C2F274
:100E7000000213685268C91A904140F64052C0F20D
:100E80000302891A70F1000003D3FFE701F0E4FBCD
:100E9000FFE704B080BD0000FFE7FEE780B582B049
:100EA00000F098FA8DF8050031200DF1060100F0F0
:100EB00057FC012001F0F4FF9DF8060000F001004E
:100EC0009DF80510884204D1FFE701208DF8070046
:100ED00003E000208DF80700FFE79DF8070002B04F
:100EE00080BD000010B581B000900098B0B1FFE760
:100EF000009940F2AC14C2F2000420686268A36852
:100F0000D4F80CC0D4F810E064694C61C1F810E06A
:100F1000C1F80CC08B604A600860FFE701B010BDEB
:100F200081B00090009860B1FFE7009940F2F403AF
:100F3000C2F2000318685A689B688B604A600860B8
:100F4000FFE701B07047000080B582B040F2F400C6
:100F5000C2F20000009090ED000AD0ED010A90ED81
:100F6000021A40F2F810C2F20000DFED1D1ACDEDBA
:100F7000011A02F0F9FF0098DDED011A90ED000A68
:100F8000D0ED010A90ED021A40F21020C2F20000EA
:100F900002F0EAFF40F2AC11C2F20001002008802A
:100FA000488048608860C86008610875487504F02A
:100FB000DDF840F2DC10C2F20000006840F2D4110B
:100FC000C2F20001086040F2E410C2F200000068C2
:100FD00040F2D811C2F20001086002B080BD00BF2B
:100FE00000401C4580B582B0ADF80600BDF9060092
:100FF00040F2AC11C2F20001B1F9021000F0FEF8AB
:1010000002B080BD80B586B08DED050ACDED040A35
:101010008DED031A9DED050AB5EE400AF1EE10FACA
:1010200007DBFFE7059840F2F401C2F20001086017
:10103000FFE79DED040AB5EE400AF1EE10FA07DB7A
:10104000FFE7049840F2F401C2F200014860FFE7B4
:101050009DED030AB5EE400AF1EE10FA07DBFFE75B
:10106000039840F2F401C2F200018860FFE740F209
:10107000F400C2F20000019090ED000AD0ED010AE8
:1010800090ED021A40F2F810C2F20000DFED151ADE
:10109000CDED021A02F068FF0198DDED021A90ED25
:1010A000000AD0ED010A90ED021A40F21020C2F2BF
:1010B000000002F059FF40F2DC10C2F200000068AC
:1010C00040F2D411C2F20001086040F2E410C2F212
:1010D0000000006840F2D811C2F20001086006B0BA
:1010E00080BD00BF00401C4580B582B0ADF8060051
:1010F00040F2AC10C2F20000B0F90000BDF90610D9
:1011000000F07CF802B080BD80B582B0ADF806007A
:10111000ADF80410ADF80220BDF80200092804D88B
:10112000FFE70A20ADF80200FFE7BDF8060040F235
:101130002E21C2F200010880BDF8041040F22C20DC
:10114000C2F200000180B0F90000B0F1FF3F08DCFE
:10115000FFE740F22C21C2F20001088840420880DB
:10116000FFE7BDF8020049F69A11C1F69911A0FBFC
:10117000010140F20010C2F200000180008838B97D
:10118000FFE740F20011C2F2000101200880FFE7F2
:1011900040F23021C2F200010020088040F2AC1180
:1011A000C2F2000101220A754A7548608860C86071
:1011B000086103F0DBFF40F2DC10C2F200000068BF
:1011C00040F2D411C2F20001086040F2E410C2F211
:1011D0000000006840F2D811C2F20001086040F23D
:1011E000F810C2F2000002F0DDFE40F21020C2F260
:1011F000000002F0D7FE02B080BD000080B582B0D2
:10120000ADF80600ADF8041003F0B0FF40F2DC10BA
:10121000C2F20000006840F2D411C2F2000108607E
:1012200040F2E410C2F20000006840F2D811C2F2AD
:1012300000010860BDF8060040F2AC11C2F20001E6
:101240000880BDF804004880002048608860C860BD
:101250000861487540F2F810C2F2000002F0A2FEE8
:1012600040F21020C2F2000002F09CFEBDF9061010
:101270000120009039B9FFE7BDF90400002818BF2C
:1012800001200090FFE7009800F0010140F2AC104F
:10129000C2F200000175007D18B9FFE700F004F804
:1012A000FFE702B080BD000080B582B040F2AC1113
:1012B000C2F200010020019008754875088048803E
:1012C00048608860C860086140F2F810C2F200000F
:1012D00002F068FE40F21020C2F2000002F062FE4E
:1012E000019A0120114602F077F9019A0220114675
:1012F00002F072F902B080BD10B582B040F2AC10BD
:10130000C2F20000007D08B9FFE751E001F046FDA0
:1013100003F02CFF40F2DC13C2F20003186840F225
:10132000D41CC2F2000CDCF80010411A40F2AC10E0
:10133000C2F200000190416040F2E411C2F20001EB
:10134000D1F800E040F2D812C2F200021468AEEB0D
:10135000040EC0F808E01B68CCF800300968116082
:10136000B0F900104268C36840F2F810C2F2000001
:1013700001F0C4FC01460198C160B0F90210826816
:10138000036940F21020C2F2000001F0B7FC0146F0
:1013900001980161B0F90010C268012001F066FCFB
:1013A0000198B0F902100269022001F05FFCFFE72A
:1013B00002B010BD70470000704700007047000089
:1013C0007047000070470000704700007047000041
:1013D0007047000080B582B030200DF1070100F0A9
:1013E000BFF99DF8070000F010008DF807009DF888
:1013F00007000009B0FA80F040098DF806009DF85A
:10140000060002B080BD0000FFE7FEE77047000065
:101410007047000080B584B000208DF80F000A20CE
:101420008DF80E0040F60040C4F201000290042145
:10143000402201F03DFF02980521802201F038FF93
:10144000FFE79DF80F0050BBFFE740F20C01C2F22E
:10145000000101208722019200F0FAFA5E20652146
:1014600000F01AFB0199612000F016FBFFF716FD52
:101470008DF80F009DF80E0001388DF80E009DF8D4
:101480000E00002807DCFFE746F2D300C0F600009C
:1014900004F0D2F803E0642001F002FDD1E78620D9
:1014A000212100F0C5FA04B080BD0000FFE7FEE78F
:1014B0007047000082B08DF8070000919DF9070089
:1014C000B0F1FF3F0CDCFFE7009800019DF807102A
:1014D00001F00F014EF61452CEF20002885409E0DA
:1014E000009800019DF907104EF20042CEF2000272
:1014F0008854FFE702B07047704700007047000053
:1015000070470000704700007047000080B582B04F
:10151000009000980138B0F1807F03D3FFE70120ED
:10152000019019E0009801384EF21401CEF200014A
:1015300008604FF0FF300F21FFF7BCFF4EF218019B
:10154000CEF20001002008604EF21002CEF200023E
:10155000072111600190FFE7019802B080BD0000F3
:1015600080B540F2D010C2F2000001680131016084
:10157000006868B9FFE740F2D011C2F20001002014
:10158000086046F2B900C0F6000004F055F8FFE725
:1015900080BD000080B582B04EF68851CEF20001C9
:1015A000086840F47000086041F20001C4F20201D2
:1015B000086840F001000860FFE741F20000C4F253
:1015C000020000688007002801D4FFE7F5E7FFE785
:1015D00041F20401C4F20201086840F08000086092
:1015E00000200190FFE701984F2805D8FFE7FFE7AB
:1015F000019801300190F6E741F20401C4F20201C2
:10160000086840F09000086000200190FFE7019812
:101610004F2805D8FFE7FFE7019801300190F6E772
:10162000FFE741F20401C4F20201086820F0030060
:10163000086041F20002C4F2020210684FF6FF7324
:10164000CEF6F6231840106041F20803C4F20203FC
:101650004FF47F001860106820F480201060002094
:10166000086041F22C01C4F20201086002F006FE9B
:1016700002B080BD70470000704700007047000056
:10168000704700007047000070470000704700007E
:101690007047000080B588B08DF81F0000220692C8
:1016A0008DF81D2040F60040C4F201000490402156
:1016B00001F008FD0120059001F0F2FB0498059A65
:1016C000802101F0FFFC06988DF81E00FFE79DF8D1
:1016D0001E00072831DCFFE70120029001F0E0FB4B
:1016E00040F60040C4F20100039040210191002225
:1016F00001F0E8FC029801F0D3FB0199029A0398EB
:1017000001F0E0FC029801F0CBFB03989DF81D105E
:1017100049008DF81D10802101F0EAFC30B1FFE78F
:101720009DF81D0001308DF81D00FFE7FFE79DF8D3
:101730001E0001308DF81E00C9E740F60040C4F2DB
:1017400001004021002201F0BDFC012001F0A8FBB6
:101750009DF81F0000F05AF89DF81D0008B080BDEC
:1017600080B582B08DF8070000919DF807000099C0
:10177000012200F003F802B080BD000080B586B001
:10178000059004910392002001908DF80B0000F069
:101790007BF8522000F004F99DF8150000F000F9E4
:1017A0009DF8140000F0FCF800F06EF8532000F0F3
:1017B000F7F801988DF80B00FFE79DF80B000399EF
:1017C00088421ED2FFE79DF80B0003990139884239
:1017D00008D0FFE70120FFF75DFF04999DF80B207B
:1017E000885407E00020FFF755FF04999DF80B206F
:1017F0008854FFE7FFE79DF80B0001308DF80B00E0
:10180000DBE700F067F806B080BD000080B584B06B
:101810008DF80F0040F60040C4F201004021002284
:1018200001F050FC012001F03BFB9DF80F0048B196
:10183000FFE740F60040C4F201008021002201F0E1
:1018400041FC08E040F60040C4F201008021012282
:1018500001F038FCFFE740F60040C4F201000090C0
:10186000402101910122029201F02CFC029801F02A
:1018700017FB00980199002201F024FC029801F066
:101880000FFB04B080BD000080B586B040F600407C
:10189000C4F201000390402104910122029201F060
:1018A00011FC029A03988021019101F00BFC02982F
:1018B00001F0F6FA019903980022059201F002FC6A
:1018C000029801F0EDFA03980499059A01F0FAFBE9
:1018D00006B080BD80B586B040F60040C4F201007D
:1018E0000390402102910022019201F0EBFB019A4A
:1018F00003988021049101F0E5FB0120059001F09F
:10190000CFFA02990398059A01F0DCFB059801F0E3
:10191000C7FA03980499059A01F0D4FB059801F0E1
:10192000BFFA06B080BD000080B586B040F600402A
:10193000C4F20100049040210291002201F0C2FB98
:101940000120039001F0ACFA0299039A049801F087
:10195000B9FB039801F0A4FA0498802101F0C8FBB8
:1019600058B1FFE740F60040C4F2010040210122D7
:1019700001F0A8FB002005900EE040F60040C4F204
:1019800001004021002201F09DFB0120019001F0A7
:1019900087FA01980590FFE7059806B080BD000022
:1019A00080B584B08DF80F0008208DF80E00FFE799
:1019B0009DF80E00411E8DF80E10A0B3FFE79DF8B4
:1019C0000F000006002809D5FFE740F60040C4F2EA
:1019D00001008021012201F075FB08E040F6004083
:1019E000C4F201008021002201F06CFBFFE79DF8AA
:1019F0000F0040008DF80F000120009001F050FA18
:101A0000009A40F60040C4F201000190402102918A
:101A100001F058FB009801F043FA01980299002266
:101A200001F050FBC4E7FFF77FFF04B080BD00006A
:101A300080B582B08DF807008DF806109DF807007C
:101A40000DF10601012200F003F802B080BD000094
:101A500080B584B0039002910192FFF715FF5220E8
:101A6000FFF79EFF9DF80D00FFF79AFF9DF80C0011
:101A7000FFF796FFFFE70198411E019138B1FFE79C
:101A80000298411C02910078FFF78AFFF3E7FFF705
:101A900021FF04B080BD000080B584B08DF80F0038
:101AA00002910298000A8DF8060002988DF807004E
:101AB0009DF80F000DF106010222FFF7C9FF04B0E7
:101AC00080BD0000704700007047000070470000B4
:101AD00080B5FFF749F980BD70470000FFE7FEE7DA
:101AE00081B000900099886840F008008860FFE7A6
:101AF000009880680007002801D5FFE7F8E7009903
:101B0000886840F004008860FFE70098806840071C
:101B1000002801D5FFE7F8E701B0704780B582B033
:101B200001908DF8031001989DF8031000F0B6F8AD
:101B300002B080BD82B001900091009830B1FFE703
:101B40000199886840F40060886005E00199886820
:101B500020F400608860FFE702B0704780B584B071
:101B600003900398029042F20041C4F201018842BE
:101B700008D0FFE7029842F60001C4F20101884252
:101B800009D011E040F20930019002F0CFF901983C
:101B900002F0B8F909E040F20A30009002F0C6F90C
:101BA000009802F0AFF900E0FFE704B080BD00004C
:101BB00081B0009000988068C00730B9FFE70099B5
:101BC000886840F001008860FFE701B070470000BE
:101BD00082B001908DF803108DF802209DF802006C
:101BE000C0B1FFE79DF80300C00730B1FFE70199DE
:101BF000886840F480108860FFE79DF80300800744
:101C0000002806D5FFE70199886840F40040886005
:101C1000FFE717E09DF80300C00730B1FFE7019927
:101C2000886820F480108860FFE79DF80300800733
:101C3000002806D5FFE70199886820F400408860F5
:101C4000FFE7FFE702B0704784B003908DF80B10F8
:101C500001929DF80B0001460091012804D0FFE796
:101C6000009802280BD015E00399886820F46020C2
:101C70008860019A03998868104388600BE0039993
:101C8000886820F4E0408860019A039988681043CE
:101C9000886000E0FFE704B070470000B0B504467C
:101CA0004FF4C0600D4602F019F902F0EBFA082D6E
:101CB00002D240F2026015E005F0FE00082802D1D1
:101CC00040F203600EE00F2D00F2948040F20460B9
:101CD000DFE805F0173A282D1C3F44324C21080854
:101CE0000808080802F0FAF80F2D00F28380DFE8F8
:101CF00005F0082B191E0D3035233D12764E586C19
:101D0000446240F60000C4F201006EE040F60000BC
:101D1000C4F2010037E040F60000C4F2010000F513
:101D200080603AE040F60000C4F201003FE040F677
:101D30000000C4F201004EE040F60000C4F20100D1
:101D400000210322802353E040F60000C4F201008A
:101D500023E040F60000C4F2010032E040F600004B
:101D6000C4F2010000210322402341E040F60000BC
:101D7000C4F2010000F5806037E040F60000C4F2D4
:101D8000010000F5006000210322102330E040F63E
:101D90000000C4F2010000F50060002103220223CC
:101DA00026E040F60000C4F2010000F500600021CA
:101DB000032204231CE040F60000C4F2010000F5F9
:101DC000006000210322202312E040F60000C4F24C
:101DD000010000F5006000210322082308E040F61E
:101DE0000000C4F2010000F500600021032201237D
:101DF00001F086F942F20040C4F20100844211D0A1
:101E000043F60040C4F20100844208D042F60000CC
:101E1000C4F20100844209D140F20A6004E040F2B9
:101E20000F6001E040F2096002F058F8022001F072
:101E3000CDFE2046FFF792FE20460221002200F050
:101E400021F820464FF48071002200F01BF8204654
:101E50000021FFF76FFE204601214FF46022FFF7BB
:101E6000F3FE204601210122FFF7B2FE2046FFF7D4
:101E70009FFE012000F0F8FF2046BDE8B040FFF7CC
:101E80002FBE000083B0029001918DF803209DF8D1
:101E9000030020B3FFE79DF80500C00730B1FFE75E
:101EA0000299486840F480704860FFE79DF805009B
:101EB0004007002806D5FFE70299486840F4806093
:101EC0004860FFE79DF804008007002806D5FFE77B
:101ED0000299886840F002008860FFE723E09DF8DF
:101EE0000500C00730B1FFE70299486820F4807010
:101EF0004860FFE79DF805004007002806D5FFE78A
:101F00000299486820F480604860FFE79DF804006B
:101F10008007002806D5FFE70299886820F00200B4
:101F20008860FFE7FFE703B07047000080B582B02C
:101F300000208DF80600FFE79DF8060040F23911F9
:101F4000C2F20001097888423DDAFFE79DF80610E9
:101F500040F20910C2F20000405C30280ADBFFE7C3
:101F60009DF8061040F20910C2F20000405C3A28C9
:101F70001EDBFFE79DF8061040F20910C2F20000D8
:101F8000405C2D2814D0FFE79DF8061040F20910A0
:101F9000C2F20000405C2B280AD0FFE79DF8061033
:101FA00040F20910C2F20000405C3F2804D1FFE774
:101FB00001208DF8070072E0FFE79DF80600013070
:101FC0008DF80600B8E740F23910C2F20000007840
:101FD00004282CDBFFE740F20910C2F20000007871
:101FE00000F022FD532822D1FFE740F20910C2F28F
:101FF0000000407800F018FD542818D1FFE740F2A7
:102000000910C2F20000807800F00EFD4F280ED1BA
:10201000FFE740F20910C2F20000C07800F004FDB2
:10202000502804D1FFE701208DF8070037E040F287
:102030003910C2F20000007804282CDBFFE740F2E0
:102040000910C2F20000007800F0EEFC482822D10E
:10205000FFE740F20910C2F20000407800F0E4FC13
:10206000452818D1FFE740F20910C2F2000080783D
:1020700000F0DAFC4C280ED1FFE740F20910C2F262
:102080000000C07800F0D0FC502804D1FFE7012008
:102090008DF8070003E000208DF80700FFE79DF8AA
:1020A000070002B080BD000080B582B08DF8070047
:1020B0009DF807008DF8060000F0C4FF0A4640F2C4
:1020C0004011C2F200014A6008609DF807000D2827
:1020D0000AD0FFE79DF807000A2805D0FFE79DF822
:1020E00007003B2803D1FFE700F0B6FA31E09DF886
:1020F0000600202805D3FFE79DF806007F2807D3B8
:10210000FFE740F23911C2F20001002008701FE021
:1021100040F23910C2F2000000782E2810D8FFE7F4
:102120009DF8070040F23911C2F200010B7840F22D
:102130000912C2F20002D05408780130087006E09B
:1021400040F23911C2F2000100200870FFE7FFE7FA
:10215000FFE702B080BD000080B58EB00D900D98F5
:1021600000F07EFC0C900C98007808B9FFE791E134
:102170000C9800783F2809D0FFE70C9846F2D4115C
:10218000C0F6000100F02AFC18B1FFE700F072FB76
:1021900080E10C9846F2D911C0F6000100F01EFC57
:1021A00018B1FFE7FFF780F873E10C9846F2D11100
:1021B000C0F6000100F012FC70B1FFE709A8FEF7BD
:1021C000AFFE0C98023000F089F9DDED0A0A9DEDB2
:1021D0000B1AFEF717FF5BE10C9846F2C411C0F62C
:1021E000000100F0FBFBA0B1FFE709A8FEF798FE95
:1021F0009DED090A8DED060A0C98023000F06EF98B
:10220000F0EE400A9DED060A9DED0B1AFEF7FAFE70
:102210003DE10C9846F2BC11C0F6000100F0DEFB77
:10222000C0B1FFE709A8FEF77BFE9DED090A8DED21
:10223000050A9DED0A0A8DED040A0C98023000F0A3
:102240004DF9DDED040AB0EE401A9DED050AFEF7EA
:10225000D9FE1BE10C9846F2CD11C0F6000100F04A
:10226000BDFB28B1FFE70C98033000F069F90CE1E1
:102270000C9846F2BF11C0F6000100F0AFFB68B148
:10228000FFE70C98043000F039F9002818BF01204E
:1022900040F20211C2F200010870F5E00C9846F21B
:1022A000C711C0F6000100F099FBC0B1FFE70C9820
:1022B000033000F023F90146002918BF012140F244
:1022C0000810C2F200000170007838B1FFE746F252
:1022D0004410C0F6000000F035FBFFE7D3E00C9897
:1022E000007800F0A1FB50280ED1FFE709A8FEF707
:1022F00017FE0C98013000F0F1F8DDED0A0A9DEDB3
:102300000B1AFEF77FFEBDE00C98007800F08CFB06
:10231000492814D1FFE709A8FEF702FE9DED090A3E
:102320008DED030A0C98013000F0D8F8F0EE400A69
:102330009DED030A9DED0B1AFEF764FEA1E00C98DB
:10234000007800F071FB442818D1FFE709A8FEF7D8
:10235000E7FD9DED090A8DED020A9DED0A0A8DED5E
:10236000010A0C98013000F0B9F8DDED010AB0EE79
:10237000401A9DED020AFEF745FE81E00C980078B8
:1023800000F052FB532816D1FFE70C98013000F003
:10239000B5F800F081F8ADF82200BDF9221008462A
:1023A000FEF72CFFBDF9221046F2E010C0F6000047
:1023B00000F0F2F963E00C98007800F035FB4C284F
:1023C00015D1FFE70C98013000F098F800F064F8A0
:1023D000ADF82000BDF92000FEF704FEBDF9201085
:1023E00046F2CB10C0F6000000F0D6F946E00C989B
:1023F000007800F019FB522815D1FFE70C98013046
:1024000000F07CF800F048F8ADF81E00BDF91E00A1
:10241000FEF76AFEBDF91E1046F2DE10C0F600009F
:1024200000F0BAF929E00C980078302805DBFFE7C6
:102430000C9800783A280ADBFFE70C9800782D28E2
:1024400005D0FFE70C9800782B2815D1FFE70C98F2
:1024500000F054F800F020F8ADF81C00BDF91C1095
:102460000846FEF7CBFEBDF91C1046F2E010C0F6A0
:10247000000000F091F9FFE7FFE7FFE7FFE7FFE764
:10248000FFE7FFE7FFE7FFE7FFE7FFE7FFE7FFE71C
:10249000FFE7FFE70EB080BD81B0ADF80000BDF9E9
:1024A0000000B0F5967F05DDFFE74FF49670ADF8BC
:1024B00002000FE0BDF9000010F5967F05DAFFE796
:1024C0004FF6D460ADF8020004E0BDF80000ADF8AE
:1024D0000200FFE7BDF9020001B0704780B582B08D
:1024E0000190019800F044FA03F0CEF851EC100B83
:1024F000FDF7EAFE00EE100A02B080BD80B582B0A2
:102500000190019800F034FAFDF75FFE009000980A
:10251000B0F5004F04DBFFE747F6FF7000900BE0DB
:10252000009810F5004F06DAFFE748F20000CFF6FA
:10253000FF700090FFE7FFE7BDF9000002B080BD2B
:1025400080B588B00790079800F012FA07900798B6
:10255000FFF7D4FFADF8120007980690FFE7069842
:1025600001780020029039B1FFE7069800782C38F6
:1025700018BF01200290FFE70298C00720B1FFE7D3
:10258000069801300690EAE7069800782C2804D1D6
:10259000FFE7069801300690FFE70698FFF7AEFFC9
:1025A000ADF8100006980590FFE705980178002027
:1025B000019039B1FFE7059800782C3818BF012049
:1025C0000190FFE70198C00720B1FFE705980130AF
:1025D0000590EAE7059800782C2804D1FFE70598D4
:1025E00001300590FFE7059800F016F8ADF80E00F1
:1025F000BDF80E0028B9FFE74FF4FA60ADF80E0001
:10260000FFE7BDF91200BDF91010BDF80E20FEF76E
:102610007BFD08B080BD000080B582B001900198BC
:1026200000F0A6F9FDF7D1FD00900098B0F1FF3F52
:1026300003DCFFE70020009009E00098B0F5803F40
:1026400004DBFFE74FF6FF700090FFE7FFE7BDF800
:10265000000002B080BD000080B582B040F23910A9
:10266000C2F20000007808B9FFE712E040F239102A
:10267000C2F200000090027840F20910C2F200009D
:10268000002101918154FFF767FD009901980870BE
:10269000FFE702B080BD000081B08DF8030040F27A
:1026A000A810C2F20000007801308DF802009DF8F9
:1026B0000200602804D3FFE700208DF80200FFE746
:1026C0009DF8020040F2A911C2F200010978884287
:1026D00013D1FFE740F2A910C2F2000001780131E6
:1026E00001700078602807D3FFE740F2A911C2F219
:1026F000000100200870FFE7FFE79DF8030040F2AB
:10270000A811C2F200010B7840F24812C2F2000296
:10271000D0549DF80200087001B0704783B001905A
:1027200040F2A910C2F2000000788DF803009DF875
:10273000030040F2A811C2F200010978884204D1D6
:10274000FFE700208DF80B0021E09DF8031040F218
:102750004810C2F20000405C019908709DF8030027
:1027600001308DF803009DF80300602804D3FFE7D3
:1027700000208DF80300FFE79DF8030040F2A91147
:10278000C2F20001087001208DF80B00FFE79DF8F0
:102790000B0003B07047000080B58CB00B90ADF813
:1027A0002A1040F20810C2F20000007808B9FFE7D2
:1027B0000FE00B9ABDF92A3046F24D11C0F6000128
:1027C0000DF10A00019002F047FF019800F0BAF8FD
:1027D000FFE70CB080BD000080B58EB00D908DED90
:1027E0000C0A9DED0C0AB6EE002ABEEE001AB5EEFC
:1027F000400AF1EE10FAA8BFB0EE421A9FED1C2A73
:1028000020EE020A30EE010ABDEEC00A8DED050A87
:10281000059948F21F50C5F2EB1051FB00F251111F
:1028200001EBD2710491059A52FB00F1481100EBC3
:10283000D170642100FB112003900398B0F1FF3F99
:1028400004DCFFE7039840420390FFE70D9A049BE6
:1028500003986946086046F2E211C0F6000106A836
:10286000029002F0F9FE029800F06CF80EB080BD04
:102870000000C84280B546F2E900C0F6000000F052
:1028800061F846F22810C0F6000000F05BF800F096
:1028900001F880BDF0B5AFB010A8FEF741FB0AA863
:1028A000FEF720FB9DED100A46F2B910C0F60000BD
:1028B000FFF792FF46F2B110C0F60000089000F05A
:1028C00041F89DED110A46F2B610C0F60000FFF780
:1028D00083FF089800F036F89DED120A46F2B31017
:1028E000C0F60000FFF778FF089800F02BF8BDF95C
:1028F0002820BDF92A300B98DDF830C0DDF834E02F
:102900000E9C9DF83C509DF83D6040F20211C2F2D1
:1029100000010F7869468F614E610D61CC60C1F88E
:1029200008E0C1F804C0086046F27111C0F6000169
:1029300013A8099002F090FE099800F003F82FB058
:10294000F0BD000080B582B00190FFE701980078EB
:1029500060B1FFE70198017844F20040C4F2000042
:1029600002F0DAFB019801300190EFE702B080BD80
:1029700082B00190FFE7019801780020009009B330
:10298000FFE701980078302807DBFFE7019801781E
:1029900000203A29009015DBFFE70198017800201C
:1029A0002D2900900ED0FFE70198017800202B29F7
:1029B000009007D0FFE7019800782E3818BF01205B
:1029C0000090FFE70098C00720B1FFE701980130B1
:1029D0000190D0E7019802B07047000080B584B044
:1029E00002900191FFE701980078A0B1FFE70298FB
:1029F000007800F019F801990978884204D0FFE7BF
:102A000000208DF80F000AE0029801300290019832
:102A100001300190E7E701208DF80F00FFE79DF8F6
:102A20000F0004B080BD000081B08DF802009DF859
:102A3000020061280BDBFFE79DF802007A2806DC24
:102A4000FFE79DF8020020388DF8030004E09DF8B0
:102A500002008DF80300FFE79DF8030001B0704706
:102A600082B00190FFE701980178012020290090B1
:102A700008D0FFE7019800780938B0FA80F04009E3
:102A80000090FFE70098C00720B1FFE701980130F0
:102A90000190E8E7019802B07047000080B586B069
:102AA0008DF817009DF81700012811D1FFE740F6B7
:102AB0000040C4F20100039004214FF4807204929C
:102AC00000F0F6FB03980499012200F0FBFAFFE7FF
:102AD0009DF81700022811D1FFE740F60040C4F22C
:102AE0000100019004214FF40072029200F0E0FB1B
:102AF00001980299012200F0E5FAFFE706B080BDD7
:102B000080B582B08DF807009DF80700642100FBB6
:102B100001F242F60040C4F20100002100F0C2FEC2
:102B200002B080BD80B582B040F60000C4F2010062
:102B300006214FF4807200F0BBFB68460021016063
:102B400042F60040C4F201000E2244F6206300F079
:102B50004DFF02B080BD000080B540F22821C2F2D6
:102B600000010020087040F22921C2F2000108464D
:102B700000F05EF880BD000080B584B001F082FBFB
:102B800043F60000C4F2010002F016F944F20040DE
:102B9000C4F2000002F026F942F20040C4F2010043
:102BA00001900A21FEF7BAFF01980B21FEF7B6FF4C
:102BB00001980C21FEF7B2FF01980D21FEF7AEFF40
:102BC00001980F21FEF7AAFF0120029000F0A2FB5E
:102BD0000220039000F09EFB032000F09BFB0420EA
:102BE00000F098FB052000F095FB062000F092FB1A
:102BF00001F0B0F9FFF796FF002000F07BFC02988F
:102C000000F078FC00F09CF9FEF79EF902F090FCD1
:102C1000FFF7A2FF02F08CFAFEF7FCFB00F078FB56
:102C20000298FFF73BFF0398FFF738FF04B080BD21
:102C300080B582B001900091019802F099FC009853
:102C400002F096FC02B080BD82B001900198B0F114
:102C5000FF3F04DCFFE701984042009002E001984A
:102C60000090FFE7009802B07047000080B582B086
:102C70008DF80700ADF804100092BDF9040001289A
:102C800007DBFFE79DF80700009A012100F0A4FC94
:102C900014E0BDF90400B0F1FF3F07DCFFE79DF849
:102CA0000700009A022100F097FC06E09DF807005B
:102CB0000022114600F090FCFFE7FFE702B080BD64
:102CC00082B000900098B0F5004F05DBFFE747F6B3
:102CD000FF70ADF806000DE0009810F5004F05DA22
:102CE000FFE74FF40040ADF8060003E00098ADF8B0
:102CF0000600FFE7BDF9060002B0704780B58AB054
:102D00000890ADF81E1006920593BDF91E0030B96B
:102D1000FFE7089801F046F9002009903AE008988A
:102D20000290BDF91E00FFF78FFF00EE100AB8EE0B
:102D3000C00A8DED010A0698FFF786FF9DED010A96
:102D40000146029801EE101AF8EEC10A01F034F9BA
:102D50008DED030A05989DED030ABDEEC00A10EE45
:102D6000101A084404900498B0F5967F04DAFFE73F
:102D70004FF4967004900AE0049842F21171884270
:102D800004DBFFE742F210700490FFE7FFE70498CE
:102D90000990FFE709980AB080BD000080B582B0B5
:102DA00040F2AC10C2F20000407D08B9FFE758E0E5
:102DB00040F23020C2F200000088400140F20011D1
:102DC000C2F200010988B0FBF1F0ADF80600BDF8D1
:102DD0000600202804D3FFE71F20ADF80600FFE718
:102DE00040F22E20C2F20000B0F9000040F22C2187
:102DF000C2F20001B1F90010BDF8063046F24C02F3
:102E0000C0F6000232F91320514344F6D352C1F206
:102E1000620251FB02F2911101EBD2710844009061
:102E20000098FFF74DFF40F2AC11C2F2000108809C
:102E30000888488040F23020C2F200000188013149
:102E40000180008840F20011C2F200010988884226
:102E500007DBFFE740F23021C2F2000100200880CA
:102E6000FFE702B080BD000082B00190019808B970
:102E7000FFE712E040F2D010C2F2000000680090BC
:102E8000FFE740F2D010C2F2000000680099401A3B
:102E90000199884201D2FFE7F3E702B070470000D2
:102EA00085B00490049808B9FFE747E04EF2180097
:102EB000CEF2000000680390049840F23821C2F27C
:102EC0000001096848430290049840F23C21C2F294
:102ED0000001096848434DF68361C4F21B31A0FB31
:102EE0000101029800EB9140029002980190FFE7E7
:102EF0000198012822DBFFE74EF21800CEF2000015
:102F00000068009000980399884207D8FFE7039A69
:102F100000990198891A084401900CE003984EF238
:102F20001401CEF200010968009A891A014401983F
:102F3000401A0190FFE700980390D9E705B0704769
:102F400080B58EB00AA8029001F022FF0020049004
:102F5000ADF82800ADF82A00ADF82C004FF6FF714F
:102F60000C91ADF82E0040F2026000F0B7FF40F681
:102F70000000C4F20100042103220392C32300F0E5
:102F8000BFF84FF4E06000F0A9FF02994FF08040D5
:102F9000019001F059FD01980399049B1A4601F034
:102FA000C3FE019804994FF4702209924FF48032C5
:102FB000089208AA069201F0C9FD0198069A01211B
:102FC000059101F0C3FD019801F014FD40F201707C
:102FD00000F084FF029940F20040C4F20000079024
:102FE00001F032FD0399049B07981A4601F09CFEFC
:102FF0000499069A079801F0A9FD0599069A079881
:1030000001F0A4FD079801F0F5FC0EB080BD0000B2
:1030100080B582B0019000919DF8041043F6000045
:10302000C4F2010002F0A6F9FFE743F60000C4F283
:103030000100072102F00EFA08B9FFE7F5E7019851
:1030400002B080BD80B588B0FFE740F2D010C2F278
:103050000000006807904EF21800CEF200000068F1
:103060000690FFE7079840F2D011C2F2000109680C
:103070008842EAD1FFE74EF21400CEF20000006869
:103080000699401A0390039844F24021C0F20F01C0
:10309000A0FB010140F23422C2F2000212680023B8
:1030A000FDF762F801910090079A009801994FF49A
:1030B0007A73E2FB0301059104900498059908B026
:1030C00080BD0000002A08BF00F002B800F008B878
:1030D00082B00190009100980199486102B0704758
:1030E00082B00190009100980199086102B0704788
:1030F00080B500F0C7F8002818BF012080BD00008F
:1031000087B00690059104920393002001900090EF
:10311000059800F00F0001909DF81400C0060028EB
:1031200014D5FFE7049804280AD1FFE7019840F07E
:1031300003000190039A0699C86B1043C86304E02A
:103140000499019808430190FFE7FFE70020ADF8DC
:103150000A00FFE7BDF80A00072842D8FFE7BDF8DC
:103160000A100398C840C007A0B3FFE7069800689C
:103170000090BDF80A0081000F2000FA01F10098CC
:10318000884300900198BDF80A10890000FA01F107
:103190000098084300900598282809D1FFE7BDF85A
:1031A0000A100120884003990840069948610DE003
:1031B0000598482809D1FFE7BDF80A10012088408A
:1031C0000399084006990861FFE7FFE70098069910
:1031D0000860FFE7FFE7BDF80A000130ADF80A001C
:1031E000B8E70820ADF80A00FFE7BDF80A000F288D
:1031F00046D8FFE7BDF80A100398C840C007C0B31F
:10320000FFE7069840680090BDF80A006FF01F01C4
:1032100001EB80020F2000FA02F200989043009028
:103220000198BDF80A2001EB820100FA01F1009833
:10323000084300900598282809D1FFE7BDF80A1037
:103240000120884003990840069948610DE00598DF
:10325000482809D1FFE7BDF80A10012088400399EA
:10326000084006990861FFE7FFE700980699486063
:10327000FFE7FFE7BDF80A000130ADF80A00B4E748
:1032800007B0704783B00190009101988068009961
:10329000084204D0FFE701208DF80B0003E0002076
:1032A0008DF80B00FFE79DF80B0003B0704700009E
:1032B00070B51446A0F18042A2F584324FEAB222E2
:1032C000062A0D4607D802F2026189B20646084670
:1032D00000F004FE3046072D88BF70BD04A151F8F0
:1032E000251003222346BDE87040FFF709BF00BF49
:1032F000000000000400000028000000480000005A
:103300001000000014000000180000001C00000065
:103310007047000080B584B08DF80F000020029047
:10332000FFE70298052832D8FFE70298010140F232
:103330009400C2F20000405C9DF80F10884221D139
:10334000FFE7029940F29400C2F20000019000EB06
:10335000011148688A680321FFF7AAFF01990298C2
:1033600001EB001201201073029A01EB021250735C
:10337000029801EB001200209073029A01EB0211F7
:10338000C87304E0FFE7029801300290C9E704B077
:1033900080BD000080B582B0002000900190FFF752
:1033A000EBFB0098FFF7ACFBFFF7D6FBFDF77CFFCC
:1033B000FDF7B4FCFFE7FDF729FD40F2C810C2F2AB
:1033C00000000A2100F040FA28B1FFE7FDF794FF62
:1033D000FDF7F0FCFFE70120FFF746FDEBE70000FB
:1033E00080B584B08DF80F00ADF80C10BDF80C005E
:1033F00042F21171884204DBFFE742F21070029042
:1034000003E0BDF80C000290FFE70298ADF80C0055
:103410009DF80F0080B9FFE7BDF80C2043F2004093
:10342000C4F201000190022100F03CFA019803214E
:10343000002200F037FA15E09DF80F00012810D1A6
:10344000FFE7BDF80C2043F20040C4F201000090F9
:10345000012100F027FA00980022114600F022FA1C
:10346000FFE7FFE704B080BD80B586B08DF8170098
:10347000ADF81410BDF8140042F21171884204DB5B
:10348000FFE742F21070049003E0BDF814000490CE
:10349000FFE70498ADF814009DF8170080B9FFE726
:1034A00043F20040C4F2010003900221002200F028
:1034B000F9F90398BDF81420032100F0F3F916E0A0
:1034C0009DF81700012811D1FFE743F20040C4F234
:1034D0000100019001210022029200F0E3F901981D
:1034E0000299BDF8142000F0DDF9FFE7FFE706B010
:1034F00080BD000080B58EB08DF837009DF8370094
:1035000088BBFFE741F20000C4F2010007900621EA
:1035100008914FF40072FFF7CBFE079808994FF41B
:103520008072FFF7C5FE4FF0804001F063F96946F5
:1035300000200990086043F20040C4F201000A90A4
:1035400003210C220B924FF47A730C9300F04EFA85
:1035500009990A980B9A0C9BEC46CCF800100221B2
:1035600000F044FA35E09DF83700012830D1FFE73C
:1035700041F20000C4F20100019006210291802274
:10358000FFF796FE019802994022FFF791FE40F264
:103590000040C4F2000001F02DF9694600200490BB
:1035A000086043F20040C4F20100039001210C22A4
:1035B00005924FF47A73069300F018FA0398049971
:1035C000059A069BEC46CCF8001000F00FFAFFE7D6
:1035D000FFE70EB080BD000080B58CB08DF82F00E5
:1035E0008DF82E100A920A98B0F1FF3F03DCFFE736
:1035F00000200A900AE00A9842F21171884204DB26
:10360000FFE742F210700A90FFE7FFE70A9842F2E4
:103610001071484348F6AD31C6F6DB0150FB01F1AD
:10362000080B00EBD170ADF826009DF82F00014685
:103630000891012804D0FFE7089802282FD05FE006
:103640009DF82E000146079140B1FFE70798012839
:103650000ED0FFE70798022810D015E00021069150
:103660000846FFF701FF06990846FFF7B9FE15E087
:10367000BDF826100020FFF7F7FE0FE0BDF826107A
:103680000020FFF7ADFE09E0002105910846FFF795
:10369000EBFE05990846FFF7A3FEFFE730E09DF833
:1036A0002E000146049140B1FFE7049801280FD095
:1036B000FFE70498022811D016E0012002900021B3
:1036C0000391FFF7D1FE02980399FFF789FE16E0F8
:1036D000BDF826100120FFF7C7FE10E0BDF8261048
:1036E0000120FFF77DFE0AE00120009000210191FA
:1036F000FFF7BAFE00980199FFF772FEFFE7FFE7B8
:103700000CB080BD80B584B08DF80F008DF80E1020
:103710008DF80D2000200290019000904EF60C5084
:10372000CEF20000006800F4E060B0F5E06F05D173
:10373000FFE700200190042000904AE04EF60C5074
:10374000CEF20000006800F4E060B0F5C06F05D173
:10375000FFE7012001900320009039E04EF60C5065
:10376000CEF20000006800F4E060B0F5A06F04D174
:10377000FFE702200190009029E04EF60C50CEF2B7
:103780000000006800F4E060B0F5806F05D1FFE74D
:10379000032001900120009018E04EF60C50CEF26C
:1037A0000000006800F4E060B0F5407F05D1FFE75D
:1037B000042001900020009007E04FF4A06000F08A
:1037C00035F8022001900090FFE7FFE7FFE7FFE7F1
:1037D000FFE79DF80E000199C1F1040188400290B5
:1037E0009DF80D000099C1F104020F21D140014064
:1037F00002980843029002980001029002989DF8F6
:103800000F104EF20042CEF2000288549DF80F20B5
:1038100002F01F01012088401C2101EAD2014EF272
:103820000012CEF20002885004B080BD81B000903A
:1038300000980021C0F2FA5108434EF60C51CEF226
:103840000001086001B0704780B588B0069005910E
:10385000FFF7F8FB0391029005984FF47A71A0FBF3
:10386000010101910090029A039806990B6849683A
:10387000D21A8841009B0199D21A884109D3FFE7E7
:103880000298039A06994A60086001208DF81F008B
:1038900003E000208DF81F00FFE79DF81F0008B02F
:1038A00080BD000080B586B005900491ADF80E2073
:1038B000059842F60041C4F20101884208D1FFE7B1
:1038C00040F2EA10C2F200000088ADF80C0051E0AE
:1038D0000598B0F1804F08D1FFE740F2EA10C2F23C
:1038E00000004088ADF80C0043E0059840F200412C
:1038F000C4F20001884208D1FFE740F2EA10C2F2A8
:1039000000008088ADF80C0032E0059840F6000118
:10391000C4F20001884208D1FFE740F2EA10C2F287
:103920000000C088ADF80C0021E0059840F6004189
:10393000C4F20001884208D1FFE740F2EA10C2F267
:1039400000000089ADF80C0010E0059843F200413A
:10395000C4F20101884208D1FFE740F2EA10C2F246
:1039600000004089ADF80C00FFE7FFE7FFE7FFE745
:10397000FFE7FFE705980290BDF810000190BDF841
:103980000C00BDF80E1000F007F8019902460298ED
:1039900000F0C6FE06B080BD82B0ADF80200ADF802
:1039A0000010BDF8020018B9FFE70020019019E0EF
:1039B000BDF8000042F21071884205DBFFE7BDF858
:1039C0000200023801900DE0BDF80000BDF80210C1
:1039D000484341F25971CDF2B711A0FB0110400BE1
:1039E0000190FFE7019802B07047000080B58EB0EB
:1039F00084461098CDF834C0ADF83210ADF83020C0
:103A0000ADF82E30ADF82C004FF4C06000F066FA2F
:103A10000D9842F60041C4F20101884213D1FFE73C
:103A200042F60040C4F20100012101F065F940F2C4
:103A30000B6000F053FABDF82E0040F2EA11C2F21A
:103A4000000108806CE00D98B0F1804F0CD1FFE7C9
:103A50004FF4E06000F042FABDF82E0040F2EA11A7
:103A6000C2F2000148805AE00D9840F20041C4F2D1
:103A7000000188420CD1FFE740F2017000F02EFAFD
:103A8000BDF82E0040F2EA11C2F20001888045E044
:103A90000D9840F60001C4F2000188420CD1FFE706
:103AA00040F2027000F01AFABDF82E0040F2EA115E
:103AB000C2F20001C88030E00D9840F60041C4F227
:103AC000000188420CD1FFE740F2037000F006FAD3
:103AD000BDF82E0040F2EA11C2F2000108811BE09D
:103AE0000D9843F20041C4F20101884213D1FFE76F
:103AF00043F20040C4F20100012101F0FDF840F260
:103B00000D6000F0EBF9BDF82E0040F2EA11C2F2B0
:103B100000014881FFE7FFE7FFE7FFE7FFE7FFE777
:103B2000BDF830000138ADF81C0000200290ADF85F
:103B30001E001021ADF82010BDF82E10013909919A
:103B4000ADF822008DF828000D9807A900F07CFF41
:103B50000298ADF8140001210391ADF81010ADF8F2
:103B60001600ADF81200ADF81800ADF81A000D9867
:103B7000BDF8321004AA00F025FC0D980190BDF8A4
:103B800032000090BDF82E00BDF82C10FFF704FFA6
:103B900000990246019800F0C3FD0D98BDF832105F
:103BA000602200F077FD029A0D98BDF8321000F007
:103BB000DBFD03990D9801F09FF80D9800F0B2FB22
:103BC0000D9800F017FF0EB080BD000084B0039088
:103BD00041F20400C4F2020000680290029843F629
:103BE000FF71CEF6FF710840029041F22C00C4F242
:103BF000020000680190019820F0005001900398A5
:103C0000009004280DD3FFE7009805280FD0FFE7A8
:103C1000009807280BD0FFE700980838042812D333
:103C20001FE00399029840EA813002901AE003985D
:103C300020F0040003900399029840EA813040F09C
:103C4000805002900EE0039820F00C00039003993E
:103C5000029840EA81300290019840F000500190B3
:103C600000E0FFE7029841F20401C4F2020108609B
:103C7000019841F22C01C4F20201086004B07047BF
:103C80009BB08DF86B000020189040F20671C0F6D2
:103C90000811099140F20121C0F2034108910790F7
:103CA0000690059104900391029041F20400C4F241
:103CB00002000068C0F3810019901998019040B18A
:103CC000FFE7019801280AD0FFE7019802280CD0ED
:103CD000BAE041F20020C0F27A001790BAE047F64D
:103CE0004000C0F27D101790B4E041F20400C4F22D
:103CF0000200006800F4803013901398B0F5803F04
:103D000053D1FFE741F22C00C4F20200006800F03A
:103D100080401290129830B9FFE747F64000C0F299
:103D20007D100F9005E046F60040C0F2DC200F90B9
:103D3000FFE741F22C00C4F20200006800F480307A
:103D400011901198B0F5803F20D1FFE741F22C008F
:103D5000C4F202000168CAB2012101EB12110B91F9
:103D6000006800F47061022000EB11200A900A98AC
:103D7000112803D1FFE714200A90FFE70F980B9951
:103D8000B0FBF1F00A9948430F90FFE741F22C0095
:103D9000C4F20200006800F00F0001300C900C9992
:103DA0000F98B0FBF1F00F9005E040F60010C0F264
:103DB0003D000F90FFE741F20400C4F202000168E9
:103DC000C1F38341109100688000002805D5FFE70A
:103DD000109840F010001090FFE741F20400C4F288
:103DE000020000684000002805D5FFE7109840F069
:103DF00020001090FFE710980E2804D8FFE71098D5
:103E0000023010900FE010980F2808D3FFE71098A9
:103E10003E2804D8FFE710980130109002E03F20C0
:103E20001090FFE7FFE70F981099484317901098FC
:103E30000F2808D1FFE70F9901EB4100400000EB8C
:103E400051001790FFE705E041F20020C0F27A0030
:103E50001790FFE741F20400C4F202000168C9B202
:103E600009090E910E9A06A9895C0D9117990D9A70
:103E7000D14016910168C1F302210E910E9A04A956
:103E8000895C0D9116990D9AD14015910068C0F387
:103E9000C2200E900E9902A8405C0D9016980D99C4
:103EA000C84014909DF86B0001460091032810D87B
:103EB0000099DFE801F00205080B1798189009E057
:103EC0001698189006E01598189003E0149818902A
:103ED00000E0FFE718981BB07047000081B0ADF814
:103EE0000200BDF8020000F01F02012101FA02F3F6
:103EF000810941F20002C4F2020288581843885036
:103F000001B0704781B0ADF80200BDF8020000F0CA
:103F10001F02012101FA02F3810941F20002C4F2F9
:103F2000020288589843885001B0704781B0ADF8BC
:103F30000200BDF8020000F01F02012101FA02F3A5
:103F4000810941F20002C4F20202885818438850E5
:103F500001B0704780B540F60040C4F20100032173
:103F60002022FFF7A5F980BD85B004908DED030AEE
:103F7000CDED020A8DED011ACDED001A03980499DA
:103F8000086002980499486001980499886004992F
:103F90000020C8600499086100980499486105B040
:103FA0007047000081B0009000990020C86000991F
:103FB000086101B07047000086B005908DED040ADD
:103FC000CDED030A9DED040A9DED031A30EE410A82
:103FD0008DED020A9DED021A059890ED030A30EE70
:103FE000010A80ED030A059890ED030A90ED051A89
:103FF000B4EE410AF1EE10FA04DDFFE705994869D5
:10400000C86015E0059890ED030A90ED051AB1EE31
:10401000411AB4EE410AF1EE10FA08DAFFE705980A
:1040200090ED050AB1EE400A80ED030AFFE7FFE7D5
:104030009DED020A059890ED041A30EE410A8DEDCF
:10404000010A02980599086105989DED023A90EDE4
:10405000001A90ED012A90ED020A90ED034A22EE3B
:10406000042A21EE031A31EE021A9DED012A20EEF8
:10407000020A30EE010A8DED000A9DED000A059856
:1040800090ED051AB4EE410AF1EE10FA04DDFFE7F7
:1040900005984069009015E09DED000A059890EDA7
:1040A000051AB1EE411AB4EE410AF1EE10FA08DA3F
:1040B000FFE7059890ED050AB1EE400A8DED000A84
:1040C000FFE7FFE79DED000A06B0704784B00020CF
:1040D0000390029041F20001C4F20201086840F42A
:1040E00080300860FFE703980130039041F2000040
:1040F000C4F20200006800F400300290FFE7029969
:104100000020019041B9FFE703984FF6FF71401A74
:1041100018BF01200190FFE70198C0070028E2D1F5
:10412000FFE741F20000C4F20200006880030028AB
:1041300002D4FFE7FFE7FEE741F21C01C4F20201EF
:10414000086840F08050086047F20001C4F20001A6
:10415000086840F44040086041F20401C4F20201E2
:1041600000910868086008680860086840F480608A
:10417000086008684FF6FF72C9F6C3721040086005
:1041800008680022C2F235021043086041F22C0197
:10419000C4F2020108684FF20002CBF6FE72104032
:1041A0000860086840F24962C0F2010210430860EA
:1041B00041F20001C4F20201086840F0806008602A
:1041C000FFE741F20000C4F202000068000100288D
:1041D00001D4FFE7F5E741F20001C4F202010868EB
:1041E00040F080700860FFE741F20000C4F2020076
:1041F00000688001002801D4FFE7F5E747F20001DD
:10420000C4F20001086840F480300860FFE747F21C
:104210000400C4F200000068C003002801D4FFE7D6
:10422000F5E747F20001C4F20001086840F40030ED
:104230000860FFE747F20400C4F200000068800352
:10424000002801D4FFE7F5E741F20401C4F20201BE
:10425000086820F003000860086840F00200086069
:10426000FFE741F20400C4F20200006800070028E2
:1042700001D4FFE7F5E704B07047000080B5FFF711
:1042800025FF80BD80B582B040F20800C2F2000078
:10429000016840F23420C2F20000016001684DF66E
:1042A0008362C4F21B32A1FB0231890C40F2382335
:1042B000C2F2000319600168A1FB0232920C43F6BE
:1042C00009535A43A1EB821140F23C22C2F2000290
:1042D0001160006844F6D351C1F26201A0FB0110E5
:1042E000800901900198B0F1807F07D3FFE746F283
:1042F0009600C0F6000001F09FF9FFE70198FDF776
:1043000005F938B1FFE746F28C00C0F6000001F075
:1043100093F9FFE74FF0FF300021FDF7CBF802B033
:1043200080BD000081B000900099086840F08000D6
:10433000086001B07047000083B00290ADF806102D
:10434000ADF80420BDF8060001460091032836D8D8
:104350000099DFE801F0020E1B270299886920F01E
:104360000C008861BDF804200299886910438861B7
:1043700026E00299886920F440608861BDF8042035
:104380000299886940EA0220886119E00299C869A7
:1043900020F00C00C861BDF804200299C8691043E0
:1043A000C8610DE00299C86920F44060C861BDF899
:1043B00004200299C86940EA0220C86100E0FFE7D2
:1043C00003B0704784B00390ADF80A100192BDF8B5
:1043D0000A0001460091032800F259810099DFE8A4
:1043E00011F004005D00BC001B010399086A20F075
:1043F000010008620399886920F003008861019830
:1044000002880399086A104308620399086A20F039
:1044100002000862019882880399086A10430862C2
:10442000039842F60041C4F20101884208D0FFE738
:10443000039843F20041C4F2010188422DD1FFE705
:104440000399086A20F004000862019842880399E1
:10445000086A104308620399086A20F0080008629D
:104460000198C2880399086A104308620399486852
:1044700020F48070486001980289039948681043CD
:1044800048600399486820F40070486001984289A8
:104490000399486810434860FFE7F9E00399086A08
:1044A00020F0100008620399886920F44070886148
:1044B000019802880399086A40EA02100862039989
:1044C000086A20F020000862019882880399086A2F
:1044D00040EA02100862039842F60041C4F201016A
:1044E000884208D0FFE7039843F20041C4F201017B
:1044F000884231D1FFE70399086A20F04000086242
:10450000019842880399086A40EA021008620399F8
:10451000086A20F0800008620198C2880399086A3E
:1045200040EA021008620399486820F480604860FD
:10453000019802890399486840EA8200486003991B
:10454000486820F4006048600198428903994868EF
:1045500040EA82004860FFE79AE00399086A20F485
:10456000807008620399C86920F00300C86101984F
:1045700002880399086A40EA022008620399086ADF
:1045800020F400700862019882880399086A40EA62
:1045900002200862039842F60041C4F201018842F9
:1045A00008D0FFE7039843F20041C4F201018842BA
:1045B00031D1FFE70399086A20F48060086201980E
:1045C00042880399086A40EA022008620399086A4F
:1045D00020F4006008620198C2880399086A40EAE2
:1045E000022008620399486820F4805048600198CE
:1045F00002890399486840EA0210486003994868B4
:1046000020F400504860019842890399486840EAC4
:1046100002104860FFE73BE00399086A20F48050ED
:1046200008620399C86920F44070C8610198028843
:104630000399086A40EA023008620399086A20F484
:1046400000500862019882880399086A40EA0230A3
:104650000862039842F60041C4F20101884208D082
:10466000FFE7039843F20041C4F2010188420DD1F3
:10467000FFE70399486820F4804048600198028968
:104680000399486840EA82104860FFE700E0FFE7CE
:1046900004B0704783B00290ADF80610ADF8042066
:1046A000BDF8060001460091032836D80099DFE8DE
:1046B00001F0020E1B270299886920F070008861C2
:1046C000BDF80420029988691043886126E00299A8
:1046D000886920F4E0408861BDF804200299886967
:1046E00040EA0220886119E00299C86920F0700050
:1046F000C861BDF804200299C8691043C8610DE083
:104700000299C86920F4E040C861BDF8042002990C
:10471000C86940EA0220C86100E0FFE703B07047C3
:1047200084B00390ADF80A100192BDF80A0001466A
:104730000091032814D80099DFE801F002060A0E60
:104740000198039948630CE001980399886308E095
:1047500001980399C86304E001980399086400E094
:10476000FFE704B07047000083B00290ADF8061078
:10477000ADF80420BDF8060001460091032836D8A4
:104780000099DFE801F0020E1B270299886920F0EA
:1047900008008861BDF80420029988691043886187
:1047A00026E00299886920F400608861BDF8042041
:1047B0000299886940EA0220886119E00299C86973
:1047C00020F00800C861BDF804200299C8691043B0
:1047D000C8610DE00299C86920F40060C861BDF8A5
:1047E00004200299C86940EA0220C86100E0FFE79E
:1047F00003B0704780B590B00F900F980E90B0F155
:10480000804F74D0FFE70E9840F20041C4F20001DF
:10481000884275D0FFE70E9840F60001C4F200010F
:10482000884276D0FFE70E9840F60041C4F20001BE
:10483000884277D0FFE70E9841F20001C4F20001F0
:10484000884278D0FFE70E9841F20041C4F200019F
:10485000884279D0FFE70E9841F60001C4F20001CA
:10486000884200F09E80FFE70E9841F60041C4F2B6
:104870000001884200F09E80FFE70E9842F200019E
:10488000C4F20001884200F09E80FFE70E9842F6D5
:104890000041C4F20101884220D0FFE70E9843F2A4
:1048A0000041C4F20101884257D0FFE70E9844F658
:1048B0000041C4F20101884258D0FFE70E9845F24A
:1048C0000001C4F20101884259D0FFE70E9845F279
:1048D0000041C4F2010188425AD07DE040F20B3021
:1048E0000D90FFF723FB0D98FFF70CFB75E04FF4DD
:1048F00080600C90FFF71AFB0C98FFF703FB6CE04D
:1049000040F201400B90FFF711FB0B98FFF7FAFA0A
:1049100063E040F202400A90FFF708FB0A98FFF7B5
:10492000F1FA5AE040F203400990FFF7FFFA0998C4
:10493000FFF7E8FA51E040F204400890FFF7F6FA7A
:104940000898FFF7DFFA48E040F205400790FFF7CC
:10495000EDFA0798FFF7D6FA3FE040F20D300690E7
:10496000FFF7E4FA0698FFF7CDFA36E040F213308D
:104970000590FFF7DBFA0598FFF7C4FA2DE04FF436
:1049800045700490FFF7D2FA0498FFF7BBFA24E0D1
:1049900040F215300390FFF7C9FA0398FFF7B2FA17
:1049A0001BE040F206400290FFF7C0FA0298FFF7C2
:1049B000A9FA12E040F207400190FFF7B7FA019818
:1049C000FFF7A0FA09E04FF481600090FFF7AEFA1C
:1049D0000098FFF797FA00E0FFE710B080BD0000F5
:1049E00081B000900099086820F00100086001B0D3
:1049F0007047000081B000900099086840F0010005
:104A0000086001B07047000082B0019000910098EA
:104A1000C0430199086102B07047000083B0019063
:104A20000091019800690099084204D0FFE7012035
:104A30008DF80B0003E000208DF80B00FFE79DF8D8
:104A40000B0003B07047000082B001900091009805
:104A5000008801998862019842F60041C4F2010180
:104A6000884225D0FFE70198B0F1804F20D0FFE7C2
:104A7000019840F20041C4F20001884218D0FFE7DB
:104A8000019840F60001C4F20001884210D0FFE70F
:104A9000019840F60041C4F20001884208D0FFE7C7
:104AA000019843F20041C4F20101884212D1FFE7AC
:104AB0000199086820F07000086000984288019908
:104AC00008681043086000988288019908681043BC
:104AD0000860FFE7009880680199C862019841F278
:104AE0000001C4F20001884214D0FFE7019841F2AE
:104AF0000041C4F2000188420CD0FFE70199086828
:104B000020F4407008600098C2880199086810433A
:104B10000860FFE7019842F60041C4F201018842B3
:104B200008D0FFE7019843F20041C4F20101884236
:104B300005D1FFE70098007B01990863FFE7019921
:104B4000486940F00100486102B0704780B584B008
:104B50000390ADF80A100192BDF80A0001460091D9
:104B6000032800F2BE800099DFE801F0022F5E8C7E
:104B70000399086A20F0010008620399086A20F08E
:104B80000A000862019802880399086A10430862C3
:104B90000399886920F0030088610198428803998D
:104BA0008869104388610399886920F0F000886162
:104BB0000198C2880399886940EA021088610399C4
:104BC000086A40F0010008628CE00399086A20F04E
:104BD000100008620399086A20F0A000086201989A
:104BE00002880399086A40EA0210086203998869FA
:104BF00020F440708861019842880399886940EAEE
:104C0000022088610399886920F4704088610198C6
:104C1000C2880399886940EA023088610399086A6A
:104C200040F0100008625DE00399086A20F480708B
:104C300008620399086A20F42060086201980288DB
:104C40000399086A40EA022008620399C86920F0C3
:104C50000300C861019842880399C8691043C8617C
:104C60000399C86920F0F000C8610198C2880399CF
:104C7000C86940EA0210C8610399086A40F480706C
:104C800008622FE00399086A20F4805008620399B3
:104C9000086A20F400500862019802880399086AA3
:104CA00040EA023008620399C86920F44070C86184
:104CB000019842880399C86940EA0220C8610399B3
:104CC000C86920F47040C8610198C2880399C86916
:104CD00040EA0230C8610399086A40F480500862D3
:104CE00000E0FFE70398BDF80A10019A9288FFF7E9
:104CF00023FB04B080BD000082B001908DF803104A
:104D00009DF80300012806D1FFE70199486C40F4A3
:104D10000040486405E00199486C20F40040486474
:104D2000FFE702B07047000083B002900191ADF838
:104D30000220ADF800300299886820F007008860F2
:104D4000019A02998868104388600299886940F244
:104D50000332904388610299886940F2011210433E
:104D600088610299086A20F00A0008620299086ABC
:104D700020F0A0000862BDF80200BDF8001040EA73
:104D800001120299086A1043086203B070470000DC
:104D900081B0009000990020088000994880009917
:104DA0008880009A4FF6FF7191600099C880009941
:104DB000087301B07047000080B584B00390039879
:104DC00069464FF4E1324A6008604FF4007140F6E2
:104DD0000002C4F201024FF48063104600F016F89E
:104DE00004B080BD80B584B00390039869464FF449
:104DF000E1324A600860042140F60002C4F2010278
:104E00000823104600F002F804B080BD80B586B0DB
:104E1000DDF824C0DDF820C00590049103920293D0
:104E20004FF4C060FFF75AF8089843F60001C4F247
:104E30000101884205D1FFE740F20E60FFF74EF80E
:104E400037E0089844F20041C4F20001884205D1DD
:104E5000FFE740F21170FFF741F829E0089844F6A7
:104E60000001C4F20001884205D1FFE740F2127050
:104E7000FFF734F81BE0089844F60041C4F2000143
:104E8000884205D1FFE740F21370FFF727F80DE0E5
:104E9000089845F20001C4F20001884205D1FFE7FD
:104EA00040F21470FFF71AF8FFE7FFE7FFE7FFE7AC
:104EB000FFE7059840F60001C4F20101884205D1E0
:104EC000FFE740F20260FFF709F853E0059840F66B
:104ED0000041C4F20101884205D1FFE740F20360BE
:104EE000FEF7FCFF45E0059841F20001C4F2010124
:104EF000884205D1FFE740F20460FEF7EFFF37E09C
:104F0000059841F20041C4F20101884205D1FFE752
:104F100040F20560FEF7E2FF29E0059841F6000146
:104F2000C4F20101884205D1FFE740F20660FEF7B6
:104F3000D5FF1BE0059841F60041C4F2010188420B
:104F400005D1FFE740F20760FEF7C8FF0DE00598C6
:104F500042F20001C4F20101884205D1FFE74FF49B
:104F6000C160FEF7BBFFFFE7FFE7FFE7FFE7FFE7F3
:104F7000FFE7FFE70598049B18210322FEF7C0F81E
:104F8000039840F60001C4F20101884205D1FFE711
:104F900040F20260FEF7A2FF53E0039840F60041A2
:104FA000C4F20101884205D1FFE740F20360FEF739
:104FB00095FF45E0039841F20001C4F201018842E7
:104FC00005D1FFE740F20460FEF788FF37E0039861
:104FD00041F20041C4F20101884205D1FFE740F2ED
:104FE0000560FEF77BFF29E0039841F60001C4F25B
:104FF0000101884205D1FFE740F20660FEF76EFF2F
:105000001BE0039841F60041C4F20101884205D13A
:10501000FFE740F20760FEF761FF0DE0039842F200
:105020000001C4F20101884205D1FFE74FF4C160DD
:10503000FEF754FFFFE7FFE7FFE7FFE7FFE7FFE7C4
:10504000FFE70398029B042101910322FEF758F821
:10505000089800F099F90898099900F01DF901994C
:10506000089800F039FA0898082100F04BFA0898DF
:1050700000F0E6F906B080BD80B582B00190ADF8D1
:1050800002108DF801208DF800309DF8010030B13C
:10509000FFE70198BDF8021000F00CFA05E0019856
:1050A000BDF8021000F0F4F9FFE79DF800000022BF
:1050B0001146FEF727FB02B080BD000080B582B02C
:1050C000019000910198009900F054F9FFE70198D0
:1050D000072100F0BFF908B9FFE7F8E702B080BD8B
:1050E00080B584B0029001910298052100F0B2F9D8
:1050F00048B1FFE7029800F035F9019908800120D6
:105100008DF80F0003E000208DF80F00FFE79DF8F9
:105110000F0004B080BD000080B582B001908DF812
:10512000031001989DF80310FFF7C8FF02B080BD7F
:1051300080B582B04FF4C060FEF7D0FE41F20000AF
:10514000C4F20100019004214FF400620092FEF7C6
:10515000AFF8009901980022FDF7B4FF01980221F1
:105160004FF48062FEF7A4F802B080BD82B0242024
:10517000C4F200000068ADF8060040F22440C4F21A
:1051800000000068ADF8040040F24020C2F20000C8
:105190000088BDF80610401AADF80200BDF8040002
:1051A00040F24221C2F200010988401AADF8000025
:1051B000BDF9020047F6FF71884207DBFFE7BDF843
:1051C0000200A0F58030ADF802000DE0BDF902004C
:1051D00010F5004F07DCFFE7BDF8020000F5803056
:1051E000ADF80200FFE7FFE7BDF9000047F6FF71E9
:1051F000884207DBFFE7BDF80000A0F58030ADF87E
:1052000000000DE0BDF9000010F5004F07DCFFE7DE
:10521000BDF8000000F58030ADF80000FFE7FFE7C3
:10522000BDF9022040F2DC11C2F20001086810440E
:105230000860BDF9002040F2E411C2F200010868E4
:10524000104408604FF08040006800F01001012019
:1052500080EA111040F2E011C2F20001087040F241
:105260000040C4F200000068C0F3001040F2E811F2
:10527000C2F200010870BDF8060040F24021C2F2FF
:1052800000010880BDF8040040F24221C2F2000192
:10529000088002B07047000080B588B00790069182
:1052A000002005900490039002900798019044F22A
:1052B0000041C4F20001884225D0FFE7019844F67E
:1052C0000001C4F20001884222D0FFE7019844F6B1
:1052D0000041C4F2000188421FD0FFE7019845F267
:1052E0000001C4F2000188421CD0FFE7019843F698
:1052F0000001C4F20101884219D1FFE70320FEF743
:10530000BFFC059014E00220FEF7BAFC05900FE008
:105310000220FEF7B5FC05900AE00220FEF7B0FC83
:10532000059005E00220FEF7ABFC059000E0FFE7EA
:105330000598069900EB5100B0FBF1F0029002983D
:105340004FF6F07108400490029800F00F000390AF
:10535000BDF81000BDF80C1008430799886008B02C
:1053600080BD000081B00090009840686FF35F201E
:1053700001B0704782B00190009100986FF35F20F8
:105380000199486002B0704780B588B007900798CF
:10539000069044F20041C4F20001884229D0FFE7A0
:1053A000069844F60001C4F2000188422AD0FFE7C3
:1053B000069844F60041C4F2000188422BD0FFE772
:1053C000069845F20001C4F2000188422CD0FFE7A4
:1053D000069843F60001C4F2010188422DD1FFE78F
:1053E00040F20E300590FEF7A1FD0598FEF78AFD0C
:1053F00024E040F211400490FEF798FD0498FEF777
:1054000081FD1BE040F212400390FEF78FFD0398F0
:10541000FEF778FD12E040F213400290FEF786FDA1
:105420000298FEF76FFD09E040F214400190FEF78C
:105430007DFD0198FEF766FD00E0FFE708B080BD46
:1054400081B000900099C86840F40050C86001B075
:105450007047000083B00190ADF802100198BDF8CC
:10546000021089094058BDF8021001F01F01C84020
:10547000C00720B1FFE701208DF80B0003E00020FA
:105480008DF80B00FFE79DF80B0003B0704700009C
:1054900082B00190ADF80210BDF8020000F01F02CA
:1054A000012101FA02F30199820988589843885032
:1054B00002B0704782B00190ADF80210BDF8020052
:1054C00000F01F02012101FA02F3019982098858B4
:1054D0001843885002B0704783B0029001910020B9
:1054E00000900298C0680090009820F0040000909E
:1054F000019900980843009000980299C86003B091
:105500007047000083B00290019100200090029843
:10551000C0680090009820F0080000900199009861
:105520000843009000980299C86003B070470000DB
:1055300080B582B04FF4C060FEF7D0FC40F20B6043
:10554000FEF7CCFC40F60000C4F2010006214FF447
:105550008072FDF7ADFE68460021016042F6004012
:10556000C4F201000F221423FEF740FA02B080BDFE
:1055700080B586B00590059840788DF811000598A3
:1055800000788DF81200059880788DF813000020BF
:105590000390FFE7039802284BD8FFE7082002900A
:1055A000FFE7029800283FD0FFE703990DF11100B3
:1055B000405C02990139C840C00750B1FFE742F68C
:1055C0000040C4F20100002140F6B832FEF76AF94B
:1055D00009E042F60040C4F2010000214FF47A7263
:1055E000FEF760F9FFE742F60040C4F20100FFF762
:1055F00001FAFFE742F60040C4F201000121FFF783
:105600000DFA08B9FFE7F5E742F60040C4F20100E1
:105610000190FFF7E5F901980121FFF7F5F9FFE7A0
:10562000029801380290BCE7FFE70398013003902D
:10563000B0E706B080BD00000FB4054B10B503A95C
:10564000044A029800F022F910BC5DF814FB000037
:1056500011300008000000200FB4084B10B504A959
:1056600002AA039800F012F9044602A9002000F0F3
:10567000A4FC204610BC5DF814FB0000BB5F0008D2
:10568000004870470400002030B583B0044600F0A5
:1056900017F89FED090B05468DED000B0123002245
:1056A00021466846FAF781FE284600F01FF89DED76
:1056B000000B03B030BD000000000000000000003F
:1056C00001480068704700000400002002E008C89C
:1056D000121F08C1002AFAD170477047002001E06C
:1056E00001C1121F002AFBD1704700000149086068
:1056F00070470000040000202DE9FF5F82B0002108
:10570000DDE90430020DDDF840B0034318D044F663
:105710001050A2F2FF3242431514119801281FD0F5
:10572000A5EB0B00401C5FEA000A4FF000064E4F4D
:10573000DFF83891B046504615D5CAF1000413E0A1
:10574000119801244AA3012801D16FEA0B010298A4
:10575000119AC0E90031C0E9024206B0BDE8F09FED
:10576000CBF10000DFE704460021404A491842EB34
:105770000450CDE9001012E0E00707D032463B4666
:1057800040464946FAF72EFD8046894632463B465A
:1057900010461946FAF726FD06460F466410002CFF
:1057A000EAD1DDE90401DDE90023BAF1000F06DAF0
:1057B000FAF718FD42464B46FAF714FD05E0FAF7F2
:1057C0009CFF42464B46FAF798FF04460E460022DD
:1057D000284BFBF719F803D84FF0FF30014607E0DC
:1057E0000022254B20463146FAF7E0FEFAF7F4FF97
:1057F000102409E0002C0ADB0A220023FAF7B4FC8B
:10580000039B30321A55641E50EA0102F2D1641C27
:10581000039AC4F111031444119A012A03D00122FE
:1058200008430DD10AE0084304D000204FF0110BCB
:10583000119072E7A3EB0B056D1E0DE05B4504DDD7
:105840004FF0000205F1010504E003DA4FF0000219
:10585000A5F10105002AECD002981199C0E90231A6
:10586000C0E9004579E70000000014400000F03F67
:10587000300000000000F0430000E03F30380A280C
:1058800001D2012070470020704700002DE9FF4F32
:1058900095B09B468946064600250FE2252877D11C
:1058A00000242746F84A0121059400E0044316F835
:1058B000013F203B01FA03F01042F7D130782A284B
:1058C00011D06FF02F033078A0F13002092A16D8DA
:1058D000059A44F0020402EB820203EB42021044F8
:1058E000761C0590EFE759F8042B0592002A03DA9D
:1058F000504244F40054059044F00204761C307881
:105900002E2816D116F8010F44F004042A280DD0D1
:105910006FF02F023078A0F13003092B09D807EB84
:10592000870302EB4303C718761CF3E759F8047B9F
:10593000761C30786C280FD006DC4C2817D06828ED
:105940000DD06A2814D104E0742810D07A280FD121
:105950000DE044F400140AE044F4801401E044F43F
:1059600040147278824202D104F58014761C761CB1
:10597000307866280BD013DC582877D009DC002853
:1059800075D04528F6D04628F4D047281AD19DE195
:1059900018E0632835D0642879D0652812D195E1C4
:1059A000702873D008DC6728F1D069286FD06E2882
:1059B0000DD06F2806D1B5E073282CD0752875D08E
:1059C000782874D05A46179990476D1C75E1C4F336
:1059D0000250022809D003280DD0D9F8001004285D
:1059E0000DD00D6009F1040967E1D9F80010EA173C
:1059F000C1E90052F6E7D9F800100D80F2E70D700A
:105A0000F0E719F8041B8DF8001000208DF8010054
:105A1000EA46012003E059F804AB4FF0FF3061077C
:105A20004FF0000102D40DE008F101018846B942AF
:105A30000FDA8045F8DB1AF808100029F4D108E0E5
:105A400008F1010188468142FADB1AF808100029A2
:105A5000F6D105985B46A0EB080721463846179A11
:105A600000F094FA284400EB080507E04DE029E136
:105A70000DE01AF8010B5A4617999047B8F1010842
:105A8000F7D25B4621463846179A13E142E00A22D4
:105A90000092C4F302524FF0000A022A08D059F8CB
:105AA00004CB032A4FEAEC710AD00DE029E02AE08A
:105AB00009F1070121F00702F2E802C1914609E06D
:105AC0000FFA8CFC4FEAEC71042A03D14FFA8CFCDC
:105AD0004FEAEC71002907DA0A460021DCF1000CDC
