:020000040800F2
:100000003809002045010008C50300081F02000848
:1000100079030008B9010008010800080000000089
:1000200000000000000000000000000021040008A3
:10003000E70100080000000019040008250400087A
:100040005F0100085F0100085F0100085F01000810
:100050005F0100085F010008E9010008ED010008E8
:10006000EF010008F1010008F30100085F0100083A
:100070005F0100085F0100085F0100085F010008E0
:100080005F0100085F0100085F0100085F010008D0
:100090005F0100085F0100085F010008F50100082A
:1000A0005F0100085F0100085F0100080D050008FE
:1000B0000F050008110500081305000823020008B9
:1000C0005F010008250200085F0100081B0400080A
:1000D0001D040008FB070008FD070008FF070008D3
:1000E000EB0100085F0100085F0100085F010008E4
:1000F0005F0100085F0100081B0500085F010008A0
:100100005F0100085F010008150500081F040008D2
:10011000F7070008F9070008170500081905000887
:100120005F0100085F0100085F0100085F0100082F
:10013000DFF80CD000F02EF8004800472D1400081E
:10014000380900200648804706480047FEE7FEE7DA
:10015000FEE7FEE7FEE7FEE7FEE7FEE7FEE7FEE777
:10016000650400083101000830B50B460146002047
:100170002022012409E021FA02F59D4205D303FA69
:1001800002F5491B04FA02F52844151EA2F10102EA
:10019000F1DC30BD064C074D06E0E06840F001039D
:1001A00094E8070098471034AC42F6D3FFF7C4FF39
:1001B0001C2800083C28000800BFFEE738B500F006
:1001C0001AF804466946312000F0EAF9012000F0EF
:1001D00043FE9DF8000000F00100A04201D1012083
:1001E00038BD0020FCE77047704770477047704784
:1001F00070477047704738B56946302000F0D0F935
:100200009DF8000000F0100000909DF80000001123
:1002100008B9012000E000200446204638BD00BF98
:10022000FEE770477047000070B500250A244022A1
:100230000421494800F038FF80220521464800F09B
:1002400033FF7FE087224549012000F0A9FA6420AE
:100250001E282AD008DC022851D0052844D00A28BC
:1002600037D0142856D129E0322815D042280AD098
:1002700064284FD165215E2000F0AEFA872161200D
:1002800000F0AAFA4FE01D215E2000F0A5FA272118
:10029000612000F0A1FA46E051215E2000F09CFAB6
:1002A0006E21612000F098FA3DE0D6215E2000F03A
:1002B00093FA6E21612000F08FFA34E04FF4D77189
:1002C0005E2000F089FA4FF4F471612000F084FAA6
:1002D00029E040F2E1215E2000F07EFA4FF46271E5
:1002E000612000F079FA1EE040F2E1315E2000F07A
:1002F00073FA40F29641612000F06EFA13E040F28A
:1003000091515E2000F068FA40F2C151612000F086
:1003100063FA08E065215E2000F05EFA8721612023
:1003200000F05AFA00BF00BFFFF748FF0546601E05
:10033000C4B2002C03DC0AA000F064FA05E06420DB
:1003400000F08AFD002D3FF47DAF00BF2121862003
:1003500000F01EFA70BD0000000C01406B00002090
:10036000544F463430304320496E697420457272D0
:100370006F72210D0A00000000BFFEE700B5DFED3F
:100380000B1A9FED0B1ADFED0B0A9FED0B0A0B48C2
:1003900000F02EF8DFED051A9FED051ADFED050AD6
:1003A0009FED050A064800F023F800BD00C0DA45BD
:1003B000CDCCCC3DCDCC4C3ECDCC4C3FF804002038
:1003C000100500207047000010B5002807DA0A0762
:1003D000140E054A00F00F031B1FD45403E00A0754
:1003E000130E024A135410BD18ED00E000E400E0C3
:1003F00080ED000AC0ED010A80ED021A9FED052A8A
:1004000080ED032A9FED032A80ED042AC0ED051A32
:100410007047000000000000704770477047704749
:100420007047000010B507480068401C0549086087
:100430000846006820B90020086003A000F0E2F937
:1004400010BD00003C000020675F6D696C6C697333
:10045000B7A2C9FAD2E7B3F6A3ACD0E8B5F7D5FB9B
:100460000A00000008B52648006840F470002449DE
:1004700008602448006840F001002249086000BF7D
:100480002048006800F002000028F9D000BF1D4895
:10049000406840F080001B4948600020009002E066
:1004A0000098401C009000985028F9D315484068E7
:1004B00040F09000134948600020009002E000984E
:1004C000401C009000985028F9D300BF0D484068A8
:1004D00020F003000B494860084600680A490840BC
:1004E000084908604FF41F0088600846006820F43F
:1004F0008020086000204860C86201F0B5FB08BD9C
:1005000088ED00E000100240FFFFF6FE70477047E4
:1005100070477047704770477047704770B5064620
:100520000024002240211D4800F038FD012000F089
:1005300093FC01228021194800F030FD00251DE0C8
:10054000012000F089FC00224021144800F026FD23
:10055000012000F081FC01224021104800F01EFD26
:10056000012000F079FC6006040E80210B4800F0A9
:1005700028FD08B1601CC4B2681CC5B2082DDFDBC1
:1005800000224021054800F009FD012000F064FC34
:10059000304600F03BF8204670BD0000000C0140E2
:1005A00070B504460D4601222946204600F001F8A8
:1005B00070BD2DE9F04105460E461746002400F0B7
:1005C0004FF8522000F0B6F8C5F3072000F0B2F85B
:1005D000E8B200F0AFF800F043F8532000F0AAF8BA
:1005E00000BF0DE0781EA04204D00120FFF796FF67
:1005F000305503E00020FFF791FF3055601CC4B276
:10060000BC42EFD300F04AF8BDE8F08110B50446D3
:1006100000224021114800F0C1FC012000F01CFC28
:100620002CB1002280210D4800F0B8FC04E001222A
:1006300080210A4800F0B2FC01224021074800F066
:10064000ADFC012000F008FC00224021034800F02E
:10065000A5FC012000F000FC10BD0000000C0140D2
:1006600010B5012240210C4800F098FC01228021A5
:10067000094800F093FC012000F0EEFB00228021ED
:10068000054800F08BFC012000F0E6FB0022402131
:10069000014800F083FC10BD000C014010B50022A1
:1006A00040210E4800F07AFC002280210B4800F027
:1006B00075FC012000F0D0FB01224021074800F02A
:1006C0006DFC012000F0C8FB01228021034800F0EE
:1006D00065FC012000F0C0FB10BD0000000C0140D3
:1006E00010B500224021124800F058FC012000F013
:1006F000B3FB012240210E4800F050FC012000F025
:10070000ABFB80210A4800F05CFC30B101224021A3
:10071000074800F043FC002010BD0022402104489F
:1007200000F03CFC012000F097FB0120F4E7000002
:10073000000C014070B5044608251FE004F080005D
:1007400028B101228021114800F028FC04E0002299
:1007500080210E4800F022FC6006040E012000F00B
:100760007BFB01224021094800F018FC012000F029
:1007700073FB00224021054800F010FC281EA5F163
:100780000101CDB2DAD1FFF7ABFF70BD000C014023
:1007900013B50446012201A9204600F001F81CBD52
:1007A00070B504460D461646FFF75AFF5220FFF774
:1007B000C1FFC4F30720FFF7BDFFE0B2FFF7BAFFA8
:1007C00003E015F8010BFFF7B5FF301EA6F1010697
:1007D000F7D1FFF763FF70BD38B505460C46200A18
:1007E0008DF80000E0B28DF801000222694628462B
:1007F000FFF7D6FF38BD70477047704770477047A6
:1008000000BFFEE70FB4054B10B503A9044A0298D8
:1008100000F018F810BC5DF814FB0000790F000818
:10082000F400002002E008C8121F08C1002AFAD113
:1008300070477047002001E001C1121F002AFBD160
:10084000704700002DE9FF4F89B09B460446002504
:1008500006E025280BD05A460B999047641C6D1C66
:1008600020780028F5D10DB02846BDE8F08F00278C
:10087000B8460122474900E0074314F8013F203BF6
:1008800002FA03F00842F7D120782E2819D114F883
:10089000010F47F004072A280ED06FF02F022078AE
:1008A000A0F1300109290CD808EB880102EB4101C5
:1008B00000EB0108641CF2E70A98641C50F8048BF2
:1008C0000A9020780028CED0642808D0692806D065
:1008D00075281ED05A460B9990476D1C58E00A990E
:1008E0004FF00A0901C90A91002802DA40422D217D
:1008F00002E0390504D52B218DF82010012103E0F9
:10090000F90704D02021F7E78A4608AE0DE0002160
:10091000FAE70A994FF00A0901C90A91F7E749462F
:10092000FFF722FC303106F8011D0028F7D1ADEBAE
:10093000060000F12009780701D44FF00108C845EE
:1009400002DDA8EB090000E000208046002706E059
:1009500008A85A46C05D0B9990476D1C7F1C5745EF
:10096000F6DB04E030205A460B9990476D1CB8F135
:100970000001A8F10108F5DC05E016F8010B5A4664
:100980000B9990476D1CB9F10001A9F10109F4DC44
:10099000641C65E709280100816841F00801816055
:1009A00000BF816801F008010029FAD1816841F097
:1009B0000401816000BF816801F004010029FAD1BF
:1009C000704770B504460D462946204600F078F879
:1009D00070BD21B1826842F40062826003E08268E7
:1009E00022F400628260704710B504461348204428
:1009F00030B1B0F5806F0CD0B0F5C05F1BD111E005
:100A000040F2093001F08CF840F2093001F078F83A
:100A100012E040F20A3001F083F840F20A3001F0AF
:100A20006FF809E040F20F3001F07AF840F20F3031
:100A300001F066F800E000BF00BF10BD00DCFEBFA3
:100A4000816801F0010119B9816841F001018160FB
:100A5000704772B101F001031BB1836843F4801346
:100A6000836001F0020393B1836843F40043836021
:100A70000DE001F001031BB1836823F48013836050
:100A800001F002031BB1836823F4004383607047C5
:100A9000012902D0022910D107E0836823F46023E2
:100AA000836083681343836008E0836823F4E04332
:100AB000836083681343836000E000BF00BF70471A
:100AC00070B505460C464FF4C06001F009F801F01E
:100AD000E3F86CB1012C0BD0022C09D0032C07D009
:100AE000042C05D0052C03D0062C01D0072C04D1F2
:100AF00040F2026000F0F4FF18E0082C01D0092C4D
:100B000004D140F2036000F0EBFF0FE00A2C09D0A3
:100B10000B2C07D00C2C05D00D2C03D00E2C01D0A3
:100B20000F2C03D140F2046000F0DAFF34B9012346
:100B300003220021654800F050FA85E0012C06D11F
:100B4000022303220021614800F047FA7CE0022CD6
:100B500006D10423032200215C4800F03EFA73E032
:100B6000032C06D1082303220021584800F035FA4F
:100B70006AE0042C06D1102303220021534800F020
:100B80002CFA61E0052C06D12023032200214F48D6
:100B900000F023FA58E0062C06D14023032200215E
:100BA0004A4800F01AFA4FE0072C06D180230322AE
:100BB0000021464800F011FA46E0082C06D1012336
:100BC00003220021424800F008FA3DE0092C06D13A
:100BD0000223032200213E4800F0FFF934E00A2CF2
:100BE00006D10123032200213A4800F0F6F92BE058
:100BF0000B2C06D1022303220021364800F0EDF928
:100C000022E00C2C06D1042303220021314800F0FD
:100C1000E4F919E00D2C06D10823032200212D4808
:100C200000F0DBF910E00E2C06D110230322002186
:100C3000284800F0D2F907E00F2C05D12023032229
:100C40000021244800F0C9F92348854204D140F22C
:100C5000096000F045FF0EE02048854204D140F2D3
:100C60000A6000F03DFF06E01D48854203D140F2D6
:100C70000F6000F035FF022000F050FE2846FFF71D
:100C8000B3FE00220221284600F02CF800224FF487
:100C90008071284600F026F800212846FFF799FECB
:100CA0004FF4602201212846FFF7F2FE012211468F
:100CB0002846FFF7CEFE2846FFF7C2FE012000F0CF
:100CC000BDF82846FFF768FE70BD0000000801402F
:100CD000000C0140001001400024014000280140A8
:100CE000003C0140AAB101F480731BB1436843F496
:100CF0008073436001F480631BB1436843F48063F5
:100D0000436001F00203CBB1836843F002038360C8
:100D100014E001F480731BB1436823F480734360D3
:100D200001F480631BB1436823F48063436001F0E6
:100D300002031BB1836823F0020383607047000045
:100D400010B50446012C09D1020204210A4800F022
:100D5000ABF901221102084800F020F9022C09D158
:100D600022020421044800F09FF9012251020248A6
:100D700000F014F910BD0000000C014010B505484A
:100D800001F00AFD034801F007FD322000F056F89B
:100D900010BD00000000002010B500F07DFF2548C8
:100DA00001F022FB0A212448FFF70BFE0B21224809
:100DB000FFF707FE0C212048FFF703FE0D211E4818
:100DC000FFF7FFFD0F211C48FFF7FBFD012000F09E
:100DD000F1FA022000F0EEFA032000F0EBFA042012
:100DE00000F0E8FA052000F0E5FA062000F0E2FA4B
:100DF00000F0A6FE002000F01DFB012000F01AFB11
:100E000000F058F8FFF7BAFA01F0AAFCFFF7B6FFB6
:100E100001F0D4FBFFF708FA00F07CFB00F06CFB5C
:100E200000F0C7FA0120FFF78BFF0220FFF788FFD1
:100E300010BD0000003801400024014000B9704797
:100E4000044A116800BF034A1268521A8242FAD358
:100E500000BFF4E73C00002030B5014601B930BDC9
:100E60004FF0E0239A69104B1B6801FB03F40F4B12
:100E70001B684B430E4DB3FBF5F31C4420460FE0BB
:100E80004FF0E025AB69934202D8D51A401B05E02C
:100E90004FF0E0256D69ED1A1544401B1A4600BF5E
:100EA0000028EDDC00BFDAE7480000204C000020FD
:100EB00040420F0000B587B003A801F08AFA002075
:100EC000ADF80C00ADF80E00ADF810004FF6FF7055
:100ED00005900020ADF8120040F2026000F000FE24
:100EE000C32303220421214800F077F84FF4E06087
:100EF00000F0F6FD03A94FF0804001F04FF9002308
:100F00001A4603214FF0804001F043FA184903C903
:100F1000CDE9010101AA00214FF0804001F08AF9DA
:100F200001AA0121880701F085F94FF0804001F006
:100F300024F940F2017000F0D3FD03A90D4801F03F
:100F40002DF900231A4603210A4801F022FA01AACA
:100F50000021084801F06EF901AA0121054801F0BD
:100F600069F9044801F009F907B000BD0008014023
:100F7000142800080004004070B504460D46E1B294
:100F8000054801F07DFB00BF0721034801F0C9FBC4
:100F90000028F9D0204670BD0038014070B50546E4
:100FA0000E46144624B13146284600F008F803E006
:100FB0003146284600F001F870BD4161704701617B
:100FC000704770B504460D462946204600F063F888
:100FD00008B1012070BD0020FCE7F0B504461646BC
:100FE0000025002201F00F0501F0100747B1042E83
:100FF00005D145F00305E76B1F43E76300E0354388
:1010000000201EE0012787401F40C7B122684FEA39
:10101000800C0F2707FA0CF7BA43870005FA07F789
:101020003A43282904D1012787401F40676105E022
:10103000482903D1012787401F4027612260471CB0
:10104000B8B20828DED3082022E0012787401F40DD
:10105000E7B16268A0F108074FEA870C0F2707FA8B
:101060000CF7BA43A0F10807BF0005FA07F73A43A7
:10107000282904D1012787401F40676105E04829DE
:1010800003D1012787401F4027616260471CB8B227
:101090001028DAD3F0BD02469068084008B101205C
:1010A00070470020FCE7000070B505460C46164668
:1010B0003E48854204D140F2026000F011FD2EE06E
:1010C0003B48854204D140F2036000F009FD26E070
:1010D0003848854204D140F2046000F001FD1EE072
:1010E0003548854204D140F2056000F0F9FC16E075
:1010F0003248854204D140F2066000F0F1FC0EE077
:101100002F48854204D140F2076000F0E9FC06E078
:101110002C48854203D14FF4C16000F0E1FC34B9A2
:101120003346032200212846FFF757FF3DE0012CFC
:1011300006D13346032204212846FFF74EFF34E050
:10114000022C06D13346032228212846FFF745FF0B
:101150002BE0032C06D13346032248212846FFF713
:101160003CFF22E0042C06D13346032210212846FE
:10117000FFF733FF19E0052C06D133460322142173
:101180002846FFF72AFF10E0062C06D1334603223B
:1011900018212846FFF721FF07E0072C05D1334629
:1011A00003221C212846FFF718FF70BD00080140EC
:1011B000000C0140001001400014014000180140E3
:1011C000001C0140002001400A460021016821F472
:1011D00080611143016070472DE9F05F04460E46BF
:1011E00092460EB900BFFEE7022000F0CDFB074695
:1011F0004648B7FBF0F8B8F13C0F01D34FF03C087C
:10120000D4F804B02BF07F0B4BEA080BC4F804B001
:101210003F4886421ED83D48B7FBF0F000F1010977
:10122000B9F13C0F02D33C20206207E0B9F1020F74
:1012300002D80220206201E0C4F820907000B7FBC1
:10124000F0F5042D00D20425E069C5F30B01084335
:10125000E06158E02F4886422CD84FF4967008FB86
:1012600000F04FF47A71B0FBF1F0401C2062BAF14B
:10127000000F08D106EB4600B7FBF0F5E06920F45B
:101280008040E06109E006EBC60000EB0610B7FB0A
:10129000F0F5E06940F48040E061C5F30B0008B967
:1012A00045F00105E06940F40040E061E069284351
:1012B000E06128E0C8EB0810C0004FF47A71B0FB81
:1012C000F1F0401C2062BAF1000F08D106EB460095
:1012D000B7FBF0F5E06920F48040E06109E006EB3F
:1012E000C60000EB0610B7FBF0F5E06940F4804063
:1012F000E061E06940F40040E061E0692843E061BA
:101300000120C4F89000BDE8F09F000040420F00AB
:10131000A0860100801A0600CAB202617047016807
:1013200041F001010160704710B540F20152914255
:1013300002D1426982690AE000EB9112126801F061
:101340001F040123A3409A4300EB91131A6010BDC0
:1013500010B5024602EB9110006801F01F04012352
:10136000A340184008B1012010BD0020FCE712F195
:10137000020F02D121F0010101E041F00101016100
:10138000704730B50C460021016821F0020121436D
:101390000160C3F3090342EA0305856030BD0168BB
:1013A00041F4807101607047016841F4007101608F
:1013B0007047704710B50446012C05D11022032157
:1013C0001648FFF771FE27E0022C05D1A202032187
:1013D0001248FFF769FE1FE0032C05D1012203210B
:1013E0000F48FFF761FE17E0042C05D1022203210C
:1013F0000B48FFF759FE0FE0052C06D14FF4805241
:1014000003210848FFF750FE06E0062C04D1042211
:1014100003210548FFF748FE10BD00000008014009
:10142000000C01400010014000140140FFF7B4FC23
:1014300000BFFEE738B5044604BB4FF40072062136
:101440001E48FFF731FE4FF4807206211B48FFF75C
:101450002BFE4FF0804000F01DFE00206423782218
:1014600003210090164800F0B3F90020642378228D
:1014700002210090124800F0ABF91EE0012C1CD1B3
:10148000802206210D48FFF70FFE402206210B485F
:10149000FFF70AFE0B4800F0FDFD002064237822D0
:1014A00001210090064800F093F90020642378227F
:1014B00001460090024800F08BF938BD0010014051
:1014C000003401400004004070B500240CE0002509
:1014D00006E00020074901EBC5010855681CC5B2AC
:1014E000802DF6DB601CC4B2082CF0DB00F0A2F803
:1014F00070BD0000F800002010B500218D2000F024
:101500000BF90021142000F007F90021AF2000F0B2
:1015100003F910BD10B540F2036000F0E1FA40F2AB
:10152000167000F0DDFA4FF4406303221C213E48A0
:10153000FFF753FD00223D493D48FFF74DFE78235C
:10154000002211463A48FFF71CFF3948FFF7E7FE33
:101550004FF480613648FFF737FE4FF44870FFF7CD
:101560006DFC0021AE2000F0D7F80021084600F005
:10157000D3F80021102000F0CFF80021402000F027
:10158000CBF80021B02000F0C7F80021812000F046
:10159000C3F80021FF2000F0BFF80021A12000F0D7
:1015A000BBF80021A62000F0B7F80021A82000F029
:1015B000B3F800213F2000F0AFF80021C82000F070
:1015C000ABF80021D32000F0A7F80021084600F076
:1015D000A3F80021D52000F09FF80021802000F022
:1015E0009BF80021D82000F097F80021052000F09A
:1015F00093F80021D92000F08FF80021F12000F0AD
:101600008BF80021DA2000F087F80021122000F08A
:1016100083F80021DB2000F07FF80021302000F06B
:101620007BF8FFF751FF10BD000C0140A0860100C0
:101630000058004070B500241CE004F1B001C8B2AD
:10164000002100F069F80021084600F065F800214B
:10165000102000F061F8002508E0084901EBC50101
:10166000085D012100F058F8681CC5B2802DF4DB3C
:10167000601CC4B2082CE0DB70BD0000F800002044
:101680002DE9F04105460E46174600BF40F20161C4
:101690002048FFF75DFE0028F8D11E48FFF77FFEC7
:1016A00000BF4FF4A0611B48FFF752FE0028F8D09E
:1016B0006FF0010229461748FFF759FE00BF40F2BC
:1016C00001511448FFF744FE0028F8D040F20151C0
:1016D0001048FFF729FE00240DE0315D0D48FFF7AB
:1016E0001BFE00BF40F207510A48FFF731FE0028F9
:1016F000F8D0601CC4B2BC42EFD30648FFF754FEDA
:1017000000BF0448006800F400700028F9D1BDE86B
:10171000F08100000058004038B504460D4655B130
:1017200040208DF800008DF80140022269467820A3
:10173000FFF7A6FF09E000208DF800008DF80140BA
:10174000022269467820FFF79BFF38BD2DE9F04162
:1017500004460E4617461848844202D117480588A9
:101760001CE0B4F1804F02D11448458816E01448BB
:10177000844202D11148858810E01248844202D187
:101780000E48C5880AE01048844202D10B480589FA
:1017900004E00E48844201D10848458907FB05F062
:1017A00042F2107190FBF1F8B1B24246204600F0CF
:1017B00030FCBDE8F0810000002C0140280500202D
:1017C0000004004000080040000C004000340140CC
:1017D0002DE9F04387B005460F4616461C46DDF856
:1017E00038904FF4C06000F07BF94648854209D13B
:1017F000012100F0C2FD40F20B6000F071F9424897
:10180000048033E0B5F1804F06D14FF4E06000F082
:1018100067F93D48448029E03C48854206D140F2C2
:10182000017000F05DF9384884801FE03848854237
:1018300006D140F2027000F053F93348C48015E03D
:101840003448854206D140F2037000F049F92E4831
:1018500004810BE03048854208D1012100F08DFD64
:1018600040F20D6000F03CF927484481701E80B2C0
:10187000ADF80C000020ADF80E001020ADF81000FF
:10188000601E05900020ADF812008DF8180003A925
:10189000284600F083FC0020ADF804000120ADF8DC
:1018A00000000020ADF80600ADF80200ADF8080019
:1018B000ADF80A006A463946284600F087FA09FB67
:1018C00004F042F2107190FBF1F842463946284686
:1018D00000F09FFB60223946284600F06DFB002295
:1018E0003946284600F0A8FB0121284600F045FDB6
:1018F000284600F039FA284600F03FFC07B0BDE862
:10190000F0830000002C0140280500200004004066
:1019100000080040000C004000340140184B59689A
:10192000184B1940164BDA6A22F000520C2820D2CC
:10193000DFE800F0060708091F0C1F0D1516171821
:1019400000BF00BF00BF41EA803113E000BF20F0BC
:1019500004004FF0805343EA803319430AE000BF8C
:1019600000BF00BF20F00C0041EA803142F000527D
:1019700000E000BF00BF024B5960DA627047000010
:1019800000100240FF3FFFEF2DE9F04F8CB00746FB
:1019900000200A904AA090E8004CC068CDE905BE3E
:1019A000CDF810A007900FF21C1ADAE9000ACDE971
:1019B000020A0FF2101ADAE9000ACDE9000A4448D7
:1019C0004068C0F381000B900B9820B1012804D02F
:1019D00002283FD103E03F4A3EE03E4A3CE03C481B
:1019E000406800F4803CBCF5803F12D13848C06AA2
:1019F00000F08048B8F1000F01D1364B00E0364BC3
:101A00003348406800F40039B9F5003F02D15B0863
:101A100000E0324B2E484068C0F383412C484068B8
:101A200000F0006008B141F010012948406800F062
:101A3000804008B141F020010F2901D2891C06E045
:101A40000F2903D33E2901D8491C00E03F2103FBA5
:101A500001F201E01F4A00BF00BF1D484068C0F30B
:101A6000031504A8465D22FA06F419484068C0F33D
:101A7000022502A8465D24FA06F009901448406841
:101A8000C0F3C2251DF8056024FA06F0089037B1AE
:101A9000012F06D0022F06D0032F0AD106E00A92AA
:101AA00008E00A9406E009980A9003E008980A9072
:101AB00000E000BF00BF0A980CB0BDE8F08F000046
:101AC00000000000000000000102030406070809EE
:101AD0000010024000127A00006CDC0200093D0098
:101AE000064A02EB9011096800F01F0301229A4098
:101AF0001143024B03EB901211607047001002403B
:101B0000064A02EB9011096800F01F0301229A4077
:101B10009143024B03EB901211607047001002409A
:101B2000064A02EB9011096800F01F0301229A4057
:101B30001143024B03EB90121160704700100240FA
:101B400010B5202203210248FFF7AEFA10BD0000B5
:101B500000080140002000213F4A126842F4803210
:101B60003D4B1A6000BF401C3B4A126802F4003132
:101B700019B94FF6FF729042F5D1374A126802F454
:101B800000320AB900BFFEE7334AD26942F0805200
:101B9000314BDA61314A126842F440422F4B1A60ED
:101BA0002D4A52682C4B5A601A4652685A601A469F
:101BB000526842F480625A601A46526822F44032F7
:101BC0005A601A46526842F440325A601A465268C5
:101BD000234B1A40204B5A601A465268214B1A4335
:101BE0001D4B5A601A46126842F080721A6000BF9C
:101BF000194A126802F00072002AF9D0174A1268D6
:101C000042F48032154B1A6000BF144A526802F445
:101C10008032002AF9D0114A126842F400320F4B88
:101C20001A6000BF0D4A526802F40032002AF9D04F
:101C3000094A526822F00302074B5A601A4652685A
:101C400042F002025A6000BF034A526802F00802E2
:101C5000002AF9D0704700000010024000700040D8
:101C6000FFFFC3B70000340810B5FFF773FF10BDC6
:101C7000042808D14FF0E021096941F004014FF038
:101C8000E022116107E04FF0E021096921F0040131
:101C90004FF0E0221161704770B56FF00400FFF75C
:101CA000E7FF20480068C0081F4908600846006830
:101CB0001E49B0FBF1F01E4908601B4800681B4933
:101CC000B0FBF1F201FB12001A49086016480068E7
:101CD0004FF47A71B0FBF1F4B4F1807F02D316A017
:101CE000FEF790FD2546681EB0F1807F01D30120EC
:101CF0000FE0681E4FF0E02148610F214FF0FF30E8
:101D0000FEF762FB00204FF0E021886107200861A8
:101D1000002010B111A0FEF775FD0021481EFEF74E
:101D200053FB70BD1C0000204400002040420F0007
:101D3000480000204C000020CAB1D6D3B9FDB8DF5E
:101D4000A3ACCEDEB7A8C5E4D6C3316D73D6D0B68A
:101D5000CFA3ACD0E8B5F7D5FB0A0000C5E4D6C3E5
:101D6000CAA7B0DC0A000000016841F080010160F0
:101D7000704731B101290CD0022913D0032922D197
:101D800018E0836923F00C03836183691343836143
:101D90001AE0836923F440638361836943EA022381
:101DA000836111E0C36923F00C03C361C36913436A
:101DB000C36109E0C36923F44063C361C36943EAB3
:101DC0000223C36100E000BF00BF704710B531B10E
:101DD00001293FD002297DD003297CD1BFE0036ACD
:101DE00023F001030362836923F003038361036A21
:101DF000148823430362036A23F002030362036A25
:101E00009488234303626A4B984202D0694B9842FC
:101E10001FD1036A23F004030362036A5488234337
:101E20000362036A23F008030362036AD48823432E
:101E30000362436823F48073436043681489234337
:101E40004360436823F40073436043685489234329
:101E50004360ABE0036A23F010030362836923F459
:101E600040738361036A148843EA04130362036ABC
:101E700023F020030362036A948843EA0413036295
:101E80004B4B984202D04B4B984226D1036A23F029
:101E900040030362036A548843EA04130362036A3B
:101EA00023F080030362036AD48843EA04130362C5
:101EB000436823F4806343604368148943EA8403DE
:101EC0004360436823F4006343604368548943EAF2
:101ED000840301E002E068E0436067E0036A23F402
:101EE00080730362C36923F00303C361036A148828
:101EF00043EA04230362036A23F400730362036A60
:101F0000948843EA04230362294B984202D0294B68
:101F1000984223D1036A23F480630362036A5488DE
:101F200043EA04230362036A23F400630362036A3F
:101F3000D48843EA04230362436823F48053436054
:101F40004368148943EA04134360436823F400534D
:101F500043604368548943EA0413436026E0036AFC
:101F600023F480530362C36923F44073C361036A9B
:101F7000148843EA04330362036A23F400530362C0
:101F8000036A948843EA04330362094B984202D0FF
:101F9000084B984208D1436823F480434360436868
:101FA000148943EA8413436000E000BF00BF10BD02
:101FB000002C01400034014031B101290CD002292C
:101FC00013D0032922D118E0836923F070038361C1
:101FD0008369134383611AE0836923F4E0438361D7
:101FE000836943EA0223836111E0C36923F070032C
:101FF000C361C3691343C36109E0C36923F4E043C8
:10200000C361C36943EA0223C36100E000BF00BFAC
:10201000704731B1012906D0022906D0032908D121
:1020200005E0426306E0826304E0C26302E002640A
:1020300000E000BF00BF704731B101290CD0022978
:1020400013D0032922D118E0836923F008038361A8
:102050008369134383611AE0836923F40063836116
:10206000836943EA0223836111E0C36923F0080313
:10207000C361C3691343C36109E0C36923F4006307
:10208000C361C36943EA0223C36100E000BF00BF2C
:102090007047000010B504463349601A8C4244D0A2
:1020A0000CDCB4F1804F1CD03048204410B3B0F5A4
:1020B000806F28D0B0F5006F52D12DE0B0F5806F61
:1020C0003CD0B0F58E3F03D0B0F5923F48D13EE012
:1020D00040F20B30FFF724FD40F20B30FFF710FD0C
:1020E0003FE04FF48060FFF71BFD4FF48060FFF787
:1020F00007FD36E040F20140FFF712FD40F20140DB
:10210000FFF7FEFC2DE040F20240FFF709FD40F230
:102110000240FFF7F5FC24E040F20340FFF700FD2A
:1021200040F20340FFF7ECFC1BE040F20440FFF7F5
:10213000F7FC40F20440FFF7E3FC12E040F20540F8
:10214000FFF7EEFC40F20540FFF7DAFC09E040F251
:102150000D30FFF7E5FC40F20D30FFF7D1FC00E059
:1021600000BF00BF10BD00000010004000FCFFBF1A
:10217000016821F0010101607047016841F001012F
:1021800001607047CA430261704702461069084007
:1021900008B1012070470020FCE700000A88826235
:1021A0001D4A90420ED0B0F1804F0BD01B4A904296
:1021B00008D01B4A904205D01A4A904202D01A4ACF
:1021C00090420BD1026822F07002026002684B88D4
:1021D0001A43026002688B881A4302608A68C262EE
:1021E000124A90420AD0124A904207D0026822F462
:1021F000407202600268CB881A430260064A90422D
:1022000002D0094A904201D10A7B0263426942F03E
:102210000102426170470000002C014000040040B0
:1022200000080040000C0040003401400010004055
:102230000014004070B504460E46154636B1012E16
:1022400026D0022E48D0032E7DD168E0206A20F0EF
:1022500001002062206A20F00A002062206A29889A
:1022600008432062A06920F00300A061A06969888A
:102270000843A061A06920F0F000A061A069E9888E
:1022800040EA0110A061206A40F0010020626DE088
:10229000206A20F010002062206A20F0A000206256
:1022A000206A298840EA01102062A06920F4407069
:1022B000A061A069698840EA0120A061A06920F4BA
:1022C0007040A061A069E98840EA0130A061206AFD
:1022D00040F01000206249E0206A20F48070206203
:1022E000206A20F420602062206A298840EA0120C8
:1022F0002062E06920F00300E061E069698808433A
:10230000E061E06920F0F000E061E069E98840EA1E
:102310000110E061206A40F48070206226E0206AAB
:1023200020F480502062206A20F400502062206A4D
:10233000298840EA01302062E06920F44070E061C1
:10234000E069698800E010E040EA0120E061E069AE
:1023500020F47040E061E069E98840EA0130E06122
:10236000206A40F48050206200E000BF00BFAA88CD
:1023700031462046FFF7FDFC70BD012904D1426CB7
:1023800042F40042426403E0426C22F400424264A0
:10239000704730B5846824F00704846084680C4377
:1023A0008460846940F20335AC438461846940F2FF
:1023B00001152C438461046A24F00A040462046A4F
:1023C00024F0A0040462046A42EA03152C43046268
:1023D00030BD00210180418081804FF6FF71816016
:1023E0000021C180017370471CB504464FF4E130F1
:1023F0004FF48063034A5115CDE90040104600F0C8
:1024000003F81CBD000801402DE9F04705460F46C2
:1024100014469846DDE908694FF4C060FFF760FB99
:102420005A48864204D140F20E60FFF759FB1EE085
:102430005748864204D140F21170FFF751FB16E075
:102440005448864204D140F21270FFF749FB0EE077
:102450005148864204D140F21370FFF741FB06E079
:102460004E48864203D140F21470FFF739FB4C48C6
:10247000854204D140F20260FFF732FB2EE049486A
:10248000854204D140F20360FFF72AFB26E046486C
:10249000854204D140F20460FFF722FB1EE043486E
:1024A000854204D140F20560FFF71AFB16E0404870
:1024B000854204D140F20660FFF712FB0EE03D4872
:1024C000854204D140F20760FFF70AFB06E03A4874
:1024D000854203D14FF4C160FFF702FB3B46032264
:1024E00018212846FEF779FD2D48844204D140F298
:1024F0000260FFF7F5FA2EE02A48844204D140F248
:102500000360FFF7EDFA26E02748844204D140F249
:102510000460FFF7E5FA1EE02448844204D140F24B
:102520000560FFF7DDFA16E02148844204D140F24D
:102530000660FFF7D5FA0EE01E48844204D140F24F
:102540000760FFF7CDFA06E01B48844203D14FF441
:10255000C160FFF7C5FA4346032204212046FEF777
:102560003CFD304600F090F84946304600F040F817
:102570000421304600F0E4F80821304600F0E8F885
:10258000304600F0C9F8BDE8F0870000003801408F
:102590000044004000480040004C00400050004013
:1025A00000080140000C01400010014000140140EF
:1025B00000180140001C01400020014010B54FF4FC
:1025C000C060FFF78DFA4FF4006204210748FEF760
:1025D0006BFD00224FF400610448FEF7DFFC4FF46E
:1025E000806202210148FEF75FFD10BD001001402E
:1025F0002DE9F04704460D460027B846B9460026A7
:102600001D49601A8C421CD006DC1C48204470B165
:10261000B0F5806F1FD10FE0B0F5806F16D0B0F528
:102620006C4F18D10320FFF7AFF9074614E00220E2
:10263000FFF7AAF907460FE00220FFF7A5F90746C2
:102640000AE00220FFF7A0F9074605E00220FFF7A5
:102650009BF9074600E000BF00BF07EB5500B0FB49
:10266000F5F64FF6F07006EA000806F00F0948EAA2
:102670000900A060BDE8F087004C004000BCFFBF2F
:10268000C1F308024260704710B504462049601A41
:102690008C4228D006DC1F48204490B1B0F5806FF2
:1026A00033D117E0B0F5806F26D0B0F56C4F2CD148
:1026B00040F20E30FFF734FA40F20E30FFF720FA06
:1026C00024E040F21140FFF72BFA40F21140FFF7EF
:1026D00017FA1BE040F21240FFF722FA40F21240D4
:1026E000FFF70EFA12E040F21340FFF719FA40F23A
:1026F0001340FFF705FA09E040F21440FFF710FA23
:1027000040F21440FFF7FCF900E000BF00BF10BD2D
:10271000004C004000BCFFBFC16841F40051C160E3
:10272000704710B5024602EB9110006801F01F04DB
:102730000123A340184008B1012010BD0020FCE790
:102740000A460021C16821F004011143C1607047AD
:102750000A460021C16821F008011143C160704799
:1027600008B54FF4C060FFF7BBF940F20B60FFF70C
:10277000B7F94FF4807206210548FEF795FC00205A
:1027800014230F22014600900248FFF721F808BDEC
:1027900000080140002C0140F8B5044660788DF82F
:1027A000000020788DF80100A0788DF80200002547
:1027B0002AE0082625E01DF80500711E084100F0FA
:1027C000010030B140F6B83200211148FEF7BEFFDB
:1027D00005E04FF47A7200210D48FEF7B7FF0C4870
:1027E000FFF7CBFC00BF01210948FFF7CEFC002812
:1027F000F9D00748FFF7BCFC01210548FFF7C2FCF0
:10280000761E002ED7D16D1C032DD2D3F8BD00004B
:10281000002C01400000010000000F003C280008CF
:1028200000000020F80000002408000834290008F7
:10283000F8000020400800003408000800000000F4
:1028400000FF00FF0000FFFFFF0000FF00FFFFFF91
:1028500000FFFFFFA7C8E200000E270700000000EE
:1028600000FF00FF0000FFFFFF0000FF00FFFFFF71
:1028700000FFFFFFA7C8E20000000000000000000A
:102880000000000000000000000000000000000048
:1028900000FF00FF0000FFFFFF0000FF00FFFFFF41
:1028A00000FFFFFFA7C8E22902100025BC518109E3
:1028B000079300FFFF75FFFE0D00170100000000E9
:1028C000000000000000003000170A0000000000B7
:1028D00000000000000011020002080008100101C1
:1028E00000000000FF00020000000000200B0000BC
:1028F00002FF21000001000000008C000038FF01F1
:1029000000270034006507008705016800C008380B
:102910000000000099C80003000000000002070545
:102920000606030002C7FFDB0200000101210000D0
:0429300000000000A3
:0400000508000131BD
:00000001FF
